{
  "_format": "hh-sol-artifact-1",
  "contractName": "Custom1155Royal",
  "sourceName": "contracts/mocks/Custom1155Royal.sol",
  "abi": [
    {
      "inputs": [
        {
          "internalType": "address",
          "name": "proxy",
          "type": "address"
        }
      ],
      "stateMutability": "nonpayable",
      "type": "constructor"
    },
    {
      "anonymous": false,
      "inputs": [
        {
          "indexed": true,
          "internalType": "address",
          "name": "account",
          "type": "address"
        },
        {
          "indexed": true,
          "internalType": "address",
          "name": "operator",
          "type": "address"
        },
        {
          "indexed": false,
          "internalType": "bool",
          "name": "approved",
          "type": "bool"
        }
      ],
      "name": "ApprovalForAll",
      "type": "event"
    },
    {
      "anonymous": false,
      "inputs": [
        {
          "indexed": false,
          "internalType": "uint256",
          "name": "tokenId",
          "type": "uint256"
        },
        {
          "indexed": false,
          "internalType": "uint256",
          "name": "amount",
          "type": "uint256"
        },
        {
          "indexed": false,
          "internalType": "address",
          "name": "minter",
          "type": "address"
        }
      ],
      "name": "Minted",
      "type": "event"
    },
    {
      "anonymous": false,
      "inputs": [
        {
          "indexed": true,
          "internalType": "address",
          "name": "operator",
          "type": "address"
        },
        {
          "indexed": true,
          "internalType": "address",
          "name": "from",
          "type": "address"
        },
        {
          "indexed": true,
          "internalType": "address",
          "name": "to",
          "type": "address"
        },
        {
          "indexed": false,
          "internalType": "uint256[]",
          "name": "ids",
          "type": "uint256[]"
        },
        {
          "indexed": false,
          "internalType": "uint256[]",
          "name": "values",
          "type": "uint256[]"
        }
      ],
      "name": "TransferBatch",
      "type": "event"
    },
    {
      "anonymous": false,
      "inputs": [
        {
          "indexed": true,
          "internalType": "address",
          "name": "operator",
          "type": "address"
        },
        {
          "indexed": true,
          "internalType": "address",
          "name": "from",
          "type": "address"
        },
        {
          "indexed": true,
          "internalType": "address",
          "name": "to",
          "type": "address"
        },
        {
          "indexed": false,
          "internalType": "uint256",
          "name": "id",
          "type": "uint256"
        },
        {
          "indexed": false,
          "internalType": "uint256",
          "name": "value",
          "type": "uint256"
        }
      ],
      "name": "TransferSingle",
      "type": "event"
    },
    {
      "anonymous": false,
      "inputs": [
        {
          "indexed": false,
          "internalType": "string",
          "name": "value",
          "type": "string"
        },
        {
          "indexed": true,
          "internalType": "uint256",
          "name": "id",
          "type": "uint256"
        }
      ],
      "name": "URI",
      "type": "event"
    },
    {
      "inputs": [
        {
          "internalType": "address",
          "name": "account",
          "type": "address"
        },
        {
          "internalType": "uint256",
          "name": "id",
          "type": "uint256"
        }
      ],
      "name": "balanceOf",
      "outputs": [
        {
          "internalType": "uint256",
          "name": "",
          "type": "uint256"
        }
      ],
      "stateMutability": "view",
      "type": "function"
    },
    {
      "inputs": [
        {
          "internalType": "address[]",
          "name": "accounts",
          "type": "address[]"
        },
        {
          "internalType": "uint256[]",
          "name": "ids",
          "type": "uint256[]"
        }
      ],
      "name": "balanceOfBatch",
      "outputs": [
        {
          "internalType": "uint256[]",
          "name": "",
          "type": "uint256[]"
        }
      ],
      "stateMutability": "view",
      "type": "function"
    },
    {
      "inputs": [
        {
          "internalType": "uint256",
          "name": "id",
          "type": "uint256"
        }
      ],
      "name": "exists",
      "outputs": [
        {
          "internalType": "bool",
          "name": "",
          "type": "bool"
        }
      ],
      "stateMutability": "view",
      "type": "function"
    },
    {
      "inputs": [
        {
          "internalType": "address",
          "name": "_owner",
          "type": "address"
        },
        {
          "internalType": "address",
          "name": "_operator",
          "type": "address"
        }
      ],
      "name": "isApprovedForAll",
      "outputs": [
        {
          "internalType": "bool",
          "name": "",
          "type": "bool"
        }
      ],
      "stateMutability": "view",
      "type": "function"
    },
    {
      "inputs": [
        {
          "internalType": "string",
          "name": "tokenUri",
          "type": "string"
        },
        {
          "internalType": "uint256",
          "name": "amount",
          "type": "uint256"
        },
        {
          "internalType": "address",
          "name": "royaltyReceiver",
          "type": "address"
        },
        {
          "internalType": "uint96",
          "name": "royaltyPercentage",
          "type": "uint96"
        }
      ],
      "name": "mint",
      "outputs": [],
      "stateMutability": "nonpayable",
      "type": "function"
    },
    {
      "inputs": [
        {
          "internalType": "uint256",
          "name": "_tokenId",
          "type": "uint256"
        },
        {
          "internalType": "uint256",
          "name": "_salePrice",
          "type": "uint256"
        }
      ],
      "name": "royaltyInfo",
      "outputs": [
        {
          "internalType": "address",
          "name": "",
          "type": "address"
        },
        {
          "internalType": "uint256",
          "name": "",
          "type": "uint256"
        }
      ],
      "stateMutability": "view",
      "type": "function"
    },
    {
      "inputs": [
        {
          "internalType": "address",
          "name": "from",
          "type": "address"
        },
        {
          "internalType": "address",
          "name": "to",
          "type": "address"
        },
        {
          "internalType": "uint256[]",
          "name": "ids",
          "type": "uint256[]"
        },
        {
          "internalType": "uint256[]",
          "name": "amounts",
          "type": "uint256[]"
        },
        {
          "internalType": "bytes",
          "name": "data",
          "type": "bytes"
        }
      ],
      "name": "safeBatchTransferFrom",
      "outputs": [],
      "stateMutability": "nonpayable",
      "type": "function"
    },
    {
      "inputs": [
        {
          "internalType": "address",
          "name": "from",
          "type": "address"
        },
        {
          "internalType": "address",
          "name": "to",
          "type": "address"
        },
        {
          "internalType": "uint256",
          "name": "id",
          "type": "uint256"
        },
        {
          "internalType": "uint256",
          "name": "amount",
          "type": "uint256"
        },
        {
          "internalType": "bytes",
          "name": "data",
          "type": "bytes"
        }
      ],
      "name": "safeTransferFrom",
      "outputs": [],
      "stateMutability": "nonpayable",
      "type": "function"
    },
    {
      "inputs": [
        {
          "internalType": "address",
          "name": "operator",
          "type": "address"
        },
        {
          "internalType": "bool",
          "name": "approved",
          "type": "bool"
        }
      ],
      "name": "setApprovalForAll",
      "outputs": [],
      "stateMutability": "nonpayable",
      "type": "function"
    },
    {
      "inputs": [
        {
          "internalType": "bytes4",
          "name": "interfaceId",
          "type": "bytes4"
        }
      ],
      "name": "supportsInterface",
      "outputs": [
        {
          "internalType": "bool",
          "name": "",
          "type": "bool"
        }
      ],
      "stateMutability": "view",
      "type": "function"
    },
    {
      "inputs": [],
      "name": "totalMinted",
      "outputs": [
        {
          "internalType": "uint256",
          "name": "",
          "type": "uint256"
        }
      ],
      "stateMutability": "view",
      "type": "function"
    },
    {
      "inputs": [
        {
          "internalType": "uint256",
          "name": "id",
          "type": "uint256"
        }
      ],
      "name": "totalSupply",
      "outputs": [
        {
          "internalType": "uint256",
          "name": "",
          "type": "uint256"
        }
      ],
      "stateMutability": "view",
      "type": "function"
    },
    {
      "inputs": [
        {
          "internalType": "uint256",
          "name": "tokenId",
          "type": "uint256"
        }
      ],
      "name": "uri",
      "outputs": [
        {
          "internalType": "string",
          "name": "",
          "type": "string"
        }
      ],
      "stateMutability": "view",
      "type": "function"
    }
  ],
  "bytecode": "0x60806040523480156200001157600080fd5b5060405162001e9438038062001e94833981016040819052620000349162000134565b6040805160208101909152600081526200004e8162000075565b50600880546001600160a01b0319166001600160a01b0392909216919091179055620001a3565b80516200008a9060029060208401906200008e565b5050565b8280546200009c9062000166565b90600052602060002090601f016020900481019282620000c057600085556200010b565b82601f10620000db57805160ff19168380011785556200010b565b828001600101855582156200010b579182015b828111156200010b578251825591602001919060010190620000ee565b50620001199291506200011d565b5090565b5b808211156200011957600081556001016200011e565b6000602082840312156200014757600080fd5b81516001600160a01b03811681146200015f57600080fd5b9392505050565b600181811c908216806200017b57607f821691505b602082108114156200019d57634e487b7160e01b600052602260045260246000fd5b50919050565b611ce180620001b36000396000f3fe608060405234801561001057600080fd5b50600436106100ce5760003560e01c80634f558e791161008c578063a2309ff811610066578063a2309ff8146101eb578063bd85b039146101f4578063e985e9c514610214578063f242432a1461022757600080fd5b80634f558e79146101a35780637b8a5a2f146101c5578063a22cb465146101d857600080fd5b8062fdd58e146100d357806301ffc9a7146100f95780630e89341c1461011c5780632a55205a1461013c5780632eb2c2d61461016e5780634e1273f414610183575b600080fd5b6100e66100e136600461137f565b61023a565b6040519081526020015b60405180910390f35b61010c6101073660046113c2565b6102d3565b60405190151581526020016100f0565b61012f61012a3660046113df565b6102de565b6040516100f09190611445565b61014f61014a366004611458565b6103da565b604080516001600160a01b0390931683526020830191909152016100f0565b61018161017c3660046115d0565b610486565b005b61019661019136600461167a565b6104d2565b6040516100f09190611780565b61010c6101b13660046113df565b600090815260036020526040902054151590565b6101816101d3366004611793565b6105fc565b6101816101e636600461182b565b6106f0565b6100e660065481565b6100e66102023660046113df565b60009081526003602052604090205490565b61010c610222366004611862565b6106ff565b610181610235366004611895565b610742565b60006001600160a01b0383166102aa5760405162461bcd60e51b815260206004820152602a60248201527f455243313135353a2061646472657373207a65726f206973206e6f742061207660448201526930b634b21037bbb732b960b11b60648201526084015b60405180910390fd5b506000818152602081815260408083206001600160a01b03861684529091529020545b92915050565b60006102cd82610787565b60008181526003602052604090205460609061033c5760405162461bcd60e51b815260206004820152601860248201527f54686520546f6b656e20646f6573206e6f74206578697374000000000000000060448201526064016102a1565b60008281526007602052604090208054610355906118fa565b80601f0160208091040260200160405190810160405280929190818152602001828054610381906118fa565b80156103ce5780601f106103a3576101008083540402835291602001916103ce565b820191906000526020600020905b8154815290600101906020018083116103b157829003601f168201915b50505050509050919050565b60008281526005602090815260408083208151808301909252546001600160a01b038116808352600160a01b9091046001600160601b031692820192909252829161044f5750604080518082019091526004546001600160a01b0381168252600160a01b90046001600160601b031660208201525b60208101516000906127109061046e906001600160601b03168761194b565b610478919061196a565b915196919550909350505050565b6001600160a01b0385163314806104a257506104a285336106ff565b6104be5760405162461bcd60e51b81526004016102a19061198c565b6104cb85858585856107ac565b5050505050565b606081518351146105375760405162461bcd60e51b815260206004820152602960248201527f455243313135353a206163636f756e747320616e6420696473206c656e677468604482015268040dad2e6dac2e8c6d60bb1b60648201526084016102a1565b6000835167ffffffffffffffff8111156105535761055361147a565b60405190808252806020026020018201604052801561057c578160200160208202803683370190505b50905060005b84518110156105f4576105c78582815181106105a0576105a06119da565b60200260200101518583815181106105ba576105ba6119da565b602002602001015161023a565b8282815181106105d9576105d96119da565b60209081029190910101526105ed816119f0565b9050610582565b509392505050565b60066000815461060b906119f0565b909155508261065c5760405162461bcd60e51b815260206004820152601860248201527f4d696e74696e672030206973206e6f7420616c6c6f776564000000000000000060448201526064016102a1565b610679336006548560405180602001604052806000815250610997565b6006546000908152600760209081526040909120855161069b928701906112ca565b506106a96006548383610aba565b60065460408051918252602082018590523382820152517f259eb7b480b3d449f506927269e4665c83c69e4cd797143eaa8f84632dc7a02b9181900360600190a150505050565b6106fb338383610bc8565b5050565b600061070b8383610ca9565b8061073b57506001600160a01b0380841660009081526001602090815260408083209386168352929052205460ff165b9392505050565b6001600160a01b03851633148061075e575061075e85336106ff565b61077a5760405162461bcd60e51b81526004016102a19061198c565b6104cb8585858585610d49565b60006001600160e01b0319821663152a902d60e11b14806102cd57506102cd82610e81565b815183511461080e5760405162461bcd60e51b815260206004820152602860248201527f455243313135353a2069647320616e6420616d6f756e7473206c656e677468206044820152670dad2e6dac2e8c6d60c31b60648201526084016102a1565b6001600160a01b0384166108345760405162461bcd60e51b81526004016102a190611a0b565b33610843818787878787610ed1565b60005b8451811015610929576000858281518110610863576108636119da565b602002602001015190506000858381518110610881576108816119da565b602090810291909101810151600084815280835260408082206001600160a01b038e1683529093529190912054909150818110156108d15760405162461bcd60e51b81526004016102a190611a50565b6000838152602081815260408083206001600160a01b038e8116855292528083208585039055908b1682528120805484929061090e908490611a9a565b9250508190555050505080610922906119f0565b9050610846565b50846001600160a01b0316866001600160a01b0316826001600160a01b03167f4a39dc06d4c0dbc64b70af90fd698a233a518aa5d07e595d983b8c0526c8f7fb8787604051610979929190611ab2565b60405180910390a461098f81878787878761104a565b505050505050565b6001600160a01b0384166109f75760405162461bcd60e51b815260206004820152602160248201527f455243313135353a206d696e7420746f20746865207a65726f206164647265736044820152607360f81b60648201526084016102a1565b336000610a03856111b5565b90506000610a10856111b5565b9050610a2183600089858589610ed1565b6000868152602081815260408083206001600160a01b038b16845290915281208054879290610a51908490611a9a565b909155505060408051878152602081018790526001600160a01b03808a1692600092918716917fc3d58168c5ae7397731d063d5bbf3d657854427343f4c083240f7aacaa2d0f62910160405180910390a4610ab183600089898989611200565b50505050505050565b6127106001600160601b0382161115610b285760405162461bcd60e51b815260206004820152602a60248201527f455243323938313a20726f79616c7479206665652077696c6c206578636565646044820152692073616c65507269636560b01b60648201526084016102a1565b6001600160a01b038216610b7e5760405162461bcd60e51b815260206004820152601b60248201527f455243323938313a20496e76616c696420706172616d6574657273000000000060448201526064016102a1565b6040805180820182526001600160a01b0393841681526001600160601b0392831660208083019182526000968752600590529190942093519051909116600160a01b029116179055565b816001600160a01b0316836001600160a01b03161415610c3c5760405162461bcd60e51b815260206004820152602960248201527f455243313135353a2073657474696e6720617070726f76616c20737461747573604482015268103337b91039b2b63360b91b60648201526084016102a1565b6001600160a01b03838116600081815260016020908152604080832094871680845294825291829020805460ff191686151590811790915591519182527f17307eab39ab6107e8899845ad3d59bd9653f200f220920489ca2b5937696c31910160405180910390a3505050565b6008546000906001600160a01b0316610cc4575060006102cd565b6008546040516336d42e9b60e01b81526001600160a01b0385811660048301528481166024830152909116906336d42e9b9060440160206040518083038186803b158015610d1157600080fd5b505afa158015610d25573d6000803e3d6000fd5b505050506040513d601f19601f8201168201806040525081019061073b9190611ae0565b6001600160a01b038416610d6f5760405162461bcd60e51b81526004016102a190611a0b565b336000610d7b856111b5565b90506000610d88856111b5565b9050610d98838989858589610ed1565b6000868152602081815260408083206001600160a01b038c16845290915290205485811015610dd95760405162461bcd60e51b81526004016102a190611a50565b6000878152602081815260408083206001600160a01b038d8116855292528083208985039055908a16825281208054889290610e16908490611a9a565b909155505060408051888152602081018890526001600160a01b03808b16928c821692918816917fc3d58168c5ae7397731d063d5bbf3d657854427343f4c083240f7aacaa2d0f62910160405180910390a4610e76848a8a8a8a8a611200565b505050505050505050565b60006001600160e01b03198216636cdb3d1360e11b1480610eb257506001600160e01b031982166303a24d0760e21b145b806102cd57506301ffc9a760e01b6001600160e01b03198316146102cd565b6001600160a01b038516610f585760005b8351811015610f5657828181518110610efd57610efd6119da565b602002602001015160036000868481518110610f1b57610f1b6119da565b602002602001015181526020019081526020016000206000828254610f409190611a9a565b90915550610f4f9050816119f0565b9050610ee2565b505b6001600160a01b03841661098f5760005b8351811015610ab1576000848281518110610f8657610f866119da565b602002602001015190506000848381518110610fa457610fa46119da565b60200260200101519050600060036000848152602001908152602001600020549050818110156110275760405162461bcd60e51b815260206004820152602860248201527f455243313135353a206275726e20616d6f756e74206578636565647320746f74604482015267616c537570706c7960c01b60648201526084016102a1565b60009283526003602052604090922091039055611043816119f0565b9050610f69565b6001600160a01b0384163b1561098f5760405163bc197c8160e01b81526001600160a01b0385169063bc197c819061108e9089908990889088908890600401611afd565b602060405180830381600087803b1580156110a857600080fd5b505af19250505080156110d8575060408051601f3d908101601f191682019092526110d591810190611b5b565b60015b611185576110e4611b78565b806308c379a0141561111e57506110f9611b94565b806111045750611120565b8060405162461bcd60e51b81526004016102a19190611445565b505b60405162461bcd60e51b815260206004820152603460248201527f455243313135353a207472616e7366657220746f206e6f6e2d455243313135356044820152732932b1b2b4bb32b91034b6b83632b6b2b73a32b960611b60648201526084016102a1565b6001600160e01b0319811663bc197c8160e01b14610ab15760405162461bcd60e51b81526004016102a190611c1e565b604080516001808252818301909252606091600091906020808301908036833701905050905082816000815181106111ef576111ef6119da565b602090810291909101015292915050565b6001600160a01b0384163b1561098f5760405163f23a6e6160e01b81526001600160a01b0385169063f23a6e61906112449089908990889088908890600401611c66565b602060405180830381600087803b15801561125e57600080fd5b505af192505050801561128e575060408051601f3d908101601f1916820190925261128b91810190611b5b565b60015b61129a576110e4611b78565b6001600160e01b0319811663f23a6e6160e01b14610ab15760405162461bcd60e51b81526004016102a190611c1e565b8280546112d6906118fa565b90600052602060002090601f0160209004810192826112f8576000855561133e565b82601f1061131157805160ff191683800117855561133e565b8280016001018555821561133e579182015b8281111561133e578251825591602001919060010190611323565b5061134a92915061134e565b5090565b5b8082111561134a576000815560010161134f565b80356001600160a01b038116811461137a57600080fd5b919050565b6000806040838503121561139257600080fd5b61139b83611363565b946020939093013593505050565b6001600160e01b0319811681146113bf57600080fd5b50565b6000602082840312156113d457600080fd5b813561073b816113a9565b6000602082840312156113f157600080fd5b5035919050565b6000815180845260005b8181101561141e57602081850181015186830182015201611402565b81811115611430576000602083870101525b50601f01601f19169290920160200192915050565b60208152600061073b60208301846113f8565b6000806040838503121561146b57600080fd5b50508035926020909101359150565b634e487b7160e01b600052604160045260246000fd5b601f8201601f1916810167ffffffffffffffff811182821017156114b6576114b661147a565b6040525050565b600067ffffffffffffffff8211156114d7576114d761147a565b5060051b60200190565b600082601f8301126114f257600080fd5b813560206114ff826114bd565b60405161150c8282611490565b83815260059390931b850182019282810191508684111561152c57600080fd5b8286015b848110156115475780358352918301918301611530565b509695505050505050565b600067ffffffffffffffff83111561156c5761156c61147a565b604051611583601f8501601f191660200182611490565b80915083815284848401111561159857600080fd5b83836020830137600060208583010152509392505050565b600082601f8301126115c157600080fd5b61073b83833560208501611552565b600080600080600060a086880312156115e857600080fd5b6115f186611363565b94506115ff60208701611363565b9350604086013567ffffffffffffffff8082111561161c57600080fd5b61162889838a016114e1565b9450606088013591508082111561163e57600080fd5b61164a89838a016114e1565b9350608088013591508082111561166057600080fd5b5061166d888289016115b0565b9150509295509295909350565b6000806040838503121561168d57600080fd5b823567ffffffffffffffff808211156116a557600080fd5b818501915085601f8301126116b957600080fd5b813560206116c6826114bd565b6040516116d38282611490565b83815260059390931b85018201928281019150898411156116f357600080fd5b948201945b838610156117185761170986611363565b825294820194908201906116f8565b9650508601359250508082111561172e57600080fd5b5061173b858286016114e1565b9150509250929050565b600081518084526020808501945080840160005b8381101561177557815187529582019590820190600101611759565b509495945050505050565b60208152600061073b6020830184611745565b600080600080608085870312156117a957600080fd5b843567ffffffffffffffff8111156117c057600080fd5b8501601f810187136117d157600080fd5b6117e087823560208401611552565b945050602085013592506117f660408601611363565b915060608501356001600160601b038116811461181257600080fd5b939692955090935050565b80151581146113bf57600080fd5b6000806040838503121561183e57600080fd5b61184783611363565b915060208301356118578161181d565b809150509250929050565b6000806040838503121561187557600080fd5b61187e83611363565b915061188c60208401611363565b90509250929050565b600080600080600060a086880312156118ad57600080fd5b6118b686611363565b94506118c460208701611363565b93506040860135925060608601359150608086013567ffffffffffffffff8111156118ee57600080fd5b61166d888289016115b0565b600181811c9082168061190e57607f821691505b6020821081141561192f57634e487b7160e01b600052602260045260246000fd5b50919050565b634e487b7160e01b600052601160045260246000fd5b600081600019048311821515161561196557611965611935565b500290565b60008261198757634e487b7160e01b600052601260045260246000fd5b500490565b6020808252602e908201527f455243313135353a2063616c6c6572206973206e6f7420746f6b656e206f776e60408201526d195c881bdc88185c1c1c9bdd995960921b606082015260800190565b634e487b7160e01b600052603260045260246000fd5b6000600019821415611a0457611a04611935565b5060010190565b60208082526025908201527f455243313135353a207472616e7366657220746f20746865207a65726f206164604082015264647265737360d81b606082015260800190565b6020808252602a908201527f455243313135353a20696e73756666696369656e742062616c616e636520666f60408201526939103a3930b739b332b960b11b606082015260800190565b60008219821115611aad57611aad611935565b500190565b604081526000611ac56040830185611745565b8281036020840152611ad78185611745565b95945050505050565b600060208284031215611af257600080fd5b815161073b8161181d565b6001600160a01b0386811682528516602082015260a060408201819052600090611b2990830186611745565b8281036060840152611b3b8186611745565b90508281036080840152611b4f81856113f8565b98975050505050505050565b600060208284031215611b6d57600080fd5b815161073b816113a9565b600060033d1115611b915760046000803e5060005160e01c5b90565b600060443d1015611ba25790565b6040516003193d81016004833e81513d67ffffffffffffffff8160248401118184111715611bd257505050505090565b8285019150815181811115611bea5750505050505090565b843d8701016020828501011115611c045750505050505090565b611c1360208286010187611490565b509095945050505050565b60208082526028908201527f455243313135353a204552433131353552656365697665722072656a656374656040820152676420746f6b656e7360c01b606082015260800190565b6001600160a01b03868116825285166020820152604081018490526060810183905260a060808201819052600090611ca0908301846113f8565b97965050505050505056fea264697066735822122076c326d290906d6081bcfe98acf086fe842ea468ca6db4af3636040d354a468764736f6c63430008090033",
  "linkReferences": {},
  "deployedLinkReferences": {}
}