{
  "_format": "hh-sol-artifact-1",
  "contractName": "ERC1155Sale",
  "sourceName": "contracts/ERC1155Sale.sol",
  "abi": [
    {
      "anonymous": false,
      "inputs": [
        {
          "indexed": false,
          "internalType": "address",
          "name": "previousAdmin",
          "type": "address"
        },
        {
          "indexed": false,
          "internalType": "address",
          "name": "newAdmin",
          "type": "address"
        }
      ],
      "name": "AdminChanged",
      "type": "event"
    },
    {
      "anonymous": false,
      "inputs": [
        {
          "indexed": true,
          "internalType": "address",
          "name": "beacon",
          "type": "address"
        }
      ],
      "name": "BeaconUpgraded",
      "type": "event"
    },
    {
      "anonymous": false,
      "inputs": [
        {
          "indexed": false,
          "internalType": "uint8",
          "name": "version",
          "type": "uint8"
        }
      ],
      "name": "Initialized",
      "type": "event"
    },
    {
      "anonymous": false,
      "inputs": [
        {
          "indexed": false,
          "internalType": "address",
          "name": "contractAddr",
          "type": "address"
        },
        {
          "indexed": false,
          "internalType": "uint256",
          "name": "tokenId",
          "type": "uint256"
        },
        {
          "indexed": false,
          "internalType": "uint8",
          "name": "payment",
          "type": "uint8"
        },
        {
          "indexed": false,
          "internalType": "address",
          "name": "seller",
          "type": "address"
        },
        {
          "indexed": false,
          "internalType": "uint256",
          "name": "startPrice",
          "type": "uint256"
        },
        {
          "indexed": false,
          "internalType": "uint256",
          "name": "endPrice",
          "type": "uint256"
        },
        {
          "indexed": false,
          "internalType": "uint256",
          "name": "startedAt",
          "type": "uint256"
        },
        {
          "indexed": false,
          "internalType": "uint256",
          "name": "duration",
          "type": "uint256"
        },
        {
          "indexed": false,
          "internalType": "uint256",
          "name": "amount",
          "type": "uint256"
        },
        {
          "indexed": false,
          "internalType": "address",
          "name": "offerer",
          "type": "address"
        }
      ],
      "name": "OfferAccepted",
      "type": "event"
    },
    {
      "anonymous": false,
      "inputs": [
        {
          "indexed": false,
          "internalType": "address",
          "name": "contractAddr",
          "type": "address"
        },
        {
          "indexed": false,
          "internalType": "uint256",
          "name": "tokenId",
          "type": "uint256"
        },
        {
          "indexed": false,
          "internalType": "uint8",
          "name": "payment",
          "type": "uint8"
        },
        {
          "indexed": false,
          "internalType": "address",
          "name": "seller",
          "type": "address"
        },
        {
          "indexed": false,
          "internalType": "uint256",
          "name": "startPrice",
          "type": "uint256"
        },
        {
          "indexed": false,
          "internalType": "uint256",
          "name": "endPrice",
          "type": "uint256"
        },
        {
          "indexed": false,
          "internalType": "uint256",
          "name": "startedAt",
          "type": "uint256"
        },
        {
          "indexed": false,
          "internalType": "uint256",
          "name": "duration",
          "type": "uint256"
        },
        {
          "indexed": false,
          "internalType": "uint256",
          "name": "amount",
          "type": "uint256"
        },
        {
          "indexed": false,
          "internalType": "address",
          "name": "offerer",
          "type": "address"
        }
      ],
      "name": "OfferCancelled",
      "type": "event"
    },
    {
      "anonymous": false,
      "inputs": [
        {
          "indexed": false,
          "internalType": "address",
          "name": "contractAddr",
          "type": "address"
        },
        {
          "indexed": false,
          "internalType": "uint256",
          "name": "tokenId",
          "type": "uint256"
        },
        {
          "indexed": false,
          "internalType": "uint8",
          "name": "payment",
          "type": "uint8"
        },
        {
          "indexed": false,
          "internalType": "address",
          "name": "seller",
          "type": "address"
        },
        {
          "indexed": false,
          "internalType": "uint256",
          "name": "startPrice",
          "type": "uint256"
        },
        {
          "indexed": false,
          "internalType": "uint256",
          "name": "endPrice",
          "type": "uint256"
        },
        {
          "indexed": false,
          "internalType": "uint256",
          "name": "startedAt",
          "type": "uint256"
        },
        {
          "indexed": false,
          "internalType": "uint256",
          "name": "duration",
          "type": "uint256"
        },
        {
          "indexed": false,
          "internalType": "uint256",
          "name": "price",
          "type": "uint256"
        },
        {
          "indexed": false,
          "internalType": "uint256",
          "name": "amount",
          "type": "uint256"
        },
        {
          "indexed": false,
          "internalType": "address",
          "name": "offerer",
          "type": "address"
        }
      ],
      "name": "OfferCreated",
      "type": "event"
    },
    {
      "anonymous": false,
      "inputs": [
        {
          "indexed": false,
          "internalType": "address",
          "name": "contractAddr",
          "type": "address"
        },
        {
          "indexed": false,
          "internalType": "uint256",
          "name": "tokenId",
          "type": "uint256"
        },
        {
          "indexed": false,
          "internalType": "uint8",
          "name": "payment",
          "type": "uint8"
        },
        {
          "indexed": false,
          "internalType": "address",
          "name": "seller",
          "type": "address"
        },
        {
          "indexed": false,
          "internalType": "uint256",
          "name": "startPrice",
          "type": "uint256"
        },
        {
          "indexed": false,
          "internalType": "uint256",
          "name": "endPrice",
          "type": "uint256"
        },
        {
          "indexed": false,
          "internalType": "uint256",
          "name": "startedAt",
          "type": "uint256"
        },
        {
          "indexed": false,
          "internalType": "uint256",
          "name": "duration",
          "type": "uint256"
        },
        {
          "indexed": false,
          "internalType": "uint256",
          "name": "price",
          "type": "uint256"
        },
        {
          "indexed": false,
          "internalType": "uint256",
          "name": "amount",
          "type": "uint256"
        },
        {
          "indexed": false,
          "internalType": "address",
          "name": "offerer",
          "type": "address"
        }
      ],
      "name": "OfferUpdated",
      "type": "event"
    },
    {
      "anonymous": false,
      "inputs": [
        {
          "indexed": true,
          "internalType": "address",
          "name": "previousOwner",
          "type": "address"
        },
        {
          "indexed": true,
          "internalType": "address",
          "name": "newOwner",
          "type": "address"
        }
      ],
      "name": "OwnershipTransferred",
      "type": "event"
    },
    {
      "anonymous": false,
      "inputs": [
        {
          "indexed": false,
          "internalType": "address",
          "name": "contractAddr",
          "type": "address"
        },
        {
          "indexed": false,
          "internalType": "uint256",
          "name": "tokenId",
          "type": "uint256"
        },
        {
          "indexed": false,
          "internalType": "uint8",
          "name": "payment",
          "type": "uint8"
        },
        {
          "indexed": false,
          "internalType": "address",
          "name": "seller",
          "type": "address"
        },
        {
          "indexed": false,
          "internalType": "uint256",
          "name": "startPrice",
          "type": "uint256"
        },
        {
          "indexed": false,
          "internalType": "uint256",
          "name": "endPrice",
          "type": "uint256"
        },
        {
          "indexed": false,
          "internalType": "uint256",
          "name": "startedAt",
          "type": "uint256"
        },
        {
          "indexed": false,
          "internalType": "uint256",
          "name": "duration",
          "type": "uint256"
        },
        {
          "indexed": false,
          "internalType": "uint256",
          "name": "amount",
          "type": "uint256"
        }
      ],
      "name": "SaleCancelled",
      "type": "event"
    },
    {
      "anonymous": false,
      "inputs": [
        {
          "indexed": false,
          "internalType": "address",
          "name": "contractAddr",
          "type": "address"
        },
        {
          "indexed": false,
          "internalType": "uint256",
          "name": "tokenId",
          "type": "uint256"
        },
        {
          "indexed": false,
          "internalType": "uint8",
          "name": "payment",
          "type": "uint8"
        },
        {
          "indexed": false,
          "internalType": "address",
          "name": "seller",
          "type": "address"
        },
        {
          "indexed": false,
          "internalType": "uint256",
          "name": "startPrice",
          "type": "uint256"
        },
        {
          "indexed": false,
          "internalType": "uint256",
          "name": "endPrice",
          "type": "uint256"
        },
        {
          "indexed": false,
          "internalType": "uint256",
          "name": "amount",
          "type": "uint256"
        },
        {
          "indexed": false,
          "internalType": "uint256",
          "name": "startedAt",
          "type": "uint256"
        },
        {
          "indexed": false,
          "internalType": "uint256",
          "name": "duration",
          "type": "uint256"
        }
      ],
      "name": "SaleCreated",
      "type": "event"
    },
    {
      "anonymous": false,
      "inputs": [
        {
          "indexed": false,
          "internalType": "address",
          "name": "contractAddr",
          "type": "address"
        },
        {
          "indexed": false,
          "internalType": "uint256",
          "name": "tokenId",
          "type": "uint256"
        },
        {
          "indexed": false,
          "internalType": "uint8",
          "name": "payment",
          "type": "uint8"
        },
        {
          "indexed": false,
          "internalType": "address",
          "name": "seller",
          "type": "address"
        },
        {
          "indexed": false,
          "internalType": "uint256",
          "name": "startPrice",
          "type": "uint256"
        },
        {
          "indexed": false,
          "internalType": "uint256",
          "name": "endPrice",
          "type": "uint256"
        },
        {
          "indexed": false,
          "internalType": "uint256",
          "name": "startedAt",
          "type": "uint256"
        },
        {
          "indexed": false,
          "internalType": "uint256",
          "name": "duration",
          "type": "uint256"
        },
        {
          "indexed": false,
          "internalType": "uint256",
          "name": "price",
          "type": "uint256"
        },
        {
          "indexed": false,
          "internalType": "uint256",
          "name": "amount",
          "type": "uint256"
        },
        {
          "indexed": false,
          "internalType": "address",
          "name": "buyer",
          "type": "address"
        }
      ],
      "name": "SaleSuccessful",
      "type": "event"
    },
    {
      "anonymous": false,
      "inputs": [
        {
          "indexed": false,
          "internalType": "address",
          "name": "contractAddr",
          "type": "address"
        },
        {
          "indexed": false,
          "internalType": "uint256",
          "name": "tokenId",
          "type": "uint256"
        },
        {
          "indexed": false,
          "internalType": "uint8",
          "name": "payment",
          "type": "uint8"
        },
        {
          "indexed": false,
          "internalType": "address",
          "name": "seller",
          "type": "address"
        },
        {
          "indexed": false,
          "internalType": "uint256",
          "name": "startPrice",
          "type": "uint256"
        },
        {
          "indexed": false,
          "internalType": "uint256",
          "name": "endPrice",
          "type": "uint256"
        },
        {
          "indexed": false,
          "internalType": "uint256",
          "name": "amount",
          "type": "uint256"
        },
        {
          "indexed": false,
          "internalType": "uint256",
          "name": "startedAt",
          "type": "uint256"
        },
        {
          "indexed": false,
          "internalType": "uint256",
          "name": "duration",
          "type": "uint256"
        }
      ],
      "name": "SaleUpdated",
      "type": "event"
    },
    {
      "anonymous": false,
      "inputs": [
        {
          "indexed": true,
          "internalType": "address",
          "name": "implementation",
          "type": "address"
        }
      ],
      "name": "Upgraded",
      "type": "event"
    },
    {
      "inputs": [],
      "name": "addressesContractAddr",
      "outputs": [
        {
          "internalType": "address",
          "name": "",
          "type": "address"
        }
      ],
      "stateMutability": "view",
      "type": "function"
    },
    {
      "inputs": [
        {
          "internalType": "address",
          "name": "contractAddr",
          "type": "address"
        },
        {
          "internalType": "uint256",
          "name": "tokenId",
          "type": "uint256"
        },
        {
          "components": [
            {
              "internalType": "uint8",
              "name": "payment",
              "type": "uint8"
            },
            {
              "internalType": "address",
              "name": "seller",
              "type": "address"
            },
            {
              "internalType": "uint256",
              "name": "startPrice",
              "type": "uint256"
            },
            {
              "internalType": "uint256",
              "name": "endPrice",
              "type": "uint256"
            },
            {
              "internalType": "uint256",
              "name": "amount",
              "type": "uint256"
            },
            {
              "internalType": "uint256",
              "name": "startedAt",
              "type": "uint256"
            },
            {
              "internalType": "uint256",
              "name": "duration",
              "type": "uint256"
            },
            {
              "internalType": "address[]",
              "name": "offerers",
              "type": "address[]"
            },
            {
              "internalType": "uint256[]",
              "name": "offerPrices",
              "type": "uint256[]"
            },
            {
              "internalType": "uint256[]",
              "name": "offerAmounts",
              "type": "uint256[]"
            }
          ],
          "internalType": "struct ERC1155SaleBase.Sale",
          "name": "sale",
          "type": "tuple"
        }
      ],
      "name": "buy",
      "outputs": [],
      "stateMutability": "payable",
      "type": "function"
    },
    {
      "inputs": [
        {
          "internalType": "address",
          "name": "contractAddr",
          "type": "address"
        },
        {
          "internalType": "uint256",
          "name": "tokenId",
          "type": "uint256"
        },
        {
          "components": [
            {
              "internalType": "uint8",
              "name": "payment",
              "type": "uint8"
            },
            {
              "internalType": "address",
              "name": "seller",
              "type": "address"
            },
            {
              "internalType": "uint256",
              "name": "startPrice",
              "type": "uint256"
            },
            {
              "internalType": "uint256",
              "name": "endPrice",
              "type": "uint256"
            },
            {
              "internalType": "uint256",
              "name": "amount",
              "type": "uint256"
            },
            {
              "internalType": "uint256",
              "name": "startedAt",
              "type": "uint256"
            },
            {
              "internalType": "uint256",
              "name": "duration",
              "type": "uint256"
            },
            {
              "internalType": "address[]",
              "name": "offerers",
              "type": "address[]"
            },
            {
              "internalType": "uint256[]",
              "name": "offerPrices",
              "type": "uint256[]"
            },
            {
              "internalType": "uint256[]",
              "name": "offerAmounts",
              "type": "uint256[]"
            }
          ],
          "internalType": "struct ERC1155SaleBase.Sale",
          "name": "sale",
          "type": "tuple"
        }
      ],
      "name": "cancelSale",
      "outputs": [],
      "stateMutability": "nonpayable",
      "type": "function"
    },
    {
      "inputs": [
        {
          "internalType": "uint256",
          "name": "amount",
          "type": "uint256"
        },
        {
          "internalType": "uint8",
          "name": "index",
          "type": "uint8"
        }
      ],
      "name": "claim",
      "outputs": [],
      "stateMutability": "nonpayable",
      "type": "function"
    },
    {
      "inputs": [
        {
          "internalType": "address",
          "name": "",
          "type": "address"
        },
        {
          "internalType": "uint256",
          "name": "",
          "type": "uint256"
        }
      ],
      "name": "claimable",
      "outputs": [
        {
          "internalType": "uint256",
          "name": "",
          "type": "uint256"
        }
      ],
      "stateMutability": "view",
      "type": "function"
    },
    {
      "inputs": [
        {
          "internalType": "address",
          "name": "contractAddr",
          "type": "address"
        },
        {
          "internalType": "uint256",
          "name": "tokenId",
          "type": "uint256"
        },
        {
          "components": [
            {
              "internalType": "uint8",
              "name": "payment",
              "type": "uint8"
            },
            {
              "internalType": "address",
              "name": "seller",
              "type": "address"
            },
            {
              "internalType": "uint256",
              "name": "startPrice",
              "type": "uint256"
            },
            {
              "internalType": "uint256",
              "name": "endPrice",
              "type": "uint256"
            },
            {
              "internalType": "uint256",
              "name": "amount",
              "type": "uint256"
            },
            {
              "internalType": "uint256",
              "name": "startedAt",
              "type": "uint256"
            },
            {
              "internalType": "uint256",
              "name": "duration",
              "type": "uint256"
            },
            {
              "internalType": "address[]",
              "name": "offerers",
              "type": "address[]"
            },
            {
              "internalType": "uint256[]",
              "name": "offerPrices",
              "type": "uint256[]"
            },
            {
              "internalType": "uint256[]",
              "name": "offerAmounts",
              "type": "uint256[]"
            }
          ],
          "internalType": "struct ERC1155SaleBase.Sale",
          "name": "sale",
          "type": "tuple"
        }
      ],
      "name": "createSale",
      "outputs": [],
      "stateMutability": "nonpayable",
      "type": "function"
    },
    {
      "inputs": [
        {
          "components": [
            {
              "internalType": "uint8",
              "name": "payment",
              "type": "uint8"
            },
            {
              "internalType": "address",
              "name": "seller",
              "type": "address"
            },
            {
              "internalType": "uint256",
              "name": "startPrice",
              "type": "uint256"
            },
            {
              "internalType": "uint256",
              "name": "endPrice",
              "type": "uint256"
            },
            {
              "internalType": "uint256",
              "name": "amount",
              "type": "uint256"
            },
            {
              "internalType": "uint256",
              "name": "startedAt",
              "type": "uint256"
            },
            {
              "internalType": "uint256",
              "name": "duration",
              "type": "uint256"
            },
            {
              "internalType": "address[]",
              "name": "offerers",
              "type": "address[]"
            },
            {
              "internalType": "uint256[]",
              "name": "offerPrices",
              "type": "uint256[]"
            },
            {
              "internalType": "uint256[]",
              "name": "offerAmounts",
              "type": "uint256[]"
            }
          ],
          "internalType": "struct ERC1155SaleBase.Sale",
          "name": "sale",
          "type": "tuple"
        }
      ],
      "name": "getCurrentPrice",
      "outputs": [
        {
          "internalType": "uint256",
          "name": "val",
          "type": "uint256"
        }
      ],
      "stateMutability": "view",
      "type": "function"
    },
    {
      "inputs": [
        {
          "internalType": "address",
          "name": "contractAddr",
          "type": "address"
        },
        {
          "internalType": "uint256",
          "name": "tokenId",
          "type": "uint256"
        },
        {
          "components": [
            {
              "internalType": "uint8",
              "name": "payment",
              "type": "uint8"
            },
            {
              "internalType": "address",
              "name": "seller",
              "type": "address"
            },
            {
              "internalType": "uint256",
              "name": "startPrice",
              "type": "uint256"
            },
            {
              "internalType": "uint256",
              "name": "endPrice",
              "type": "uint256"
            },
            {
              "internalType": "uint256",
              "name": "amount",
              "type": "uint256"
            },
            {
              "internalType": "uint256",
              "name": "startedAt",
              "type": "uint256"
            },
            {
              "internalType": "uint256",
              "name": "duration",
              "type": "uint256"
            },
            {
              "internalType": "address[]",
              "name": "offerers",
              "type": "address[]"
            },
            {
              "internalType": "uint256[]",
              "name": "offerPrices",
              "type": "uint256[]"
            },
            {
              "internalType": "uint256[]",
              "name": "offerAmounts",
              "type": "uint256[]"
            }
          ],
          "internalType": "struct ERC1155SaleBase.Sale",
          "name": "sl",
          "type": "tuple"
        }
      ],
      "name": "getSale",
      "outputs": [
        {
          "components": [
            {
              "internalType": "uint8",
              "name": "payment",
              "type": "uint8"
            },
            {
              "internalType": "address",
              "name": "seller",
              "type": "address"
            },
            {
              "internalType": "uint256",
              "name": "startPrice",
              "type": "uint256"
            },
            {
              "internalType": "uint256",
              "name": "endPrice",
              "type": "uint256"
            },
            {
              "internalType": "uint256",
              "name": "amount",
              "type": "uint256"
            },
            {
              "internalType": "uint256",
              "name": "startedAt",
              "type": "uint256"
            },
            {
              "internalType": "uint256",
              "name": "duration",
              "type": "uint256"
            },
            {
              "internalType": "address[]",
              "name": "offerers",
              "type": "address[]"
            },
            {
              "internalType": "uint256[]",
              "name": "offerPrices",
              "type": "uint256[]"
            },
            {
              "internalType": "uint256[]",
              "name": "offerAmounts",
              "type": "uint256[]"
            }
          ],
          "internalType": "struct ERC1155SaleBase.Sale",
          "name": "sale",
          "type": "tuple"
        },
        {
          "internalType": "uint256",
          "name": "currentPrice",
          "type": "uint256"
        }
      ],
      "stateMutability": "view",
      "type": "function"
    },
    {
      "inputs": [
        {
          "internalType": "address",
          "name": "contractAddr",
          "type": "address"
        }
      ],
      "name": "getSaleTokens",
      "outputs": [
        {
          "internalType": "uint256[]",
          "name": "",
          "type": "uint256[]"
        }
      ],
      "stateMutability": "view",
      "type": "function"
    },
    {
      "inputs": [
        {
          "internalType": "address",
          "name": "contractAddr",
          "type": "address"
        },
        {
          "internalType": "address",
          "name": "seller",
          "type": "address"
        }
      ],
      "name": "getSaleTokensBySeller",
      "outputs": [
        {
          "internalType": "uint256[]",
          "name": "",
          "type": "uint256[]"
        }
      ],
      "stateMutability": "view",
      "type": "function"
    },
    {
      "inputs": [
        {
          "internalType": "address",
          "name": "contractAddr",
          "type": "address"
        }
      ],
      "name": "getSales",
      "outputs": [
        {
          "components": [
            {
              "internalType": "uint8",
              "name": "payment",
              "type": "uint8"
            },
            {
              "internalType": "address",
              "name": "seller",
              "type": "address"
            },
            {
              "internalType": "uint256",
              "name": "startPrice",
              "type": "uint256"
            },
            {
              "internalType": "uint256",
              "name": "endPrice",
              "type": "uint256"
            },
            {
              "internalType": "uint256",
              "name": "amount",
              "type": "uint256"
            },
            {
              "internalType": "uint256",
              "name": "startedAt",
              "type": "uint256"
            },
            {
              "internalType": "uint256",
              "name": "duration",
              "type": "uint256"
            },
            {
              "internalType": "address[]",
              "name": "offerers",
              "type": "address[]"
            },
            {
              "internalType": "uint256[]",
              "name": "offerPrices",
              "type": "uint256[]"
            },
            {
              "internalType": "uint256[]",
              "name": "offerAmounts",
              "type": "uint256[]"
            }
          ],
          "internalType": "struct ERC1155SaleBase.Sale[]",
          "name": "sales",
          "type": "tuple[]"
        },
        {
          "internalType": "uint256[]",
          "name": "currentPrices",
          "type": "uint256[]"
        }
      ],
      "stateMutability": "view",
      "type": "function"
    },
    {
      "inputs": [
        {
          "internalType": "address",
          "name": "contractAddr",
          "type": "address"
        },
        {
          "internalType": "uint256",
          "name": "tokenId",
          "type": "uint256"
        }
      ],
      "name": "getSalesByNFT",
      "outputs": [
        {
          "components": [
            {
              "internalType": "uint8",
              "name": "payment",
              "type": "uint8"
            },
            {
              "internalType": "address",
              "name": "seller",
              "type": "address"
            },
            {
              "internalType": "uint256",
              "name": "startPrice",
              "type": "uint256"
            },
            {
              "internalType": "uint256",
              "name": "endPrice",
              "type": "uint256"
            },
            {
              "internalType": "uint256",
              "name": "amount",
              "type": "uint256"
            },
            {
              "internalType": "uint256",
              "name": "startedAt",
              "type": "uint256"
            },
            {
              "internalType": "uint256",
              "name": "duration",
              "type": "uint256"
            },
            {
              "internalType": "address[]",
              "name": "offerers",
              "type": "address[]"
            },
            {
              "internalType": "uint256[]",
              "name": "offerPrices",
              "type": "uint256[]"
            },
            {
              "internalType": "uint256[]",
              "name": "offerAmounts",
              "type": "uint256[]"
            }
          ],
          "internalType": "struct ERC1155SaleBase.Sale[]",
          "name": "sales",
          "type": "tuple[]"
        },
        {
          "internalType": "uint256[]",
          "name": "currentPrices",
          "type": "uint256[]"
        }
      ],
      "stateMutability": "view",
      "type": "function"
    },
    {
      "inputs": [
        {
          "internalType": "address",
          "name": "contractAddr",
          "type": "address"
        },
        {
          "internalType": "address",
          "name": "owner",
          "type": "address"
        }
      ],
      "name": "getSalesBySeller",
      "outputs": [
        {
          "components": [
            {
              "internalType": "uint8",
              "name": "payment",
              "type": "uint8"
            },
            {
              "internalType": "address",
              "name": "seller",
              "type": "address"
            },
            {
              "internalType": "uint256",
              "name": "startPrice",
              "type": "uint256"
            },
            {
              "internalType": "uint256",
              "name": "endPrice",
              "type": "uint256"
            },
            {
              "internalType": "uint256",
              "name": "amount",
              "type": "uint256"
            },
            {
              "internalType": "uint256",
              "name": "startedAt",
              "type": "uint256"
            },
            {
              "internalType": "uint256",
              "name": "duration",
              "type": "uint256"
            },
            {
              "internalType": "address[]",
              "name": "offerers",
              "type": "address[]"
            },
            {
              "internalType": "uint256[]",
              "name": "offerPrices",
              "type": "uint256[]"
            },
            {
              "internalType": "uint256[]",
              "name": "offerAmounts",
              "type": "uint256[]"
            }
          ],
          "internalType": "struct ERC1155SaleBase.Sale[]",
          "name": "sales",
          "type": "tuple[]"
        },
        {
          "internalType": "uint256[]",
          "name": "currentPrices",
          "type": "uint256[]"
        }
      ],
      "stateMutability": "view",
      "type": "function"
    },
    {
      "inputs": [
        {
          "internalType": "address",
          "name": "seller",
          "type": "address"
        },
        {
          "internalType": "address",
          "name": "contractAddr",
          "type": "address"
        },
        {
          "internalType": "uint256",
          "name": "tokenId",
          "type": "uint256"
        }
      ],
      "name": "getSalesBySellerNFT",
      "outputs": [
        {
          "components": [
            {
              "internalType": "uint8",
              "name": "payment",
              "type": "uint8"
            },
            {
              "internalType": "address",
              "name": "seller",
              "type": "address"
            },
            {
              "internalType": "uint256",
              "name": "startPrice",
              "type": "uint256"
            },
            {
              "internalType": "uint256",
              "name": "endPrice",
              "type": "uint256"
            },
            {
              "internalType": "uint256",
              "name": "amount",
              "type": "uint256"
            },
            {
              "internalType": "uint256",
              "name": "startedAt",
              "type": "uint256"
            },
            {
              "internalType": "uint256",
              "name": "duration",
              "type": "uint256"
            },
            {
              "internalType": "address[]",
              "name": "offerers",
              "type": "address[]"
            },
            {
              "internalType": "uint256[]",
              "name": "offerPrices",
              "type": "uint256[]"
            },
            {
              "internalType": "uint256[]",
              "name": "offerAmounts",
              "type": "uint256[]"
            }
          ],
          "internalType": "struct ERC1155SaleBase.Sale[]",
          "name": "sales",
          "type": "tuple[]"
        },
        {
          "internalType": "uint256[]",
          "name": "currentPrices",
          "type": "uint256[]"
        }
      ],
      "stateMutability": "view",
      "type": "function"
    },
    {
      "inputs": [],
      "name": "initialize",
      "outputs": [],
      "stateMutability": "nonpayable",
      "type": "function"
    },
    {
      "inputs": [
        {
          "internalType": "address",
          "name": "",
          "type": "address"
        },
        {
          "internalType": "address",
          "name": "",
          "type": "address"
        },
        {
          "internalType": "uint256[]",
          "name": "",
          "type": "uint256[]"
        },
        {
          "internalType": "uint256[]",
          "name": "",
          "type": "uint256[]"
        },
        {
          "internalType": "bytes",
          "name": "",
          "type": "bytes"
        }
      ],
      "name": "onERC1155BatchReceived",
      "outputs": [
        {
          "internalType": "bytes4",
          "name": "",
          "type": "bytes4"
        }
      ],
      "stateMutability": "nonpayable",
      "type": "function"
    },
    {
      "inputs": [
        {
          "internalType": "address",
          "name": "",
          "type": "address"
        },
        {
          "internalType": "address",
          "name": "",
          "type": "address"
        },
        {
          "internalType": "uint256",
          "name": "",
          "type": "uint256"
        },
        {
          "internalType": "uint256",
          "name": "",
          "type": "uint256"
        },
        {
          "internalType": "bytes",
          "name": "",
          "type": "bytes"
        }
      ],
      "name": "onERC1155Received",
      "outputs": [
        {
          "internalType": "bytes4",
          "name": "",
          "type": "bytes4"
        }
      ],
      "stateMutability": "nonpayable",
      "type": "function"
    },
    {
      "inputs": [],
      "name": "owner",
      "outputs": [
        {
          "internalType": "address",
          "name": "",
          "type": "address"
        }
      ],
      "stateMutability": "view",
      "type": "function"
    },
    {
      "inputs": [],
      "name": "proxiableUUID",
      "outputs": [
        {
          "internalType": "bytes32",
          "name": "",
          "type": "bytes32"
        }
      ],
      "stateMutability": "view",
      "type": "function"
    },
    {
      "inputs": [],
      "name": "renounceOwnership",
      "outputs": [],
      "stateMutability": "nonpayable",
      "type": "function"
    },
    {
      "inputs": [
        {
          "internalType": "address",
          "name": "contractAddr",
          "type": "address"
        }
      ],
      "name": "setAddressesContractAddr",
      "outputs": [],
      "stateMutability": "nonpayable",
      "type": "function"
    },
    {
      "inputs": [
        {
          "internalType": "address",
          "name": "newSparkAddr",
          "type": "address"
        }
      ],
      "name": "setSparkTokenContractAddr",
      "outputs": [],
      "stateMutability": "nonpayable",
      "type": "function"
    },
    {
      "inputs": [
        {
          "internalType": "bytes4",
          "name": "interfaceId",
          "type": "bytes4"
        }
      ],
      "name": "supportsInterface",
      "outputs": [
        {
          "internalType": "bool",
          "name": "",
          "type": "bool"
        }
      ],
      "stateMutability": "view",
      "type": "function"
    },
    {
      "inputs": [
        {
          "internalType": "uint256",
          "name": "",
          "type": "uint256"
        }
      ],
      "name": "tokenAddrs",
      "outputs": [
        {
          "internalType": "address",
          "name": "",
          "type": "address"
        }
      ],
      "stateMutability": "view",
      "type": "function"
    },
    {
      "inputs": [
        {
          "internalType": "address",
          "name": "newOwner",
          "type": "address"
        }
      ],
      "name": "transferOwnership",
      "outputs": [],
      "stateMutability": "nonpayable",
      "type": "function"
    },
    {
      "inputs": [
        {
          "internalType": "address",
          "name": "contractAddr",
          "type": "address"
        },
        {
          "internalType": "uint256",
          "name": "tokenId",
          "type": "uint256"
        },
        {
          "components": [
            {
              "internalType": "uint8",
              "name": "payment",
              "type": "uint8"
            },
            {
              "internalType": "address",
              "name": "seller",
              "type": "address"
            },
            {
              "internalType": "uint256",
              "name": "startPrice",
              "type": "uint256"
            },
            {
              "internalType": "uint256",
              "name": "endPrice",
              "type": "uint256"
            },
            {
              "internalType": "uint256",
              "name": "amount",
              "type": "uint256"
            },
            {
              "internalType": "uint256",
              "name": "startedAt",
              "type": "uint256"
            },
            {
              "internalType": "uint256",
              "name": "duration",
              "type": "uint256"
            },
            {
              "internalType": "address[]",
              "name": "offerers",
              "type": "address[]"
            },
            {
              "internalType": "uint256[]",
              "name": "offerPrices",
              "type": "uint256[]"
            },
            {
              "internalType": "uint256[]",
              "name": "offerAmounts",
              "type": "uint256[]"
            }
          ],
          "internalType": "struct ERC1155SaleBase.Sale",
          "name": "sale",
          "type": "tuple"
        }
      ],
      "name": "updateSale",
      "outputs": [],
      "stateMutability": "nonpayable",
      "type": "function"
    },
    {
      "inputs": [
        {
          "internalType": "address",
          "name": "newImplementation",
          "type": "address"
        }
      ],
      "name": "upgradeTo",
      "outputs": [],
      "stateMutability": "nonpayable",
      "type": "function"
    },
    {
      "inputs": [
        {
          "internalType": "address",
          "name": "newImplementation",
          "type": "address"
        },
        {
          "internalType": "bytes",
          "name": "data",
          "type": "bytes"
        }
      ],
      "name": "upgradeToAndCall",
      "outputs": [],
      "stateMutability": "payable",
      "type": "function"
    }
  ],
  "bytecode": "0x60a06040523060805234801561001457600080fd5b50608051614a8661004c600039600081816112b3015281816112f30152818161137c015281816113bc01526114340152614a866000f3fe6080604052600436106101775760003560e01c80638da5cb5b116100cc578063db7398291161007a578063db7398291461044f578063db9d48d81461046f578063e16bd3b71461048f578063f19727fd146104af578063f23a6e61146104cf578063f2fde38b146104fb578063f4947f0f1461051b57600080fd5b80638da5cb5b1461034f578063915044ec14610376578063a5756bd214610396578063b1a1c8fc146103b6578063b69fa39e146103d6578063bc197c81146103f6578063bc4781af1461042f57600080fd5b80633659cfe6116101295780633659cfe6146102815780634f1ef286146102a157806352d1902d146102b457806360efe334146102d7578063715018a6146102f75780638129fc1c1461030c578063821c78181461032157600080fd5b806301ffc9a71461017c57806303bdb5fb146101b157806306c0a504146101df5780630c5e921e1461020c5780630dbc71a51461022e57806314ebe08e1461024e5780632faf3ea614610261575b600080fd5b34801561018857600080fd5b5061019c610197366004613e88565b61053b565b60405190151581526020015b60405180910390f35b3480156101bd57600080fd5b506101d16101cc366004614135565b610572565b6040516101a89291906142b2565b3480156101eb57600080fd5b506101ff6101fa3660046142d4565b6108f7565b6040516101a8919061430d565b34801561021857600080fd5b5061022c610227366004614135565b610971565b005b34801561023a57600080fd5b5061022c610249366004614135565b610e3f565b61022c61025c366004614135565b610fbd565b34801561026d57600080fd5b5061022c61027c366004614320565b6111d6565b34801561028d57600080fd5b5061022c61029c36600461434c565b6112a8565b61022c6102af3660046143d8565b611371565b3480156102c057600080fd5b506102c9611427565b6040519081526020016101a8565b3480156102e357600080fd5b506102c96102f2366004614427565b6114d5565b34801561030357600080fd5b5061022c6114fa565b34801561031857600080fd5b5061022c61150e565b34801561032d57600080fd5b5061034161033c3660046142d4565b611626565b6040516101a8929190614453565b34801561035b57600080fd5b506033546001600160a01b03165b6040516101a891906144c0565b34801561038257600080fd5b506103696103913660046144d4565b611b71565b3480156103a257600080fd5b5061022c6103b136600461434c565b611b91565b3480156103c257600080fd5b5061022c6103d1366004614135565b611bbb565b3480156103e257600080fd5b506103416103f13660046144ed565b611cf3565b34801561040257600080fd5b5061042261041136600461452e565b63bc197c8160e01b95945050505050565b6040516101a891906145db565b34801561043b57600080fd5b5061022c61044a36600461434c565b611f7d565b34801561045b57600080fd5b5061034161046a366004614427565b611fa7565b34801561047b57600080fd5b5060fb54610369906001600160a01b031681565b34801561049b57600080fd5b506103416104aa36600461434c565b612215565b3480156104bb57600080fd5b506102c96104ca3660046145f0565b6125b0565b3480156104db57600080fd5b506104226104ea36600461462c565b63f23a6e6160e01b95945050505050565b34801561050757600080fd5b5061022c61051636600461434c565b61261e565b34801561052757600080fd5b506101ff61053636600461434c565b612694565b60006001600160e01b03198216630271189760e51b148061056c57506301ffc9a760e01b6001600160e01b03198316145b92915050565b61057a613d1a565b6001600160a01b03841660009081526101016020908152604080832086845282528083208054825181850281018501909352808352909261075792918491869084015b8282101561074d576000848152602090819020604080516101408101825260098602909201805460ff8116845261010090046001600160a01b0316838501526001810154838301526002810154606084015260038101546080840152600481015460a0840152600581015460c08401526006810180548351818702810187019094528084529394919360e08601939283018282801561068557602002820191906000526020600020905b81546001600160a01b03168152600190910190602001808311610667575b50505050508152602001600782018054806020026020016040519081016040528092919081815260200182805480156106dd57602002820191906000526020600020905b8154815260200190600101908083116106c9575b505050505081526020016008820180548060200260200160405190810160405280929190818152602001828054801561073557602002820191906000526020600020905b815481526020019060010190808311610721575b505050505081525050815260200190600101906105bd565b5050505085612700565b8154811061076757610767614694565b600091825260209182902060408051610140810182526009909302909101805460ff811684526001600160a01b0361010090910416838501526001810154838301526002810154606084015260038101546080840152600481015460a0840152600581015460c08401526006810180548351818702810187019094528084529394919360e08601939283018282801561082957602002820191906000526020600020905b81546001600160a01b0316815260019091019060200180831161080b575b505050505081526020016007820180548060200260200160405190810160405280929190818152602001828054801561088157602002820191906000526020600020905b81548152602001906001019080831161086d575b50505050508152602001600882018054806020026020016040519081016040528092919081815260200182805480156108d957602002820191906000526020600020905b8154815260200190600101908083116108c5575b50505050508152505091506108ed836125b0565b9050935093915050565b6001600160a01b0380821660009081526101006020908152604080832093861683529281529082902080548351818402810184019094528084526060939283018282801561096457602002820191906000526020600020905b815481526020019060010190808311610950575b5050505050905092915050565b60fb5483906001600160a01b03166109a45760405162461bcd60e51b815260040161099b906146aa565b60405180910390fd5b60fb5460405163b9209e3360e01b81526001600160a01b039091169063b9209e33906109d49084906004016144c0565b60206040518083038186803b1580156109ec57600080fd5b505afa158015610a00573d6000803e3d6000fd5b505050506040513d601f19601f82011682018060405250810190610a2491906146d7565b610a405760405162461bcd60e51b815260040161099b906146f9565b816060015182604001511015610a885760405162461bcd60e51b815260206004820152600d60248201526c496e76616c696420507269636560981b604482015260640161099b565b6040805160008082526020808301845260e08601929092528251818152808301845261010086015282519081528082018352610120850152339084018190524260a085015260808401519151637921219560e11b81526001600160a01b0387169263f242432a92610b02929091309189919060040161471f565b600060405180830381600087803b158015610b1c57600080fd5b505af1158015610b30573d6000803e3d6000fd5b505050506001600160a01b038416600090815261010160209081526040808320868452909152902054610b89576001600160a01b038416600090815260ff60209081526040822080546001810182559083529120018390555b6001600160a01b038085166000908152610101602090815260408083208784528252808320805460018181018355918552938390208751600990950201805488850151909616610100026001600160a81b031990961660ff9095169490941794909417835585015192820192909255606084015160028201556080840151600382015560a0840151600482015560c0840151600582015560e084015180518593610c3a926006850192910190613d79565b506101008201518051610c57916007840191602090910190613dde565b506101208201518051610c74916008840191602090910190613dde565b5050336000908152610102602090815260408083206001600160a01b0389168452825280832087845290915290205415159050610ce057336000908152610100602090815260408083206001600160a01b03881684528252822080546001810182559083529120018390555b336000908152610102602090815260408083206001600160a01b0388811685529083528184208785528352818420805460018181018355918652948490208751600990960201805488860151909316610100026001600160a81b031990931660ff909616959095179190911784559085015190830155606084015160028301556080840151600383015560a0840151600483015560c0840151600583015560e08401518051859392610d99926006850192910190613d79565b506101008201518051610db6916007840191602090910190613dde565b506101208201518051610dd3916008840191602090910190613dde565b5050507f38a0a1f75b774e0d12cb7ff4847e94d3350d45c3b561435ad9b9868b0ec4a76f8484846000015185602001518660400151876060015188608001518960a001518a60c00151604051610e3199989796959493929190614757565b60405180910390a150505050565b60fb5483906001600160a01b0316610e695760405162461bcd60e51b815260040161099b906146aa565b60fb5460405163b9209e3360e01b81526001600160a01b039091169063b9209e3390610e999084906004016144c0565b60206040518083038186803b158015610eb157600080fd5b505afa158015610ec5573d6000803e3d6000fd5b505050506040513d601f19601f82011682018060405250810190610ee991906146d7565b610f055760405162461bcd60e51b815260040161099b906146f9565b81602001516001600160a01b0316336001600160a01b031614610f575760405162461bcd60e51b815260206004820152600a6024820152692737ba1029b2b63632b960b11b604482015260640161099b565b610f6284848461287c565b7f85e861164bc782ea12ee09ac29de3667829962bcc4fc1e93065a8161587ad3608484846000015185602001518660400151876060015188608001518960a001518a60c00151604051610e3199989796959493929190614757565b60fb5483906001600160a01b0316610fe75760405162461bcd60e51b815260040161099b906146aa565b60fb5460405163b9209e3360e01b81526001600160a01b039091169063b9209e33906110179084906004016144c0565b60206040518083038186803b15801561102f57600080fd5b505afa158015611043573d6000803e3d6000fd5b505050506040513d601f19601f8201168201806040525081019061106791906146d7565b6110835760405162461bcd60e51b815260040161099b906146f9565b61108b612c6f565b81602001516001600160a01b0316336001600160a01b031614156110dd5760405162461bcd60e51b815260206004820152600960248201526824b99029b2b63632b960b91b604482015260640161099b565b60006110e8836125b0565b905061110585858586608001518561110091906147c3565b612cc9565b7fccba53a0685635d0ba900921ada09238126320e6a868f1bbd7a5c525d550b1bb858585600001518660200151876040015188606001518960a001518a60c00151898c60800151336040516111bd9b9a999897969594939291906001600160a01b039b8c168152602081019a909a5260ff9890981660408a01529589166060890152608088019490945260a087019290925260c086015260e08501526101008401526101208301529091166101408201526101600190565b60405180910390a1506111d06001606555565b50505050565b33600090815260fe6020526040902060ff8216600281106111f9576111f9614694565b015482111561123e5760405162461bcd60e51b81526020600482015260116024820152704578636565647320436c61696d61626c6560781b604482015260640161099b565b33600090815260fe60205260409020829060ff83166002811061126357611263614694565b01600082825461127391906147e2565b909155506112a4905060fc60ff83166002811061129257611292614694565b01546001600160a01b03168333612d30565b5050565b306001600160a01b037f00000000000000000000000000000000000000000000000000000000000000001614156112f15760405162461bcd60e51b815260040161099b906147f9565b7f00000000000000000000000000000000000000000000000000000000000000006001600160a01b0316611323612dfb565b6001600160a01b0316146113495760405162461bcd60e51b815260040161099b90614845565b61135281612e17565b6040805160008082526020820190925261136e91839190612e1f565b50565b306001600160a01b037f00000000000000000000000000000000000000000000000000000000000000001614156113ba5760405162461bcd60e51b815260040161099b906147f9565b7f00000000000000000000000000000000000000000000000000000000000000006001600160a01b03166113ec612dfb565b6001600160a01b0316146114125760405162461bcd60e51b815260040161099b90614845565b61141b82612e17565b6112a482826001612e1f565b6000306001600160a01b037f000000000000000000000000000000000000000000000000000000000000000016146114c25760405162461bcd60e51b815260206004820152603860248201527f555550535570677261646561626c653a206d757374206e6f742062652063616c6044820152771b1959081d1a1c9bdd59da0819195b1959d85d1958d85b1b60421b606482015260840161099b565b50600080516020614a0a83398151915290565b60fe60205281600052604060002081600281106114f157600080fd5b01549150829050565b611502612f99565b61150c6000612ff3565b565b600054610100900460ff161580801561152e5750600054600160ff909116105b806115485750303b158015611548575060005460ff166001145b6115ab5760405162461bcd60e51b815260206004820152602e60248201527f496e697469616c697a61626c653a20636f6e747261637420697320616c72656160448201526d191e481a5b9a5d1a585b1a5e995960921b606482015260840161099b565b6000805460ff1916600117905580156115ce576000805461ff0019166101001790555b6115d6613045565b6115de613074565b801561136e576000805461ff0019169055604051600181527f7f26b83ff96e1f2b6a682f133852f6798a09c465da95921460cefb38474024989060200160405180910390a150565b6001600160a01b0380821660009081526101006020908152604080832093861683529290529081206060918291815b81548110156116d3576001600160a01b03808716600090815261010260209081526040808320938b16835292905290812090838361169281614891565b9450815481106116a4576116a4614694565b9060005260206000200154815260200190815260200160002080549050836116cc91906148ac565b9250611655565b50816001600160401b038111156116ec576116ec613ed7565b60405190808252806020026020018201604052801561172557816020015b611712613d1a565b81526020019060019003908161170a5790505b509350816001600160401b0381111561174057611740613ed7565b604051908082528060200260200182016040528015611769578160200160208202803683370190505b5092506000915060005b8154811015611b67576001600160a01b03808716600090815261010260209081526040808320938b1683529290529081208184846117b081614891565b9550815481106117c2576117c2614694565b90600052602060002001548152602001908152602001600020905060005b8154811015611b60578181815481106117fb576117fb614694565b600091825260209182902060408051610140810182526009909302909101805460ff811684526001600160a01b0361010090910416838501526001810154838301526002810154606084015260038101546080840152600481015460a0840152600581015460c08401526006810180548351818702810187019094528084529394919360e0860193928301828280156118bd57602002820191906000526020600020905b81546001600160a01b0316815260019091019060200180831161189f575b505050505081526020016007820180548060200260200160405190810160405280929190818152602001828054801561191557602002820191906000526020600020905b815481526020019060010190808311611901575b505050505081526020016008820180548060200260200160405190810160405280929190818152602001828054801561196d57602002820191906000526020600020905b815481526020019060010190808311611959575b50505050508152505087868151811061198857611988614694565b6020026020010181905250611b288282815481106119a8576119a8614694565b600091825260209182902060408051610140810182526009909302909101805460ff811684526001600160a01b0361010090910416838501526001810154838301526002810154606084015260038101546080840152600481015460a0840152600581015460c08401526006810180548351818702810187019094528084529394919360e086019392830182828015611a6a57602002820191906000526020600020905b81546001600160a01b03168152600190910190602001808311611a4c575b5050505050815260200160078201805480602002602001604051908101604052809291908181526020018280548015611ac257602002820191906000526020600020905b815481526020019060010190808311611aae575b5050505050815260200160088201805480602002602001604051908101604052809291908181526020018280548015611b1a57602002820191906000526020600020905b815481526020019060010190808311611b06575b5050505050815250506125b0565b8686611b3381614891565b975081518110611b4557611b45614694565b6020908102919091010152611b5981614891565b90506117e0565b5050611773565b5050509250929050565b60fc8160028110611b8157600080fd5b01546001600160a01b0316905081565b611b99612f99565b60fd80546001600160a01b0319166001600160a01b0392909216919091179055565b60fb5483906001600160a01b0316611be55760405162461bcd60e51b815260040161099b906146aa565b60fb5460405163b9209e3360e01b81526001600160a01b039091169063b9209e3390611c159084906004016144c0565b60206040518083038186803b158015611c2d57600080fd5b505afa158015611c41573d6000803e3d6000fd5b505050506040513d601f19601f82011682018060405250810190611c6591906146d7565b611c815760405162461bcd60e51b815260040161099b906146f9565b6080820151604051637921219560e11b81526001600160a01b0386169163f242432a91611cb69130913391899160040161471f565b600060405180830381600087803b158015611cd057600080fd5b505af1158015611ce4573d6000803e3d6000fd5b505050506111d084848461309b565b6001600160a01b038084166000908152610102602090815260408083209386168352928152828220848352815282822080548451818402810184019095528085526060948594909384015b82821015611ece576000848152602090819020604080516101408101825260098602909201805460ff8116845261010090046001600160a01b0316838501526001810154838301526002810154606084015260038101546080840152600481015460a0840152600581015460c08401526006810180548351818702810187019094528084529394919360e086019392830182828015611e0657602002820191906000526020600020905b81546001600160a01b03168152600190910190602001808311611de8575b5050505050815260200160078201805480602002602001604051908101604052809291908181526020018280548015611e5e57602002820191906000526020600020905b815481526020019060010190808311611e4a575b5050505050815260200160088201805480602002602001604051908101604052809291908181526020018280548015611eb657602002820191906000526020600020905b815481526020019060010190808311611ea2575b50505050508152505081526020019060010190611d3e565b50505050915081516001600160401b03811115611eed57611eed613ed7565b604051908082528060200260200182016040528015611f16578160200160208202803683370190505b50905060005b8251811015611f7457611f47838281518110611f3a57611f3a614694565b60200260200101516125b0565b828281518110611f5957611f59614694565b6020908102919091010152611f6d81614891565b9050611f1c565b50935093915050565b611f85612f99565b60fb80546001600160a01b0319166001600160a01b0392909216919091179055565b6001600160a01b03821660009081526101016020908152604080832084845282528083208054825181850281018501909352808352606094859484015b82821015612174576000848152602090819020604080516101408101825260098602909201805460ff8116845261010090046001600160a01b0316838501526001810154838301526002810154606084015260038101546080840152600481015460a0840152600581015460c08401526006810180548351818702810187019094528084529394919360e0860193928301828280156120ac57602002820191906000526020600020905b81546001600160a01b0316815260019091019060200180831161208e575b505050505081526020016007820180548060200260200160405190810160405280929190818152602001828054801561210457602002820191906000526020600020905b8154815260200190600101908083116120f0575b505050505081526020016008820180548060200260200160405190810160405280929190818152602001828054801561215c57602002820191906000526020600020905b815481526020019060010190808311612148575b50505050508152505081526020019060010190611fe4565b50505050915081516001600160401b0381111561219357612193613ed7565b6040519080825280602002602001820160405280156121bc578160200160208202803683370190505b50905060005b825181101561220d576121e0838281518110611f3a57611f3a614694565b8282815181106121f2576121f2614694565b602090810291909101015261220681614891565b90506121c2565b509250929050565b6001600160a01b038116600090815260ff602052604081206060918291815b81548110156122a3576001600160a01b03861660009081526101016020526040812090838361226281614891565b94508154811061227457612274614694565b90600052602060002001548152602001908152602001600020805490508361229c91906148ac565b9250612234565b50816001600160401b038111156122bc576122bc613ed7565b6040519080825280602002602001820160405280156122f557816020015b6122e2613d1a565b8152602001906001900390816122da5790505b509350816001600160401b0381111561231057612310613ed7565b604051908082528060200260200182016040528015612339578160200160208202803683370190505b5092506000915060005b81548110156125a8576001600160a01b03861660009081526101016020526040812081848461237181614891565b95508154811061238357612383614694565b90600052602060002001548152602001908152602001600020905060005b81548110156125a1578181815481106123bc576123bc614694565b600091825260209182902060408051610140810182526009909302909101805460ff811684526001600160a01b0361010090910416838501526001810154838301526002810154606084015260038101546080840152600481015460a0840152600581015460c08401526006810180548351818702810187019094528084529394919360e08601939283018282801561247e57602002820191906000526020600020905b81546001600160a01b03168152600190910190602001808311612460575b50505050508152602001600782018054806020026020016040519081016040528092919081815260200182805480156124d657602002820191906000526020600020905b8154815260200190600101908083116124c2575b505050505081526020016008820180548060200260200160405190810160405280929190818152602001828054801561252e57602002820191906000526020600020905b81548152602001906001019080831161251a575b50505050508152505087868151811061254957612549614694565b60200260200101819052506125698282815481106119a8576119a8614694565b868661257481614891565b97508151811061258657612586614694565b602090810291909101015261259a81614891565b90506123a1565b5050612343565b505050915091565b60008160c001518260a001516125c691906148ac565b42106125d3575060608101515b60c082015160a08301516125e790426147e2565b836060015184604001516125fb91906147e2565b61260591906147c3565b61260f91906148c4565b826040015161056c91906147e2565b612626612f99565b6001600160a01b03811661268b5760405162461bcd60e51b815260206004820152602660248201527f4f776e61626c653a206e6577206f776e657220697320746865207a65726f206160448201526564647265737360d01b606482015260840161099b565b61136e81612ff3565b6001600160a01b038116600090815260ff60209081526040918290208054835181840281018401909452808452606093928301828280156126f457602002820191906000526020600020905b8154815260200190600101908083116126e0575b50505050509050919050565b60005b825181101561283e5782818151811061271e5761271e614694565b60200260200101516000015160ff16826000015160ff16148015612762575082818151811061274f5761274f614694565b6020026020010151604001518260400151145b801561278e575082818151811061277b5761277b614694565b6020026020010151606001518260600151145b80156127ba57508281815181106127a7576127a7614694565b602002602001015160a001518260a00151145b80156127e657508281815181106127d3576127d3614694565b602002602001015160c001518260c00151145b801561282457508281815181106127ff576127ff614694565b6020026020010151602001516001600160a01b031682602001516001600160a01b0316145b1561282e5761283e565b61283781614891565b9050612703565b8251811061056c5760405162461bcd60e51b815260206004820152600b60248201526a4e6f74204f6e2053616c6560a81b604482015260640161099b565b6001600160a01b03831660009081526101016020908152604080832085845282528083208054825181850281018501909352808352612a5893859084015b82821015612a4a576000848152602090819020604080516101408101825260098602909201805460ff8116845261010090046001600160a01b0316838501526001810154838301526002810154606084015260038101546080840152600481015460a0840152600581015460c08401526006810180548351818702810187019094528084529394919360e08601939283018282801561298257602002820191906000526020600020905b81546001600160a01b03168152600190910190602001808311612964575b50505050508152602001600782018054806020026020016040519081016040528092919081815260200182805480156129da57602002820191906000526020600020905b8154815260200190600101908083116129c6575b5050505050815260200160088201805480602002602001604051908101604052809291908181526020018280548015612a3257602002820191906000526020600020905b815481526020019060010190808311612a1e575b505050505081525050815260200190600101906128ba565b505050508360200151613131565b6001600160a01b03851660009081526101016020908152604080832087845290915290208054919250839183908110612a9357612a93614694565b600091825260209182902083516009909202018054848401516001600160a01b0316610100026001600160a81b031990911660ff9093169290921791909117815560408301516001820155606083015160028201556080830151600382015560a0830151600482015560c0830151600582015560e083015180519192612b2192600685019290910190613d79565b506101008201518051612b3e916007840191602090910190613dde565b506101208201518051612b5b916008840191602090910190613dde565b5050336000908152610102602090815260408083206001600160a01b038916845282528083208784529091529020805484925083908110612b9e57612b9e614694565b600091825260209182902083516009909202018054848401516001600160a01b0316610100026001600160a81b031990911660ff9093169290921791909117815560408301516001820155606083015160028201556080830151600382015560a0830151600482015560c0830151600582015560e083015180519192612c2c92600685019290910190613d79565b506101008201518051612c49916007840191602090910190613dde565b506101208201518051612c66916008840191602090910190613dde565b50505050505050565b60026065541415612cc25760405162461bcd60e51b815260206004820152601f60248201527f5265656e7472616e637947756172643a207265656e7472616e742063616c6c00604482015260640161099b565b6002606555565b612cf760fc836000015160ff1660028110612ce657612ce6614694565b01546001600160a01b031682613188565b611c8160fc836000015160ff1660028110612d1457612d14614694565b015460208401516001600160a01b039091169083908787613260565b6001600160a01b038316612d74576040516001600160a01b0382169083156108fc029084906000818181858888f193505050501580156111d0573d6000803e3d6000fd5b60405163a9059cbb60e01b81526001600160a01b0382811660048301526024820184905284169063a9059cbb90604401602060405180830381600087803b158015612dbe57600080fd5b505af1158015612dd2573d6000803e3d6000fd5b505050506040513d601f19601f820116820180604052508101906111d091906146d7565b505050565b600080516020614a0a833981519152546001600160a01b031690565b61136e612f99565b7f4910fdfa16fed3260ed0e7147f7cc6da11a60208b5b9406d12a635614ffd91435460ff1615612e5257612df683613299565b826001600160a01b03166352d1902d6040518163ffffffff1660e01b815260040160206040518083038186803b158015612e8b57600080fd5b505afa925050508015612ebb575060408051601f3d908101601f19168201909252612eb8918101906148e6565b60015b612f1e5760405162461bcd60e51b815260206004820152602e60248201527f45524331393637557067726164653a206e657720696d706c656d656e7461746960448201526d6f6e206973206e6f74205555505360901b606482015260840161099b565b600080516020614a0a8339815191528114612f8d5760405162461bcd60e51b815260206004820152602960248201527f45524331393637557067726164653a20756e737570706f727465642070726f786044820152681a58589b195555525160ba1b606482015260840161099b565b50612df6838383613335565b6033546001600160a01b0316331461150c5760405162461bcd60e51b815260206004820181905260248201527f4f776e61626c653a2063616c6c6572206973206e6f7420746865206f776e6572604482015260640161099b565b603380546001600160a01b038381166001600160a01b0319831681179093556040519116919082907f8be0079c531659141344cd1fd0a4f28419497f9722a3daafe3b4186f6b6457e090600090a35050565b600054610100900460ff1661306c5760405162461bcd60e51b815260040161099b906148ff565b61150c61335a565b600054610100900460ff1661150c5760405162461bcd60e51b815260040161099b906148ff565b6001600160a01b038316600081815261010160209081526040808320868452825280832093835260ff90915290206130d791908385600161338a565b602080820180516001600160a01b039081166000908152610102845260408082208884168084529086528183208884528652818320945190931682526101008552808220928252919093528220612df6928490869061338a565b60005b8251811080156131735750816001600160a01b031683828151811061315b5761315b614694565b6020026020010151602001516001600160a01b031614155b1561283e5761318181614891565b9050613134565b6001600160a01b0382166131da57803410156112a45760405162461bcd60e51b8152602060048201526011602482015270125b9cdd59999a58da595b9d08119d5b99607a1b604482015260640161099b565b6040516323b872dd60e01b8152336004820152306024820152604481018290526001600160a01b038316906323b872dd90606401602060405180830381600087803b15801561322857600080fd5b505af115801561323c573d6000803e3d6000fd5b505050506040513d601f19601f82011682018060405250810190612df691906146d7565b600061326b83613a1b565b156132835761327c83838888613aa1565b9050613286565b50835b613291868286612d30565b505050505050565b6001600160a01b0381163b6133065760405162461bcd60e51b815260206004820152602d60248201527f455243313936373a206e657720696d706c656d656e746174696f6e206973206e60448201526c1bdd08184818dbdb9d1c9858dd609a1b606482015260840161099b565b600080516020614a0a83398151915280546001600160a01b0319166001600160a01b0392909216919091179055565b61333e83613b9c565b60008251118061334b5750805b15612df6576111d08383613bdc565b600054610100900460ff166133815760405162461bcd60e51b815260040161099b906148ff565b61150c33612ff3565b600061354086805480602002602001604051908101604052809291908181526020016000905b8282101561074d576000848152602090819020604080516101408101825260098602909201805460ff8116845261010090046001600160a01b0316838501526001810154838301526002810154606084015260038101546080840152600481015460a0840152600581015460c08401526006810180548351818702810187019094528084529394919360e08601939283018282801561347857602002820191906000526020600020905b81546001600160a01b0316815260019091019060200180831161345a575b50505050508152602001600782018054806020026020016040519081016040528092919081815260200182805480156134d057602002820191906000526020600020905b8154815260200190600101908083116134bc575b505050505081526020016008820180548060200260200160405190810160405280929190818152602001828054801561352857602002820191906000526020600020905b815481526020019060010190808311613514575b505050505081525050815260200190600101906133b0565b9050836080015186828154811061355957613559614694565b9060005260206000209060090201600301600082825461357991906147e2565b90915550600090505b86828154811061359457613594614694565b9060005260206000209060090201600601805490508110156137f4578682815481106135c2576135c2614694565b9060005260206000209060090201600301548783815481106135e6576135e6614694565b9060005260206000209060090201600801828154811061360857613608614694565b906000526020600020015411156137e457821561377f5786828154811061363157613631614694565b9060005260206000209060090201600701818154811061365357613653614694565b906000526020600020015487838154811061367057613670614694565b90600052602060002090600902016003015488848154811061369457613694614694565b906000526020600020906009020160080183815481106136b6576136b6614694565b90600052602060002001546136cb91906147e2565b6136d591906147c3565b60fe60008985815481106136eb576136eb614694565b9060005260206000209060090201600601848154811061370d5761370d614694565b60009182526020808320909101546001600160a01b031683528201929092526040019020885489908590811061374557613745614694565b600091825260209091206009909102015460ff166002811061376957613769614694565b01600082825461377991906148ac565b90915550505b86828154811061379157613791614694565b9060005260206000209060090201600301548783815481106137b5576137b5614694565b906000526020600020906009020160080182815481106137d7576137d7614694565b6000918252602090912001555b6137ed81614891565b9050613582565b5085818154811061380757613807614694565b906000526020600020906009020160030154600014156132915785548690613831906001906147e2565b8154811061384157613841614694565b906000526020600020906009020186828154811061386157613861614694565b600091825260209091208254600990920201805460ff90921660ff1983168117825583546001600160a81b031990931617610100928390046001600160a01b03169092029190911781556001808301549082015560028083015490820155600380830154908201556004808301549082015560058083015490820155600680830180546138f19284019190613e19565b50600782810180546139069284019190613e19565b506008828101805461391b9284019190613e19565b509050508580548061392f5761392f61494a565b60008281526020812060096000199093019283020180546001600160a81b03191681556001810182905560028101829055600381018290556004810182905560058101829055906139836006830182613e59565b613991600783016000613e59565b61399f600883016000613e59565b50509055855461329157604051630cef945b60e31b8152600481018690526024810184905273__$e9d29609e19beebe46219d41a81a317a2e$__9063677ca2d89060440160006040518083038186803b1580156139fb57600080fd5b505af4158015613a0f573d6000803e3d6000fd5b50505050505050505050565b6040516301ffc9a760e01b81526000906001600160a01b038316906301ffc9a790613a519063152a902d60e11b906004016145db565b60206040518083038186803b158015613a6957600080fd5b505afa158015613a7d573d6000803e3d6000fd5b505050506040513d601f19601f8201168201806040525081019061056c91906146d7565b60405163152a902d60e11b81526004810184905260248101829052600090819081906001600160a01b03881690632a55205a90604401604080518083038186803b158015613aee57600080fd5b505afa158015613b02573d6000803e3d6000fd5b505050506040513d601f19601f82011682018060405250810190613b269190614960565b9092509050613b3581856147e2565b92508015613b4857613b48858284612d30565b604080516001600160a01b0389168152602081018890529081018290527f7a474f3ea7966b6a336a0169253a863c5bbe817379d3570951736f604adbe2699060600160405180910390a15050949350505050565b613ba581613299565b6040516001600160a01b038216907fbc7cd75a20ee27fd9adebab32041f755214dbc6bffa90cc0225b39da2e5c2d3b90600090a250565b60606001600160a01b0383163b613c445760405162461bcd60e51b815260206004820152602660248201527f416464726573733a2064656c65676174652063616c6c20746f206e6f6e2d636f6044820152651b9d1c9858dd60d21b606482015260840161099b565b600080846001600160a01b031684604051613c5f91906149ba565b600060405180830381855af49150503d8060008114613c9a576040519150601f19603f3d011682016040523d82523d6000602084013e613c9f565b606091505b5091509150613cc78282604051806060016040528060278152602001614a2a60279139613cd0565b95945050505050565b60608315613cdf575081613ce9565b613ce98383613cf0565b9392505050565b815115613d005781518083602001fd5b8060405162461bcd60e51b815260040161099b91906149d6565b604051806101400160405280600060ff16815260200160006001600160a01b0316815260200160008152602001600081526020016000815260200160008152602001600081526020016060815260200160608152602001606081525090565b828054828255906000526020600020908101928215613dce579160200282015b82811115613dce57825182546001600160a01b0319166001600160a01b03909116178255602090920191600190910190613d99565b50613dda929150613e73565b5090565b828054828255906000526020600020908101928215613dce579160200282015b82811115613dce578251825591602001919060010190613dfe565b828054828255906000526020600020908101928215613dce5760005260206000209182015b82811115613dce578254825591600101919060010190613e3e565b508054600082559060005260206000209081019061136e91905b5b80821115613dda5760008155600101613e74565b600060208284031215613e9a57600080fd5b81356001600160e01b031981168114613ce957600080fd5b6001600160a01b038116811461136e57600080fd5b8035613ed281613eb2565b919050565b634e487b7160e01b600052604160045260246000fd5b60405161014081016001600160401b0381118282101715613f1057613f10613ed7565b60405290565b604051601f8201601f191681016001600160401b0381118282101715613f3e57613f3e613ed7565b604052919050565b803560ff81168114613ed257600080fd5b60006001600160401b03821115613f7057613f70613ed7565b5060051b60200190565b600082601f830112613f8b57600080fd5b81356020613fa0613f9b83613f57565b613f16565b82815260059290921b84018101918181019086841115613fbf57600080fd5b8286015b84811015613fe3578035613fd681613eb2565b8352918301918301613fc3565b509695505050505050565b600082601f830112613fff57600080fd5b8135602061400f613f9b83613f57565b82815260059290921b8401810191818101908684111561402e57600080fd5b8286015b84811015613fe35780358352918301918301614032565b6000610140828403121561405c57600080fd5b614064613eed565b905061406f82613f46565b815261407d60208301613ec7565b602082015260408201356040820152606082013560608201526080820135608082015260a082013560a082015260c082013560c082015260e08201356001600160401b03808211156140ce57600080fd5b6140da85838601613f7a565b60e0840152610100915081840135818111156140f557600080fd5b61410186828701613fee565b83850152506101209150818401358181111561411c57600080fd5b61412886828701613fee565b8385015250505092915050565b60008060006060848603121561414a57600080fd5b833561415581613eb2565b92506020840135915060408401356001600160401b0381111561417757600080fd5b61418386828701614049565b9150509250925092565b600081518084526020808501945080840160005b838110156141c65781516001600160a01b0316875295820195908201906001016141a1565b509495945050505050565b600081518084526020808501945080840160005b838110156141c6578151875295820195908201906001016141e5565b805160ff1682526000610140602083015161422760208601826001600160a01b03169052565b5060408301516040850152606083015160608501526080830151608085015260a083015160a085015260c083015160c085015260e08301518160e08601526142718286018261418d565b915050610100808401518583038287015261428c83826141d1565b9250505061012080840151858303828701526142a883826141d1565b9695505050505050565b6040815260006142c56040830185614201565b90508260208301529392505050565b600080604083850312156142e757600080fd5b82356142f281613eb2565b9150602083013561430281613eb2565b809150509250929050565b602081526000613ce960208301846141d1565b6000806040838503121561433357600080fd5b8235915061434360208401613f46565b90509250929050565b60006020828403121561435e57600080fd5b8135613ce981613eb2565b600082601f83011261437a57600080fd5b81356001600160401b0381111561439357614393613ed7565b6143a6601f8201601f1916602001613f16565b8181528460208386010111156143bb57600080fd5b816020850160208301376000918101602001919091529392505050565b600080604083850312156143eb57600080fd5b82356143f681613eb2565b915060208301356001600160401b0381111561441157600080fd5b61441d85828601614369565b9150509250929050565b6000806040838503121561443a57600080fd5b823561444581613eb2565b946020939093013593505050565b6000604082016040835280855180835260608501915060608160051b8601019250602080880160005b838110156144aa57605f19888703018552614498868351614201565b9550938201939082019060010161447c565b505085840381870152505050613cc781856141d1565b6001600160a01b0391909116815260200190565b6000602082840312156144e657600080fd5b5035919050565b60008060006060848603121561450257600080fd5b833561450d81613eb2565b9250602084013561451d81613eb2565b929592945050506040919091013590565b600080600080600060a0868803121561454657600080fd5b853561455181613eb2565b9450602086013561456181613eb2565b935060408601356001600160401b038082111561457d57600080fd5b61458989838a01613fee565b9450606088013591508082111561459f57600080fd5b6145ab89838a01613fee565b935060808801359150808211156145c157600080fd5b506145ce88828901614369565b9150509295509295909350565b6001600160e01b031991909116815260200190565b60006020828403121561460257600080fd5b81356001600160401b0381111561461857600080fd5b61462484828501614049565b949350505050565b600080600080600060a0868803121561464457600080fd5b853561464f81613eb2565b9450602086013561465f81613eb2565b9350604086013592506060860135915060808601356001600160401b0381111561468857600080fd5b6145ce88828901614369565b634e487b7160e01b600052603260045260246000fd5b602080825260139082015272139bc81059191c995cdcc810dbdb9d1c9858dd606a1b604082015260600190565b6000602082840312156146e957600080fd5b81518015158114613ce957600080fd5b6020808252600c908201526b139bdd0815995c9a599a595960a21b604082015260600190565b6001600160a01b0394851681529290931660208301526040820152606081019190915260a06080820181905260009082015260c00190565b6001600160a01b03998a168152602081019890985260ff969096166040880152939096166060860152608085019190915260a084015260c083019390935260e08201929092526101008101919091526101200190565b634e487b7160e01b600052601160045260246000fd5b60008160001904831182151516156147dd576147dd6147ad565b500290565b6000828210156147f4576147f46147ad565b500390565b6020808252602c908201527f46756e6374696f6e206d7573742062652063616c6c6564207468726f7567682060408201526b19195b1959d85d1958d85b1b60a21b606082015260800190565b6020808252602c908201527f46756e6374696f6e206d7573742062652063616c6c6564207468726f7567682060408201526b6163746976652070726f787960a01b606082015260800190565b60006000198214156148a5576148a56147ad565b5060010190565b600082198211156148bf576148bf6147ad565b500190565b6000826148e157634e487b7160e01b600052601260045260246000fd5b500490565b6000602082840312156148f857600080fd5b5051919050565b6020808252602b908201527f496e697469616c697a61626c653a20636f6e7472616374206973206e6f74206960408201526a6e697469616c697a696e6760a81b606082015260800190565b634e487b7160e01b600052603160045260246000fd5b6000806040838503121561497357600080fd5b825161497e81613eb2565b6020939093015192949293505050565b60005b838110156149a9578181015183820152602001614991565b838111156111d05750506000910152565b600082516149cc81846020870161498e565b9190910192915050565b60208152600082518060208401526149f581604085016020870161498e565b601f01601f1916919091016040019291505056fe360894a13ba1a3210667c828492db98dca3e2076cc3735a920a3ca505d382bbc416464726573733a206c6f772d6c6576656c2064656c65676174652063616c6c206661696c6564a264697066735822122081ad7b343d036a866b4261ab6e5ab9e5148ded7e7615a115c1830ba00217b02c64736f6c63430008090033",
  "linkReferences": {
    "contracts/libraries/ArrayLibrary.sol": {
      "ArrayLibrary": [
        {
          "length": 20,
          "start": 14866
        }
      ]
    }
  },
  "deployedLinkReferences": {
    "contracts/libraries/ArrayLibrary.sol": {
      "ArrayLibrary": [
        {
          "length": 20,
          "start": 14790
        }
      ]
    }
  }
}