{
  "_format": "hh-sol-artifact-1",
  "contractName": "ERC1155Offer",
  "sourceName": "contracts/ERC1155Offer.sol",
  "abi": [
    {
      "anonymous": false,
      "inputs": [
        {
          "indexed": false,
          "internalType": "address",
          "name": "previousAdmin",
          "type": "address"
        },
        {
          "indexed": false,
          "internalType": "address",
          "name": "newAdmin",
          "type": "address"
        }
      ],
      "name": "AdminChanged",
      "type": "event"
    },
    {
      "anonymous": false,
      "inputs": [
        {
          "indexed": true,
          "internalType": "address",
          "name": "beacon",
          "type": "address"
        }
      ],
      "name": "BeaconUpgraded",
      "type": "event"
    },
    {
      "anonymous": false,
      "inputs": [
        {
          "indexed": false,
          "internalType": "uint8",
          "name": "version",
          "type": "uint8"
        }
      ],
      "name": "Initialized",
      "type": "event"
    },
    {
      "anonymous": false,
      "inputs": [
        {
          "indexed": false,
          "internalType": "address",
          "name": "contractAddr",
          "type": "address"
        },
        {
          "indexed": false,
          "internalType": "uint256",
          "name": "tokenId",
          "type": "uint256"
        },
        {
          "indexed": false,
          "internalType": "uint8",
          "name": "payment",
          "type": "uint8"
        },
        {
          "indexed": false,
          "internalType": "address",
          "name": "seller",
          "type": "address"
        },
        {
          "indexed": false,
          "internalType": "uint256",
          "name": "startPrice",
          "type": "uint256"
        },
        {
          "indexed": false,
          "internalType": "uint256",
          "name": "endPrice",
          "type": "uint256"
        },
        {
          "indexed": false,
          "internalType": "uint256",
          "name": "startedAt",
          "type": "uint256"
        },
        {
          "indexed": false,
          "internalType": "uint256",
          "name": "duration",
          "type": "uint256"
        },
        {
          "indexed": false,
          "internalType": "uint256",
          "name": "amount",
          "type": "uint256"
        },
        {
          "indexed": false,
          "internalType": "address",
          "name": "offerer",
          "type": "address"
        }
      ],
      "name": "OfferAccepted",
      "type": "event"
    },
    {
      "anonymous": false,
      "inputs": [
        {
          "indexed": false,
          "internalType": "address",
          "name": "contractAddr",
          "type": "address"
        },
        {
          "indexed": false,
          "internalType": "uint256",
          "name": "tokenId",
          "type": "uint256"
        },
        {
          "indexed": false,
          "internalType": "uint8",
          "name": "payment",
          "type": "uint8"
        },
        {
          "indexed": false,
          "internalType": "address",
          "name": "seller",
          "type": "address"
        },
        {
          "indexed": false,
          "internalType": "uint256",
          "name": "startPrice",
          "type": "uint256"
        },
        {
          "indexed": false,
          "internalType": "uint256",
          "name": "endPrice",
          "type": "uint256"
        },
        {
          "indexed": false,
          "internalType": "uint256",
          "name": "startedAt",
          "type": "uint256"
        },
        {
          "indexed": false,
          "internalType": "uint256",
          "name": "duration",
          "type": "uint256"
        },
        {
          "indexed": false,
          "internalType": "uint256",
          "name": "amount",
          "type": "uint256"
        },
        {
          "indexed": false,
          "internalType": "address",
          "name": "offerer",
          "type": "address"
        }
      ],
      "name": "OfferCancelled",
      "type": "event"
    },
    {
      "anonymous": false,
      "inputs": [
        {
          "indexed": false,
          "internalType": "address",
          "name": "contractAddr",
          "type": "address"
        },
        {
          "indexed": false,
          "internalType": "uint256",
          "name": "tokenId",
          "type": "uint256"
        },
        {
          "indexed": false,
          "internalType": "uint8",
          "name": "payment",
          "type": "uint8"
        },
        {
          "indexed": false,
          "internalType": "address",
          "name": "seller",
          "type": "address"
        },
        {
          "indexed": false,
          "internalType": "uint256",
          "name": "startPrice",
          "type": "uint256"
        },
        {
          "indexed": false,
          "internalType": "uint256",
          "name": "endPrice",
          "type": "uint256"
        },
        {
          "indexed": false,
          "internalType": "uint256",
          "name": "startedAt",
          "type": "uint256"
        },
        {
          "indexed": false,
          "internalType": "uint256",
          "name": "duration",
          "type": "uint256"
        },
        {
          "indexed": false,
          "internalType": "uint256",
          "name": "price",
          "type": "uint256"
        },
        {
          "indexed": false,
          "internalType": "uint256",
          "name": "amount",
          "type": "uint256"
        },
        {
          "indexed": false,
          "internalType": "address",
          "name": "offerer",
          "type": "address"
        }
      ],
      "name": "OfferCreated",
      "type": "event"
    },
    {
      "anonymous": false,
      "inputs": [
        {
          "indexed": false,
          "internalType": "address",
          "name": "contractAddr",
          "type": "address"
        },
        {
          "indexed": false,
          "internalType": "uint256",
          "name": "tokenId",
          "type": "uint256"
        },
        {
          "indexed": false,
          "internalType": "uint8",
          "name": "payment",
          "type": "uint8"
        },
        {
          "indexed": false,
          "internalType": "address",
          "name": "seller",
          "type": "address"
        },
        {
          "indexed": false,
          "internalType": "uint256",
          "name": "startPrice",
          "type": "uint256"
        },
        {
          "indexed": false,
          "internalType": "uint256",
          "name": "endPrice",
          "type": "uint256"
        },
        {
          "indexed": false,
          "internalType": "uint256",
          "name": "startedAt",
          "type": "uint256"
        },
        {
          "indexed": false,
          "internalType": "uint256",
          "name": "duration",
          "type": "uint256"
        },
        {
          "indexed": false,
          "internalType": "uint256",
          "name": "price",
          "type": "uint256"
        },
        {
          "indexed": false,
          "internalType": "uint256",
          "name": "amount",
          "type": "uint256"
        },
        {
          "indexed": false,
          "internalType": "address",
          "name": "offerer",
          "type": "address"
        }
      ],
      "name": "OfferUpdated",
      "type": "event"
    },
    {
      "anonymous": false,
      "inputs": [
        {
          "indexed": true,
          "internalType": "address",
          "name": "previousOwner",
          "type": "address"
        },
        {
          "indexed": true,
          "internalType": "address",
          "name": "newOwner",
          "type": "address"
        }
      ],
      "name": "OwnershipTransferred",
      "type": "event"
    },
    {
      "anonymous": false,
      "inputs": [
        {
          "indexed": false,
          "internalType": "address",
          "name": "contractAddr",
          "type": "address"
        },
        {
          "indexed": false,
          "internalType": "uint256",
          "name": "tokenId",
          "type": "uint256"
        },
        {
          "indexed": false,
          "internalType": "uint8",
          "name": "payment",
          "type": "uint8"
        },
        {
          "indexed": false,
          "internalType": "address",
          "name": "seller",
          "type": "address"
        },
        {
          "indexed": false,
          "internalType": "uint256",
          "name": "startPrice",
          "type": "uint256"
        },
        {
          "indexed": false,
          "internalType": "uint256",
          "name": "endPrice",
          "type": "uint256"
        },
        {
          "indexed": false,
          "internalType": "uint256",
          "name": "startedAt",
          "type": "uint256"
        },
        {
          "indexed": false,
          "internalType": "uint256",
          "name": "duration",
          "type": "uint256"
        },
        {
          "indexed": false,
          "internalType": "uint256",
          "name": "amount",
          "type": "uint256"
        }
      ],
      "name": "SaleCancelled",
      "type": "event"
    },
    {
      "anonymous": false,
      "inputs": [
        {
          "indexed": false,
          "internalType": "address",
          "name": "contractAddr",
          "type": "address"
        },
        {
          "indexed": false,
          "internalType": "uint256",
          "name": "tokenId",
          "type": "uint256"
        },
        {
          "indexed": false,
          "internalType": "uint8",
          "name": "payment",
          "type": "uint8"
        },
        {
          "indexed": false,
          "internalType": "address",
          "name": "seller",
          "type": "address"
        },
        {
          "indexed": false,
          "internalType": "uint256",
          "name": "startPrice",
          "type": "uint256"
        },
        {
          "indexed": false,
          "internalType": "uint256",
          "name": "endPrice",
          "type": "uint256"
        },
        {
          "indexed": false,
          "internalType": "uint256",
          "name": "amount",
          "type": "uint256"
        },
        {
          "indexed": false,
          "internalType": "uint256",
          "name": "startedAt",
          "type": "uint256"
        },
        {
          "indexed": false,
          "internalType": "uint256",
          "name": "duration",
          "type": "uint256"
        }
      ],
      "name": "SaleCreated",
      "type": "event"
    },
    {
      "anonymous": false,
      "inputs": [
        {
          "indexed": false,
          "internalType": "address",
          "name": "contractAddr",
          "type": "address"
        },
        {
          "indexed": false,
          "internalType": "uint256",
          "name": "tokenId",
          "type": "uint256"
        },
        {
          "indexed": false,
          "internalType": "uint8",
          "name": "payment",
          "type": "uint8"
        },
        {
          "indexed": false,
          "internalType": "address",
          "name": "seller",
          "type": "address"
        },
        {
          "indexed": false,
          "internalType": "uint256",
          "name": "startPrice",
          "type": "uint256"
        },
        {
          "indexed": false,
          "internalType": "uint256",
          "name": "endPrice",
          "type": "uint256"
        },
        {
          "indexed": false,
          "internalType": "uint256",
          "name": "startedAt",
          "type": "uint256"
        },
        {
          "indexed": false,
          "internalType": "uint256",
          "name": "duration",
          "type": "uint256"
        },
        {
          "indexed": false,
          "internalType": "uint256",
          "name": "price",
          "type": "uint256"
        },
        {
          "indexed": false,
          "internalType": "uint256",
          "name": "amount",
          "type": "uint256"
        },
        {
          "indexed": false,
          "internalType": "address",
          "name": "buyer",
          "type": "address"
        }
      ],
      "name": "SaleSuccessful",
      "type": "event"
    },
    {
      "anonymous": false,
      "inputs": [
        {
          "indexed": false,
          "internalType": "address",
          "name": "contractAddr",
          "type": "address"
        },
        {
          "indexed": false,
          "internalType": "uint256",
          "name": "tokenId",
          "type": "uint256"
        },
        {
          "indexed": false,
          "internalType": "uint8",
          "name": "payment",
          "type": "uint8"
        },
        {
          "indexed": false,
          "internalType": "address",
          "name": "seller",
          "type": "address"
        },
        {
          "indexed": false,
          "internalType": "uint256",
          "name": "startPrice",
          "type": "uint256"
        },
        {
          "indexed": false,
          "internalType": "uint256",
          "name": "endPrice",
          "type": "uint256"
        },
        {
          "indexed": false,
          "internalType": "uint256",
          "name": "amount",
          "type": "uint256"
        },
        {
          "indexed": false,
          "internalType": "uint256",
          "name": "startedAt",
          "type": "uint256"
        },
        {
          "indexed": false,
          "internalType": "uint256",
          "name": "duration",
          "type": "uint256"
        }
      ],
      "name": "SaleUpdated",
      "type": "event"
    },
    {
      "anonymous": false,
      "inputs": [
        {
          "indexed": true,
          "internalType": "address",
          "name": "implementation",
          "type": "address"
        }
      ],
      "name": "Upgraded",
      "type": "event"
    },
    {
      "inputs": [
        {
          "internalType": "address",
          "name": "contractAddr",
          "type": "address"
        },
        {
          "internalType": "uint256",
          "name": "tokenId",
          "type": "uint256"
        },
        {
          "components": [
            {
              "internalType": "uint8",
              "name": "payment",
              "type": "uint8"
            },
            {
              "internalType": "address",
              "name": "seller",
              "type": "address"
            },
            {
              "internalType": "uint256",
              "name": "startPrice",
              "type": "uint256"
            },
            {
              "internalType": "uint256",
              "name": "endPrice",
              "type": "uint256"
            },
            {
              "internalType": "uint256",
              "name": "amount",
              "type": "uint256"
            },
            {
              "internalType": "uint256",
              "name": "startedAt",
              "type": "uint256"
            },
            {
              "internalType": "uint256",
              "name": "duration",
              "type": "uint256"
            },
            {
              "internalType": "address[]",
              "name": "offerers",
              "type": "address[]"
            },
            {
              "internalType": "uint256[]",
              "name": "offerPrices",
              "type": "uint256[]"
            },
            {
              "internalType": "uint256[]",
              "name": "offerAmounts",
              "type": "uint256[]"
            }
          ],
          "internalType": "struct ERC1155SaleBase.Sale",
          "name": "sale",
          "type": "tuple"
        }
      ],
      "name": "acceptOffer",
      "outputs": [],
      "stateMutability": "nonpayable",
      "type": "function"
    },
    {
      "inputs": [],
      "name": "addressesContractAddr",
      "outputs": [
        {
          "internalType": "address",
          "name": "",
          "type": "address"
        }
      ],
      "stateMutability": "view",
      "type": "function"
    },
    {
      "inputs": [
        {
          "internalType": "address",
          "name": "contractAddr",
          "type": "address"
        },
        {
          "internalType": "uint256",
          "name": "tokenId",
          "type": "uint256"
        },
        {
          "components": [
            {
              "internalType": "uint8",
              "name": "payment",
              "type": "uint8"
            },
            {
              "internalType": "address",
              "name": "seller",
              "type": "address"
            },
            {
              "internalType": "uint256",
              "name": "startPrice",
              "type": "uint256"
            },
            {
              "internalType": "uint256",
              "name": "endPrice",
              "type": "uint256"
            },
            {
              "internalType": "uint256",
              "name": "amount",
              "type": "uint256"
            },
            {
              "internalType": "uint256",
              "name": "startedAt",
              "type": "uint256"
            },
            {
              "internalType": "uint256",
              "name": "duration",
              "type": "uint256"
            },
            {
              "internalType": "address[]",
              "name": "offerers",
              "type": "address[]"
            },
            {
              "internalType": "uint256[]",
              "name": "offerPrices",
              "type": "uint256[]"
            },
            {
              "internalType": "uint256[]",
              "name": "offerAmounts",
              "type": "uint256[]"
            }
          ],
          "internalType": "struct ERC1155SaleBase.Sale",
          "name": "sale",
          "type": "tuple"
        }
      ],
      "name": "cancelOffer",
      "outputs": [],
      "stateMutability": "nonpayable",
      "type": "function"
    },
    {
      "inputs": [
        {
          "internalType": "uint256",
          "name": "amount",
          "type": "uint256"
        },
        {
          "internalType": "uint8",
          "name": "index",
          "type": "uint8"
        }
      ],
      "name": "claim",
      "outputs": [],
      "stateMutability": "nonpayable",
      "type": "function"
    },
    {
      "inputs": [
        {
          "internalType": "address",
          "name": "",
          "type": "address"
        },
        {
          "internalType": "uint256",
          "name": "",
          "type": "uint256"
        }
      ],
      "name": "claimable",
      "outputs": [
        {
          "internalType": "uint256",
          "name": "",
          "type": "uint256"
        }
      ],
      "stateMutability": "view",
      "type": "function"
    },
    {
      "inputs": [
        {
          "components": [
            {
              "internalType": "uint8",
              "name": "payment",
              "type": "uint8"
            },
            {
              "internalType": "address",
              "name": "seller",
              "type": "address"
            },
            {
              "internalType": "uint256",
              "name": "startPrice",
              "type": "uint256"
            },
            {
              "internalType": "uint256",
              "name": "endPrice",
              "type": "uint256"
            },
            {
              "internalType": "uint256",
              "name": "amount",
              "type": "uint256"
            },
            {
              "internalType": "uint256",
              "name": "startedAt",
              "type": "uint256"
            },
            {
              "internalType": "uint256",
              "name": "duration",
              "type": "uint256"
            },
            {
              "internalType": "address[]",
              "name": "offerers",
              "type": "address[]"
            },
            {
              "internalType": "uint256[]",
              "name": "offerPrices",
              "type": "uint256[]"
            },
            {
              "internalType": "uint256[]",
              "name": "offerAmounts",
              "type": "uint256[]"
            }
          ],
          "internalType": "struct ERC1155SaleBase.Sale",
          "name": "sale",
          "type": "tuple"
        }
      ],
      "name": "getCurrentPrice",
      "outputs": [
        {
          "internalType": "uint256",
          "name": "val",
          "type": "uint256"
        }
      ],
      "stateMutability": "view",
      "type": "function"
    },
    {
      "inputs": [
        {
          "internalType": "address",
          "name": "contractAddr",
          "type": "address"
        },
        {
          "internalType": "uint256",
          "name": "tokenId",
          "type": "uint256"
        },
        {
          "components": [
            {
              "internalType": "uint8",
              "name": "payment",
              "type": "uint8"
            },
            {
              "internalType": "address",
              "name": "seller",
              "type": "address"
            },
            {
              "internalType": "uint256",
              "name": "startPrice",
              "type": "uint256"
            },
            {
              "internalType": "uint256",
              "name": "endPrice",
              "type": "uint256"
            },
            {
              "internalType": "uint256",
              "name": "amount",
              "type": "uint256"
            },
            {
              "internalType": "uint256",
              "name": "startedAt",
              "type": "uint256"
            },
            {
              "internalType": "uint256",
              "name": "duration",
              "type": "uint256"
            },
            {
              "internalType": "address[]",
              "name": "offerers",
              "type": "address[]"
            },
            {
              "internalType": "uint256[]",
              "name": "offerPrices",
              "type": "uint256[]"
            },
            {
              "internalType": "uint256[]",
              "name": "offerAmounts",
              "type": "uint256[]"
            }
          ],
          "internalType": "struct ERC1155SaleBase.Sale",
          "name": "sl",
          "type": "tuple"
        }
      ],
      "name": "getSale",
      "outputs": [
        {
          "components": [
            {
              "internalType": "uint8",
              "name": "payment",
              "type": "uint8"
            },
            {
              "internalType": "address",
              "name": "seller",
              "type": "address"
            },
            {
              "internalType": "uint256",
              "name": "startPrice",
              "type": "uint256"
            },
            {
              "internalType": "uint256",
              "name": "endPrice",
              "type": "uint256"
            },
            {
              "internalType": "uint256",
              "name": "amount",
              "type": "uint256"
            },
            {
              "internalType": "uint256",
              "name": "startedAt",
              "type": "uint256"
            },
            {
              "internalType": "uint256",
              "name": "duration",
              "type": "uint256"
            },
            {
              "internalType": "address[]",
              "name": "offerers",
              "type": "address[]"
            },
            {
              "internalType": "uint256[]",
              "name": "offerPrices",
              "type": "uint256[]"
            },
            {
              "internalType": "uint256[]",
              "name": "offerAmounts",
              "type": "uint256[]"
            }
          ],
          "internalType": "struct ERC1155SaleBase.Sale",
          "name": "sale",
          "type": "tuple"
        },
        {
          "internalType": "uint256",
          "name": "currentPrice",
          "type": "uint256"
        }
      ],
      "stateMutability": "view",
      "type": "function"
    },
    {
      "inputs": [
        {
          "internalType": "address",
          "name": "contractAddr",
          "type": "address"
        }
      ],
      "name": "getSaleTokens",
      "outputs": [
        {
          "internalType": "uint256[]",
          "name": "",
          "type": "uint256[]"
        }
      ],
      "stateMutability": "view",
      "type": "function"
    },
    {
      "inputs": [
        {
          "internalType": "address",
          "name": "contractAddr",
          "type": "address"
        },
        {
          "internalType": "address",
          "name": "seller",
          "type": "address"
        }
      ],
      "name": "getSaleTokensBySeller",
      "outputs": [
        {
          "internalType": "uint256[]",
          "name": "",
          "type": "uint256[]"
        }
      ],
      "stateMutability": "view",
      "type": "function"
    },
    {
      "inputs": [
        {
          "internalType": "address",
          "name": "contractAddr",
          "type": "address"
        }
      ],
      "name": "getSales",
      "outputs": [
        {
          "components": [
            {
              "internalType": "uint8",
              "name": "payment",
              "type": "uint8"
            },
            {
              "internalType": "address",
              "name": "seller",
              "type": "address"
            },
            {
              "internalType": "uint256",
              "name": "startPrice",
              "type": "uint256"
            },
            {
              "internalType": "uint256",
              "name": "endPrice",
              "type": "uint256"
            },
            {
              "internalType": "uint256",
              "name": "amount",
              "type": "uint256"
            },
            {
              "internalType": "uint256",
              "name": "startedAt",
              "type": "uint256"
            },
            {
              "internalType": "uint256",
              "name": "duration",
              "type": "uint256"
            },
            {
              "internalType": "address[]",
              "name": "offerers",
              "type": "address[]"
            },
            {
              "internalType": "uint256[]",
              "name": "offerPrices",
              "type": "uint256[]"
            },
            {
              "internalType": "uint256[]",
              "name": "offerAmounts",
              "type": "uint256[]"
            }
          ],
          "internalType": "struct ERC1155SaleBase.Sale[]",
          "name": "sales",
          "type": "tuple[]"
        },
        {
          "internalType": "uint256[]",
          "name": "currentPrices",
          "type": "uint256[]"
        }
      ],
      "stateMutability": "view",
      "type": "function"
    },
    {
      "inputs": [
        {
          "internalType": "address",
          "name": "contractAddr",
          "type": "address"
        },
        {
          "internalType": "uint256",
          "name": "tokenId",
          "type": "uint256"
        }
      ],
      "name": "getSalesByNFT",
      "outputs": [
        {
          "components": [
            {
              "internalType": "uint8",
              "name": "payment",
              "type": "uint8"
            },
            {
              "internalType": "address",
              "name": "seller",
              "type": "address"
            },
            {
              "internalType": "uint256",
              "name": "startPrice",
              "type": "uint256"
            },
            {
              "internalType": "uint256",
              "name": "endPrice",
              "type": "uint256"
            },
            {
              "internalType": "uint256",
              "name": "amount",
              "type": "uint256"
            },
            {
              "internalType": "uint256",
              "name": "startedAt",
              "type": "uint256"
            },
            {
              "internalType": "uint256",
              "name": "duration",
              "type": "uint256"
            },
            {
              "internalType": "address[]",
              "name": "offerers",
              "type": "address[]"
            },
            {
              "internalType": "uint256[]",
              "name": "offerPrices",
              "type": "uint256[]"
            },
            {
              "internalType": "uint256[]",
              "name": "offerAmounts",
              "type": "uint256[]"
            }
          ],
          "internalType": "struct ERC1155SaleBase.Sale[]",
          "name": "sales",
          "type": "tuple[]"
        },
        {
          "internalType": "uint256[]",
          "name": "currentPrices",
          "type": "uint256[]"
        }
      ],
      "stateMutability": "view",
      "type": "function"
    },
    {
      "inputs": [
        {
          "internalType": "address",
          "name": "contractAddr",
          "type": "address"
        },
        {
          "internalType": "address",
          "name": "owner",
          "type": "address"
        }
      ],
      "name": "getSalesBySeller",
      "outputs": [
        {
          "components": [
            {
              "internalType": "uint8",
              "name": "payment",
              "type": "uint8"
            },
            {
              "internalType": "address",
              "name": "seller",
              "type": "address"
            },
            {
              "internalType": "uint256",
              "name": "startPrice",
              "type": "uint256"
            },
            {
              "internalType": "uint256",
              "name": "endPrice",
              "type": "uint256"
            },
            {
              "internalType": "uint256",
              "name": "amount",
              "type": "uint256"
            },
            {
              "internalType": "uint256",
              "name": "startedAt",
              "type": "uint256"
            },
            {
              "internalType": "uint256",
              "name": "duration",
              "type": "uint256"
            },
            {
              "internalType": "address[]",
              "name": "offerers",
              "type": "address[]"
            },
            {
              "internalType": "uint256[]",
              "name": "offerPrices",
              "type": "uint256[]"
            },
            {
              "internalType": "uint256[]",
              "name": "offerAmounts",
              "type": "uint256[]"
            }
          ],
          "internalType": "struct ERC1155SaleBase.Sale[]",
          "name": "sales",
          "type": "tuple[]"
        },
        {
          "internalType": "uint256[]",
          "name": "currentPrices",
          "type": "uint256[]"
        }
      ],
      "stateMutability": "view",
      "type": "function"
    },
    {
      "inputs": [
        {
          "internalType": "address",
          "name": "seller",
          "type": "address"
        },
        {
          "internalType": "address",
          "name": "contractAddr",
          "type": "address"
        },
        {
          "internalType": "uint256",
          "name": "tokenId",
          "type": "uint256"
        }
      ],
      "name": "getSalesBySellerNFT",
      "outputs": [
        {
          "components": [
            {
              "internalType": "uint8",
              "name": "payment",
              "type": "uint8"
            },
            {
              "internalType": "address",
              "name": "seller",
              "type": "address"
            },
            {
              "internalType": "uint256",
              "name": "startPrice",
              "type": "uint256"
            },
            {
              "internalType": "uint256",
              "name": "endPrice",
              "type": "uint256"
            },
            {
              "internalType": "uint256",
              "name": "amount",
              "type": "uint256"
            },
            {
              "internalType": "uint256",
              "name": "startedAt",
              "type": "uint256"
            },
            {
              "internalType": "uint256",
              "name": "duration",
              "type": "uint256"
            },
            {
              "internalType": "address[]",
              "name": "offerers",
              "type": "address[]"
            },
            {
              "internalType": "uint256[]",
              "name": "offerPrices",
              "type": "uint256[]"
            },
            {
              "internalType": "uint256[]",
              "name": "offerAmounts",
              "type": "uint256[]"
            }
          ],
          "internalType": "struct ERC1155SaleBase.Sale[]",
          "name": "sales",
          "type": "tuple[]"
        },
        {
          "internalType": "uint256[]",
          "name": "currentPrices",
          "type": "uint256[]"
        }
      ],
      "stateMutability": "view",
      "type": "function"
    },
    {
      "inputs": [],
      "name": "initialize",
      "outputs": [],
      "stateMutability": "nonpayable",
      "type": "function"
    },
    {
      "inputs": [
        {
          "internalType": "address",
          "name": "contractAddr",
          "type": "address"
        },
        {
          "internalType": "uint256",
          "name": "tokenId",
          "type": "uint256"
        },
        {
          "components": [
            {
              "internalType": "uint8",
              "name": "payment",
              "type": "uint8"
            },
            {
              "internalType": "address",
              "name": "seller",
              "type": "address"
            },
            {
              "internalType": "uint256",
              "name": "startPrice",
              "type": "uint256"
            },
            {
              "internalType": "uint256",
              "name": "endPrice",
              "type": "uint256"
            },
            {
              "internalType": "uint256",
              "name": "amount",
              "type": "uint256"
            },
            {
              "internalType": "uint256",
              "name": "startedAt",
              "type": "uint256"
            },
            {
              "internalType": "uint256",
              "name": "duration",
              "type": "uint256"
            },
            {
              "internalType": "address[]",
              "name": "offerers",
              "type": "address[]"
            },
            {
              "internalType": "uint256[]",
              "name": "offerPrices",
              "type": "uint256[]"
            },
            {
              "internalType": "uint256[]",
              "name": "offerAmounts",
              "type": "uint256[]"
            }
          ],
          "internalType": "struct ERC1155SaleBase.Sale",
          "name": "sale",
          "type": "tuple"
        },
        {
          "internalType": "uint256",
          "name": "price",
          "type": "uint256"
        }
      ],
      "name": "makeOffer",
      "outputs": [],
      "stateMutability": "payable",
      "type": "function"
    },
    {
      "inputs": [
        {
          "internalType": "address",
          "name": "",
          "type": "address"
        },
        {
          "internalType": "address",
          "name": "",
          "type": "address"
        },
        {
          "internalType": "uint256[]",
          "name": "",
          "type": "uint256[]"
        },
        {
          "internalType": "uint256[]",
          "name": "",
          "type": "uint256[]"
        },
        {
          "internalType": "bytes",
          "name": "",
          "type": "bytes"
        }
      ],
      "name": "onERC1155BatchReceived",
      "outputs": [
        {
          "internalType": "bytes4",
          "name": "",
          "type": "bytes4"
        }
      ],
      "stateMutability": "nonpayable",
      "type": "function"
    },
    {
      "inputs": [
        {
          "internalType": "address",
          "name": "",
          "type": "address"
        },
        {
          "internalType": "address",
          "name": "",
          "type": "address"
        },
        {
          "internalType": "uint256",
          "name": "",
          "type": "uint256"
        },
        {
          "internalType": "uint256",
          "name": "",
          "type": "uint256"
        },
        {
          "internalType": "bytes",
          "name": "",
          "type": "bytes"
        }
      ],
      "name": "onERC1155Received",
      "outputs": [
        {
          "internalType": "bytes4",
          "name": "",
          "type": "bytes4"
        }
      ],
      "stateMutability": "nonpayable",
      "type": "function"
    },
    {
      "inputs": [],
      "name": "owner",
      "outputs": [
        {
          "internalType": "address",
          "name": "",
          "type": "address"
        }
      ],
      "stateMutability": "view",
      "type": "function"
    },
    {
      "inputs": [],
      "name": "proxiableUUID",
      "outputs": [
        {
          "internalType": "bytes32",
          "name": "",
          "type": "bytes32"
        }
      ],
      "stateMutability": "view",
      "type": "function"
    },
    {
      "inputs": [],
      "name": "renounceOwnership",
      "outputs": [],
      "stateMutability": "nonpayable",
      "type": "function"
    },
    {
      "inputs": [
        {
          "internalType": "address",
          "name": "contractAddr",
          "type": "address"
        }
      ],
      "name": "setAddressesContractAddr",
      "outputs": [],
      "stateMutability": "nonpayable",
      "type": "function"
    },
    {
      "inputs": [
        {
          "internalType": "address",
          "name": "newSparkAddr",
          "type": "address"
        }
      ],
      "name": "setSparkTokenContractAddr",
      "outputs": [],
      "stateMutability": "nonpayable",
      "type": "function"
    },
    {
      "inputs": [
        {
          "internalType": "bytes4",
          "name": "interfaceId",
          "type": "bytes4"
        }
      ],
      "name": "supportsInterface",
      "outputs": [
        {
          "internalType": "bool",
          "name": "",
          "type": "bool"
        }
      ],
      "stateMutability": "view",
      "type": "function"
    },
    {
      "inputs": [
        {
          "internalType": "uint256",
          "name": "",
          "type": "uint256"
        }
      ],
      "name": "tokenAddrs",
      "outputs": [
        {
          "internalType": "address",
          "name": "",
          "type": "address"
        }
      ],
      "stateMutability": "view",
      "type": "function"
    },
    {
      "inputs": [
        {
          "internalType": "address",
          "name": "newOwner",
          "type": "address"
        }
      ],
      "name": "transferOwnership",
      "outputs": [],
      "stateMutability": "nonpayable",
      "type": "function"
    },
    {
      "inputs": [
        {
          "internalType": "address",
          "name": "contractAddr",
          "type": "address"
        },
        {
          "internalType": "uint256",
          "name": "tokenId",
          "type": "uint256"
        },
        {
          "components": [
            {
              "internalType": "uint8",
              "name": "payment",
              "type": "uint8"
            },
            {
              "internalType": "address",
              "name": "seller",
              "type": "address"
            },
            {
              "internalType": "uint256",
              "name": "startPrice",
              "type": "uint256"
            },
            {
              "internalType": "uint256",
              "name": "endPrice",
              "type": "uint256"
            },
            {
              "internalType": "uint256",
              "name": "amount",
              "type": "uint256"
            },
            {
              "internalType": "uint256",
              "name": "startedAt",
              "type": "uint256"
            },
            {
              "internalType": "uint256",
              "name": "duration",
              "type": "uint256"
            },
            {
              "internalType": "address[]",
              "name": "offerers",
              "type": "address[]"
            },
            {
              "internalType": "uint256[]",
              "name": "offerPrices",
              "type": "uint256[]"
            },
            {
              "internalType": "uint256[]",
              "name": "offerAmounts",
              "type": "uint256[]"
            }
          ],
          "internalType": "struct ERC1155SaleBase.Sale",
          "name": "sale",
          "type": "tuple"
        },
        {
          "internalType": "uint256",
          "name": "price",
          "type": "uint256"
        },
        {
          "internalType": "uint256",
          "name": "amount",
          "type": "uint256"
        }
      ],
      "name": "updateOffer",
      "outputs": [],
      "stateMutability": "payable",
      "type": "function"
    },
    {
      "inputs": [
        {
          "internalType": "address",
          "name": "newImplementation",
          "type": "address"
        }
      ],
      "name": "upgradeTo",
      "outputs": [],
      "stateMutability": "nonpayable",
      "type": "function"
    },
    {
      "inputs": [
        {
          "internalType": "address",
          "name": "newImplementation",
          "type": "address"
        },
        {
          "internalType": "bytes",
          "name": "data",
          "type": "bytes"
        }
      ],
      "name": "upgradeToAndCall",
      "outputs": [],
      "stateMutability": "payable",
      "type": "function"
    }
  ],
  "bytecode": "0x60a06040523060805234801561001457600080fd5b50608051615c6d6200004d60003960008181610a4601528181610a8601528181610b0f01528181610b4f0152610bc70152615c6d6000f3fe6080604052600436106101775760003560e01c8063a5756bd2116100cc578063db9d48d81161007a578063db9d48d814610442578063e16bd3b714610462578063e409886b14610482578063f19727fd146104a2578063f23a6e61146104c2578063f2fde38b146104ee578063f4947f0f1461050e57600080fd5b8063a5756bd214610356578063b4fc38bc14610376578063b69fa39e14610389578063bc197c81146103a9578063bc4781af146103e2578063dab54e6114610402578063db7398291461042257600080fd5b806360efe3341161012957806360efe33414610284578063715018a6146102a45780638129fc1c146102b9578063821c7818146102ce5780638da5cb5b146102fc578063915044ec146103235780639a41382e1461034357600080fd5b806301ffc9a71461017c57806303bdb5fb146101b157806306c0a504146101df5780632faf3ea61461020c5780633659cfe61461022e5780634f1ef2861461024e57806352d1902d14610261575b600080fd5b34801561018857600080fd5b5061019c610197366004614df1565b61052e565b60405190151581526020015b60405180910390f35b3480156101bd57600080fd5b506101d16101cc36600461509e565b610565565b6040516101a892919061521b565b3480156101eb57600080fd5b506101ff6101fa36600461523d565b6108ea565b6040516101a89190615276565b34801561021857600080fd5b5061022c610227366004615289565b610964565b005b34801561023a57600080fd5b5061022c6102493660046152b5565b610a3b565b61022c61025c366004615341565b610b04565b34801561026d57600080fd5b50610276610bba565b6040519081526020016101a8565b34801561029057600080fd5b5061027661029f366004615390565b610c68565b3480156102b057600080fd5b5061022c610c8d565b3480156102c557600080fd5b5061022c610ca1565b3480156102da57600080fd5b506102ee6102e936600461523d565b610db9565b6040516101a89291906153bc565b34801561030857600080fd5b506033546001600160a01b03165b6040516101a89190615429565b34801561032f57600080fd5b5061031661033e36600461543d565b611304565b61022c610351366004615456565b611324565b34801561036257600080fd5b5061022c6103713660046152b5565b6114d3565b61022c6103843660046154c0565b6114fd565b34801561039557600080fd5b506102ee6103a4366004615520565b611768565b3480156103b557600080fd5b506103d56103c4366004615561565b63bc197c8160e01b95945050505050565b6040516101a8919061560e565b3480156103ee57600080fd5b5061022c6103fd3660046152b5565b6119f2565b34801561040e57600080fd5b5061022c61041d36600461509e565b611a1c565b34801561042e57600080fd5b506102ee61043d366004615390565b61202c565b34801561044e57600080fd5b5060fb54610316906001600160a01b031681565b34801561046e57600080fd5b506102ee61047d3660046152b5565b61229a565b34801561048e57600080fd5b5061022c61049d36600461509e565b612635565b3480156104ae57600080fd5b506102766104bd366004615623565b612b0c565b3480156104ce57600080fd5b506103d56104dd36600461565f565b63f23a6e6160e01b95945050505050565b3480156104fa57600080fd5b5061022c6105093660046152b5565b612b7a565b34801561051a57600080fd5b506101ff6105293660046152b5565b612bf0565b60006001600160e01b03198216630271189760e51b148061055f57506301ffc9a760e01b6001600160e01b03198316145b92915050565b61056d614d13565b6001600160a01b03841660009081526101016020908152604080832086845282528083208054825181850281018501909352808352909261074a92918491869084015b82821015610740576000848152602090819020604080516101408101825260098602909201805460ff8116845261010090046001600160a01b0316838501526001810154838301526002810154606084015260038101546080840152600481015460a0840152600581015460c08401526006810180548351818702810187019094528084529394919360e08601939283018282801561067857602002820191906000526020600020905b81546001600160a01b0316815260019091019060200180831161065a575b50505050508152602001600782018054806020026020016040519081016040528092919081815260200182805480156106d057602002820191906000526020600020905b8154815260200190600101908083116106bc575b505050505081526020016008820180548060200260200160405190810160405280929190818152602001828054801561072857602002820191906000526020600020905b815481526020019060010190808311610714575b505050505081525050815260200190600101906105b0565b5050505085612c5c565b8154811061075a5761075a6156c7565b600091825260209182902060408051610140810182526009909302909101805460ff811684526001600160a01b0361010090910416838501526001810154838301526002810154606084015260038101546080840152600481015460a0840152600581015460c08401526006810180548351818702810187019094528084529394919360e08601939283018282801561081c57602002820191906000526020600020905b81546001600160a01b031681526001909101906020018083116107fe575b505050505081526020016007820180548060200260200160405190810160405280929190818152602001828054801561087457602002820191906000526020600020905b815481526020019060010190808311610860575b50505050508152602001600882018054806020026020016040519081016040528092919081815260200182805480156108cc57602002820191906000526020600020905b8154815260200190600101908083116108b8575b50505050508152505091506108e083612b0c565b9050935093915050565b6001600160a01b0380821660009081526101006020908152604080832093861683529281529082902080548351818402810184019094528084526060939283018282801561095757602002820191906000526020600020905b815481526020019060010190808311610943575b5050505050905092915050565b33600090815260fe6020526040902060ff821660028110610987576109876156c7565b01548211156109d15760405162461bcd60e51b81526020600482015260116024820152704578636565647320436c61696d61626c6560781b60448201526064015b60405180910390fd5b33600090815260fe60205260409020829060ff8316600281106109f6576109f66156c7565b016000828254610a0691906156f3565b90915550610a37905060fc60ff831660028110610a2557610a256156c7565b01546001600160a01b03168333612dba565b5050565b306001600160a01b037f0000000000000000000000000000000000000000000000000000000000000000161415610a845760405162461bcd60e51b81526004016109c89061570a565b7f00000000000000000000000000000000000000000000000000000000000000006001600160a01b0316610ab6612e8b565b6001600160a01b031614610adc5760405162461bcd60e51b81526004016109c890615756565b610ae581612ea7565b60408051600080825260208201909252610b0191839190612eaf565b50565b306001600160a01b037f0000000000000000000000000000000000000000000000000000000000000000161415610b4d5760405162461bcd60e51b81526004016109c89061570a565b7f00000000000000000000000000000000000000000000000000000000000000006001600160a01b0316610b7f612e8b565b6001600160a01b031614610ba55760405162461bcd60e51b81526004016109c890615756565b610bae82612ea7565b610a3782826001612eaf565b6000306001600160a01b037f00000000000000000000000000000000000000000000000000000000000000001614610c555760405162461bcd60e51b815260206004820152603860248201527f555550535570677261646561626c653a206d757374206e6f742062652063616c6044820152771b1959081d1a1c9bdd59da0819195b1959d85d1958d85b1b60421b60648201526084016109c8565b50600080516020615bf183398151915290565b60fe6020528160005260406000208160028110610c8457600080fd5b01549150829050565b610c95613029565b610c9f6000613083565b565b600054610100900460ff1615808015610cc15750600054600160ff909116105b80610cdb5750303b158015610cdb575060005460ff166001145b610d3e5760405162461bcd60e51b815260206004820152602e60248201527f496e697469616c697a61626c653a20636f6e747261637420697320616c72656160448201526d191e481a5b9a5d1a585b1a5e995960921b60648201526084016109c8565b6000805460ff191660011790558015610d61576000805461ff0019166101001790555b610d696130d5565b610d71613104565b8015610b01576000805461ff0019169055604051600181527f7f26b83ff96e1f2b6a682f133852f6798a09c465da95921460cefb38474024989060200160405180910390a150565b6001600160a01b0380821660009081526101006020908152604080832093861683529290529081206060918291815b8154811015610e66576001600160a01b03808716600090815261010260209081526040808320938b168352929052908120908383610e25816157a2565b945081548110610e3757610e376156c7565b906000526020600020015481526020019081526020016000208054905083610e5f91906157bd565b9250610de8565b50816001600160401b03811115610e7f57610e7f614e40565b604051908082528060200260200182016040528015610eb857816020015b610ea5614d13565b815260200190600190039081610e9d5790505b509350816001600160401b03811115610ed357610ed3614e40565b604051908082528060200260200182016040528015610efc578160200160208202803683370190505b5092506000915060005b81548110156112fa576001600160a01b03808716600090815261010260209081526040808320938b168352929052908120818484610f43816157a2565b955081548110610f5557610f556156c7565b90600052602060002001548152602001908152602001600020905060005b81548110156112f357818181548110610f8e57610f8e6156c7565b600091825260209182902060408051610140810182526009909302909101805460ff811684526001600160a01b0361010090910416838501526001810154838301526002810154606084015260038101546080840152600481015460a0840152600581015460c08401526006810180548351818702810187019094528084529394919360e08601939283018282801561105057602002820191906000526020600020905b81546001600160a01b03168152600190910190602001808311611032575b50505050508152602001600782018054806020026020016040519081016040528092919081815260200182805480156110a857602002820191906000526020600020905b815481526020019060010190808311611094575b505050505081526020016008820180548060200260200160405190810160405280929190818152602001828054801561110057602002820191906000526020600020905b8154815260200190600101908083116110ec575b50505050508152505087868151811061111b5761111b6156c7565b60200260200101819052506112bb82828154811061113b5761113b6156c7565b600091825260209182902060408051610140810182526009909302909101805460ff811684526001600160a01b0361010090910416838501526001810154838301526002810154606084015260038101546080840152600481015460a0840152600581015460c08401526006810180548351818702810187019094528084529394919360e0860193928301828280156111fd57602002820191906000526020600020905b81546001600160a01b031681526001909101906020018083116111df575b505050505081526020016007820180548060200260200160405190810160405280929190818152602001828054801561125557602002820191906000526020600020905b815481526020019060010190808311611241575b50505050508152602001600882018054806020026020016040519081016040528092919081815260200182805480156112ad57602002820191906000526020600020905b815481526020019060010190808311611299575b505050505081525050612b0c565b86866112c6816157a2565b9750815181106112d8576112d86156c7565b60209081029190910101526112ec816157a2565b9050610f73565b5050610f06565b5050509250929050565b60fc816002811061131457600080fd5b01546001600160a01b0316905081565b60fb5485906001600160a01b031661134e5760405162461bcd60e51b81526004016109c8906157d5565b60fb5460405163b9209e3360e01b81526001600160a01b039091169063b9209e339061137e908490600401615429565b60206040518083038186803b15801561139657600080fd5b505afa1580156113aa573d6000803e3d6000fd5b505050506040513d601f19601f820116820180604052508101906113ce9190615802565b6113ea5760405162461bcd60e51b81526004016109c890615824565b83602001516001600160a01b0316336001600160a01b031614156114205760405162461bcd60e51b81526004016109c89061584a565b600061142b85612b0c565b6001600160a01b0388166000908152610101602090815260408083208a8452909152902090915061146390889088908888868961312b565b7f1f7371c4e1e364e0f26d44bacabbf941ccc4d555ea64e4c5fbad8b1ec101882b87878760000151886020015189604001518a606001518b60a001518c60c001518c8e60800151336040516114c29b9a9998979695949392919061586d565b60405180910390a150505050505050565b6114db613029565b60fd80546001600160a01b0319166001600160a01b0392909216919091179055565b60fb5484906001600160a01b03166115275760405162461bcd60e51b81526004016109c8906157d5565b60fb5460405163b9209e3360e01b81526001600160a01b039091169063b9209e3390611557908490600401615429565b60206040518083038186803b15801561156f57600080fd5b505afa158015611583573d6000803e3d6000fd5b505050506040513d601f19601f820116820180604052508101906115a79190615802565b6115c35760405162461bcd60e51b81526004016109c890615824565b82602001516001600160a01b0316336001600160a01b031614156115f95760405162461bcd60e51b81526004016109c89061584a565b600061160484612b0c565b905080831061164b5760405162461bcd60e51b8152602060048201526013602482015272496e76616c6964204f6666657220507269636560681b60448201526064016109c8565b61168a60fc856000015160ff1660028110611668576116686156c7565b015460808601516001600160a01b039091169061168590866158cb565b6136a6565b6001600160a01b03861660009081526101016020908152604080832088845290915290206116ba9085858461377e565b6020808501516001600160a01b03908116600090815261010283526040808220928a16825291835281812088825290925290206116f99085858461377e565b7f3e1a01baff8094b01a8767647c320f6aa3c7ba8cf71046aa7ac4f062de2b0488868686600001518760200151886040015189606001518a60a001518b60c001518b8d60800151336040516117589b9a9998979695949392919061586d565b60405180910390a1505050505050565b6001600160a01b038084166000908152610102602090815260408083209386168352928152828220848352815282822080548451818402810184019095528085526060948594909384015b82821015611943576000848152602090819020604080516101408101825260098602909201805460ff8116845261010090046001600160a01b0316838501526001810154838301526002810154606084015260038101546080840152600481015460a0840152600581015460c08401526006810180548351818702810187019094528084529394919360e08601939283018282801561187b57602002820191906000526020600020905b81546001600160a01b0316815260019091019060200180831161185d575b50505050508152602001600782018054806020026020016040519081016040528092919081815260200182805480156118d357602002820191906000526020600020905b8154815260200190600101908083116118bf575b505050505081526020016008820180548060200260200160405190810160405280929190818152602001828054801561192b57602002820191906000526020600020905b815481526020019060010190808311611917575b505050505081525050815260200190600101906117b3565b50505050915081516001600160401b0381111561196257611962614e40565b60405190808252806020026020018201604052801561198b578160200160208202803683370190505b50905060005b82518110156119e9576119bc8382815181106119af576119af6156c7565b6020026020010151612b0c565b8282815181106119ce576119ce6156c7565b60209081029190910101526119e2816157a2565b9050611991565b50935093915050565b6119fa613029565b60fb80546001600160a01b0319166001600160a01b0392909216919091179055565b60fb5483906001600160a01b0316611a465760405162461bcd60e51b81526004016109c8906157d5565b60fb5460405163b9209e3360e01b81526001600160a01b039091169063b9209e3390611a76908490600401615429565b60206040518083038186803b158015611a8e57600080fd5b505afa158015611aa2573d6000803e3d6000fd5b505050506040513d601f19601f82011682018060405250810190611ac69190615802565b611ae25760405162461bcd60e51b81526004016109c890615824565b6001600160a01b03841660009081526101016020908152604080832086845282528083208054825181850281018501909352808352611cba93859084015b82821015611cb0576000848152602090819020604080516101408101825260098602909201805460ff8116845261010090046001600160a01b0316838501526001810154838301526002810154606084015260038101546080840152600481015460a0840152600581015460c08401526006810180548351818702810187019094528084529394919360e086019392830182828015611be857602002820191906000526020600020905b81546001600160a01b03168152600190910190602001808311611bca575b5050505050815260200160078201805480602002602001604051908101604052809291908181526020018280548015611c4057602002820191906000526020600020905b815481526020019060010190808311611c2c575b5050505050815260200160088201805480602002602001604051908101604052809291908181526020018280548015611c9857602002820191906000526020600020905b815481526020019060010190808311611c84575b50505050508152505081526020019060010190611b20565b5050505084612c5c565b6001600160a01b0386166000908152610101602090815260408083208884529091529020549091508110611d005760405162461bcd60e51b81526004016109c8906158ea565b6001600160a01b0385166000908152610101602090815260408083208784529091528120805483908110611d3657611d366156c7565b906000526020600020906009020190506000816006018054905011611d6d5760405162461bcd60e51b81526004016109c89061590f565b604051632d49165560e11b815260009073__$e9d29609e19beebe46219d41a81a317a2e$__90635a922caa90611daa906007860190600401615931565b60206040518083038186803b158015611dc257600080fd5b505af4158015611dd6573d6000803e3d6000fd5b505050506040513d601f19601f82011682018060405250810190611dfa9190615978565b90508460800151826008018281548110611e1657611e166156c7565b90600052602060002001541015611e3f5760405162461bcd60e51b81526004016109c890615991565b611ea260fc866000015160ff1660028110611e5c57611e5c6156c7565b015460808701516007850180546001600160a01b039093169285908110611e8557611e856156c7565b9060005260206000200154611e9a91906158cb565b338a8a613c54565b6000826006018281548110611eb957611eb96156c7565b60009182526020822001546080880151604051637921219560e11b81523060048201526001600160a01b0392831660248201819052604482018c9052606482019290925260a0608482015260a4810193909352925089169063f242432a9060c401600060405180830381600087803b158015611f3457600080fd5b505af1158015611f48573d6000803e3d6000fd5b5050506001600160a01b0389166000908152610101602090815260408083208b84529091529020611f7b91508783613c85565b336000908152610102602090815260408083206001600160a01b038c16845282528083208a84529091529020611fb2908783613c85565b611fbd8888886140bc565b7f0125ca0ceb0e88f6ace0a67fe790ebd6976c2c19b625f679c8ad52e5c68471b18888886000015189602001518a604001518b606001518c60a001518d60c001518e608001518a60405161201a9a999897969594939291906159bd565b60405180910390a15050505050505050565b6001600160a01b03821660009081526101016020908152604080832084845282528083208054825181850281018501909352808352606094859484015b828210156121f9576000848152602090819020604080516101408101825260098602909201805460ff8116845261010090046001600160a01b0316838501526001810154838301526002810154606084015260038101546080840152600481015460a0840152600581015460c08401526006810180548351818702810187019094528084529394919360e08601939283018282801561213157602002820191906000526020600020905b81546001600160a01b03168152600190910190602001808311612113575b505050505081526020016007820180548060200260200160405190810160405280929190818152602001828054801561218957602002820191906000526020600020905b815481526020019060010190808311612175575b50505050508152602001600882018054806020026020016040519081016040528092919081815260200182805480156121e157602002820191906000526020600020905b8154815260200190600101908083116121cd575b50505050508152505081526020019060010190612069565b50505050915081516001600160401b0381111561221857612218614e40565b604051908082528060200260200182016040528015612241578160200160208202803683370190505b50905060005b8251811015612292576122658382815181106119af576119af6156c7565b828281518110612277576122776156c7565b602090810291909101015261228b816157a2565b9050612247565b509250929050565b6001600160a01b038116600090815260ff602052604081206060918291815b8154811015612328576001600160a01b0386166000908152610101602052604081209083836122e7816157a2565b9450815481106122f9576122f96156c7565b90600052602060002001548152602001908152602001600020805490508361232191906157bd565b92506122b9565b50816001600160401b0381111561234157612341614e40565b60405190808252806020026020018201604052801561237a57816020015b612367614d13565b81526020019060019003908161235f5790505b509350816001600160401b0381111561239557612395614e40565b6040519080825280602002602001820160405280156123be578160200160208202803683370190505b5092506000915060005b815481101561262d576001600160a01b0386166000908152610101602052604081208184846123f6816157a2565b955081548110612408576124086156c7565b90600052602060002001548152602001908152602001600020905060005b815481101561262657818181548110612441576124416156c7565b600091825260209182902060408051610140810182526009909302909101805460ff811684526001600160a01b0361010090910416838501526001810154838301526002810154606084015260038101546080840152600481015460a0840152600581015460c08401526006810180548351818702810187019094528084529394919360e08601939283018282801561250357602002820191906000526020600020905b81546001600160a01b031681526001909101906020018083116124e5575b505050505081526020016007820180548060200260200160405190810160405280929190818152602001828054801561255b57602002820191906000526020600020905b815481526020019060010190808311612547575b50505050508152602001600882018054806020026020016040519081016040528092919081815260200182805480156125b357602002820191906000526020600020905b81548152602001906001019080831161259f575b5050505050815250508786815181106125ce576125ce6156c7565b60200260200101819052506125ee82828154811061113b5761113b6156c7565b86866125f9816157a2565b97508151811061260b5761260b6156c7565b602090810291909101015261261f816157a2565b9050612426565b50506123c8565b505050915091565b60fb5483906001600160a01b031661265f5760405162461bcd60e51b81526004016109c8906157d5565b60fb5460405163b9209e3360e01b81526001600160a01b039091169063b9209e339061268f908490600401615429565b60206040518083038186803b1580156126a757600080fd5b505afa1580156126bb573d6000803e3d6000fd5b505050506040513d601f19601f820116820180604052508101906126df9190615802565b6126fb5760405162461bcd60e51b81526004016109c890615824565b6001600160a01b0384166000908152610101602090815260408083208684528252808320805482518185028101850190935280835290926128ce92918491869084015b82821015610740576000848152602090819020604080516101408101825260098602909201805460ff8116845261010090046001600160a01b0316838501526001810154838301526002810154606084015260038101546080840152600481015460a0840152600581015460c08401526006810180548351818702810187019094528084529394919360e08601939283018282801561280657602002820191906000526020600020905b81546001600160a01b031681526001909101906020018083116127e8575b505050505081526020016007820180548060200260200160405190810160405280929190818152602001828054801561285e57602002820191906000526020600020905b81548152602001906001019080831161284a575b50505050508152602001600882018054806020026020016040519081016040528092919081815260200182805480156128b657602002820191906000526020600020905b8154815260200190600101908083116128a2575b5050505050815250508152602001906001019061273e565b815481106128de576128de6156c7565b600091825260209091206009909102018054909150612a339060fc9060ff166002811061290d5761290d6156c7565b01546080850151600684018054604080516020808402820181019092528281526001600160a01b039095169460078801939092909183018282801561297b57602002820191906000526020600020905b81546001600160a01b0316815260019091019060200180831161295d575b5050604051636e44fbfb60e01b815273__$e9d29609e19beebe46219d41a81a317a2e$__94636e44fbfb94506129b8935091503390600401615a15565b60206040518083038186803b1580156129d057600080fd5b505af41580156129e4573d6000803e3d6000fd5b505050506040513d601f19601f82011682018060405250810190612a089190615978565b81548110612a1857612a186156c7565b9060005260206000200154612a2d91906158cb565b33612dba565b6001600160a01b0385166000908152610101602090815260408083208784529091529020612a62908433613c85565b6020808401516001600160a01b0390811660009081526101028352604080822092891682529183528181208782529092529020612aa0908433613c85565b7fa9748c93c15f93e884198ec4883cae2a18adb4e9fcc36d4773185e916e4359c7858585600001518660200151876040015188606001518960a001518a60c001518b6080015133604051612afd9a999897969594939291906159bd565b60405180910390a15050505050565b60008160c001518260a00151612b2291906157bd565b4210612b2f575060608101515b60c082015160a0830151612b4390426156f3565b83606001518460400151612b5791906156f3565b612b6191906158cb565b612b6b9190615a72565b826040015161055f91906156f3565b612b82613029565b6001600160a01b038116612be75760405162461bcd60e51b815260206004820152602660248201527f4f776e61626c653a206e6577206f776e657220697320746865207a65726f206160448201526564647265737360d01b60648201526084016109c8565b610b0181613083565b6001600160a01b038116600090815260ff6020908152604091829020805483518184028101840190945280845260609392830182828015612c5057602002820191906000526020600020905b815481526020019060010190808311612c3c575b50505050509050919050565b60005b8251811015612d9a57828181518110612c7a57612c7a6156c7565b60200260200101516000015160ff16826000015160ff16148015612cbe5750828181518110612cab57612cab6156c7565b6020026020010151604001518260400151145b8015612cea5750828181518110612cd757612cd76156c7565b6020026020010151606001518260600151145b8015612d165750828181518110612d0357612d036156c7565b602002602001015160a001518260a00151145b8015612d425750828181518110612d2f57612d2f6156c7565b602002602001015160c001518260c00151145b8015612d805750828181518110612d5b57612d5b6156c7565b6020026020010151602001516001600160a01b031682602001516001600160a01b0316145b15612d8a57612d9a565b612d93816157a2565b9050612c5f565b8251811061055f5760405162461bcd60e51b81526004016109c8906158ea565b6001600160a01b038316612e04576040516001600160a01b0382169083156108fc029084906000818181858888f19350505050158015612dfe573d6000803e3d6000fd5b50505050565b60405163a9059cbb60e01b81526001600160a01b0382811660048301526024820184905284169063a9059cbb90604401602060405180830381600087803b158015612e4e57600080fd5b505af1158015612e62573d6000803e3d6000fd5b505050506040513d601f19601f82011682018060405250810190612dfe9190615802565b505050565b600080516020615bf1833981519152546001600160a01b031690565b610b01613029565b7f4910fdfa16fed3260ed0e7147f7cc6da11a60208b5b9406d12a635614ffd91435460ff1615612ee257612e8683614152565b826001600160a01b03166352d1902d6040518163ffffffff1660e01b815260040160206040518083038186803b158015612f1b57600080fd5b505afa925050508015612f4b575060408051601f3d908101601f19168201909252612f4891810190615978565b60015b612fae5760405162461bcd60e51b815260206004820152602e60248201527f45524331393637557067726164653a206e657720696d706c656d656e7461746960448201526d6f6e206973206e6f74205555505360901b60648201526084016109c8565b600080516020615bf1833981519152811461301d5760405162461bcd60e51b815260206004820152602960248201527f45524331393637557067726164653a20756e737570706f727465642070726f786044820152681a58589b195555525160ba1b60648201526084016109c8565b50612e868383836141ee565b6033546001600160a01b03163314610c9f5760405162461bcd60e51b815260206004820181905260248201527f4f776e61626c653a2063616c6c6572206973206e6f7420746865206f776e657260448201526064016109c8565b603380546001600160a01b038381166001600160a01b0319831681179093556040519116919082907f8be0079c531659141344cd1fd0a4f28419497f9722a3daafe3b4186f6b6457e090600090a35050565b600054610100900460ff166130fc5760405162461bcd60e51b81526004016109c890615a94565b610c9f614213565b600054610100900460ff16610c9f5760405162461bcd60e51b81526004016109c890615a94565b81831061314a5760405162461bcd60e51b81526004016109c890615adf565b600061330a86805480602002602001604051908101604052809291908181526020016000905b82821015613300576000848152602090819020604080516101408101825260098602909201805460ff8116845261010090046001600160a01b0316838501526001810154838301526002810154606084015260038101546080840152600481015460a0840152600581015460c08401526006810180548351818702810187019094528084529394919360e08601939283018282801561323857602002820191906000526020600020905b81546001600160a01b0316815260019091019060200180831161321a575b505050505081526020016007820180548060200260200160405190810160405280929190818152602001828054801561329057602002820191906000526020600020905b81548152602001906001019080831161327c575b50505050508152602001600882018054806020026020016040519081016040528092919081815260200182805480156132e857602002820191906000526020600020905b8154815260200190600101908083116132d4575b50505050508152505081526020019060010190613170565b5050505086612c5c565b90508460800151868281548110613323576133236156c7565b90600052602060002090600902016003015410156133535760405162461bcd60e51b81526004016109c890615b06565b6000868281548110613367576133676156c7565b90600052602060002090600902016006018054806020026020016040519081016040528092919081815260200182805480156133cc57602002820191906000526020600020905b81546001600160a01b031681526001909101906020018083116133ae575b5050604051636e44fbfb60e01b815273__$e9d29609e19beebe46219d41a81a317a2e$__94636e44fbfb9450613409935091503390600401615a15565b60206040518083038186803b15801561342157600080fd5b505af4158015613435573d6000803e3d6000fd5b505050506040513d601f19601f820116820180604052508101906134599190615978565b905086828154811061346d5761346d6156c7565b90600052602060002090600902016006018054905081106134c25760405162461bcd60e51b815260206004820152600f60248201526e2737ba103337bab7321037b33332b960891b60448201526064016109c8565b60008783815481106134d6576134d66156c7565b906000526020600020906009020160070182815481106134f8576134f86156c7565b9060005260206000200154888481548110613515576135156156c7565b90600052602060002090600902016008018381548110613537576135376156c7565b906000526020600020015461354c91906158cb565b9050600061355a85886158cb565b90508181111561359b5761359660fc896000015160ff1660028110613581576135816156c7565b01546001600160a01b031661168584846156f3565b61361d565b61361d60fc896000015160ff16600281106135b8576135b86156c7565b01546001600160a01b03166135cd83856156f3565b8b87815481106135df576135df6156c7565b90600052602060002090600902016006018681548110613601576136016156c7565b6000918252602090912001546001600160a01b03168e8e613c54565b86898581548110613630576136306156c7565b90600052602060002090600902016007018481548110613652576136526156c7565b9060005260206000200181905550888481548110613672576136726156c7565b6000918252602080832060086009909302019190910180546001810182559083529120019490945550505050505050505050565b6001600160a01b0382166136f85780341015610a375760405162461bcd60e51b8152602060048201526011602482015270125b9cdd59999a58da595b9d08119d5b99607a1b60448201526064016109c8565b6040516323b872dd60e01b8152336004820152306024820152604481018290526001600160a01b038316906323b872dd90606401602060405180830381600087803b15801561374657600080fd5b505af115801561375a573d6000803e3d6000fd5b505050506040513d601f19601f82011682018060405250810190612e869190615802565b600061393485805480602002602001604051908101604052809291908181526020016000905b82821015610740576000848152602090819020604080516101408101825260098602909201805460ff8116845261010090046001600160a01b0316838501526001810154838301526002810154606084015260038101546080840152600481015460a0840152600581015460c08401526006810180548351818702810187019094528084529394919360e08601939283018282801561386c57602002820191906000526020600020905b81546001600160a01b0316815260019091019060200180831161384e575b50505050508152602001600782018054806020026020016040519081016040528092919081815260200182805480156138c457602002820191906000526020600020905b8154815260200190600101908083116138b0575b505050505081526020016008820180548060200260200160405190810160405280929190818152602001828054801561391c57602002820191906000526020600020905b815481526020019060010190808311613908575b505050505081525050815260200190600101906137a4565b9050836080015185828154811061394d5761394d6156c7565b906000526020600020906009020160030154101561397d5760405162461bcd60e51b81526004016109c890615b06565b6000858281548110613991576139916156c7565b90600052602060002090600902016006018054806020026020016040519081016040528092919081815260200182805480156139f657602002820191906000526020600020905b81546001600160a01b031681526001909101906020018083116139d8575b5050604051636e44fbfb60e01b815273__$e9d29609e19beebe46219d41a81a317a2e$__94636e44fbfb9450613a33935091503390600401615a15565b60206040518083038186803b158015613a4b57600080fd5b505af4158015613a5f573d6000803e3d6000fd5b505050506040513d601f19601f82011682018060405250810190613a839190615978565b9050858281548110613a9757613a976156c7565b906000526020600020906009020160060180549050811015613b6d5783868381548110613ac657613ac66156c7565b90600052602060002090600902016007018281548110613ae857613ae86156c7565b906000526020600020015414613b105760405162461bcd60e51b81526004016109c890615adf565b8460800151868381548110613b2757613b276156c7565b90600052602060002090600902016008018281548110613b4957613b496156c7565b906000526020600020016000828254613b6291906157bd565b90915550613c4c9050565b828410613b8c5760405162461bcd60e51b81526004016109c890615adf565b858281548110613b9e57613b9e6156c7565b60009182526020808320600660099093020191909101805460018101825590835291200180546001600160a01b031916331790558554869083908110613be657613be66156c7565b6000918252602080832060076009909302019190910180546001810182559083529120018490558554869083908110613c2157613c216156c7565b6000918252602080832060808901516009939093020160080180546001810182559084529220909101555b505050505050565b6000613c5f83614243565b15613c7757613c70838388886142c9565b9050613c7a565b50835b613c4c868286612dba565b6000613e3b84805480602002602001604051908101604052809291908181526020016000905b82821015611cb0576000848152602090819020604080516101408101825260098602909201805460ff8116845261010090046001600160a01b0316838501526001810154838301526002810154606084015260038101546080840152600481015460a0840152600581015460c08401526006810180548351818702810187019094528084529394919360e086019392830182828015613d7357602002820191906000526020600020905b81546001600160a01b03168152600190910190602001808311613d55575b5050505050815260200160078201805480602002602001604051908101604052809291908181526020018280548015613dcb57602002820191906000526020600020905b815481526020019060010190808311613db7575b5050505050815260200160088201805480602002602001604051908101604052809291908181526020018280548015613e2357602002820191906000526020600020905b815481526020019060010190808311613e0f575b50505050508152505081526020019060010190613cab565b90506000848281548110613e5157613e516156c7565b9060005260206000209060090201600601805480602002602001604051908101604052809291908181526020018280548015613eb657602002820191906000526020600020905b81546001600160a01b03168152600190910190602001808311613e98575b5050604051636e44fbfb60e01b815273__$e9d29609e19beebe46219d41a81a317a2e$__94636e44fbfb9450613ef3935091508790600401615a15565b60206040518083038186803b158015613f0b57600080fd5b505af4158015613f1f573d6000803e3d6000fd5b505050506040513d601f19601f82011682018060405250810190613f439190615978565b9050848281548110613f5757613f576156c7565b9060005260206000209060090201600601805490508110613f8a5760405162461bcd60e51b81526004016109c89061590f565b8360800151858381548110613fa157613fa16156c7565b90600052602060002090600902016008018281548110613fc357613fc36156c7565b90600052602060002001541015613fec5760405162461bcd60e51b81526004016109c890615991565b8360800151858381548110614003576140036156c7565b90600052602060002090600902016008018281548110614025576140256156c7565b90600052602060002001600082825461403e91906156f3565b92505081905550848281548110614057576140576156c7565b90600052602060002090600902016008018181548110614079576140796156c7565b9060005260206000200154600014156140b5576140b58583815481106140a1576140a16156c7565b9060005260206000209060090201826143c4565b5050505050565b6001600160a01b038316600081815261010160209081526040808320868452825280832093835260ff90915290206140f8919083856001614504565b602080820180516001600160a01b039081166000908152610102845260408082208884168084529086528183208884528652818320945190931682526101008552808220928252919093528220612e869284908690614504565b6001600160a01b0381163b6141bf5760405162461bcd60e51b815260206004820152602d60248201527f455243313936373a206e657720696d706c656d656e746174696f6e206973206e60448201526c1bdd08184818dbdb9d1c9858dd609a1b60648201526084016109c8565b600080516020615bf183398151915280546001600160a01b0319166001600160a01b0392909216919091179055565b6141f783614b95565b6000825111806142045750805b15612e8657612dfe8383614bd5565b600054610100900460ff1661423a5760405162461bcd60e51b81526004016109c890615a94565b610c9f33613083565b6040516301ffc9a760e01b81526000906001600160a01b038316906301ffc9a7906142799063152a902d60e11b9060040161560e565b60206040518083038186803b15801561429157600080fd5b505afa1580156142a5573d6000803e3d6000fd5b505050506040513d601f19601f8201168201806040525081019061055f9190615802565b60405163152a902d60e11b81526004810184905260248101829052600090819081906001600160a01b03881690632a55205a90604401604080518083038186803b15801561431657600080fd5b505afa15801561432a573d6000803e3d6000fd5b505050506040513d601f19601f8201168201806040525081019061434e9190615b31565b909250905061435d81856156f3565b9250801561437057614370858284612dba565b604080516001600160a01b0389168152602081018890529081018290527f7a474f3ea7966b6a336a0169253a863c5bbe817379d3570951736f604adbe2699060600160405180910390a15050949350505050565b604051637b150e3d60e01b81526006830160048201526024810182905273__$e9d29609e19beebe46219d41a81a317a2e$__90637b150e3d9060440160006040518083038186803b15801561441857600080fd5b505af415801561442c573d6000803e3d6000fd5b5050604051633c764a6160e21b81526007850160048201526024810184905273__$e9d29609e19beebe46219d41a81a317a2e$__925063f1d92984915060440160006040518083038186803b15801561448457600080fd5b505af4158015614498573d6000803e3d6000fd5b5050604051633c764a6160e21b81526008850160048201526024810184905273__$e9d29609e19beebe46219d41a81a317a2e$__925063f1d92984915060440160006040518083038186803b1580156144f057600080fd5b505af4158015613c4c573d6000803e3d6000fd5b60006146ba86805480602002602001604051908101604052809291908181526020016000905b82821015610740576000848152602090819020604080516101408101825260098602909201805460ff8116845261010090046001600160a01b0316838501526001810154838301526002810154606084015260038101546080840152600481015460a0840152600581015460c08401526006810180548351818702810187019094528084529394919360e0860193928301828280156145f257602002820191906000526020600020905b81546001600160a01b031681526001909101906020018083116145d4575b505050505081526020016007820180548060200260200160405190810160405280929190818152602001828054801561464a57602002820191906000526020600020905b815481526020019060010190808311614636575b50505050508152602001600882018054806020026020016040519081016040528092919081815260200182805480156146a257602002820191906000526020600020905b81548152602001906001019080831161468e575b5050505050815250508152602001906001019061452a565b905083608001518682815481106146d3576146d36156c7565b906000526020600020906009020160030160008282546146f391906156f3565b90915550600090505b86828154811061470e5761470e6156c7565b90600052602060002090600902016006018054905081101561496e5786828154811061473c5761473c6156c7565b906000526020600020906009020160030154878381548110614760576147606156c7565b90600052602060002090600902016008018281548110614782576147826156c7565b9060005260206000200154111561495e5782156148f9578682815481106147ab576147ab6156c7565b906000526020600020906009020160070181815481106147cd576147cd6156c7565b90600052602060002001548783815481106147ea576147ea6156c7565b90600052602060002090600902016003015488848154811061480e5761480e6156c7565b90600052602060002090600902016008018381548110614830576148306156c7565b906000526020600020015461484591906156f3565b61484f91906158cb565b60fe6000898581548110614865576148656156c7565b90600052602060002090600902016006018481548110614887576148876156c7565b60009182526020808320909101546001600160a01b03168352820192909252604001902088548990859081106148bf576148bf6156c7565b600091825260209091206009909102015460ff16600281106148e3576148e36156c7565b0160008282546148f391906157bd565b90915550505b86828154811061490b5761490b6156c7565b90600052602060002090600902016003015487838154811061492f5761492f6156c7565b90600052602060002090600902016008018281548110614951576149516156c7565b6000918252602090912001555b614967816157a2565b90506146fc565b50858181548110614981576149816156c7565b90600052602060002090600902016003015460001415613c4c57855486906149ab906001906156f3565b815481106149bb576149bb6156c7565b90600052602060002090600902018682815481106149db576149db6156c7565b600091825260209091208254600990920201805460ff90921660ff1983168117825583546001600160a81b031990931617610100928390046001600160a01b0316909202919091178155600180830154908201556002808301549082015560038083015490820155600480830154908201556005808301549082015560068083018054614a6b9284019190614d72565b5060078281018054614a809284019190614d72565b5060088281018054614a959284019190614d72565b5090505085805480614aa957614aa9615b5f565b60008281526020812060096000199093019283020180546001600160a81b0319168155600181018290556002810182905560038101829055600481018290556005810182905590614afd6006830182614dc2565b614b0b600783016000614dc2565b614b19600883016000614dc2565b505090558554613c4c57604051630cef945b60e31b8152600481018690526024810184905273__$e9d29609e19beebe46219d41a81a317a2e$__9063677ca2d89060440160006040518083038186803b158015614b7557600080fd5b505af4158015614b89573d6000803e3d6000fd5b50505050505050505050565b614b9e81614152565b6040516001600160a01b038216907fbc7cd75a20ee27fd9adebab32041f755214dbc6bffa90cc0225b39da2e5c2d3b90600090a250565b60606001600160a01b0383163b614c3d5760405162461bcd60e51b815260206004820152602660248201527f416464726573733a2064656c65676174652063616c6c20746f206e6f6e2d636f6044820152651b9d1c9858dd60d21b60648201526084016109c8565b600080846001600160a01b031684604051614c589190615ba1565b600060405180830381855af49150503d8060008114614c93576040519150601f19603f3d011682016040523d82523d6000602084013e614c98565b606091505b5091509150614cc08282604051806060016040528060278152602001615c1160279139614cc9565b95945050505050565b60608315614cd8575081614ce2565b614ce28383614ce9565b9392505050565b815115614cf95781518083602001fd5b8060405162461bcd60e51b81526004016109c89190615bbd565b604051806101400160405280600060ff16815260200160006001600160a01b0316815260200160008152602001600081526020016000815260200160008152602001600081526020016060815260200160608152602001606081525090565b828054828255906000526020600020908101928215614db25760005260206000209182015b82811115614db2578254825591600101919060010190614d97565b50614dbe929150614ddc565b5090565b5080546000825590600052602060002090810190610b0191905b5b80821115614dbe5760008155600101614ddd565b600060208284031215614e0357600080fd5b81356001600160e01b031981168114614ce257600080fd5b6001600160a01b0381168114610b0157600080fd5b8035614e3b81614e1b565b919050565b634e487b7160e01b600052604160045260246000fd5b60405161014081016001600160401b0381118282101715614e7957614e79614e40565b60405290565b604051601f8201601f191681016001600160401b0381118282101715614ea757614ea7614e40565b604052919050565b803560ff81168114614e3b57600080fd5b60006001600160401b03821115614ed957614ed9614e40565b5060051b60200190565b600082601f830112614ef457600080fd5b81356020614f09614f0483614ec0565b614e7f565b82815260059290921b84018101918181019086841115614f2857600080fd5b8286015b84811015614f4c578035614f3f81614e1b565b8352918301918301614f2c565b509695505050505050565b600082601f830112614f6857600080fd5b81356020614f78614f0483614ec0565b82815260059290921b84018101918181019086841115614f9757600080fd5b8286015b84811015614f4c5780358352918301918301614f9b565b60006101408284031215614fc557600080fd5b614fcd614e56565b9050614fd882614eaf565b8152614fe660208301614e30565b602082015260408201356040820152606082013560608201526080820135608082015260a082013560a082015260c082013560c082015260e08201356001600160401b038082111561503757600080fd5b61504385838601614ee3565b60e08401526101009150818401358181111561505e57600080fd5b61506a86828701614f57565b83850152506101209150818401358181111561508557600080fd5b61509186828701614f57565b8385015250505092915050565b6000806000606084860312156150b357600080fd5b83356150be81614e1b565b92506020840135915060408401356001600160401b038111156150e057600080fd5b6150ec86828701614fb2565b9150509250925092565b600081518084526020808501945080840160005b8381101561512f5781516001600160a01b03168752958201959082019060010161510a565b509495945050505050565b600081518084526020808501945080840160005b8381101561512f5781518752958201959082019060010161514e565b805160ff1682526000610140602083015161519060208601826001600160a01b03169052565b5060408301516040850152606083015160608501526080830151608085015260a083015160a085015260c083015160c085015260e08301518160e08601526151da828601826150f6565b91505061010080840151858303828701526151f5838261513a565b925050506101208084015185830382870152615211838261513a565b9695505050505050565b60408152600061522e604083018561516a565b90508260208301529392505050565b6000806040838503121561525057600080fd5b823561525b81614e1b565b9150602083013561526b81614e1b565b809150509250929050565b602081526000614ce2602083018461513a565b6000806040838503121561529c57600080fd5b823591506152ac60208401614eaf565b90509250929050565b6000602082840312156152c757600080fd5b8135614ce281614e1b565b600082601f8301126152e357600080fd5b81356001600160401b038111156152fc576152fc614e40565b61530f601f8201601f1916602001614e7f565b81815284602083860101111561532457600080fd5b816020850160208301376000918101602001919091529392505050565b6000806040838503121561535457600080fd5b823561535f81614e1b565b915060208301356001600160401b0381111561537a57600080fd5b615386858286016152d2565b9150509250929050565b600080604083850312156153a357600080fd5b82356153ae81614e1b565b946020939093013593505050565b6000604082016040835280855180835260608501915060608160051b8601019250602080880160005b8381101561541357605f1988870301855261540186835161516a565b955093820193908201906001016153e5565b505085840381870152505050614cc0818561513a565b6001600160a01b0391909116815260200190565b60006020828403121561544f57600080fd5b5035919050565b600080600080600060a0868803121561546e57600080fd5b853561547981614e1b565b94506020860135935060408601356001600160401b0381111561549b57600080fd5b6154a788828901614fb2565b9598949750949560608101359550608001359392505050565b600080600080608085870312156154d657600080fd5b84356154e181614e1b565b93506020850135925060408501356001600160401b0381111561550357600080fd5b61550f87828801614fb2565b949793965093946060013593505050565b60008060006060848603121561553557600080fd5b833561554081614e1b565b9250602084013561555081614e1b565b929592945050506040919091013590565b600080600080600060a0868803121561557957600080fd5b853561558481614e1b565b9450602086013561559481614e1b565b935060408601356001600160401b03808211156155b057600080fd5b6155bc89838a01614f57565b945060608801359150808211156155d257600080fd5b6155de89838a01614f57565b935060808801359150808211156155f457600080fd5b50615601888289016152d2565b9150509295509295909350565b6001600160e01b031991909116815260200190565b60006020828403121561563557600080fd5b81356001600160401b0381111561564b57600080fd5b61565784828501614fb2565b949350505050565b600080600080600060a0868803121561567757600080fd5b853561568281614e1b565b9450602086013561569281614e1b565b9350604086013592506060860135915060808601356001600160401b038111156156bb57600080fd5b615601888289016152d2565b634e487b7160e01b600052603260045260246000fd5b634e487b7160e01b600052601160045260246000fd5b600082821015615705576157056156dd565b500390565b6020808252602c908201527f46756e6374696f6e206d7573742062652063616c6c6564207468726f7567682060408201526b19195b1959d85d1958d85b1b60a21b606082015260800190565b6020808252602c908201527f46756e6374696f6e206d7573742062652063616c6c6564207468726f7567682060408201526b6163746976652070726f787960a01b606082015260800190565b60006000198214156157b6576157b66156dd565b5060010190565b600082198211156157d0576157d06156dd565b500190565b602080825260139082015272139bc81059191c995cdcc810dbdb9d1c9858dd606a1b604082015260600190565b60006020828403121561581457600080fd5b81518015158114614ce257600080fd5b6020808252600c908201526b139bdd0815995c9a599a595960a21b604082015260600190565b60208082526009908201526824b99029b2b63632b960b91b604082015260600190565b6001600160a01b039b8c168152602081019a909a5260ff9890981660408a01529589166060890152608088019490945260a087019290925260c086015260e08501526101008401526101208301529091166101408201526101600190565b60008160001904831182151516156158e5576158e56156dd565b500290565b6020808252600b908201526a4e6f74204f6e2053616c6560a81b604082015260600190565b60208082526008908201526727379027b33332b960c11b604082015260600190565b6020808252825482820181905260008481528281209092916040850190845b8181101561596c57835483526001938401939285019201615950565b50909695505050505050565b60006020828403121561598a57600080fd5b5051919050565b60208082526012908201527124b739bab33334b1b4b2b73a1027b33332b960711b604082015260600190565b6001600160a01b039a8b168152602081019990995260ff9790971660408901529488166060880152608087019390935260a086019190915260c085015260e08401526101008301529091166101208201526101400190565b604080825283519082018190526000906020906060840190828701845b82811015615a575781516001600160a01b031684529284019290840190600101615a32565b5050506001600160a01b039490941692019190915250919050565b600082615a8f57634e487b7160e01b600052601260045260246000fd5b500490565b6020808252602b908201527f496e697469616c697a61626c653a20636f6e7472616374206973206e6f74206960408201526a6e697469616c697a696e6760a81b606082015260800190565b6020808252600d908201526c496e76616c696420507269636560981b604082015260600190565b602080825260119082015270496e73756666696369656e742053616c6560781b604082015260600190565b60008060408385031215615b4457600080fd5b8251615b4f81614e1b565b6020939093015192949293505050565b634e487b7160e01b600052603160045260246000fd5b60005b83811015615b90578181015183820152602001615b78565b83811115612dfe5750506000910152565b60008251615bb3818460208701615b75565b9190910192915050565b6020815260008251806020840152615bdc816040850160208701615b75565b601f01601f1916919091016040019291505056fe360894a13ba1a3210667c828492db98dca3e2076cc3735a920a3ca505d382bbc416464726573733a206c6f772d6c6576656c2064656c65676174652063616c6c206661696c6564a2646970667358221220eb327ad8222f1ce62f40b0071eb12310bcb7e1de1ef1f2877d2451afba13dbab64736f6c63430008090033",
  "linkReferences": {
    "contracts/libraries/ArrayLibrary.sol": {
      "ArrayLibrary": [
        {
          "length": 20,
          "start": 7628
        },
        {
          "length": 20,
          "start": 10713
        },
        {
          "length": 20,
          "start": 13354
        },
        {
          "length": 20,
          "start": 14932
        },
        {
          "length": 20,
          "start": 16148
        },
        {
          "length": 20,
          "start": 17456
        },
        {
          "length": 20,
          "start": 17562
        },
        {
          "length": 20,
          "start": 17670
        },
        {
          "length": 20,
          "start": 19341
        }
      ]
    }
  },
  "deployedLinkReferences": {
    "contracts/libraries/ArrayLibrary.sol": {
      "ArrayLibrary": [
        {
          "length": 20,
          "start": 7551
        },
        {
          "length": 20,
          "start": 10636
        },
        {
          "length": 20,
          "start": 13277
        },
        {
          "length": 20,
          "start": 14855
        },
        {
          "length": 20,
          "start": 16071
        },
        {
          "length": 20,
          "start": 17379
        },
        {
          "length": 20,
          "start": 17485
        },
        {
          "length": 20,
          "start": 17593
        },
        {
          "length": 20,
          "start": 19264
        }
      ]
    }
  }
}