{
  "_format": "hh-sol-artifact-1",
  "contractName": "ERC1155Sale",
  "sourceName": "contracts/ERC1155Sale.sol",
  "abi": [
    {
      "anonymous": false,
      "inputs": [
        {
          "indexed": false,
          "internalType": "address",
          "name": "previousAdmin",
          "type": "address"
        },
        {
          "indexed": false,
          "internalType": "address",
          "name": "newAdmin",
          "type": "address"
        }
      ],
      "name": "AdminChanged",
      "type": "event"
    },
    {
      "anonymous": false,
      "inputs": [
        {
          "indexed": true,
          "internalType": "address",
          "name": "beacon",
          "type": "address"
        }
      ],
      "name": "BeaconUpgraded",
      "type": "event"
    },
    {
      "anonymous": false,
      "inputs": [
        {
          "indexed": false,
          "internalType": "uint8",
          "name": "version",
          "type": "uint8"
        }
      ],
      "name": "Initialized",
      "type": "event"
    },
    {
      "anonymous": false,
      "inputs": [
        {
          "indexed": false,
          "internalType": "address",
          "name": "contractAddr",
          "type": "address"
        },
        {
          "indexed": false,
          "internalType": "uint256",
          "name": "tokenId",
          "type": "uint256"
        },
        {
          "indexed": false,
          "internalType": "uint8",
          "name": "payment",
          "type": "uint8"
        },
        {
          "indexed": false,
          "internalType": "address",
          "name": "seller",
          "type": "address"
        },
        {
          "indexed": false,
          "internalType": "uint256",
          "name": "startPrice",
          "type": "uint256"
        },
        {
          "indexed": false,
          "internalType": "uint256",
          "name": "endPrice",
          "type": "uint256"
        },
        {
          "indexed": false,
          "internalType": "uint256",
          "name": "startedAt",
          "type": "uint256"
        },
        {
          "indexed": false,
          "internalType": "uint256",
          "name": "duration",
          "type": "uint256"
        },
        {
          "indexed": false,
          "internalType": "uint256",
          "name": "amount",
          "type": "uint256"
        },
        {
          "indexed": false,
          "internalType": "address",
          "name": "offerer",
          "type": "address"
        }
      ],
      "name": "OfferAccepted",
      "type": "event"
    },
    {
      "anonymous": false,
      "inputs": [
        {
          "indexed": false,
          "internalType": "address",
          "name": "contractAddr",
          "type": "address"
        },
        {
          "indexed": false,
          "internalType": "uint256",
          "name": "tokenId",
          "type": "uint256"
        },
        {
          "indexed": false,
          "internalType": "uint8",
          "name": "payment",
          "type": "uint8"
        },
        {
          "indexed": false,
          "internalType": "address",
          "name": "seller",
          "type": "address"
        },
        {
          "indexed": false,
          "internalType": "uint256",
          "name": "startPrice",
          "type": "uint256"
        },
        {
          "indexed": false,
          "internalType": "uint256",
          "name": "endPrice",
          "type": "uint256"
        },
        {
          "indexed": false,
          "internalType": "uint256",
          "name": "startedAt",
          "type": "uint256"
        },
        {
          "indexed": false,
          "internalType": "uint256",
          "name": "duration",
          "type": "uint256"
        },
        {
          "indexed": false,
          "internalType": "uint256",
          "name": "amount",
          "type": "uint256"
        },
        {
          "indexed": false,
          "internalType": "address",
          "name": "offerer",
          "type": "address"
        }
      ],
      "name": "OfferCancelled",
      "type": "event"
    },
    {
      "anonymous": false,
      "inputs": [
        {
          "indexed": false,
          "internalType": "address",
          "name": "contractAddr",
          "type": "address"
        },
        {
          "indexed": false,
          "internalType": "uint256",
          "name": "tokenId",
          "type": "uint256"
        },
        {
          "indexed": false,
          "internalType": "uint8",
          "name": "payment",
          "type": "uint8"
        },
        {
          "indexed": false,
          "internalType": "address",
          "name": "seller",
          "type": "address"
        },
        {
          "indexed": false,
          "internalType": "uint256",
          "name": "startPrice",
          "type": "uint256"
        },
        {
          "indexed": false,
          "internalType": "uint256",
          "name": "endPrice",
          "type": "uint256"
        },
        {
          "indexed": false,
          "internalType": "uint256",
          "name": "startedAt",
          "type": "uint256"
        },
        {
          "indexed": false,
          "internalType": "uint256",
          "name": "duration",
          "type": "uint256"
        },
        {
          "indexed": false,
          "internalType": "uint256",
          "name": "price",
          "type": "uint256"
        },
        {
          "indexed": false,
          "internalType": "uint256",
          "name": "amount",
          "type": "uint256"
        },
        {
          "indexed": false,
          "internalType": "address",
          "name": "offerer",
          "type": "address"
        }
      ],
      "name": "OfferCreated",
      "type": "event"
    },
    {
      "anonymous": false,
      "inputs": [
        {
          "indexed": false,
          "internalType": "address",
          "name": "contractAddr",
          "type": "address"
        },
        {
          "indexed": false,
          "internalType": "uint256",
          "name": "tokenId",
          "type": "uint256"
        },
        {
          "indexed": false,
          "internalType": "uint8",
          "name": "payment",
          "type": "uint8"
        },
        {
          "indexed": false,
          "internalType": "address",
          "name": "seller",
          "type": "address"
        },
        {
          "indexed": false,
          "internalType": "uint256",
          "name": "startPrice",
          "type": "uint256"
        },
        {
          "indexed": false,
          "internalType": "uint256",
          "name": "endPrice",
          "type": "uint256"
        },
        {
          "indexed": false,
          "internalType": "uint256",
          "name": "startedAt",
          "type": "uint256"
        },
        {
          "indexed": false,
          "internalType": "uint256",
          "name": "duration",
          "type": "uint256"
        },
        {
          "indexed": false,
          "internalType": "uint256",
          "name": "price",
          "type": "uint256"
        },
        {
          "indexed": false,
          "internalType": "uint256",
          "name": "amount",
          "type": "uint256"
        },
        {
          "indexed": false,
          "internalType": "address",
          "name": "offerer",
          "type": "address"
        }
      ],
      "name": "OfferUpdated",
      "type": "event"
    },
    {
      "anonymous": false,
      "inputs": [
        {
          "indexed": true,
          "internalType": "address",
          "name": "previousOwner",
          "type": "address"
        },
        {
          "indexed": true,
          "internalType": "address",
          "name": "newOwner",
          "type": "address"
        }
      ],
      "name": "OwnershipTransferred",
      "type": "event"
    },
    {
      "anonymous": false,
      "inputs": [
        {
          "indexed": false,
          "internalType": "address",
          "name": "contractAddr",
          "type": "address"
        },
        {
          "indexed": false,
          "internalType": "uint256",
          "name": "tokenId",
          "type": "uint256"
        },
        {
          "indexed": false,
          "internalType": "uint8",
          "name": "payment",
          "type": "uint8"
        },
        {
          "indexed": false,
          "internalType": "address",
          "name": "seller",
          "type": "address"
        },
        {
          "indexed": false,
          "internalType": "uint256",
          "name": "startPrice",
          "type": "uint256"
        },
        {
          "indexed": false,
          "internalType": "uint256",
          "name": "endPrice",
          "type": "uint256"
        },
        {
          "indexed": false,
          "internalType": "uint256",
          "name": "startedAt",
          "type": "uint256"
        },
        {
          "indexed": false,
          "internalType": "uint256",
          "name": "duration",
          "type": "uint256"
        },
        {
          "indexed": false,
          "internalType": "uint256",
          "name": "amount",
          "type": "uint256"
        }
      ],
      "name": "SaleCancelled",
      "type": "event"
    },
    {
      "anonymous": false,
      "inputs": [
        {
          "indexed": false,
          "internalType": "address",
          "name": "contractAddr",
          "type": "address"
        },
        {
          "indexed": false,
          "internalType": "uint256",
          "name": "tokenId",
          "type": "uint256"
        },
        {
          "indexed": false,
          "internalType": "uint8",
          "name": "payment",
          "type": "uint8"
        },
        {
          "indexed": false,
          "internalType": "address",
          "name": "seller",
          "type": "address"
        },
        {
          "indexed": false,
          "internalType": "uint256",
          "name": "startPrice",
          "type": "uint256"
        },
        {
          "indexed": false,
          "internalType": "uint256",
          "name": "endPrice",
          "type": "uint256"
        },
        {
          "indexed": false,
          "internalType": "uint256",
          "name": "amount",
          "type": "uint256"
        },
        {
          "indexed": false,
          "internalType": "uint256",
          "name": "startedAt",
          "type": "uint256"
        },
        {
          "indexed": false,
          "internalType": "uint256",
          "name": "duration",
          "type": "uint256"
        }
      ],
      "name": "SaleCreated",
      "type": "event"
    },
    {
      "anonymous": false,
      "inputs": [
        {
          "indexed": false,
          "internalType": "address",
          "name": "contractAddr",
          "type": "address"
        },
        {
          "indexed": false,
          "internalType": "uint256",
          "name": "tokenId",
          "type": "uint256"
        },
        {
          "indexed": false,
          "internalType": "uint8",
          "name": "payment",
          "type": "uint8"
        },
        {
          "indexed": false,
          "internalType": "address",
          "name": "seller",
          "type": "address"
        },
        {
          "indexed": false,
          "internalType": "uint256",
          "name": "startPrice",
          "type": "uint256"
        },
        {
          "indexed": false,
          "internalType": "uint256",
          "name": "endPrice",
          "type": "uint256"
        },
        {
          "indexed": false,
          "internalType": "uint256",
          "name": "startedAt",
          "type": "uint256"
        },
        {
          "indexed": false,
          "internalType": "uint256",
          "name": "duration",
          "type": "uint256"
        },
        {
          "indexed": false,
          "internalType": "uint256",
          "name": "price",
          "type": "uint256"
        },
        {
          "indexed": false,
          "internalType": "uint256",
          "name": "amount",
          "type": "uint256"
        },
        {
          "indexed": false,
          "internalType": "address",
          "name": "buyer",
          "type": "address"
        }
      ],
      "name": "SaleSuccessful",
      "type": "event"
    },
    {
      "anonymous": false,
      "inputs": [
        {
          "indexed": false,
          "internalType": "address",
          "name": "contractAddr",
          "type": "address"
        },
        {
          "indexed": false,
          "internalType": "uint256",
          "name": "tokenId",
          "type": "uint256"
        },
        {
          "indexed": false,
          "internalType": "uint8",
          "name": "payment",
          "type": "uint8"
        },
        {
          "indexed": false,
          "internalType": "address",
          "name": "seller",
          "type": "address"
        },
        {
          "indexed": false,
          "internalType": "uint256",
          "name": "startPrice",
          "type": "uint256"
        },
        {
          "indexed": false,
          "internalType": "uint256",
          "name": "endPrice",
          "type": "uint256"
        },
        {
          "indexed": false,
          "internalType": "uint256",
          "name": "amount",
          "type": "uint256"
        },
        {
          "indexed": false,
          "internalType": "uint256",
          "name": "startedAt",
          "type": "uint256"
        },
        {
          "indexed": false,
          "internalType": "uint256",
          "name": "duration",
          "type": "uint256"
        }
      ],
      "name": "SaleUpdated",
      "type": "event"
    },
    {
      "anonymous": false,
      "inputs": [
        {
          "indexed": true,
          "internalType": "address",
          "name": "implementation",
          "type": "address"
        }
      ],
      "name": "Upgraded",
      "type": "event"
    },
    {
      "inputs": [
        {
          "internalType": "address",
          "name": "contractAddr",
          "type": "address"
        },
        {
          "internalType": "uint256",
          "name": "tokenId",
          "type": "uint256"
        },
        {
          "components": [
            {
              "internalType": "uint8",
              "name": "payment",
              "type": "uint8"
            },
            {
              "internalType": "address",
              "name": "seller",
              "type": "address"
            },
            {
              "internalType": "uint256",
              "name": "startPrice",
              "type": "uint256"
            },
            {
              "internalType": "uint256",
              "name": "endPrice",
              "type": "uint256"
            },
            {
              "internalType": "uint256",
              "name": "amount",
              "type": "uint256"
            },
            {
              "internalType": "uint256",
              "name": "startedAt",
              "type": "uint256"
            },
            {
              "internalType": "uint256",
              "name": "duration",
              "type": "uint256"
            },
            {
              "internalType": "address[]",
              "name": "offerers",
              "type": "address[]"
            },
            {
              "internalType": "uint256[]",
              "name": "offerPrices",
              "type": "uint256[]"
            },
            {
              "internalType": "uint256[]",
              "name": "offerAmounts",
              "type": "uint256[]"
            }
          ],
          "internalType": "struct ERC1155SaleBase.Sale",
          "name": "sale",
          "type": "tuple"
        }
      ],
      "name": "acceptOffer",
      "outputs": [],
      "stateMutability": "nonpayable",
      "type": "function"
    },
    {
      "inputs": [],
      "name": "addressesContractAddr",
      "outputs": [
        {
          "internalType": "address",
          "name": "",
          "type": "address"
        }
      ],
      "stateMutability": "view",
      "type": "function"
    },
    {
      "inputs": [
        {
          "internalType": "address",
          "name": "contractAddr",
          "type": "address"
        },
        {
          "internalType": "uint256",
          "name": "tokenId",
          "type": "uint256"
        },
        {
          "components": [
            {
              "internalType": "uint8",
              "name": "payment",
              "type": "uint8"
            },
            {
              "internalType": "address",
              "name": "seller",
              "type": "address"
            },
            {
              "internalType": "uint256",
              "name": "startPrice",
              "type": "uint256"
            },
            {
              "internalType": "uint256",
              "name": "endPrice",
              "type": "uint256"
            },
            {
              "internalType": "uint256",
              "name": "amount",
              "type": "uint256"
            },
            {
              "internalType": "uint256",
              "name": "startedAt",
              "type": "uint256"
            },
            {
              "internalType": "uint256",
              "name": "duration",
              "type": "uint256"
            },
            {
              "internalType": "address[]",
              "name": "offerers",
              "type": "address[]"
            },
            {
              "internalType": "uint256[]",
              "name": "offerPrices",
              "type": "uint256[]"
            },
            {
              "internalType": "uint256[]",
              "name": "offerAmounts",
              "type": "uint256[]"
            }
          ],
          "internalType": "struct ERC1155SaleBase.Sale",
          "name": "sale",
          "type": "tuple"
        }
      ],
      "name": "buy",
      "outputs": [],
      "stateMutability": "payable",
      "type": "function"
    },
    {
      "inputs": [
        {
          "internalType": "address",
          "name": "contractAddr",
          "type": "address"
        },
        {
          "internalType": "uint256",
          "name": "tokenId",
          "type": "uint256"
        },
        {
          "components": [
            {
              "internalType": "uint8",
              "name": "payment",
              "type": "uint8"
            },
            {
              "internalType": "address",
              "name": "seller",
              "type": "address"
            },
            {
              "internalType": "uint256",
              "name": "startPrice",
              "type": "uint256"
            },
            {
              "internalType": "uint256",
              "name": "endPrice",
              "type": "uint256"
            },
            {
              "internalType": "uint256",
              "name": "amount",
              "type": "uint256"
            },
            {
              "internalType": "uint256",
              "name": "startedAt",
              "type": "uint256"
            },
            {
              "internalType": "uint256",
              "name": "duration",
              "type": "uint256"
            },
            {
              "internalType": "address[]",
              "name": "offerers",
              "type": "address[]"
            },
            {
              "internalType": "uint256[]",
              "name": "offerPrices",
              "type": "uint256[]"
            },
            {
              "internalType": "uint256[]",
              "name": "offerAmounts",
              "type": "uint256[]"
            }
          ],
          "internalType": "struct ERC1155SaleBase.Sale",
          "name": "sale",
          "type": "tuple"
        }
      ],
      "name": "cancelOffer",
      "outputs": [],
      "stateMutability": "nonpayable",
      "type": "function"
    },
    {
      "inputs": [
        {
          "internalType": "address",
          "name": "contractAddr",
          "type": "address"
        },
        {
          "internalType": "uint256",
          "name": "tokenId",
          "type": "uint256"
        },
        {
          "components": [
            {
              "internalType": "uint8",
              "name": "payment",
              "type": "uint8"
            },
            {
              "internalType": "address",
              "name": "seller",
              "type": "address"
            },
            {
              "internalType": "uint256",
              "name": "startPrice",
              "type": "uint256"
            },
            {
              "internalType": "uint256",
              "name": "endPrice",
              "type": "uint256"
            },
            {
              "internalType": "uint256",
              "name": "amount",
              "type": "uint256"
            },
            {
              "internalType": "uint256",
              "name": "startedAt",
              "type": "uint256"
            },
            {
              "internalType": "uint256",
              "name": "duration",
              "type": "uint256"
            },
            {
              "internalType": "address[]",
              "name": "offerers",
              "type": "address[]"
            },
            {
              "internalType": "uint256[]",
              "name": "offerPrices",
              "type": "uint256[]"
            },
            {
              "internalType": "uint256[]",
              "name": "offerAmounts",
              "type": "uint256[]"
            }
          ],
          "internalType": "struct ERC1155SaleBase.Sale",
          "name": "sale",
          "type": "tuple"
        }
      ],
      "name": "cancelSale",
      "outputs": [],
      "stateMutability": "nonpayable",
      "type": "function"
    },
    {
      "inputs": [
        {
          "internalType": "uint256",
          "name": "amount",
          "type": "uint256"
        },
        {
          "internalType": "uint8",
          "name": "index",
          "type": "uint8"
        }
      ],
      "name": "claim",
      "outputs": [],
      "stateMutability": "nonpayable",
      "type": "function"
    },
    {
      "inputs": [
        {
          "internalType": "address",
          "name": "",
          "type": "address"
        },
        {
          "internalType": "uint256",
          "name": "",
          "type": "uint256"
        }
      ],
      "name": "claimable",
      "outputs": [
        {
          "internalType": "uint256",
          "name": "",
          "type": "uint256"
        }
      ],
      "stateMutability": "view",
      "type": "function"
    },
    {
      "inputs": [
        {
          "internalType": "address",
          "name": "contractAddr",
          "type": "address"
        },
        {
          "internalType": "uint256",
          "name": "tokenId",
          "type": "uint256"
        },
        {
          "components": [
            {
              "internalType": "uint8",
              "name": "payment",
              "type": "uint8"
            },
            {
              "internalType": "address",
              "name": "seller",
              "type": "address"
            },
            {
              "internalType": "uint256",
              "name": "startPrice",
              "type": "uint256"
            },
            {
              "internalType": "uint256",
              "name": "endPrice",
              "type": "uint256"
            },
            {
              "internalType": "uint256",
              "name": "amount",
              "type": "uint256"
            },
            {
              "internalType": "uint256",
              "name": "startedAt",
              "type": "uint256"
            },
            {
              "internalType": "uint256",
              "name": "duration",
              "type": "uint256"
            },
            {
              "internalType": "address[]",
              "name": "offerers",
              "type": "address[]"
            },
            {
              "internalType": "uint256[]",
              "name": "offerPrices",
              "type": "uint256[]"
            },
            {
              "internalType": "uint256[]",
              "name": "offerAmounts",
              "type": "uint256[]"
            }
          ],
          "internalType": "struct ERC1155SaleBase.Sale",
          "name": "sale",
          "type": "tuple"
        }
      ],
      "name": "createSale",
      "outputs": [],
      "stateMutability": "nonpayable",
      "type": "function"
    },
    {
      "inputs": [
        {
          "components": [
            {
              "internalType": "uint8",
              "name": "payment",
              "type": "uint8"
            },
            {
              "internalType": "address",
              "name": "seller",
              "type": "address"
            },
            {
              "internalType": "uint256",
              "name": "startPrice",
              "type": "uint256"
            },
            {
              "internalType": "uint256",
              "name": "endPrice",
              "type": "uint256"
            },
            {
              "internalType": "uint256",
              "name": "amount",
              "type": "uint256"
            },
            {
              "internalType": "uint256",
              "name": "startedAt",
              "type": "uint256"
            },
            {
              "internalType": "uint256",
              "name": "duration",
              "type": "uint256"
            },
            {
              "internalType": "address[]",
              "name": "offerers",
              "type": "address[]"
            },
            {
              "internalType": "uint256[]",
              "name": "offerPrices",
              "type": "uint256[]"
            },
            {
              "internalType": "uint256[]",
              "name": "offerAmounts",
              "type": "uint256[]"
            }
          ],
          "internalType": "struct ERC1155SaleBase.Sale",
          "name": "sale",
          "type": "tuple"
        }
      ],
      "name": "getCurrentPrice",
      "outputs": [
        {
          "internalType": "uint256",
          "name": "val",
          "type": "uint256"
        }
      ],
      "stateMutability": "view",
      "type": "function"
    },
    {
      "inputs": [
        {
          "internalType": "address",
          "name": "contractAddr",
          "type": "address"
        },
        {
          "internalType": "uint256",
          "name": "tokenId",
          "type": "uint256"
        },
        {
          "components": [
            {
              "internalType": "uint8",
              "name": "payment",
              "type": "uint8"
            },
            {
              "internalType": "address",
              "name": "seller",
              "type": "address"
            },
            {
              "internalType": "uint256",
              "name": "startPrice",
              "type": "uint256"
            },
            {
              "internalType": "uint256",
              "name": "endPrice",
              "type": "uint256"
            },
            {
              "internalType": "uint256",
              "name": "amount",
              "type": "uint256"
            },
            {
              "internalType": "uint256",
              "name": "startedAt",
              "type": "uint256"
            },
            {
              "internalType": "uint256",
              "name": "duration",
              "type": "uint256"
            },
            {
              "internalType": "address[]",
              "name": "offerers",
              "type": "address[]"
            },
            {
              "internalType": "uint256[]",
              "name": "offerPrices",
              "type": "uint256[]"
            },
            {
              "internalType": "uint256[]",
              "name": "offerAmounts",
              "type": "uint256[]"
            }
          ],
          "internalType": "struct ERC1155SaleBase.Sale",
          "name": "sl",
          "type": "tuple"
        }
      ],
      "name": "getSale",
      "outputs": [
        {
          "components": [
            {
              "internalType": "uint8",
              "name": "payment",
              "type": "uint8"
            },
            {
              "internalType": "address",
              "name": "seller",
              "type": "address"
            },
            {
              "internalType": "uint256",
              "name": "startPrice",
              "type": "uint256"
            },
            {
              "internalType": "uint256",
              "name": "endPrice",
              "type": "uint256"
            },
            {
              "internalType": "uint256",
              "name": "amount",
              "type": "uint256"
            },
            {
              "internalType": "uint256",
              "name": "startedAt",
              "type": "uint256"
            },
            {
              "internalType": "uint256",
              "name": "duration",
              "type": "uint256"
            },
            {
              "internalType": "address[]",
              "name": "offerers",
              "type": "address[]"
            },
            {
              "internalType": "uint256[]",
              "name": "offerPrices",
              "type": "uint256[]"
            },
            {
              "internalType": "uint256[]",
              "name": "offerAmounts",
              "type": "uint256[]"
            }
          ],
          "internalType": "struct ERC1155SaleBase.Sale",
          "name": "sale",
          "type": "tuple"
        },
        {
          "internalType": "uint256",
          "name": "currentPrice",
          "type": "uint256"
        }
      ],
      "stateMutability": "view",
      "type": "function"
    },
    {
      "inputs": [
        {
          "internalType": "address",
          "name": "contractAddr",
          "type": "address"
        }
      ],
      "name": "getSaleTokens",
      "outputs": [
        {
          "internalType": "uint256[]",
          "name": "",
          "type": "uint256[]"
        }
      ],
      "stateMutability": "view",
      "type": "function"
    },
    {
      "inputs": [
        {
          "internalType": "address",
          "name": "contractAddr",
          "type": "address"
        },
        {
          "internalType": "address",
          "name": "seller",
          "type": "address"
        }
      ],
      "name": "getSaleTokensBySeller",
      "outputs": [
        {
          "internalType": "uint256[]",
          "name": "",
          "type": "uint256[]"
        }
      ],
      "stateMutability": "view",
      "type": "function"
    },
    {
      "inputs": [
        {
          "internalType": "address",
          "name": "contractAddr",
          "type": "address"
        }
      ],
      "name": "getSales",
      "outputs": [
        {
          "components": [
            {
              "internalType": "uint8",
              "name": "payment",
              "type": "uint8"
            },
            {
              "internalType": "address",
              "name": "seller",
              "type": "address"
            },
            {
              "internalType": "uint256",
              "name": "startPrice",
              "type": "uint256"
            },
            {
              "internalType": "uint256",
              "name": "endPrice",
              "type": "uint256"
            },
            {
              "internalType": "uint256",
              "name": "amount",
              "type": "uint256"
            },
            {
              "internalType": "uint256",
              "name": "startedAt",
              "type": "uint256"
            },
            {
              "internalType": "uint256",
              "name": "duration",
              "type": "uint256"
            },
            {
              "internalType": "address[]",
              "name": "offerers",
              "type": "address[]"
            },
            {
              "internalType": "uint256[]",
              "name": "offerPrices",
              "type": "uint256[]"
            },
            {
              "internalType": "uint256[]",
              "name": "offerAmounts",
              "type": "uint256[]"
            }
          ],
          "internalType": "struct ERC1155SaleBase.Sale[]",
          "name": "sales",
          "type": "tuple[]"
        },
        {
          "internalType": "uint256[]",
          "name": "currentPrices",
          "type": "uint256[]"
        }
      ],
      "stateMutability": "view",
      "type": "function"
    },
    {
      "inputs": [
        {
          "internalType": "address",
          "name": "contractAddr",
          "type": "address"
        },
        {
          "internalType": "uint256",
          "name": "tokenId",
          "type": "uint256"
        }
      ],
      "name": "getSalesByNFT",
      "outputs": [
        {
          "components": [
            {
              "internalType": "uint8",
              "name": "payment",
              "type": "uint8"
            },
            {
              "internalType": "address",
              "name": "seller",
              "type": "address"
            },
            {
              "internalType": "uint256",
              "name": "startPrice",
              "type": "uint256"
            },
            {
              "internalType": "uint256",
              "name": "endPrice",
              "type": "uint256"
            },
            {
              "internalType": "uint256",
              "name": "amount",
              "type": "uint256"
            },
            {
              "internalType": "uint256",
              "name": "startedAt",
              "type": "uint256"
            },
            {
              "internalType": "uint256",
              "name": "duration",
              "type": "uint256"
            },
            {
              "internalType": "address[]",
              "name": "offerers",
              "type": "address[]"
            },
            {
              "internalType": "uint256[]",
              "name": "offerPrices",
              "type": "uint256[]"
            },
            {
              "internalType": "uint256[]",
              "name": "offerAmounts",
              "type": "uint256[]"
            }
          ],
          "internalType": "struct ERC1155SaleBase.Sale[]",
          "name": "sales",
          "type": "tuple[]"
        },
        {
          "internalType": "uint256[]",
          "name": "currentPrices",
          "type": "uint256[]"
        }
      ],
      "stateMutability": "view",
      "type": "function"
    },
    {
      "inputs": [
        {
          "internalType": "address",
          "name": "contractAddr",
          "type": "address"
        },
        {
          "internalType": "address",
          "name": "owner",
          "type": "address"
        }
      ],
      "name": "getSalesBySeller",
      "outputs": [
        {
          "components": [
            {
              "internalType": "uint8",
              "name": "payment",
              "type": "uint8"
            },
            {
              "internalType": "address",
              "name": "seller",
              "type": "address"
            },
            {
              "internalType": "uint256",
              "name": "startPrice",
              "type": "uint256"
            },
            {
              "internalType": "uint256",
              "name": "endPrice",
              "type": "uint256"
            },
            {
              "internalType": "uint256",
              "name": "amount",
              "type": "uint256"
            },
            {
              "internalType": "uint256",
              "name": "startedAt",
              "type": "uint256"
            },
            {
              "internalType": "uint256",
              "name": "duration",
              "type": "uint256"
            },
            {
              "internalType": "address[]",
              "name": "offerers",
              "type": "address[]"
            },
            {
              "internalType": "uint256[]",
              "name": "offerPrices",
              "type": "uint256[]"
            },
            {
              "internalType": "uint256[]",
              "name": "offerAmounts",
              "type": "uint256[]"
            }
          ],
          "internalType": "struct ERC1155SaleBase.Sale[]",
          "name": "sales",
          "type": "tuple[]"
        },
        {
          "internalType": "uint256[]",
          "name": "currentPrices",
          "type": "uint256[]"
        }
      ],
      "stateMutability": "view",
      "type": "function"
    },
    {
      "inputs": [
        {
          "internalType": "address",
          "name": "seller",
          "type": "address"
        },
        {
          "internalType": "address",
          "name": "contractAddr",
          "type": "address"
        },
        {
          "internalType": "uint256",
          "name": "tokenId",
          "type": "uint256"
        }
      ],
      "name": "getSalesBySellerNFT",
      "outputs": [
        {
          "components": [
            {
              "internalType": "uint8",
              "name": "payment",
              "type": "uint8"
            },
            {
              "internalType": "address",
              "name": "seller",
              "type": "address"
            },
            {
              "internalType": "uint256",
              "name": "startPrice",
              "type": "uint256"
            },
            {
              "internalType": "uint256",
              "name": "endPrice",
              "type": "uint256"
            },
            {
              "internalType": "uint256",
              "name": "amount",
              "type": "uint256"
            },
            {
              "internalType": "uint256",
              "name": "startedAt",
              "type": "uint256"
            },
            {
              "internalType": "uint256",
              "name": "duration",
              "type": "uint256"
            },
            {
              "internalType": "address[]",
              "name": "offerers",
              "type": "address[]"
            },
            {
              "internalType": "uint256[]",
              "name": "offerPrices",
              "type": "uint256[]"
            },
            {
              "internalType": "uint256[]",
              "name": "offerAmounts",
              "type": "uint256[]"
            }
          ],
          "internalType": "struct ERC1155SaleBase.Sale[]",
          "name": "sales",
          "type": "tuple[]"
        },
        {
          "internalType": "uint256[]",
          "name": "currentPrices",
          "type": "uint256[]"
        }
      ],
      "stateMutability": "view",
      "type": "function"
    },
    {
      "inputs": [],
      "name": "initialize",
      "outputs": [],
      "stateMutability": "nonpayable",
      "type": "function"
    },
    {
      "inputs": [
        {
          "internalType": "address",
          "name": "contractAddr",
          "type": "address"
        },
        {
          "internalType": "uint256",
          "name": "tokenId",
          "type": "uint256"
        },
        {
          "components": [
            {
              "internalType": "uint8",
              "name": "payment",
              "type": "uint8"
            },
            {
              "internalType": "address",
              "name": "seller",
              "type": "address"
            },
            {
              "internalType": "uint256",
              "name": "startPrice",
              "type": "uint256"
            },
            {
              "internalType": "uint256",
              "name": "endPrice",
              "type": "uint256"
            },
            {
              "internalType": "uint256",
              "name": "amount",
              "type": "uint256"
            },
            {
              "internalType": "uint256",
              "name": "startedAt",
              "type": "uint256"
            },
            {
              "internalType": "uint256",
              "name": "duration",
              "type": "uint256"
            },
            {
              "internalType": "address[]",
              "name": "offerers",
              "type": "address[]"
            },
            {
              "internalType": "uint256[]",
              "name": "offerPrices",
              "type": "uint256[]"
            },
            {
              "internalType": "uint256[]",
              "name": "offerAmounts",
              "type": "uint256[]"
            }
          ],
          "internalType": "struct ERC1155SaleBase.Sale",
          "name": "sale",
          "type": "tuple"
        },
        {
          "internalType": "uint256",
          "name": "price",
          "type": "uint256"
        }
      ],
      "name": "makeOffer",
      "outputs": [],
      "stateMutability": "payable",
      "type": "function"
    },
    {
      "inputs": [
        {
          "internalType": "address",
          "name": "",
          "type": "address"
        },
        {
          "internalType": "address",
          "name": "",
          "type": "address"
        },
        {
          "internalType": "uint256[]",
          "name": "",
          "type": "uint256[]"
        },
        {
          "internalType": "uint256[]",
          "name": "",
          "type": "uint256[]"
        },
        {
          "internalType": "bytes",
          "name": "",
          "type": "bytes"
        }
      ],
      "name": "onERC1155BatchReceived",
      "outputs": [
        {
          "internalType": "bytes4",
          "name": "",
          "type": "bytes4"
        }
      ],
      "stateMutability": "nonpayable",
      "type": "function"
    },
    {
      "inputs": [
        {
          "internalType": "address",
          "name": "",
          "type": "address"
        },
        {
          "internalType": "address",
          "name": "",
          "type": "address"
        },
        {
          "internalType": "uint256",
          "name": "",
          "type": "uint256"
        },
        {
          "internalType": "uint256",
          "name": "",
          "type": "uint256"
        },
        {
          "internalType": "bytes",
          "name": "",
          "type": "bytes"
        }
      ],
      "name": "onERC1155Received",
      "outputs": [
        {
          "internalType": "bytes4",
          "name": "",
          "type": "bytes4"
        }
      ],
      "stateMutability": "nonpayable",
      "type": "function"
    },
    {
      "inputs": [],
      "name": "owner",
      "outputs": [
        {
          "internalType": "address",
          "name": "",
          "type": "address"
        }
      ],
      "stateMutability": "view",
      "type": "function"
    },
    {
      "inputs": [],
      "name": "proxiableUUID",
      "outputs": [
        {
          "internalType": "bytes32",
          "name": "",
          "type": "bytes32"
        }
      ],
      "stateMutability": "view",
      "type": "function"
    },
    {
      "inputs": [],
      "name": "renounceOwnership",
      "outputs": [],
      "stateMutability": "nonpayable",
      "type": "function"
    },
    {
      "inputs": [
        {
          "internalType": "address",
          "name": "contractAddr",
          "type": "address"
        }
      ],
      "name": "setAddressesContractAddr",
      "outputs": [],
      "stateMutability": "nonpayable",
      "type": "function"
    },
    {
      "inputs": [
        {
          "internalType": "address",
          "name": "newSparkAddr",
          "type": "address"
        }
      ],
      "name": "setSparkTokenContractAddr",
      "outputs": [],
      "stateMutability": "nonpayable",
      "type": "function"
    },
    {
      "inputs": [
        {
          "internalType": "bytes4",
          "name": "interfaceId",
          "type": "bytes4"
        }
      ],
      "name": "supportsInterface",
      "outputs": [
        {
          "internalType": "bool",
          "name": "",
          "type": "bool"
        }
      ],
      "stateMutability": "view",
      "type": "function"
    },
    {
      "inputs": [
        {
          "internalType": "uint256",
          "name": "",
          "type": "uint256"
        }
      ],
      "name": "tokenAddrs",
      "outputs": [
        {
          "internalType": "address",
          "name": "",
          "type": "address"
        }
      ],
      "stateMutability": "view",
      "type": "function"
    },
    {
      "inputs": [
        {
          "internalType": "address",
          "name": "newOwner",
          "type": "address"
        }
      ],
      "name": "transferOwnership",
      "outputs": [],
      "stateMutability": "nonpayable",
      "type": "function"
    },
    {
      "inputs": [
        {
          "internalType": "address",
          "name": "contractAddr",
          "type": "address"
        },
        {
          "internalType": "uint256",
          "name": "tokenId",
          "type": "uint256"
        },
        {
          "components": [
            {
              "internalType": "uint8",
              "name": "payment",
              "type": "uint8"
            },
            {
              "internalType": "address",
              "name": "seller",
              "type": "address"
            },
            {
              "internalType": "uint256",
              "name": "startPrice",
              "type": "uint256"
            },
            {
              "internalType": "uint256",
              "name": "endPrice",
              "type": "uint256"
            },
            {
              "internalType": "uint256",
              "name": "amount",
              "type": "uint256"
            },
            {
              "internalType": "uint256",
              "name": "startedAt",
              "type": "uint256"
            },
            {
              "internalType": "uint256",
              "name": "duration",
              "type": "uint256"
            },
            {
              "internalType": "address[]",
              "name": "offerers",
              "type": "address[]"
            },
            {
              "internalType": "uint256[]",
              "name": "offerPrices",
              "type": "uint256[]"
            },
            {
              "internalType": "uint256[]",
              "name": "offerAmounts",
              "type": "uint256[]"
            }
          ],
          "internalType": "struct ERC1155SaleBase.Sale",
          "name": "sale",
          "type": "tuple"
        },
        {
          "internalType": "uint256",
          "name": "price",
          "type": "uint256"
        },
        {
          "internalType": "uint256",
          "name": "amount",
          "type": "uint256"
        }
      ],
      "name": "updateOffer",
      "outputs": [],
      "stateMutability": "payable",
      "type": "function"
    },
    {
      "inputs": [
        {
          "internalType": "address",
          "name": "contractAddr",
          "type": "address"
        },
        {
          "internalType": "uint256",
          "name": "tokenId",
          "type": "uint256"
        },
        {
          "components": [
            {
              "internalType": "uint8",
              "name": "payment",
              "type": "uint8"
            },
            {
              "internalType": "address",
              "name": "seller",
              "type": "address"
            },
            {
              "internalType": "uint256",
              "name": "startPrice",
              "type": "uint256"
            },
            {
              "internalType": "uint256",
              "name": "endPrice",
              "type": "uint256"
            },
            {
              "internalType": "uint256",
              "name": "amount",
              "type": "uint256"
            },
            {
              "internalType": "uint256",
              "name": "startedAt",
              "type": "uint256"
            },
            {
              "internalType": "uint256",
              "name": "duration",
              "type": "uint256"
            },
            {
              "internalType": "address[]",
              "name": "offerers",
              "type": "address[]"
            },
            {
              "internalType": "uint256[]",
              "name": "offerPrices",
              "type": "uint256[]"
            },
            {
              "internalType": "uint256[]",
              "name": "offerAmounts",
              "type": "uint256[]"
            }
          ],
          "internalType": "struct ERC1155SaleBase.Sale",
          "name": "sale",
          "type": "tuple"
        }
      ],
      "name": "updateSale",
      "outputs": [],
      "stateMutability": "nonpayable",
      "type": "function"
    },
    {
      "inputs": [
        {
          "internalType": "address",
          "name": "newImplementation",
          "type": "address"
        }
      ],
      "name": "upgradeTo",
      "outputs": [],
      "stateMutability": "nonpayable",
      "type": "function"
    },
    {
      "inputs": [
        {
          "internalType": "address",
          "name": "newImplementation",
          "type": "address"
        },
        {
          "internalType": "bytes",
          "name": "data",
          "type": "bytes"
        }
      ],
      "name": "upgradeToAndCall",
      "outputs": [],
      "stateMutability": "payable",
      "type": "function"
    }
  ],
  "bytecode": "0x60a06040523060805234801561001457600080fd5b50608051616ca76200004d600039600081816112fe0152818161133e015281816113de0152818161141e01526114ad0152616ca76000f3fe6080604052600436106101e35760003560e01c80639a41382e11610102578063db73982911610095578063f19727fd11610064578063f19727fd14610598578063f23a6e61146105b8578063f2fde38b146105e4578063f4947f0f1461060457600080fd5b8063db73982914610518578063db9d48d814610538578063e16bd3b714610558578063e409886b1461057857600080fd5b8063b69fa39e116100d1578063b69fa39e14610473578063bc197c8114610493578063bc4781af146104d8578063dab54e61146104f857600080fd5b80639a41382e1461040d578063a5756bd214610420578063b1a1c8fc14610440578063b4fc38bc1461046057600080fd5b80634f1ef2861161017a5780638129fc1c116101495780638129fc1c14610378578063821c78181461038d5780638da5cb5b146103bb578063915044ec146103ed57600080fd5b80634f1ef2861461030d57806352d1902d1461032057806360efe33414610343578063715018a61461036357600080fd5b80630dbc71a5116101b65780630dbc71a51461029a57806314ebe08e146102ba5780632faf3ea6146102cd5780633659cfe6146102ed57600080fd5b806301ffc9a7146101e857806303bdb5fb1461021d57806306c0a5041461024b5780630c5e921e14610278575b600080fd5b3480156101f457600080fd5b50610208610203366004615e64565b610624565b60405190151581526020015b60405180910390f35b34801561022957600080fd5b5061023d610238366004616111565b61065b565b60405161021492919061628e565b34801561025757600080fd5b5061026b6102663660046162b0565b6109e0565b60405161021491906162e9565b34801561028457600080fd5b50610298610293366004616111565b610a5a565b005b3480156102a657600080fd5b506102986102b5366004616111565b610f05565b6102986102c8366004616111565b611080565b3480156102d957600080fd5b506102986102e83660046162fc565b611221565b3480156102f957600080fd5b50610298610308366004616328565b6112f3565b61029861031b3660046163b4565b6113d3565b34801561032c57600080fd5b506103356114a0565b604051908152602001610214565b34801561034f57600080fd5b5061033561035e366004616403565b611553565b34801561036f57600080fd5b50610298611578565b34801561038457600080fd5b5061029861158c565b34801561039957600080fd5b506103ad6103a83660046162b0565b6116a4565b60405161021492919061642f565b3480156103c757600080fd5b506033546001600160a01b03165b6040516001600160a01b039091168152602001610214565b3480156103f957600080fd5b506103d561040836600461649c565b611bef565b61029861041b3660046164b5565b611c0f565b34801561042c57600080fd5b5061029861043b366004616328565b611dbb565b34801561044c57600080fd5b5061029861045b366004616111565b611de5565b61029861046e36600461651f565b611f1a565b34801561047f57600080fd5b506103ad61048e36600461657f565b612182565b34801561049f57600080fd5b506104bf6104ae3660046165c0565b63bc197c8160e01b95945050505050565b6040516001600160e01b03199091168152602001610214565b3480156104e457600080fd5b506102986104f3366004616328565b61240c565b34801561050457600080fd5b50610298610513366004616111565b612436565b34801561052457600080fd5b506103ad610533366004616403565b612a88565b34801561054457600080fd5b5060fb546103d5906001600160a01b031681565b34801561056457600080fd5b506103ad610573366004616328565b612cf6565b34801561058457600080fd5b50610298610593366004616111565b613091565b3480156105a457600080fd5b506103356105b336600461666d565b613565565b3480156105c457600080fd5b506104bf6105d33660046166a9565b63f23a6e6160e01b95945050505050565b3480156105f057600080fd5b506102986105ff366004616328565b6135d3565b34801561061057600080fd5b5061026b61061f366004616328565b613649565b60006001600160e01b03198216630271189760e51b148061065557506301ffc9a760e01b6001600160e01b03198316145b92915050565b610663615cf6565b6001600160a01b03841660009081526101016020908152604080832086845282528083208054825181850281018501909352808352909261084092918491869084015b82821015610836576000848152602090819020604080516101408101825260098602909201805460ff8116845261010090046001600160a01b0316838501526001810154838301526002810154606084015260038101546080840152600481015460a0840152600581015460c08401526006810180548351818702810187019094528084529394919360e08601939283018282801561076e57602002820191906000526020600020905b81546001600160a01b03168152600190910190602001808311610750575b50505050508152602001600782018054806020026020016040519081016040528092919081815260200182805480156107c657602002820191906000526020600020905b8154815260200190600101908083116107b2575b505050505081526020016008820180548060200260200160405190810160405280929190818152602001828054801561081e57602002820191906000526020600020905b81548152602001906001019080831161080a575b505050505081525050815260200190600101906106a6565b50505050856136b5565b8154811061085057610850616711565b600091825260209182902060408051610140810182526009909302909101805460ff811684526001600160a01b0361010090910416838501526001810154838301526002810154606084015260038101546080840152600481015460a0840152600581015460c08401526006810180548351818702810187019094528084529394919360e08601939283018282801561091257602002820191906000526020600020905b81546001600160a01b031681526001909101906020018083116108f4575b505050505081526020016007820180548060200260200160405190810160405280929190818152602001828054801561096a57602002820191906000526020600020905b815481526020019060010190808311610956575b50505050508152602001600882018054806020026020016040519081016040528092919081815260200182805480156109c257602002820191906000526020600020905b8154815260200190600101908083116109ae575b50505050508152505091506109d683613565565b9050935093915050565b6001600160a01b03808216600090815261010060209081526040808320938616835292815290829020805483518184028101840190945280845260609392830182828015610a4d57602002820191906000526020600020905b815481526020019060010190808311610a39575b5050505050905092915050565b60fb5483906001600160a01b0316610a8d5760405162461bcd60e51b8152600401610a8490616727565b60405180910390fd5b60fb5460405163b9209e3360e01b81526001600160a01b0383811660048301529091169063b9209e339060240160206040518083038186803b158015610ad257600080fd5b505afa158015610ae6573d6000803e3d6000fd5b505050506040513d601f19601f82011682018060405250810190610b0a9190616754565b610b265760405162461bcd60e51b8152600401610a8490616776565b816060015182604001511015610b4e5760405162461bcd60e51b8152600401610a849061679c565b6040805160008082526020808301845260e08601929092528251818152808301845261010086015282519081528082018352610120850152339084018190524260a085015260808401519151637921219560e11b81526001600160a01b0387169263f242432a92610bc892909130918991906004016167c3565b600060405180830381600087803b158015610be257600080fd5b505af1158015610bf6573d6000803e3d6000fd5b505050506001600160a01b038416600090815261010160209081526040808320868452909152902054610c4f576001600160a01b038416600090815260ff60209081526040822080546001810182559083529120018390555b6001600160a01b038085166000908152610101602090815260408083208784528252808320805460018181018355918552938390208751600990950201805488850151909616610100026001600160a81b031990961660ff9095169490941794909417835585015192820192909255606084015160028201556080840151600382015560a0840151600482015560c0840151600582015560e084015180518593610d00926006850192910190615d55565b506101008201518051610d1d916007840191602090910190615dba565b506101208201518051610d3a916008840191602090910190615dba565b5050336000908152610102602090815260408083206001600160a01b0389168452825280832087845290915290205415159050610da657336000908152610100602090815260408083206001600160a01b03881684528252822080546001810182559083529120018390555b336000908152610102602090815260408083206001600160a01b0388811685529083528184208785528352818420805460018181018355918652948490208751600990960201805488860151909316610100026001600160a81b031990931660ff909616959095179190911784559085015190830155606084015160028301556080840151600383015560a0840151600483015560c0840151600583015560e08401518051859392610e5f926006850192910190615d55565b506101008201518051610e7c916007840191602090910190615dba565b506101208201518051610e99916008840191602090910190615dba565b5050507f38a0a1f75b774e0d12cb7ff4847e94d3350d45c3b561435ad9b9868b0ec4a76f8484846000015185602001518660400151876060015188608001518960a001518a60c00151604051610ef7999897969594939291906167fb565b60405180910390a150505050565b60fb5483906001600160a01b0316610f2f5760405162461bcd60e51b8152600401610a8490616727565b60fb5460405163b9209e3360e01b81526001600160a01b0383811660048301529091169063b9209e339060240160206040518083038186803b158015610f7457600080fd5b505afa158015610f88573d6000803e3d6000fd5b505050506040513d601f19601f82011682018060405250810190610fac9190616754565b610fc85760405162461bcd60e51b8152600401610a8490616776565b81602001516001600160a01b0316336001600160a01b03161461101a5760405162461bcd60e51b815260206004820152600a6024820152692737ba1029b2b63632b960b11b6044820152606401610a84565b611025848484613831565b7f85e861164bc782ea12ee09ac29de3667829962bcc4fc1e93065a8161587ad3608484846000015185602001518660400151876060015188608001518960a001518a60c00151604051610ef7999897969594939291906167fb565b60fb5483906001600160a01b03166110aa5760405162461bcd60e51b8152600401610a8490616727565b60fb5460405163b9209e3360e01b81526001600160a01b0383811660048301529091169063b9209e339060240160206040518083038186803b1580156110ef57600080fd5b505afa158015611103573d6000803e3d6000fd5b505050506040513d601f19601f820116820180604052508101906111279190616754565b6111435760405162461bcd60e51b8152600401610a8490616776565b61114b613c24565b81602001516001600160a01b0316336001600160a01b031614156111815760405162461bcd60e51b8152600401610a8490616851565b600061118c83613565565b90506111a98585858660800151856111a4919061688a565b613c7e565b7fccba53a0685635d0ba900921ada09238126320e6a868f1bbd7a5c525d550b1bb858585600001518660200151876040015188606001518960a001518a60c00151898c60800151336040516112089b9a999897969594939291906168a9565b60405180910390a15061121b6001606555565b50505050565b33600090815260fe6020526040902060ff82166002811061124457611244616711565b01548211156112895760405162461bcd60e51b81526020600482015260116024820152704578636565647320436c61696d61626c6560781b6044820152606401610a84565b33600090815260fe60205260409020829060ff8316600281106112ae576112ae616711565b0160008282546112be9190616907565b909155506112ef905060fc60ff8316600281106112dd576112dd616711565b01546001600160a01b03168333613ce5565b5050565b306001600160a01b037f000000000000000000000000000000000000000000000000000000000000000016141561133c5760405162461bcd60e51b8152600401610a849061691e565b7f00000000000000000000000000000000000000000000000000000000000000006001600160a01b0316611385600080516020616c2b833981519152546001600160a01b031690565b6001600160a01b0316146113ab5760405162461bcd60e51b8152600401610a849061696a565b6113b481613db0565b604080516000808252602082019092526113d091839190613db8565b50565b306001600160a01b037f000000000000000000000000000000000000000000000000000000000000000016141561141c5760405162461bcd60e51b8152600401610a849061691e565b7f00000000000000000000000000000000000000000000000000000000000000006001600160a01b0316611465600080516020616c2b833981519152546001600160a01b031690565b6001600160a01b03161461148b5760405162461bcd60e51b8152600401610a849061696a565b61149482613db0565b6112ef82826001613db8565b6000306001600160a01b037f000000000000000000000000000000000000000000000000000000000000000016146115405760405162461bcd60e51b815260206004820152603860248201527f555550535570677261646561626c653a206d757374206e6f742062652063616c60448201527f6c6564207468726f7567682064656c656761746563616c6c00000000000000006064820152608401610a84565b50600080516020616c2b83398151915290565b60fe602052816000526040600020816002811061156f57600080fd5b01549150829050565b611580613f32565b61158a6000613f8c565b565b600054610100900460ff16158080156115ac5750600054600160ff909116105b806115c65750303b1580156115c6575060005460ff166001145b6116295760405162461bcd60e51b815260206004820152602e60248201527f496e697469616c697a61626c653a20636f6e747261637420697320616c72656160448201526d191e481a5b9a5d1a585b1a5e995960921b6064820152608401610a84565b6000805460ff19166001179055801561164c576000805461ff0019166101001790555b611654613fde565b61165c61400d565b80156113d0576000805461ff0019169055604051600181527f7f26b83ff96e1f2b6a682f133852f6798a09c465da95921460cefb38474024989060200160405180910390a150565b6001600160a01b0380821660009081526101006020908152604080832093861683529290529081206060918291815b8154811015611751576001600160a01b03808716600090815261010260209081526040808320938b168352929052908120908383611710816169b6565b94508154811061172257611722616711565b90600052602060002001548152602001908152602001600020805490508361174a91906169d1565b92506116d3565b50816001600160401b0381111561176a5761176a615eb3565b6040519080825280602002602001820160405280156117a357816020015b611790615cf6565b8152602001906001900390816117885790505b509350816001600160401b038111156117be576117be615eb3565b6040519080825280602002602001820160405280156117e7578160200160208202803683370190505b5092506000915060005b8154811015611be5576001600160a01b03808716600090815261010260209081526040808320938b16835292905290812081848461182e816169b6565b95508154811061184057611840616711565b90600052602060002001548152602001908152602001600020905060005b8154811015611bde5781818154811061187957611879616711565b600091825260209182902060408051610140810182526009909302909101805460ff811684526001600160a01b0361010090910416838501526001810154838301526002810154606084015260038101546080840152600481015460a0840152600581015460c08401526006810180548351818702810187019094528084529394919360e08601939283018282801561193b57602002820191906000526020600020905b81546001600160a01b0316815260019091019060200180831161191d575b505050505081526020016007820180548060200260200160405190810160405280929190818152602001828054801561199357602002820191906000526020600020905b81548152602001906001019080831161197f575b50505050508152602001600882018054806020026020016040519081016040528092919081815260200182805480156119eb57602002820191906000526020600020905b8154815260200190600101908083116119d7575b505050505081525050878681518110611a0657611a06616711565b6020026020010181905250611ba6828281548110611a2657611a26616711565b600091825260209182902060408051610140810182526009909302909101805460ff811684526001600160a01b0361010090910416838501526001810154838301526002810154606084015260038101546080840152600481015460a0840152600581015460c08401526006810180548351818702810187019094528084529394919360e086019392830182828015611ae857602002820191906000526020600020905b81546001600160a01b03168152600190910190602001808311611aca575b5050505050815260200160078201805480602002602001604051908101604052809291908181526020018280548015611b4057602002820191906000526020600020905b815481526020019060010190808311611b2c575b5050505050815260200160088201805480602002602001604051908101604052809291908181526020018280548015611b9857602002820191906000526020600020905b815481526020019060010190808311611b84575b505050505081525050613565565b8686611bb1816169b6565b975081518110611bc357611bc3616711565b6020908102919091010152611bd7816169b6565b905061185e565b50506117f1565b5050509250929050565b60fc8160028110611bff57600080fd5b01546001600160a01b0316905081565b60fb5485906001600160a01b0316611c395760405162461bcd60e51b8152600401610a8490616727565b60fb5460405163b9209e3360e01b81526001600160a01b0383811660048301529091169063b9209e339060240160206040518083038186803b158015611c7e57600080fd5b505afa158015611c92573d6000803e3d6000fd5b505050506040513d601f19601f82011682018060405250810190611cb69190616754565b611cd25760405162461bcd60e51b8152600401610a8490616776565b83602001516001600160a01b0316336001600160a01b03161415611d085760405162461bcd60e51b8152600401610a8490616851565b6000611d1385613565565b6001600160a01b0388166000908152610101602090815260408083208a84529091529020909150611d4b908890889088888689614034565b7f1f7371c4e1e364e0f26d44bacabbf941ccc4d555ea64e4c5fbad8b1ec101882b87878760000151886020015189604001518a606001518b60a001518c60c001518c8e6080015133604051611daa9b9a999897969594939291906168a9565b60405180910390a150505050505050565b611dc3613f32565b60fd80546001600160a01b0319166001600160a01b0392909216919091179055565b60fb5483906001600160a01b0316611e0f5760405162461bcd60e51b8152600401610a8490616727565b60fb5460405163b9209e3360e01b81526001600160a01b0383811660048301529091169063b9209e339060240160206040518083038186803b158015611e5457600080fd5b505afa158015611e68573d6000803e3d6000fd5b505050506040513d601f19601f82011682018060405250810190611e8c9190616754565b611ea85760405162461bcd60e51b8152600401610a8490616776565b6080820151604051637921219560e11b81526001600160a01b0386169163f242432a91611edd913091339189916004016167c3565b600060405180830381600087803b158015611ef757600080fd5b505af1158015611f0b573d6000803e3d6000fd5b5050505061121b8484846145d3565b60fb5484906001600160a01b0316611f445760405162461bcd60e51b8152600401610a8490616727565b60fb5460405163b9209e3360e01b81526001600160a01b0383811660048301529091169063b9209e339060240160206040518083038186803b158015611f8957600080fd5b505afa158015611f9d573d6000803e3d6000fd5b505050506040513d601f19601f82011682018060405250810190611fc19190616754565b611fdd5760405162461bcd60e51b8152600401610a8490616776565b82602001516001600160a01b0316336001600160a01b031614156120135760405162461bcd60e51b8152600401610a8490616851565b600061201e84613565565b90508083106120655760405162461bcd60e51b8152602060048201526013602482015272496e76616c6964204f6666657220507269636560681b6044820152606401610a84565b6120a460fc856000015160ff166002811061208257612082616711565b015460808601516001600160a01b039091169061209f908661688a565b614669565b6001600160a01b03861660009081526101016020908152604080832088845290915290206120d490858584614741565b6020808501516001600160a01b03908116600090815261010283526040808220928a168252918352818120888252909252902061211390858584614741565b7f3e1a01baff8094b01a8767647c320f6aa3c7ba8cf71046aa7ac4f062de2b0488868686600001518760200151886040015189606001518a60a001518b60c001518b8d60800151336040516121729b9a999897969594939291906168a9565b60405180910390a1505050505050565b6001600160a01b038084166000908152610102602090815260408083209386168352928152828220848352815282822080548451818402810184019095528085526060948594909384015b8282101561235d576000848152602090819020604080516101408101825260098602909201805460ff8116845261010090046001600160a01b0316838501526001810154838301526002810154606084015260038101546080840152600481015460a0840152600581015460c08401526006810180548351818702810187019094528084529394919360e08601939283018282801561229557602002820191906000526020600020905b81546001600160a01b03168152600190910190602001808311612277575b50505050508152602001600782018054806020026020016040519081016040528092919081815260200182805480156122ed57602002820191906000526020600020905b8154815260200190600101908083116122d9575b505050505081526020016008820180548060200260200160405190810160405280929190818152602001828054801561234557602002820191906000526020600020905b815481526020019060010190808311612331575b505050505081525050815260200190600101906121cd565b50505050915081516001600160401b0381111561237c5761237c615eb3565b6040519080825280602002602001820160405280156123a5578160200160208202803683370190505b50905060005b8251811015612403576123d68382815181106123c9576123c9616711565b6020026020010151613565565b8282815181106123e8576123e8616711565b60209081029190910101526123fc816169b6565b90506123ab565b50935093915050565b612414613f32565b60fb80546001600160a01b0319166001600160a01b0392909216919091179055565b60fb5483906001600160a01b03166124605760405162461bcd60e51b8152600401610a8490616727565b60fb5460405163b9209e3360e01b81526001600160a01b0383811660048301529091169063b9209e339060240160206040518083038186803b1580156124a557600080fd5b505afa1580156124b9573d6000803e3d6000fd5b505050506040513d601f19601f820116820180604052508101906124dd9190616754565b6124f95760405162461bcd60e51b8152600401610a8490616776565b6001600160a01b038416600090815261010160209081526040808320868452825280832080548251818502810185019093528083526126d193859084015b828210156126c7576000848152602090819020604080516101408101825260098602909201805460ff8116845261010090046001600160a01b0316838501526001810154838301526002810154606084015260038101546080840152600481015460a0840152600581015460c08401526006810180548351818702810187019094528084529394919360e0860193928301828280156125ff57602002820191906000526020600020905b81546001600160a01b031681526001909101906020018083116125e1575b505050505081526020016007820180548060200260200160405190810160405280929190818152602001828054801561265757602002820191906000526020600020905b815481526020019060010190808311612643575b50505050508152602001600882018054806020026020016040519081016040528092919081815260200182805480156126af57602002820191906000526020600020905b81548152602001906001019080831161269b575b50505050508152505081526020019060010190612537565b50505050846136b5565b6001600160a01b03861660009081526101016020908152604080832088845290915290205490915081106127355760405162461bcd60e51b815260206004820152600b60248201526a4e6f74204f6e2053616c6560a81b6044820152606401610a84565b6001600160a01b038516600090815261010160209081526040808320878452909152812080548390811061276b5761276b616711565b9060005260206000209060090201905060008160060180549050116127bd5760405162461bcd60e51b815260206004820152600860248201526727379027b33332b960c11b6044820152606401610a84565b604051632d49165560e11b815260009073__$e9d29609e19beebe46219d41a81a317a2e$__90635a922caa906127fa9060078601906004016169e9565b60206040518083038186803b15801561281257600080fd5b505af4158015612826573d6000803e3d6000fd5b505050506040513d601f19601f8201168201806040525081019061284a9190616a30565b9050846080015182600801828154811061286657612866616711565b906000526020600020015410156128b45760405162461bcd60e51b815260206004820152601260248201527124b739bab33334b1b4b2b73a1027b33332b960711b6044820152606401610a84565b61291760fc866000015160ff16600281106128d1576128d1616711565b015460808701516007850180546001600160a01b0390931692859081106128fa576128fa616711565b906000526020600020015461290f919061688a565b338a8a614c3b565b600082600601828154811061292e5761292e616711565b6000918252602090912001546080870151604051637921219560e11b81526001600160a01b039283169350918a169163f242432a9161297691309186918d91906004016167c3565b600060405180830381600087803b15801561299057600080fd5b505af11580156129a4573d6000803e3d6000fd5b5050506001600160a01b0389166000908152610101602090815260408083208b845290915290206129d791508783614c6c565b336000908152610102602090815260408083206001600160a01b038c16845282528083208a84529091529020612a0e908783614c6c565b612a198888886145d3565b7f0125ca0ceb0e88f6ace0a67fe790ebd6976c2c19b625f679c8ad52e5c68471b18888886000015189602001518a604001518b606001518c60a001518d60c001518e608001518a604051612a769a99989796959493929190616a49565b60405180910390a15050505050505050565b6001600160a01b03821660009081526101016020908152604080832084845282528083208054825181850281018501909352808352606094859484015b82821015612c55576000848152602090819020604080516101408101825260098602909201805460ff8116845261010090046001600160a01b0316838501526001810154838301526002810154606084015260038101546080840152600481015460a0840152600581015460c08401526006810180548351818702810187019094528084529394919360e086019392830182828015612b8d57602002820191906000526020600020905b81546001600160a01b03168152600190910190602001808311612b6f575b5050505050815260200160078201805480602002602001604051908101604052809291908181526020018280548015612be557602002820191906000526020600020905b815481526020019060010190808311612bd1575b5050505050815260200160088201805480602002602001604051908101604052809291908181526020018280548015612c3d57602002820191906000526020600020905b815481526020019060010190808311612c29575b50505050508152505081526020019060010190612ac5565b50505050915081516001600160401b03811115612c7457612c74615eb3565b604051908082528060200260200182016040528015612c9d578160200160208202803683370190505b50905060005b8251811015612cee57612cc18382815181106123c9576123c9616711565b828281518110612cd357612cd3616711565b6020908102919091010152612ce7816169b6565b9050612ca3565b509250929050565b6001600160a01b038116600090815260ff602052604081206060918291815b8154811015612d84576001600160a01b038616600090815261010160205260408120908383612d43816169b6565b945081548110612d5557612d55616711565b906000526020600020015481526020019081526020016000208054905083612d7d91906169d1565b9250612d15565b50816001600160401b03811115612d9d57612d9d615eb3565b604051908082528060200260200182016040528015612dd657816020015b612dc3615cf6565b815260200190600190039081612dbb5790505b509350816001600160401b03811115612df157612df1615eb3565b604051908082528060200260200182016040528015612e1a578160200160208202803683370190505b5092506000915060005b8154811015613089576001600160a01b038616600090815261010160205260408120818484612e52816169b6565b955081548110612e6457612e64616711565b90600052602060002001548152602001908152602001600020905060005b815481101561308257818181548110612e9d57612e9d616711565b600091825260209182902060408051610140810182526009909302909101805460ff811684526001600160a01b0361010090910416838501526001810154838301526002810154606084015260038101546080840152600481015460a0840152600581015460c08401526006810180548351818702810187019094528084529394919360e086019392830182828015612f5f57602002820191906000526020600020905b81546001600160a01b03168152600190910190602001808311612f41575b5050505050815260200160078201805480602002602001604051908101604052809291908181526020018280548015612fb757602002820191906000526020600020905b815481526020019060010190808311612fa3575b505050505081526020016008820180548060200260200160405190810160405280929190818152602001828054801561300f57602002820191906000526020600020905b815481526020019060010190808311612ffb575b50505050508152505087868151811061302a5761302a616711565b602002602001018190525061304a828281548110611a2657611a26616711565b8686613055816169b6565b97508151811061306757613067616711565b602090810291909101015261307b816169b6565b9050612e82565b5050612e24565b505050915091565b60fb5483906001600160a01b03166130bb5760405162461bcd60e51b8152600401610a8490616727565b60fb5460405163b9209e3360e01b81526001600160a01b0383811660048301529091169063b9209e339060240160206040518083038186803b15801561310057600080fd5b505afa158015613114573d6000803e3d6000fd5b505050506040513d601f19601f820116820180604052508101906131389190616754565b6131545760405162461bcd60e51b8152600401610a8490616776565b6001600160a01b03841660009081526101016020908152604080832086845282528083208054825181850281018501909352808352909261332792918491869084015b82821015610836576000848152602090819020604080516101408101825260098602909201805460ff8116845261010090046001600160a01b0316838501526001810154838301526002810154606084015260038101546080840152600481015460a0840152600581015460c08401526006810180548351818702810187019094528084529394919360e08601939283018282801561325f57602002820191906000526020600020905b81546001600160a01b03168152600190910190602001808311613241575b50505050508152602001600782018054806020026020016040519081016040528092919081815260200182805480156132b757602002820191906000526020600020905b8154815260200190600101908083116132a3575b505050505081526020016008820180548060200260200160405190810160405280929190818152602001828054801561330f57602002820191906000526020600020905b8154815260200190600101908083116132fb575b50505050508152505081526020019060010190613197565b8154811061333757613337616711565b60009182526020909120600990910201805490915061348c9060fc9060ff166002811061336657613366616711565b01546080850151600684018054604080516020808402820181019092528281526001600160a01b03909516946007880193909290918301828280156133d457602002820191906000526020600020905b81546001600160a01b031681526001909101906020018083116133b6575b5050604051636e44fbfb60e01b815273__$e9d29609e19beebe46219d41a81a317a2e$__94636e44fbfb9450613411935091503390600401616aa1565b60206040518083038186803b15801561342957600080fd5b505af415801561343d573d6000803e3d6000fd5b505050506040513d601f19601f820116820180604052508101906134619190616a30565b8154811061347157613471616711565b9060005260206000200154613486919061688a565b33613ce5565b6001600160a01b03851660009081526101016020908152604080832087845290915290206134bb908433614c6c565b6020808401516001600160a01b03908116600090815261010283526040808220928916825291835281812087825290925290206134f9908433614c6c565b7fa9748c93c15f93e884198ec4883cae2a18adb4e9fcc36d4773185e916e4359c7858585600001518660200151876040015188606001518960a001518a60c001518b60800151336040516135569a99989796959493929190616a49565b60405180910390a15050505050565b60008160c001518260a0015161357b91906169d1565b4210613588575060608101515b60c082015160a083015161359c9042616907565b836060015184604001516135b09190616907565b6135ba919061688a565b6135c49190616afe565b82604001516106559190616907565b6135db613f32565b6001600160a01b0381166136405760405162461bcd60e51b815260206004820152602660248201527f4f776e61626c653a206e6577206f776e657220697320746865207a65726f206160448201526564647265737360d01b6064820152608401610a84565b6113d081613f8c565b6001600160a01b038116600090815260ff60209081526040918290208054835181840281018401909452808452606093928301828280156136a957602002820191906000526020600020905b815481526020019060010190808311613695575b50505050509050919050565b60005b82518110156137f3578281815181106136d3576136d3616711565b60200260200101516000015160ff16826000015160ff16148015613717575082818151811061370457613704616711565b6020026020010151604001518260400151145b8015613743575082818151811061373057613730616711565b6020026020010151606001518260600151145b801561376f575082818151811061375c5761375c616711565b602002602001015160a001518260a00151145b801561379b575082818151811061378857613788616711565b602002602001015160c001518260c00151145b80156137d957508281815181106137b4576137b4616711565b6020026020010151602001516001600160a01b031682602001516001600160a01b0316145b156137e3576137f3565b6137ec816169b6565b90506136b8565b825181106106555760405162461bcd60e51b815260206004820152600b60248201526a4e6f74204f6e2053616c6560a81b6044820152606401610a84565b6001600160a01b03831660009081526101016020908152604080832085845282528083208054825181850281018501909352808352613a0d93859084015b828210156139ff576000848152602090819020604080516101408101825260098602909201805460ff8116845261010090046001600160a01b0316838501526001810154838301526002810154606084015260038101546080840152600481015460a0840152600581015460c08401526006810180548351818702810187019094528084529394919360e08601939283018282801561393757602002820191906000526020600020905b81546001600160a01b03168152600190910190602001808311613919575b505050505081526020016007820180548060200260200160405190810160405280929190818152602001828054801561398f57602002820191906000526020600020905b81548152602001906001019080831161397b575b50505050508152602001600882018054806020026020016040519081016040528092919081815260200182805480156139e757602002820191906000526020600020905b8154815260200190600101908083116139d3575b5050505050815250508152602001906001019061386f565b5050505083602001516150e3565b6001600160a01b03851660009081526101016020908152604080832087845290915290208054919250839183908110613a4857613a48616711565b600091825260209182902083516009909202018054848401516001600160a01b0316610100026001600160a81b031990911660ff9093169290921791909117815560408301516001820155606083015160028201556080830151600382015560a0830151600482015560c0830151600582015560e083015180519192613ad692600685019290910190615d55565b506101008201518051613af3916007840191602090910190615dba565b506101208201518051613b10916008840191602090910190615dba565b5050336000908152610102602090815260408083206001600160a01b038916845282528083208784529091529020805484925083908110613b5357613b53616711565b600091825260209182902083516009909202018054848401516001600160a01b0316610100026001600160a81b031990911660ff9093169290921791909117815560408301516001820155606083015160028201556080830151600382015560a0830151600482015560c0830151600582015560e083015180519192613be192600685019290910190615d55565b506101008201518051613bfe916007840191602090910190615dba565b506101208201518051613c1b916008840191602090910190615dba565b50505050505050565b60026065541415613c775760405162461bcd60e51b815260206004820152601f60248201527f5265656e7472616e637947756172643a207265656e7472616e742063616c6c006044820152606401610a84565b6002606555565b613cac60fc836000015160ff1660028110613c9b57613c9b616711565b01546001600160a01b031682614669565b611ea860fc836000015160ff1660028110613cc957613cc9616711565b015460208401516001600160a01b039091169083908787614c3b565b6001600160a01b038316613d29576040516001600160a01b0382169083156108fc029084906000818181858888f1935050505015801561121b573d6000803e3d6000fd5b60405163a9059cbb60e01b81526001600160a01b0382811660048301526024820184905284169063a9059cbb90604401602060405180830381600087803b158015613d7357600080fd5b505af1158015613d87573d6000803e3d6000fd5b505050506040513d601f19601f8201168201806040525081019061121b9190616754565b505050565b6113d0613f32565b7f4910fdfa16fed3260ed0e7147f7cc6da11a60208b5b9406d12a635614ffd91435460ff1615613deb57613dab8361513a565b826001600160a01b03166352d1902d6040518163ffffffff1660e01b815260040160206040518083038186803b158015613e2457600080fd5b505afa925050508015613e54575060408051601f3d908101601f19168201909252613e5191810190616a30565b60015b613eb75760405162461bcd60e51b815260206004820152602e60248201527f45524331393637557067726164653a206e657720696d706c656d656e7461746960448201526d6f6e206973206e6f74205555505360901b6064820152608401610a84565b600080516020616c2b8339815191528114613f265760405162461bcd60e51b815260206004820152602960248201527f45524331393637557067726164653a20756e737570706f727465642070726f786044820152681a58589b195555525160ba1b6064820152608401610a84565b50613dab8383836151d6565b6033546001600160a01b0316331461158a5760405162461bcd60e51b815260206004820181905260248201527f4f776e61626c653a2063616c6c6572206973206e6f7420746865206f776e65726044820152606401610a84565b603380546001600160a01b038381166001600160a01b0319831681179093556040519116919082907f8be0079c531659141344cd1fd0a4f28419497f9722a3daafe3b4186f6b6457e090600090a35050565b600054610100900460ff166140055760405162461bcd60e51b8152600401610a8490616b20565b61158a6151fb565b600054610100900460ff1661158a5760405162461bcd60e51b8152600401610a8490616b20565b8183106140535760405162461bcd60e51b8152600401610a849061679c565b600061421386805480602002602001604051908101604052809291908181526020016000905b82821015614209576000848152602090819020604080516101408101825260098602909201805460ff8116845261010090046001600160a01b0316838501526001810154838301526002810154606084015260038101546080840152600481015460a0840152600581015460c08401526006810180548351818702810187019094528084529394919360e08601939283018282801561414157602002820191906000526020600020905b81546001600160a01b03168152600190910190602001808311614123575b505050505081526020016007820180548060200260200160405190810160405280929190818152602001828054801561419957602002820191906000526020600020905b815481526020019060010190808311614185575b50505050508152602001600882018054806020026020016040519081016040528092919081815260200182805480156141f157602002820191906000526020600020905b8154815260200190600101908083116141dd575b50505050508152505081526020019060010190614079565b50505050866136b5565b9050846080015186828154811061422c5761422c616711565b90600052602060002090600902016003015410156142805760405162461bcd60e51b8152602060048201526011602482015270496e73756666696369656e742053616c6560781b6044820152606401610a84565b600086828154811061429457614294616711565b90600052602060002090600902016006018054806020026020016040519081016040528092919081815260200182805480156142f957602002820191906000526020600020905b81546001600160a01b031681526001909101906020018083116142db575b5050604051636e44fbfb60e01b815273__$e9d29609e19beebe46219d41a81a317a2e$__94636e44fbfb9450614336935091503390600401616aa1565b60206040518083038186803b15801561434e57600080fd5b505af4158015614362573d6000803e3d6000fd5b505050506040513d601f19601f820116820180604052508101906143869190616a30565b905086828154811061439a5761439a616711565b90600052602060002090600902016006018054905081106143ef5760405162461bcd60e51b815260206004820152600f60248201526e2737ba103337bab7321037b33332b960891b6044820152606401610a84565b600087838154811061440357614403616711565b9060005260206000209060090201600701828154811061442557614425616711565b906000526020600020015488848154811061444257614442616711565b9060005260206000209060090201600801838154811061446457614464616711565b9060005260206000200154614479919061688a565b90506000614487858861688a565b9050818111156144c8576144c360fc896000015160ff16600281106144ae576144ae616711565b01546001600160a01b031661209f8484616907565b61454a565b61454a60fc896000015160ff16600281106144e5576144e5616711565b01546001600160a01b03166144fa8385616907565b8b878154811061450c5761450c616711565b9060005260206000209060090201600601868154811061452e5761452e616711565b6000918252602090912001546001600160a01b03168e8e614c3b565b8689858154811061455d5761455d616711565b9060005260206000209060090201600701848154811061457f5761457f616711565b906000526020600020018190555088848154811061459f5761459f616711565b6000918252602080832060086009909302019190910180546001810182559083529120019490945550505050505050505050565b6001600160a01b038316600081815261010160209081526040808320868452825280832093835260ff909152902061460f91908385600161522b565b602080820180516001600160a01b039081166000908152610102845260408082208884168084529086528183208884528652818320945190931682526101008552808220928252919093528220613dab928490869061522b565b6001600160a01b0382166146bb57803410156112ef5760405162461bcd60e51b8152602060048201526011602482015270125b9cdd59999a58da595b9d08119d5b99607a1b6044820152606401610a84565b6040516323b872dd60e01b8152336004820152306024820152604481018290526001600160a01b038316906323b872dd90606401602060405180830381600087803b15801561470957600080fd5b505af115801561471d573d6000803e3d6000fd5b505050506040513d601f19601f82011682018060405250810190613dab9190616754565b60006148f785805480602002602001604051908101604052809291908181526020016000905b82821015610836576000848152602090819020604080516101408101825260098602909201805460ff8116845261010090046001600160a01b0316838501526001810154838301526002810154606084015260038101546080840152600481015460a0840152600581015460c08401526006810180548351818702810187019094528084529394919360e08601939283018282801561482f57602002820191906000526020600020905b81546001600160a01b03168152600190910190602001808311614811575b505050505081526020016007820180548060200260200160405190810160405280929190818152602001828054801561488757602002820191906000526020600020905b815481526020019060010190808311614873575b50505050508152602001600882018054806020026020016040519081016040528092919081815260200182805480156148df57602002820191906000526020600020905b8154815260200190600101908083116148cb575b50505050508152505081526020019060010190614767565b9050836080015185828154811061491057614910616711565b90600052602060002090600902016003015410156149645760405162461bcd60e51b8152602060048201526011602482015270496e73756666696369656e742053616c6560781b6044820152606401610a84565b600085828154811061497857614978616711565b90600052602060002090600902016006018054806020026020016040519081016040528092919081815260200182805480156149dd57602002820191906000526020600020905b81546001600160a01b031681526001909101906020018083116149bf575b5050604051636e44fbfb60e01b815273__$e9d29609e19beebe46219d41a81a317a2e$__94636e44fbfb9450614a1a935091503390600401616aa1565b60206040518083038186803b158015614a3257600080fd5b505af4158015614a46573d6000803e3d6000fd5b505050506040513d601f19601f82011682018060405250810190614a6a9190616a30565b9050858281548110614a7e57614a7e616711565b906000526020600020906009020160060180549050811015614b545783868381548110614aad57614aad616711565b90600052602060002090600902016007018281548110614acf57614acf616711565b906000526020600020015414614af75760405162461bcd60e51b8152600401610a849061679c565b8460800151868381548110614b0e57614b0e616711565b90600052602060002090600902016008018281548110614b3057614b30616711565b906000526020600020016000828254614b4991906169d1565b90915550614c339050565b828410614b735760405162461bcd60e51b8152600401610a849061679c565b858281548110614b8557614b85616711565b60009182526020808320600660099093020191909101805460018101825590835291200180546001600160a01b031916331790558554869083908110614bcd57614bcd616711565b6000918252602080832060076009909302019190910180546001810182559083529120018490558554869083908110614c0857614c08616711565b6000918252602080832060808901516009939093020160080180546001810182559084529220909101555b505050505050565b6000614c46836158bc565b15614c5e57614c578383888861593d565b9050614c61565b50835b614c33868286613ce5565b6000614e2284805480602002602001604051908101604052809291908181526020016000905b828210156126c7576000848152602090819020604080516101408101825260098602909201805460ff8116845261010090046001600160a01b0316838501526001810154838301526002810154606084015260038101546080840152600481015460a0840152600581015460c08401526006810180548351818702810187019094528084529394919360e086019392830182828015614d5a57602002820191906000526020600020905b81546001600160a01b03168152600190910190602001808311614d3c575b5050505050815260200160078201805480602002602001604051908101604052809291908181526020018280548015614db257602002820191906000526020600020905b815481526020019060010190808311614d9e575b5050505050815260200160088201805480602002602001604051908101604052809291908181526020018280548015614e0a57602002820191906000526020600020905b815481526020019060010190808311614df6575b50505050508152505081526020019060010190614c92565b90506000848281548110614e3857614e38616711565b9060005260206000209060090201600601805480602002602001604051908101604052809291908181526020018280548015614e9d57602002820191906000526020600020905b81546001600160a01b03168152600190910190602001808311614e7f575b5050604051636e44fbfb60e01b815273__$e9d29609e19beebe46219d41a81a317a2e$__94636e44fbfb9450614eda935091508790600401616aa1565b60206040518083038186803b158015614ef257600080fd5b505af4158015614f06573d6000803e3d6000fd5b505050506040513d601f19601f82011682018060405250810190614f2a9190616a30565b9050848281548110614f3e57614f3e616711565b9060005260206000209060090201600601805490508110614f8c5760405162461bcd60e51b815260206004820152600860248201526727379027b33332b960c11b6044820152606401610a84565b8360800151858381548110614fa357614fa3616711565b90600052602060002090600902016008018281548110614fc557614fc5616711565b906000526020600020015410156150135760405162461bcd60e51b815260206004820152601260248201527124b739bab33334b1b4b2b73a1027b33332b960711b6044820152606401610a84565b836080015185838154811061502a5761502a616711565b9060005260206000209060090201600801828154811061504c5761504c616711565b9060005260206000200160008282546150659190616907565b9250508190555084828154811061507e5761507e616711565b906000526020600020906009020160080181815481106150a0576150a0616711565b9060005260206000200154600014156150dc576150dc8583815481106150c8576150c8616711565b906000526020600020906009020182615a38565b5050505050565b60005b8251811080156151255750816001600160a01b031683828151811061510d5761510d616711565b6020026020010151602001516001600160a01b031614155b156137f357615133816169b6565b90506150e6565b6001600160a01b0381163b6151a75760405162461bcd60e51b815260206004820152602d60248201527f455243313936373a206e657720696d706c656d656e746174696f6e206973206e60448201526c1bdd08184818dbdb9d1c9858dd609a1b6064820152608401610a84565b600080516020616c2b83398151915280546001600160a01b0319166001600160a01b0392909216919091179055565b6151df83615b78565b6000825111806151ec5750805b15613dab5761121b8383615bb8565b600054610100900460ff166152225760405162461bcd60e51b8152600401610a8490616b20565b61158a33613f8c565b60006153e186805480602002602001604051908101604052809291908181526020016000905b82821015610836576000848152602090819020604080516101408101825260098602909201805460ff8116845261010090046001600160a01b0316838501526001810154838301526002810154606084015260038101546080840152600481015460a0840152600581015460c08401526006810180548351818702810187019094528084529394919360e08601939283018282801561531957602002820191906000526020600020905b81546001600160a01b031681526001909101906020018083116152fb575b505050505081526020016007820180548060200260200160405190810160405280929190818152602001828054801561537157602002820191906000526020600020905b81548152602001906001019080831161535d575b50505050508152602001600882018054806020026020016040519081016040528092919081815260200182805480156153c957602002820191906000526020600020905b8154815260200190600101908083116153b5575b50505050508152505081526020019060010190615251565b905083608001518682815481106153fa576153fa616711565b9060005260206000209060090201600301600082825461541a9190616907565b90915550600090505b86828154811061543557615435616711565b9060005260206000209060090201600601805490508110156156955786828154811061546357615463616711565b90600052602060002090600902016003015487838154811061548757615487616711565b906000526020600020906009020160080182815481106154a9576154a9616711565b90600052602060002001541115615685578215615620578682815481106154d2576154d2616711565b906000526020600020906009020160070181815481106154f4576154f4616711565b906000526020600020015487838154811061551157615511616711565b90600052602060002090600902016003015488848154811061553557615535616711565b9060005260206000209060090201600801838154811061555757615557616711565b906000526020600020015461556c9190616907565b615576919061688a565b60fe600089858154811061558c5761558c616711565b906000526020600020906009020160060184815481106155ae576155ae616711565b60009182526020808320909101546001600160a01b03168352820192909252604001902088548990859081106155e6576155e6616711565b600091825260209091206009909102015460ff166002811061560a5761560a616711565b01600082825461561a91906169d1565b90915550505b86828154811061563257615632616711565b90600052602060002090600902016003015487838154811061565657615656616711565b9060005260206000209060090201600801828154811061567857615678616711565b6000918252602090912001555b61568e816169b6565b9050615423565b508581815481106156a8576156a8616711565b90600052602060002090600902016003015460001415614c3357855486906156d290600190616907565b815481106156e2576156e2616711565b906000526020600020906009020186828154811061570257615702616711565b600091825260209091208254600990920201805460ff90921660ff1983168117825583546001600160a81b031990931617610100928390046001600160a01b03169092029190911781556001808301549082015560028083015490820155600380830154908201556004808301549082015560058083015490820155600680830180546157929284019190615df5565b50600782810180546157a79284019190615df5565b50600882810180546157bc9284019190615df5565b50905050858054806157d0576157d0616b6b565b60008281526020812060096000199093019283020180546001600160a81b03191681556001810182905560028101829055600381018290556004810182905560058101829055906158246006830182615e35565b615832600783016000615e35565b615840600883016000615e35565b505090558554614c3357604051630cef945b60e31b8152600481018690526024810184905273__$e9d29609e19beebe46219d41a81a317a2e$__9063677ca2d89060440160006040518083038186803b15801561589c57600080fd5b505af41580156158b0573d6000803e3d6000fd5b50505050505050505050565b6040516301ffc9a760e01b815263152a902d60e11b60048201526000906001600160a01b038316906301ffc9a79060240160206040518083038186803b15801561590557600080fd5b505afa158015615919573d6000803e3d6000fd5b505050506040513d601f19601f820116820180604052508101906106559190616754565b60405163152a902d60e11b81526004810184905260248101829052600090819081906001600160a01b03881690632a55205a90604401604080518083038186803b15801561598a57600080fd5b505afa15801561599e573d6000803e3d6000fd5b505050506040513d601f19601f820116820180604052508101906159c29190616b81565b90925090506159d18185616907565b925080156159e4576159e4858284613ce5565b604080516001600160a01b0389168152602081018890529081018290527f7a474f3ea7966b6a336a0169253a863c5bbe817379d3570951736f604adbe2699060600160405180910390a15050949350505050565b604051637b150e3d60e01b81526006830160048201526024810182905273__$e9d29609e19beebe46219d41a81a317a2e$__90637b150e3d9060440160006040518083038186803b158015615a8c57600080fd5b505af4158015615aa0573d6000803e3d6000fd5b5050604051633c764a6160e21b81526007850160048201526024810184905273__$e9d29609e19beebe46219d41a81a317a2e$__925063f1d92984915060440160006040518083038186803b158015615af857600080fd5b505af4158015615b0c573d6000803e3d6000fd5b5050604051633c764a6160e21b81526008850160048201526024810184905273__$e9d29609e19beebe46219d41a81a317a2e$__925063f1d92984915060440160006040518083038186803b158015615b6457600080fd5b505af4158015614c33573d6000803e3d6000fd5b615b818161513a565b6040516001600160a01b038216907fbc7cd75a20ee27fd9adebab32041f755214dbc6bffa90cc0225b39da2e5c2d3b90600090a250565b60606001600160a01b0383163b615c205760405162461bcd60e51b815260206004820152602660248201527f416464726573733a2064656c65676174652063616c6c20746f206e6f6e2d636f6044820152651b9d1c9858dd60d21b6064820152608401610a84565b600080846001600160a01b031684604051615c3b9190616bdb565b600060405180830381855af49150503d8060008114615c76576040519150601f19603f3d011682016040523d82523d6000602084013e615c7b565b606091505b5091509150615ca38282604051806060016040528060278152602001616c4b60279139615cac565b95945050505050565b60608315615cbb575081615cc5565b615cc58383615ccc565b9392505050565b815115615cdc5781518083602001fd5b8060405162461bcd60e51b8152600401610a849190616bf7565b604051806101400160405280600060ff16815260200160006001600160a01b0316815260200160008152602001600081526020016000815260200160008152602001600081526020016060815260200160608152602001606081525090565b828054828255906000526020600020908101928215615daa579160200282015b82811115615daa57825182546001600160a01b0319166001600160a01b03909116178255602090920191600190910190615d75565b50615db6929150615e4f565b5090565b828054828255906000526020600020908101928215615daa579160200282015b82811115615daa578251825591602001919060010190615dda565b828054828255906000526020600020908101928215615daa5760005260206000209182015b82811115615daa578254825591600101919060010190615e1a565b50805460008255906000526020600020908101906113d091905b5b80821115615db65760008155600101615e50565b600060208284031215615e7657600080fd5b81356001600160e01b031981168114615cc557600080fd5b6001600160a01b03811681146113d057600080fd5b8035615eae81615e8e565b919050565b634e487b7160e01b600052604160045260246000fd5b60405161014081016001600160401b0381118282101715615eec57615eec615eb3565b60405290565b604051601f8201601f191681016001600160401b0381118282101715615f1a57615f1a615eb3565b604052919050565b803560ff81168114615eae57600080fd5b60006001600160401b03821115615f4c57615f4c615eb3565b5060051b60200190565b600082601f830112615f6757600080fd5b81356020615f7c615f7783615f33565b615ef2565b82815260059290921b84018101918181019086841115615f9b57600080fd5b8286015b84811015615fbf578035615fb281615e8e565b8352918301918301615f9f565b509695505050505050565b600082601f830112615fdb57600080fd5b81356020615feb615f7783615f33565b82815260059290921b8401810191818101908684111561600a57600080fd5b8286015b84811015615fbf578035835291830191830161600e565b6000610140828403121561603857600080fd5b616040615ec9565b905061604b82615f22565b815261605960208301615ea3565b602082015260408201356040820152606082013560608201526080820135608082015260a082013560a082015260c082013560c082015260e08201356001600160401b03808211156160aa57600080fd5b6160b685838601615f56565b60e0840152610100915081840135818111156160d157600080fd5b6160dd86828701615fca565b8385015250610120915081840135818111156160f857600080fd5b61610486828701615fca565b8385015250505092915050565b60008060006060848603121561612657600080fd5b833561613181615e8e565b92506020840135915060408401356001600160401b0381111561615357600080fd5b61615f86828701616025565b9150509250925092565b600081518084526020808501945080840160005b838110156161a25781516001600160a01b03168752958201959082019060010161617d565b509495945050505050565b600081518084526020808501945080840160005b838110156161a2578151875295820195908201906001016161c1565b805160ff1682526000610140602083015161620360208601826001600160a01b03169052565b5060408301516040850152606083015160608501526080830151608085015260a083015160a085015260c083015160c085015260e08301518160e086015261624d82860182616169565b915050610100808401518583038287015261626883826161ad565b92505050610120808401518583038287015261628483826161ad565b9695505050505050565b6040815260006162a160408301856161dd565b90508260208301529392505050565b600080604083850312156162c357600080fd5b82356162ce81615e8e565b915060208301356162de81615e8e565b809150509250929050565b602081526000615cc560208301846161ad565b6000806040838503121561630f57600080fd5b8235915061631f60208401615f22565b90509250929050565b60006020828403121561633a57600080fd5b8135615cc581615e8e565b600082601f83011261635657600080fd5b81356001600160401b0381111561636f5761636f615eb3565b616382601f8201601f1916602001615ef2565b81815284602083860101111561639757600080fd5b816020850160208301376000918101602001919091529392505050565b600080604083850312156163c757600080fd5b82356163d281615e8e565b915060208301356001600160401b038111156163ed57600080fd5b6163f985828601616345565b9150509250929050565b6000806040838503121561641657600080fd5b823561642181615e8e565b946020939093013593505050565b6000604082016040835280855180835260608501915060608160051b8601019250602080880160005b8381101561648657605f198887030185526164748683516161dd565b95509382019390820190600101616458565b505085840381870152505050615ca381856161ad565b6000602082840312156164ae57600080fd5b5035919050565b600080600080600060a086880312156164cd57600080fd5b85356164d881615e8e565b94506020860135935060408601356001600160401b038111156164fa57600080fd5b61650688828901616025565b9598949750949560608101359550608001359392505050565b6000806000806080858703121561653557600080fd5b843561654081615e8e565b93506020850135925060408501356001600160401b0381111561656257600080fd5b61656e87828801616025565b949793965093946060013593505050565b60008060006060848603121561659457600080fd5b833561659f81615e8e565b925060208401356165af81615e8e565b929592945050506040919091013590565b600080600080600060a086880312156165d857600080fd5b85356165e381615e8e565b945060208601356165f381615e8e565b935060408601356001600160401b038082111561660f57600080fd5b61661b89838a01615fca565b9450606088013591508082111561663157600080fd5b61663d89838a01615fca565b9350608088013591508082111561665357600080fd5b5061666088828901616345565b9150509295509295909350565b60006020828403121561667f57600080fd5b81356001600160401b0381111561669557600080fd5b6166a184828501616025565b949350505050565b600080600080600060a086880312156166c157600080fd5b85356166cc81615e8e565b945060208601356166dc81615e8e565b9350604086013592506060860135915060808601356001600160401b0381111561670557600080fd5b61666088828901616345565b634e487b7160e01b600052603260045260246000fd5b602080825260139082015272139bc81059191c995cdcc810dbdb9d1c9858dd606a1b604082015260600190565b60006020828403121561676657600080fd5b81518015158114615cc557600080fd5b6020808252600c908201526b139bdd0815995c9a599a595960a21b604082015260600190565b6020808252600d908201526c496e76616c696420507269636560981b604082015260600190565b6001600160a01b0394851681529290931660208301526040820152606081019190915260a06080820181905260009082015260c00190565b6001600160a01b03998a168152602081019890985260ff969096166040880152939096166060860152608085019190915260a084015260c083019390935260e08201929092526101008101919091526101200190565b60208082526009908201526824b99029b2b63632b960b91b604082015260600190565b634e487b7160e01b600052601160045260246000fd5b60008160001904831182151516156168a4576168a4616874565b500290565b6001600160a01b039b8c168152602081019a909a5260ff9890981660408a01529589166060890152608088019490945260a087019290925260c086015260e08501526101008401526101208301529091166101408201526101600190565b60008282101561691957616919616874565b500390565b6020808252602c908201527f46756e6374696f6e206d7573742062652063616c6c6564207468726f7567682060408201526b19195b1959d85d1958d85b1b60a21b606082015260800190565b6020808252602c908201527f46756e6374696f6e206d7573742062652063616c6c6564207468726f7567682060408201526b6163746976652070726f787960a01b606082015260800190565b60006000198214156169ca576169ca616874565b5060010190565b600082198211156169e4576169e4616874565b500190565b6020808252825482820181905260008481528281209092916040850190845b81811015616a2457835483526001938401939285019201616a08565b50909695505050505050565b600060208284031215616a4257600080fd5b5051919050565b6001600160a01b039a8b168152602081019990995260ff9790971660408901529488166060880152608087019390935260a086019190915260c085015260e08401526101008301529091166101208201526101400190565b604080825283519082018190526000906020906060840190828701845b82811015616ae35781516001600160a01b031684529284019290840190600101616abe565b5050506001600160a01b039490941692019190915250919050565b600082616b1b57634e487b7160e01b600052601260045260246000fd5b500490565b6020808252602b908201527f496e697469616c697a61626c653a20636f6e7472616374206973206e6f74206960408201526a6e697469616c697a696e6760a81b606082015260800190565b634e487b7160e01b600052603160045260246000fd5b60008060408385031215616b9457600080fd5b8251616b9f81615e8e565b6020939093015192949293505050565b60005b83811015616bca578181015183820152602001616bb2565b8381111561121b5750506000910152565b60008251616bed818460208701616baf565b9190910192915050565b6020815260008251806020840152616c16816040850160208701616baf565b601f01601f1916919091016040019291505056fe360894a13ba1a3210667c828492db98dca3e2076cc3735a920a3ca505d382bbc416464726573733a206c6f772d6c6576656c2064656c65676174652063616c6c206661696c6564a2646970667358221220a93a2054ba90f4705ed679af4b4f335ea4017b7987419956fa91a121a359912464736f6c63430008090033",
  "linkReferences": {
    "contracts/libraries/ArrayLibrary.sol": {
      "ArrayLibrary": [
        {
          "length": 20,
          "start": 10268
        },
        {
          "length": 20,
          "start": 13362
        },
        {
          "length": 20,
          "start": 17239
        },
        {
          "length": 20,
          "start": 19003
        },
        {
          "length": 20,
          "start": 20219
        },
        {
          "length": 20,
          "start": 22708
        },
        {
          "length": 20,
          "start": 23204
        },
        {
          "length": 20,
          "start": 23310
        },
        {
          "length": 20,
          "start": 23418
        }
      ]
    }
  },
  "deployedLinkReferences": {
    "contracts/libraries/ArrayLibrary.sol": {
      "ArrayLibrary": [
        {
          "length": 20,
          "start": 10191
        },
        {
          "length": 20,
          "start": 13285
        },
        {
          "length": 20,
          "start": 17162
        },
        {
          "length": 20,
          "start": 18926
        },
        {
          "length": 20,
          "start": 20142
        },
        {
          "length": 20,
          "start": 22631
        },
        {
          "length": 20,
          "start": 23127
        },
        {
          "length": 20,
          "start": 23233
        },
        {
          "length": 20,
          "start": 23341
        }
      ]
    }
  }
}