{
  "_format": "hh-sol-artifact-1",
  "contractName": "RewardManager",
  "sourceName": "contracts/mocks/Spark/Token/RewardManager.sol",
  "abi": [
    {
      "inputs": [
        {
          "internalType": "contract ISparksToken",
          "name": "_sparksToken",
          "type": "address"
        }
      ],
      "stateMutability": "nonpayable",
      "type": "constructor"
    },
    {
      "anonymous": false,
      "inputs": [
        {
          "indexed": true,
          "internalType": "address",
          "name": "account",
          "type": "address"
        }
      ],
      "name": "OperatorAdded",
      "type": "event"
    },
    {
      "anonymous": false,
      "inputs": [
        {
          "indexed": true,
          "internalType": "address",
          "name": "account",
          "type": "address"
        }
      ],
      "name": "OperatorRemoved",
      "type": "event"
    },
    {
      "anonymous": false,
      "inputs": [
        {
          "indexed": true,
          "internalType": "address",
          "name": "previousOwner",
          "type": "address"
        },
        {
          "indexed": true,
          "internalType": "address",
          "name": "newOwner",
          "type": "address"
        }
      ],
      "name": "OwnershipTransferred",
      "type": "event"
    },
    {
      "anonymous": false,
      "inputs": [
        {
          "indexed": true,
          "internalType": "address",
          "name": "account",
          "type": "address"
        }
      ],
      "name": "RewarderAdded",
      "type": "event"
    },
    {
      "anonymous": false,
      "inputs": [
        {
          "indexed": true,
          "internalType": "address",
          "name": "account",
          "type": "address"
        }
      ],
      "name": "RewarderRemoved",
      "type": "event"
    },
    {
      "anonymous": false,
      "inputs": [
        {
          "indexed": false,
          "internalType": "address",
          "name": "operator",
          "type": "address"
        }
      ],
      "name": "SetOperator",
      "type": "event"
    },
    {
      "anonymous": false,
      "inputs": [
        {
          "indexed": false,
          "internalType": "address",
          "name": "rewarder",
          "type": "address"
        }
      ],
      "name": "SetRewarder",
      "type": "event"
    },
    {
      "inputs": [
        {
          "internalType": "address",
          "name": "account",
          "type": "address"
        }
      ],
      "name": "addOperator",
      "outputs": [],
      "stateMutability": "nonpayable",
      "type": "function"
    },
    {
      "inputs": [
        {
          "internalType": "address",
          "name": "_poolAddress",
          "type": "address"
        }
      ],
      "name": "addPool",
      "outputs": [],
      "stateMutability": "nonpayable",
      "type": "function"
    },
    {
      "inputs": [
        {
          "internalType": "address",
          "name": "account",
          "type": "address"
        }
      ],
      "name": "addRewarder",
      "outputs": [],
      "stateMutability": "nonpayable",
      "type": "function"
    },
    {
      "inputs": [
        {
          "internalType": "address",
          "name": "account",
          "type": "address"
        }
      ],
      "name": "isOperator",
      "outputs": [
        {
          "internalType": "bool",
          "name": "",
          "type": "bool"
        }
      ],
      "stateMutability": "view",
      "type": "function"
    },
    {
      "inputs": [
        {
          "internalType": "address",
          "name": "account",
          "type": "address"
        }
      ],
      "name": "isRewarder",
      "outputs": [
        {
          "internalType": "bool",
          "name": "",
          "type": "bool"
        }
      ],
      "stateMutability": "view",
      "type": "function"
    },
    {
      "inputs": [],
      "name": "owner",
      "outputs": [
        {
          "internalType": "address",
          "name": "",
          "type": "address"
        }
      ],
      "stateMutability": "view",
      "type": "function"
    },
    {
      "inputs": [],
      "name": "renounceOperator",
      "outputs": [],
      "stateMutability": "nonpayable",
      "type": "function"
    },
    {
      "inputs": [],
      "name": "renounceOwnership",
      "outputs": [],
      "stateMutability": "nonpayable",
      "type": "function"
    },
    {
      "inputs": [],
      "name": "renounceRewarder",
      "outputs": [],
      "stateMutability": "nonpayable",
      "type": "function"
    },
    {
      "inputs": [
        {
          "internalType": "address",
          "name": "_user",
          "type": "address"
        },
        {
          "internalType": "uint256",
          "name": "_amount",
          "type": "uint256"
        }
      ],
      "name": "rewardUser",
      "outputs": [],
      "stateMutability": "nonpayable",
      "type": "function"
    },
    {
      "inputs": [
        {
          "internalType": "address",
          "name": "_newOperator",
          "type": "address"
        }
      ],
      "name": "setOperator",
      "outputs": [],
      "stateMutability": "nonpayable",
      "type": "function"
    },
    {
      "inputs": [
        {
          "internalType": "address",
          "name": "newOwner",
          "type": "address"
        }
      ],
      "name": "transferOwnership",
      "outputs": [],
      "stateMutability": "nonpayable",
      "type": "function"
    }
  ],
  "bytecode": "0x60806040523480156200001157600080fd5b5060405162000d1538038062000d158339810160408190526200003491620002d8565b6200003f336200009b565b6200004a33620000eb565b6200005a576200005a336200010e565b620000653362000160565b620000755762000075336200017d565b600380546001600160a01b0319166001600160a01b03929092169190911790556200030a565b600080546001600160a01b038381166001600160a01b0319831681178455604051919092169283917f8be0079c531659141344cd1fd0a4f28419497f9722a3daafe3b4186f6b6457e09190a35050565b600062000108826001620001cf60201b620005601790919060201c565b92915050565b620001298160016200025860201b620005e31790919060201c565b6040516001600160a01b038216907fac6fa858e9350a46cec16539926e0fde25b7629f84b5a72bffaae4df888ae86d90600090a250565b600062000108826002620001cf60201b620005601790919060201c565b620001988160026200025860201b620005e31790919060201c565b6040516001600160a01b038216907f9dfd431959d2d3358e3eb909555ad574123ea5881ff0e05a80f66d4984710c1b90600090a250565b60006001600160a01b038216620002385760405162461bcd60e51b815260206004820152602260248201527f526f6c65733a206163636f756e7420697320746865207a65726f206164647265604482015261737360f01b60648201526084015b60405180910390fd5b506001600160a01b03166000908152602091909152604090205460ff1690565b620002648282620001cf565b15620002b35760405162461bcd60e51b815260206004820152601f60248201527f526f6c65733a206163636f756e7420616c72656164792068617320726f6c650060448201526064016200022f565b6001600160a01b0316600090815260209190915260409020805460ff19166001179055565b600060208284031215620002eb57600080fd5b81516001600160a01b03811681146200030357600080fd5b9392505050565b6109fb806200031a6000396000f3fe608060405234801561001057600080fd5b50600436106100b45760003560e01c80638e478cab116100715780638e478cab146101295780639870d7fe1461013c578063b3ab15fb1461014f578063d914cd4b14610162578063e4e103dc14610175578063f2fde38b1461018857600080fd5b80632ab6f8db146100b957806340cc8518146100c357806356d3590b146100cb5780636d70f7ae146100de578063715018a6146101065780638da5cb5b1461010e575b600080fd5b6100c161019b565b005b6100c16101a6565b6100c16100d93660046108af565b6101af565b6100f16100ec3660046108af565b6101e9565b60405190151581526020015b60405180910390f35b6100c16101fc565b6000546040516001600160a01b0390911681526020016100fd565b6100f16101373660046108af565b61020e565b6100c161014a3660046108af565b61021b565b6100c161015d3660046108af565b610249565b6100c16101703660046108af565b61030b565b6100c16101833660046108d1565b6103d2565b6100c16101963660046108af565b6104ea565b6101a43361065f565b565b6101a4336106a1565b6101b83361020e565b6101dd5760405162461bcd60e51b81526004016101d4906108fb565b60405180910390fd5b6101e6816106e3565b50565b60006101f6600183610560565b92915050565b610204610725565b6101a4600061077f565b60006101f6600283610560565b610224336101e9565b6102405760405162461bcd60e51b81526004016101d49061094f565b6101e6816107cf565b610251610725565b6001600160a01b0381166102b95760405162461bcd60e51b815260206004820152602960248201527f30323030204e6577204f70657261746f7220616464726573732063616e6e6f74604482015268103132903d32b9379760b91b60648201526084016101d4565b6102c28161021b565b6102cb816101af565b6040516001600160a01b03821681527fdbebfba65bd6398fb722063efc10c99f624f9cd8ba657201056af918a676d5ee906020015b60405180910390a150565b610314336101e9565b6103305760405162461bcd60e51b81526004016101d49061094f565b6001600160a01b0381166103905760405162461bcd60e51b815260206004820152602160248201527f3032313020506f6f6c20616464726573732063616e6e6f74206265207a65726f6044820152601760f91b60648201526084016101d4565b610399816101af565b6040516001600160a01b03821681527fcf0aff36caea97f7ad632b334936cb196014c193ac1a790b578f12a70d9836db90602001610300565b6103db3361020e565b6103f75760405162461bcd60e51b81526004016101d4906108fb565b6001600160a01b0382166104575760405162461bcd60e51b815260206004820152602160248201527f30323330205573657220616464726573732063616e6e6f74206265207a65726f6044820152601760f91b60648201526084016101d4565b60035460405163a9059cbb60e01b81526001600160a01b038481166004830152602482018490529091169063a9059cbb90604401602060405180830381600087803b1580156104a557600080fd5b505af11580156104b9573d6000803e3d6000fd5b505050506040513d601f19601f820116820180604052508101906104dd91906109a3565b6104e657600080fd5b5050565b6104f2610725565b6001600160a01b0381166105575760405162461bcd60e51b815260206004820152602660248201527f4f776e61626c653a206e6577206f776e657220697320746865207a65726f206160448201526564647265737360d01b60648201526084016101d4565b6101e68161077f565b60006001600160a01b0382166105c35760405162461bcd60e51b815260206004820152602260248201527f526f6c65733a206163636f756e7420697320746865207a65726f206164647265604482015261737360f01b60648201526084016101d4565b506001600160a01b03166000908152602091909152604090205460ff1690565b6105ed8282610560565b1561063a5760405162461bcd60e51b815260206004820152601f60248201527f526f6c65733a206163636f756e7420616c72656164792068617320726f6c650060448201526064016101d4565b6001600160a01b0316600090815260209190915260409020805460ff19166001179055565b61066a600182610811565b6040516001600160a01b038216907f80c0b871b97b595b16a7741c1b06fed0c6f6f558639f18ccbce50724325dc40d90600090a250565b6106ac600282610811565b6040516001600160a01b038216907fce699c579f0b70ea4ccd6a4b38be26726a2c248b89c7102ccbc5d0f3060ef6d090600090a250565b6106ee6002826105e3565b6040516001600160a01b038216907f9dfd431959d2d3358e3eb909555ad574123ea5881ff0e05a80f66d4984710c1b90600090a250565b6000546001600160a01b031633146101a45760405162461bcd60e51b815260206004820181905260248201527f4f776e61626c653a2063616c6c6572206973206e6f7420746865206f776e657260448201526064016101d4565b600080546001600160a01b038381166001600160a01b0319831681178455604051919092169283917f8be0079c531659141344cd1fd0a4f28419497f9722a3daafe3b4186f6b6457e09190a35050565b6107da6001826105e3565b6040516001600160a01b038216907fac6fa858e9350a46cec16539926e0fde25b7629f84b5a72bffaae4df888ae86d90600090a250565b61081b8282610560565b6108715760405162461bcd60e51b815260206004820152602160248201527f526f6c65733a206163636f756e7420646f6573206e6f74206861766520726f6c6044820152606560f81b60648201526084016101d4565b6001600160a01b0316600090815260209190915260409020805460ff19169055565b80356001600160a01b03811681146108aa57600080fd5b919050565b6000602082840312156108c157600080fd5b6108ca82610893565b9392505050565b600080604083850312156108e457600080fd5b6108ed83610893565b946020939093013593505050565b60208082526034908201527f5265776172646572526f6c653a2063616c6c657220646f6573206e6f7420686160408201527376652074686520526577617264657220726f6c6560601b606082015260800190565b60208082526034908201527f4f70657261746f72526f6c653a2063616c6c657220646f6573206e6f74206861604082015273766520746865204f70657261746f7220726f6c6560601b606082015260800190565b6000602082840312156109b557600080fd5b815180151581146108ca57600080fdfea26469706673582212209d92e05d8bb14bd1cd22cec844e6e1d3cb8b6885534b6fa087e80ff23fe5cfa364736f6c63430008090033",
  "linkReferences": {},
  "deployedLinkReferences": {}
}