{
  "_format": "hh-sol-artifact-1",
  "contractName": "ClaimRewardLib",
  "sourceName": "contracts/mocks/Spark/libraries/ClaimRewardLib.sol",
  "abi": [
    {
      "inputs": [],
      "name": "oracleDecimal",
      "outputs": [
        {
          "internalType": "uint256",
          "name": "",
          "type": "uint256"
        }
      ],
      "stateMutability": "view",
      "type": "function"
    }
  ],
  "bytecode": "0x61074961003a600b82828239805160001a60731461002d57634e487b7160e01b600052600060045260246000fd5b30600052607381538281f3fe73000000000000000000000000000000000000000030146080604052600436106100875760003560e01c80639c75cbfd116100655780639c75cbfd146100f3578063a150194b14610106578063f34e38ee1461010e578063fb47baf41461012e57600080fd5b806335afdf901461008c5780636a847fd3146100ae57806383179901146100d3575b600080fd5b81801561009857600080fd5b506100ac6100a7366004610502565b61014e565b005b6100c16100bc366004610524565b610176565b60405190815260200160405180910390f35b8180156100df57600080fd5b506100ac6100ee366004610550565b6101d5565b6100c1610101366004610502565b6101f0565b6100c1600881565b81801561011a57600080fd5b506100ac610129366004610550565b610217565b81801561013a57600080fd5b506100ac610149366004610550565b610230565b8054610158575050565b426003820155600281015461016d9083610251565b60029091015550565b600682015460009060ff1661018d575060006101ce565b835461019b575060006101ce565b600784015460009060ff166101cb5760006101bb8660060154868661025d565b90506101c78282610251565b9150505b90505b9392505050565b80546101de5750565b600701805461ff001916610100179055565b815460009061020157506000610211565b600061020d84846102f3565b9150505b92915050565b80546102205750565b600701805460ff19166001179055565b8054610100900460ff16156102425750565b805461ff001916610100179055565b60006101ce828461057f565b6000805b82548110156102e85782818154811061027c5761027c610597565b90600052602060002090600202016000015485116102d6576102ce8382815481106102a9576102a9610597565b906000526020600020906002020160010154856004015461039390919063ffffffff16565b9150506101ce565b806102e0816105ad565b915050610261565b506000949350505050565b6007820154600090610100900460ff161561031057506000610211565b600282015460018301548354600092916103299161057f565b610333919061057f565b905060008142116103445742610346565b815b9050600061037085600501546103698860010154856103ab90919063ffffffff16565b88546103b7565b90506103898660020154826103ab90919063ffffffff16565b9695505050505050565b60006101ce6127106103a585856104ea565b906104f6565b60006101ce82846105c8565b60006301e13380816103d86305f5e1006103d26002856106c3565b906104ea565b905060006103ee6113886103d285818a8c6104ea565b9050600061040d6113886103d26104066002886106c3565b8b906104ea565b9050600061042f60066103a561042460028d6106c3565b6103d260028d6106c3565b9050600061045360026103a5886103d260028f61044c91906106c3565b8e906104ea565b9050600061047760036103a561046a60028b6106c3565b60028f6103d291906106c3565b905060006104918261048b86818b8b610251565b90610251565b90506104a7836104a183886103ab565b906103ab565b90506104b78b6103d2838f6104ea565b90506104da64e8d4a510006103a56104d060038c6106c3565b6103a5858f6104ea565b9c9b505050505050505050505050565b60006101ce82846106d2565b60006101ce82846106f1565b6000806040838503121561051557600080fd5b50508035926020909101359150565b60008060006060848603121561053957600080fd5b505081359360208301359350604090920135919050565b60006020828403121561056257600080fd5b5035919050565b634e487b7160e01b600052601160045260246000fd5b6000821982111561059257610592610569565b500190565b634e487b7160e01b600052603260045260246000fd5b60006000198214156105c1576105c1610569565b5060010190565b6000828210156105da576105da610569565b500390565b600181815b8085111561061a57816000190482111561060057610600610569565b8085161561060d57918102915b93841c93908002906105e4565b509250929050565b60008261063157506001610211565b8161063e57506000610211565b8160018114610654576002811461065e5761067a565b6001915050610211565b60ff84111561066f5761066f610569565b50506001821b610211565b5060208310610133831016604e8410600b841016171561069d575081810a610211565b6106a783836105df565b80600019048211156106bb576106bb610569565b029392505050565b60006101ce60ff841683610622565b60008160001904831182151516156106ec576106ec610569565b500290565b60008261070e57634e487b7160e01b600052601260045260246000fd5b50049056fea2646970667358221220f102bac95aecf261e80860abc83f993e8640053ed407eea57e0ff8b876a5a88664736f6c63430008090033",
  "linkReferences": {},
  "deployedLinkReferences": {}
}