{
  "_format": "hh-sol-artifact-1",
  "contractName": "TestERC1155",
  "sourceName": "contracts/mocks/Spark/Test/TestERC1155.sol",
  "abi": [
    {
      "inputs": [
        {
          "internalType": "string",
          "name": "BASE_URI",
          "type": "string"
        }
      ],
      "stateMutability": "nonpayable",
      "type": "constructor"
    },
    {
      "anonymous": false,
      "inputs": [
        {
          "indexed": true,
          "internalType": "address",
          "name": "account",
          "type": "address"
        },
        {
          "indexed": true,
          "internalType": "address",
          "name": "operator",
          "type": "address"
        },
        {
          "indexed": false,
          "internalType": "bool",
          "name": "approved",
          "type": "bool"
        }
      ],
      "name": "ApprovalForAll",
      "type": "event"
    },
    {
      "anonymous": false,
      "inputs": [
        {
          "indexed": true,
          "internalType": "address",
          "name": "previousOwner",
          "type": "address"
        },
        {
          "indexed": true,
          "internalType": "address",
          "name": "newOwner",
          "type": "address"
        }
      ],
      "name": "OwnershipTransferred",
      "type": "event"
    },
    {
      "anonymous": false,
      "inputs": [
        {
          "indexed": true,
          "internalType": "address",
          "name": "operator",
          "type": "address"
        },
        {
          "indexed": true,
          "internalType": "address",
          "name": "from",
          "type": "address"
        },
        {
          "indexed": true,
          "internalType": "address",
          "name": "to",
          "type": "address"
        },
        {
          "indexed": false,
          "internalType": "uint256[]",
          "name": "ids",
          "type": "uint256[]"
        },
        {
          "indexed": false,
          "internalType": "uint256[]",
          "name": "values",
          "type": "uint256[]"
        }
      ],
      "name": "TransferBatch",
      "type": "event"
    },
    {
      "anonymous": false,
      "inputs": [
        {
          "indexed": true,
          "internalType": "address",
          "name": "operator",
          "type": "address"
        },
        {
          "indexed": true,
          "internalType": "address",
          "name": "from",
          "type": "address"
        },
        {
          "indexed": true,
          "internalType": "address",
          "name": "to",
          "type": "address"
        },
        {
          "indexed": false,
          "internalType": "uint256",
          "name": "id",
          "type": "uint256"
        },
        {
          "indexed": false,
          "internalType": "uint256",
          "name": "value",
          "type": "uint256"
        }
      ],
      "name": "TransferSingle",
      "type": "event"
    },
    {
      "anonymous": false,
      "inputs": [
        {
          "indexed": false,
          "internalType": "string",
          "name": "value",
          "type": "string"
        },
        {
          "indexed": true,
          "internalType": "uint256",
          "name": "id",
          "type": "uint256"
        }
      ],
      "name": "URI",
      "type": "event"
    },
    {
      "inputs": [
        {
          "internalType": "address",
          "name": "account",
          "type": "address"
        },
        {
          "internalType": "uint256",
          "name": "id",
          "type": "uint256"
        }
      ],
      "name": "balanceOf",
      "outputs": [
        {
          "internalType": "uint256",
          "name": "",
          "type": "uint256"
        }
      ],
      "stateMutability": "view",
      "type": "function"
    },
    {
      "inputs": [
        {
          "internalType": "address[]",
          "name": "accounts",
          "type": "address[]"
        },
        {
          "internalType": "uint256[]",
          "name": "ids",
          "type": "uint256[]"
        }
      ],
      "name": "balanceOfBatch",
      "outputs": [
        {
          "internalType": "uint256[]",
          "name": "",
          "type": "uint256[]"
        }
      ],
      "stateMutability": "view",
      "type": "function"
    },
    {
      "inputs": [
        {
          "internalType": "address",
          "name": "account",
          "type": "address"
        },
        {
          "internalType": "address",
          "name": "operator",
          "type": "address"
        }
      ],
      "name": "isApprovedForAll",
      "outputs": [
        {
          "internalType": "bool",
          "name": "",
          "type": "bool"
        }
      ],
      "stateMutability": "view",
      "type": "function"
    },
    {
      "inputs": [
        {
          "internalType": "address",
          "name": "_to",
          "type": "address"
        },
        {
          "internalType": "uint256",
          "name": "_tokenId",
          "type": "uint256"
        }
      ],
      "name": "mint",
      "outputs": [],
      "stateMutability": "nonpayable",
      "type": "function"
    },
    {
      "inputs": [],
      "name": "owner",
      "outputs": [
        {
          "internalType": "address",
          "name": "",
          "type": "address"
        }
      ],
      "stateMutability": "view",
      "type": "function"
    },
    {
      "inputs": [],
      "name": "renounceOwnership",
      "outputs": [],
      "stateMutability": "nonpayable",
      "type": "function"
    },
    {
      "inputs": [
        {
          "internalType": "address",
          "name": "from",
          "type": "address"
        },
        {
          "internalType": "address",
          "name": "to",
          "type": "address"
        },
        {
          "internalType": "uint256[]",
          "name": "ids",
          "type": "uint256[]"
        },
        {
          "internalType": "uint256[]",
          "name": "amounts",
          "type": "uint256[]"
        },
        {
          "internalType": "bytes",
          "name": "data",
          "type": "bytes"
        }
      ],
      "name": "safeBatchTransferFrom",
      "outputs": [],
      "stateMutability": "nonpayable",
      "type": "function"
    },
    {
      "inputs": [
        {
          "internalType": "address",
          "name": "from",
          "type": "address"
        },
        {
          "internalType": "address",
          "name": "to",
          "type": "address"
        },
        {
          "internalType": "uint256",
          "name": "id",
          "type": "uint256"
        },
        {
          "internalType": "uint256",
          "name": "amount",
          "type": "uint256"
        },
        {
          "internalType": "bytes",
          "name": "data",
          "type": "bytes"
        }
      ],
      "name": "safeTransferFrom",
      "outputs": [],
      "stateMutability": "nonpayable",
      "type": "function"
    },
    {
      "inputs": [
        {
          "internalType": "address",
          "name": "operator",
          "type": "address"
        },
        {
          "internalType": "bool",
          "name": "approved",
          "type": "bool"
        }
      ],
      "name": "setApprovalForAll",
      "outputs": [],
      "stateMutability": "nonpayable",
      "type": "function"
    },
    {
      "inputs": [
        {
          "internalType": "bytes4",
          "name": "interfaceId",
          "type": "bytes4"
        }
      ],
      "name": "supportsInterface",
      "outputs": [
        {
          "internalType": "bool",
          "name": "",
          "type": "bool"
        }
      ],
      "stateMutability": "view",
      "type": "function"
    },
    {
      "inputs": [
        {
          "internalType": "address",
          "name": "newOwner",
          "type": "address"
        }
      ],
      "name": "transferOwnership",
      "outputs": [],
      "stateMutability": "nonpayable",
      "type": "function"
    },
    {
      "inputs": [
        {
          "internalType": "uint256",
          "name": "",
          "type": "uint256"
        }
      ],
      "name": "uri",
      "outputs": [
        {
          "internalType": "string",
          "name": "",
          "type": "string"
        }
      ],
      "stateMutability": "view",
      "type": "function"
    }
  ],
  "bytecode": "0x60806040523480156200001157600080fd5b506040516200193b3803806200193b83398101604081905262000034916200017a565b80620000408162000053565b506200004c336200006c565b5062000293565b805162000068906002906020840190620000be565b5050565b600380546001600160a01b038381166001600160a01b0319831681179093556040519116919082907f8be0079c531659141344cd1fd0a4f28419497f9722a3daafe3b4186f6b6457e090600090a35050565b828054620000cc9062000256565b90600052602060002090601f016020900481019282620000f057600085556200013b565b82601f106200010b57805160ff19168380011785556200013b565b828001600101855582156200013b579182015b828111156200013b5782518255916020019190600101906200011e565b50620001499291506200014d565b5090565b5b808211156200014957600081556001016200014e565b634e487b7160e01b600052604160045260246000fd5b600060208083850312156200018e57600080fd5b82516001600160401b0380821115620001a657600080fd5b818501915085601f830112620001bb57600080fd5b815181811115620001d057620001d062000164565b604051601f8201601f19908116603f01168101908382118183101715620001fb57620001fb62000164565b8160405282815288868487010111156200021457600080fd5b600093505b8284101562000238578484018601518185018701529285019262000219565b828411156200024a5760008684830101525b98975050505050505050565b600181811c908216806200026b57607f821691505b602082108114156200028d57634e487b7160e01b600052602260045260246000fd5b50919050565b61169880620002a36000396000f3fe608060405234801561001057600080fd5b50600436106100b35760003560e01c8063715018a611610071578063715018a6146101695780638da5cb5b14610171578063a22cb4651461018c578063e985e9c51461019f578063f242432a146101db578063f2fde38b146101ee57600080fd5b8062fdd58e146100b857806301ffc9a7146100de5780630e89341c146101015780632eb2c2d61461012157806340c10f19146101365780634e1273f414610149575b600080fd5b6100cb6100c6366004610e34565b610201565b6040519081526020015b60405180910390f35b6100f16100ec366004610e74565b610297565b60405190151581526020016100d5565b61011461010f366004610e98565b6102e9565b6040516100d59190610efe565b61013461012f36600461105d565b61037d565b005b610134610144366004610e34565b6103c9565b61015c610157366004611107565b6103e9565b6040516100d5919061120d565b610134610513565b6003546040516001600160a01b0390911681526020016100d5565b61013461019a366004611220565b610527565b6100f16101ad36600461125c565b6001600160a01b03918216600090815260016020908152604080832093909416825291909152205460ff1690565b6101346101e936600461128f565b610532565b6101346101fc3660046112f4565b610577565b60006001600160a01b0383166102715760405162461bcd60e51b815260206004820152602a60248201527f455243313135353a2061646472657373207a65726f206973206e6f742061207660448201526930b634b21037bbb732b960b11b60648201526084015b60405180910390fd5b506000908152602081815260408083206001600160a01b03949094168352929052205490565b60006001600160e01b03198216636cdb3d1360e11b14806102c857506001600160e01b031982166303a24d0760e21b145b806102e357506301ffc9a760e01b6001600160e01b03198316145b92915050565b6060600280546102f89061130f565b80601f01602080910402602001604051908101604052809291908181526020018280546103249061130f565b80156103715780601f1061034657610100808354040283529160200191610371565b820191906000526020600020905b81548152906001019060200180831161035457829003601f168201915b50505050509050919050565b6001600160a01b038516331480610399575061039985336101ad565b6103b55760405162461bcd60e51b81526004016102689061134a565b6103c285858585856105f0565b5050505050565b6103e582826001604051806020016040528060008152506107cd565b5050565b6060815183511461044e5760405162461bcd60e51b815260206004820152602960248201527f455243313135353a206163636f756e747320616e6420696473206c656e677468604482015268040dad2e6dac2e8c6d60bb1b6064820152608401610268565b6000835167ffffffffffffffff81111561046a5761046a610f11565b604051908082528060200260200182016040528015610493578160200160208202803683370190505b50905060005b845181101561050b576104de8582815181106104b7576104b7611398565b60200260200101518583815181106104d1576104d1611398565b6020026020010151610201565b8282815181106104f0576104f0611398565b6020908102919091010152610504816113c4565b9050610499565b509392505050565b61051b6108e1565b610525600061093b565b565b6103e533838361098d565b6001600160a01b03851633148061054e575061054e85336101ad565b61056a5760405162461bcd60e51b81526004016102689061134a565b6103c28585858585610a6e565b61057f6108e1565b6001600160a01b0381166105e45760405162461bcd60e51b815260206004820152602660248201527f4f776e61626c653a206e6577206f776e657220697320746865207a65726f206160448201526564647265737360d01b6064820152608401610268565b6105ed8161093b565b50565b81518351146106525760405162461bcd60e51b815260206004820152602860248201527f455243313135353a2069647320616e6420616d6f756e7473206c656e677468206044820152670dad2e6dac2e8c6d60c31b6064820152608401610268565b6001600160a01b0384166106785760405162461bcd60e51b8152600401610268906113df565b3360005b845181101561075f57600085828151811061069957610699611398565b6020026020010151905060008583815181106106b7576106b7611398565b602090810291909101810151600084815280835260408082206001600160a01b038e1683529093529190912054909150818110156107075760405162461bcd60e51b815260040161026890611424565b6000838152602081815260408083206001600160a01b038e8116855292528083208585039055908b1682528120805484929061074490849061146e565b9250508190555050505080610758906113c4565b905061067c565b50846001600160a01b0316866001600160a01b0316826001600160a01b03167f4a39dc06d4c0dbc64b70af90fd698a233a518aa5d07e595d983b8c0526c8f7fb87876040516107af929190611486565b60405180910390a46107c5818787878787610b98565b505050505050565b6001600160a01b03841661082d5760405162461bcd60e51b815260206004820152602160248201527f455243313135353a206d696e7420746f20746865207a65726f206164647265736044820152607360f81b6064820152608401610268565b33600061083985610d03565b9050600061084685610d03565b90506000868152602081815260408083206001600160a01b038b1684529091528120805487929061087890849061146e565b909155505060408051878152602081018790526001600160a01b03808a1692600092918716917fc3d58168c5ae7397731d063d5bbf3d657854427343f4c083240f7aacaa2d0f62910160405180910390a46108d883600089898989610d4e565b50505050505050565b6003546001600160a01b031633146105255760405162461bcd60e51b815260206004820181905260248201527f4f776e61626c653a2063616c6c6572206973206e6f7420746865206f776e65726044820152606401610268565b600380546001600160a01b038381166001600160a01b0319831681179093556040519116919082907f8be0079c531659141344cd1fd0a4f28419497f9722a3daafe3b4186f6b6457e090600090a35050565b816001600160a01b0316836001600160a01b03161415610a015760405162461bcd60e51b815260206004820152602960248201527f455243313135353a2073657474696e6720617070726f76616c20737461747573604482015268103337b91039b2b63360b91b6064820152608401610268565b6001600160a01b03838116600081815260016020908152604080832094871680845294825291829020805460ff191686151590811790915591519182527f17307eab39ab6107e8899845ad3d59bd9653f200f220920489ca2b5937696c31910160405180910390a3505050565b6001600160a01b038416610a945760405162461bcd60e51b8152600401610268906113df565b336000610aa085610d03565b90506000610aad85610d03565b90506000868152602081815260408083206001600160a01b038c16845290915290205485811015610af05760405162461bcd60e51b815260040161026890611424565b6000878152602081815260408083206001600160a01b038d8116855292528083208985039055908a16825281208054889290610b2d90849061146e565b909155505060408051888152602081018890526001600160a01b03808b16928c821692918816917fc3d58168c5ae7397731d063d5bbf3d657854427343f4c083240f7aacaa2d0f62910160405180910390a4610b8d848a8a8a8a8a610d4e565b505050505050505050565b6001600160a01b0384163b156107c55760405163bc197c8160e01b81526001600160a01b0385169063bc197c8190610bdc90899089908890889088906004016114b4565b602060405180830381600087803b158015610bf657600080fd5b505af1925050508015610c26575060408051601f3d908101601f19168201909252610c2391810190611512565b60015b610cd357610c3261152f565b806308c379a01415610c6c5750610c4761154b565b80610c525750610c6e565b8060405162461bcd60e51b81526004016102689190610efe565b505b60405162461bcd60e51b815260206004820152603460248201527f455243313135353a207472616e7366657220746f206e6f6e2d455243313135356044820152732932b1b2b4bb32b91034b6b83632b6b2b73a32b960611b6064820152608401610268565b6001600160e01b0319811663bc197c8160e01b146108d85760405162461bcd60e51b8152600401610268906115d5565b60408051600180825281830190925260609160009190602080830190803683370190505090508281600081518110610d3d57610d3d611398565b602090810291909101015292915050565b6001600160a01b0384163b156107c55760405163f23a6e6160e01b81526001600160a01b0385169063f23a6e6190610d92908990899088908890889060040161161d565b602060405180830381600087803b158015610dac57600080fd5b505af1925050508015610ddc575060408051601f3d908101601f19168201909252610dd991810190611512565b60015b610de857610c3261152f565b6001600160e01b0319811663f23a6e6160e01b146108d85760405162461bcd60e51b8152600401610268906115d5565b80356001600160a01b0381168114610e2f57600080fd5b919050565b60008060408385031215610e4757600080fd5b610e5083610e18565b946020939093013593505050565b6001600160e01b0319811681146105ed57600080fd5b600060208284031215610e8657600080fd5b8135610e9181610e5e565b9392505050565b600060208284031215610eaa57600080fd5b5035919050565b6000815180845260005b81811015610ed757602081850181015186830182015201610ebb565b81811115610ee9576000602083870101525b50601f01601f19169290920160200192915050565b602081526000610e916020830184610eb1565b634e487b7160e01b600052604160045260246000fd5b601f8201601f1916810167ffffffffffffffff81118282101715610f4d57610f4d610f11565b6040525050565b600067ffffffffffffffff821115610f6e57610f6e610f11565b5060051b60200190565b600082601f830112610f8957600080fd5b81356020610f9682610f54565b604051610fa38282610f27565b83815260059390931b8501820192828101915086841115610fc357600080fd5b8286015b84811015610fde5780358352918301918301610fc7565b509695505050505050565b600082601f830112610ffa57600080fd5b813567ffffffffffffffff81111561101457611014610f11565b60405161102b601f8301601f191660200182610f27565b81815284602083860101111561104057600080fd5b816020850160208301376000918101602001919091529392505050565b600080600080600060a0868803121561107557600080fd5b61107e86610e18565b945061108c60208701610e18565b9350604086013567ffffffffffffffff808211156110a957600080fd5b6110b589838a01610f78565b945060608801359150808211156110cb57600080fd5b6110d789838a01610f78565b935060808801359150808211156110ed57600080fd5b506110fa88828901610fe9565b9150509295509295909350565b6000806040838503121561111a57600080fd5b823567ffffffffffffffff8082111561113257600080fd5b818501915085601f83011261114657600080fd5b8135602061115382610f54565b6040516111608282610f27565b83815260059390931b850182019282810191508984111561118057600080fd5b948201945b838610156111a55761119686610e18565b82529482019490820190611185565b965050860135925050808211156111bb57600080fd5b506111c885828601610f78565b9150509250929050565b600081518084526020808501945080840160005b83811015611202578151875295820195908201906001016111e6565b509495945050505050565b602081526000610e9160208301846111d2565b6000806040838503121561123357600080fd5b61123c83610e18565b91506020830135801515811461125157600080fd5b809150509250929050565b6000806040838503121561126f57600080fd5b61127883610e18565b915061128660208401610e18565b90509250929050565b600080600080600060a086880312156112a757600080fd5b6112b086610e18565b94506112be60208701610e18565b93506040860135925060608601359150608086013567ffffffffffffffff8111156112e857600080fd5b6110fa88828901610fe9565b60006020828403121561130657600080fd5b610e9182610e18565b600181811c9082168061132357607f821691505b6020821081141561134457634e487b7160e01b600052602260045260246000fd5b50919050565b6020808252602e908201527f455243313135353a2063616c6c6572206973206e6f7420746f6b656e206f776e60408201526d195c881bdc88185c1c1c9bdd995960921b606082015260800190565b634e487b7160e01b600052603260045260246000fd5b634e487b7160e01b600052601160045260246000fd5b60006000198214156113d8576113d86113ae565b5060010190565b60208082526025908201527f455243313135353a207472616e7366657220746f20746865207a65726f206164604082015264647265737360d81b606082015260800190565b6020808252602a908201527f455243313135353a20696e73756666696369656e742062616c616e636520666f60408201526939103a3930b739b332b960b11b606082015260800190565b60008219821115611481576114816113ae565b500190565b60408152600061149960408301856111d2565b82810360208401526114ab81856111d2565b95945050505050565b6001600160a01b0386811682528516602082015260a0604082018190526000906114e0908301866111d2565b82810360608401526114f281866111d2565b905082810360808401526115068185610eb1565b98975050505050505050565b60006020828403121561152457600080fd5b8151610e9181610e5e565b600060033d11156115485760046000803e5060005160e01c5b90565b600060443d10156115595790565b6040516003193d81016004833e81513d67ffffffffffffffff816024840111818411171561158957505050505090565b82850191508151818111156115a15750505050505090565b843d87010160208285010111156115bb5750505050505090565b6115ca60208286010187610f27565b509095945050505050565b60208082526028908201527f455243313135353a204552433131353552656365697665722072656a656374656040820152676420746f6b656e7360c01b606082015260800190565b6001600160a01b03868116825285166020820152604081018490526060810183905260a06080820181905260009061165790830184610eb1565b97965050505050505056fea2646970667358221220a3ffdf30028757f0129fed18b2f4795422ed022c47006431f2126795dfe5085a64736f6c63430008090033",
  "linkReferences": {},
  "deployedLinkReferences": {}
}