{
  "_format": "hh-sol-artifact-1",
  "contractName": "ArrayLibrary",
  "sourceName": "contracts/libraries/ArrayLibrary.sol",
  "abi": [
    {
      "inputs": [
        {
          "internalType": "uint256[]",
          "name": "self",
          "type": "uint256[]"
        },
        {
          "internalType": "uint256",
          "name": "value",
          "type": "uint256"
        }
      ],
      "name": "findIndex",
      "outputs": [
        {
          "internalType": "uint256",
          "name": "i",
          "type": "uint256"
        }
      ],
      "stateMutability": "pure",
      "type": "function"
    },
    {
      "inputs": [
        {
          "internalType": "address[]",
          "name": "self",
          "type": "address[]"
        },
        {
          "internalType": "address",
          "name": "value",
          "type": "address"
        }
      ],
      "name": "findIndex",
      "outputs": [
        {
          "internalType": "uint256",
          "name": "i",
          "type": "uint256"
        }
      ],
      "stateMutability": "pure",
      "type": "function"
    },
    {
      "inputs": [
        {
          "internalType": "uint256[]",
          "name": "self",
          "type": "uint256[]"
        }
      ],
      "name": "findMaxIndex",
      "outputs": [
        {
          "internalType": "uint256",
          "name": "maxIdx",
          "type": "uint256"
        }
      ],
      "stateMutability": "pure",
      "type": "function"
    }
  ],
  "bytecode": "0x6107b861003a600b82828239805160001a60731461002d57634e487b7160e01b600052600060045260246000fd5b30600052607381538281f3fe73000000000000000000000000000000000000000030146080604052600436106100875760003560e01c80636e44fbfb116100655780636e44fbfb146100e65780637b150e3d146100f9578063edefe12d14610119578063f1d929841461013957600080fd5b80633d99de851461008c5780635a922caa146100b1578063677ca2d8146100c4575b600080fd5b61009f61009a366004610578565b610159565b60405190815260200160405180910390f35b61009f6100bf3660046105bd565b6101a3565b8180156100d057600080fd5b506100e46100df3660046105fa565b610247565b005b61009f6100f4366004610638565b6102b3565b81801561010557600080fd5b506100e46101143660046105fa565b610308565b81801561012557600080fd5b506100e46101343660046106e2565b6103bc565b81801561014557600080fd5b506100e46101543660046105fa565b61042d565b81516000905b808210801561018757508284838151811061017c5761017c61070e565b602002602001015114155b1561019c576101958261073a565b915061015f565b5092915050565b8051600090806101e75760405162461bcd60e51b815260206004820152600b60248201526a456d70747920417272617960a81b604482015260640160405180910390fd5b60015b81811015610240578383815181106102045761020461070e565b602002602001015184828151811061021e5761021e61070e565b60200260200101511115610230578092505b6102398161073a565b90506101ea565b5050919050565b60006102a28380548060200260200160405190810160405280929190818152602001828054801561029757602002820191906000526020600020905b815481526020019060010190808311610283575b505050505083610159565b90506102ae838261042d565b505050565b81516000905b80821080156102f35750826001600160a01b03168483815181106102df576102df61070e565b60200260200101516001600160a01b031614155b1561019c576103018261073a565b91506102b9565b8154829061031890600190610755565b815481106103285761032861070e565b9060005260206000200160009054906101000a90046001600160a01b03168282815481106103585761035861070e565b9060005260206000200160006101000a8154816001600160a01b0302191690836001600160a01b03160217905550818054806103965761039661076c565b600082815260209020810160001990810180546001600160a01b03191690550190555050565b60006104218380548060200260200160405190810160405280929190818152602001828054801561041657602002820191906000526020600020905b81546001600160a01b031681526001909101906020018083116103f8575b5050505050836102b3565b90506102ae8382610308565b8154829061043d90600190610755565b8154811061044d5761044d61070e565b906000526020600020015482828154811061046a5761046a61070e565b9060005260206000200181905550818054806104885761048861076c565b600190038181906000526020600020016000905590555050565b634e487b7160e01b600052604160045260246000fd5b604051601f8201601f1916810167ffffffffffffffff811182821017156104e1576104e16104a2565b604052919050565b600067ffffffffffffffff821115610503576105036104a2565b5060051b60200190565b600082601f83011261051e57600080fd5b8135602061053361052e836104e9565b6104b8565b82815260059290921b8401810191818101908684111561055257600080fd5b8286015b8481101561056d5780358352918301918301610556565b509695505050505050565b6000806040838503121561058b57600080fd5b823567ffffffffffffffff8111156105a257600080fd5b6105ae8582860161050d565b95602094909401359450505050565b6000602082840312156105cf57600080fd5b813567ffffffffffffffff8111156105e657600080fd5b6105f28482850161050d565b949350505050565b6000806040838503121561060d57600080fd5b50508035926020909101359150565b80356001600160a01b038116811461063357600080fd5b919050565b6000806040838503121561064b57600080fd5b823567ffffffffffffffff81111561066257600080fd5b8301601f8101851361067357600080fd5b8035602061068361052e836104e9565b82815260059290921b830181019181810190888411156106a257600080fd5b938201935b838510156106c7576106b88561061c565b825293820193908201906106a7565b95506106d6905086820161061c565b93505050509250929050565b600080604083850312156106f557600080fd5b823591506107056020840161061c565b90509250929050565b634e487b7160e01b600052603260045260246000fd5b634e487b7160e01b600052601160045260246000fd5b600060001982141561074e5761074e610724565b5060010190565b60008282101561076757610767610724565b500390565b634e487b7160e01b600052603160045260246000fdfea26469706673582212209fdfd2ddf15bce7b18b5d6da518c4d59a5d431d18cc03a1d3ce80a3627fe951664736f6c63430008090033",
  "linkReferences": {},
  "deployedLinkReferences": {}
}