{
  "_format": "hh-sol-artifact-1",
  "contractName": "ERC1155Auction",
  "sourceName": "contracts/ERC1155Auction.sol",
  "abi": [
    {
      "anonymous": false,
      "inputs": [
        {
          "indexed": false,
          "internalType": "address",
          "name": "previousAdmin",
          "type": "address"
        },
        {
          "indexed": false,
          "internalType": "address",
          "name": "newAdmin",
          "type": "address"
        }
      ],
      "name": "AdminChanged",
      "type": "event"
    },
    {
      "anonymous": false,
      "inputs": [
        {
          "indexed": false,
          "internalType": "address",
          "name": "contractAddr",
          "type": "address"
        },
        {
          "indexed": false,
          "internalType": "uint256",
          "name": "tokenId",
          "type": "uint256"
        },
        {
          "indexed": false,
          "internalType": "address",
          "name": "auctioneer",
          "type": "address"
        },
        {
          "indexed": false,
          "internalType": "uint256",
          "name": "startedAt",
          "type": "uint256"
        },
        {
          "indexed": false,
          "internalType": "uint256",
          "name": "bidPrice",
          "type": "uint256"
        },
        {
          "indexed": false,
          "internalType": "uint256",
          "name": "bidAmount",
          "type": "uint256"
        }
      ],
      "name": "AuctionBid",
      "type": "event"
    },
    {
      "anonymous": false,
      "inputs": [
        {
          "indexed": false,
          "internalType": "address",
          "name": "contractAddr",
          "type": "address"
        },
        {
          "indexed": false,
          "internalType": "uint256",
          "name": "tokenId",
          "type": "uint256"
        },
        {
          "indexed": false,
          "internalType": "uint256",
          "name": "startedAt",
          "type": "uint256"
        },
        {
          "indexed": false,
          "internalType": "uint256",
          "name": "amount",
          "type": "uint256"
        }
      ],
      "name": "AuctionCancelled",
      "type": "event"
    },
    {
      "anonymous": false,
      "inputs": [
        {
          "indexed": false,
          "internalType": "address",
          "name": "contractAddr",
          "type": "address"
        },
        {
          "indexed": false,
          "internalType": "uint256",
          "name": "tokenId",
          "type": "uint256"
        },
        {
          "indexed": false,
          "internalType": "uint8",
          "name": "payment",
          "type": "uint8"
        },
        {
          "indexed": false,
          "internalType": "uint256",
          "name": "amount",
          "type": "uint256"
        }
      ],
      "name": "AuctionCreated",
      "type": "event"
    },
    {
      "anonymous": false,
      "inputs": [
        {
          "indexed": true,
          "internalType": "address",
          "name": "beacon",
          "type": "address"
        }
      ],
      "name": "BeaconUpgraded",
      "type": "event"
    },
    {
      "anonymous": false,
      "inputs": [
        {
          "indexed": false,
          "internalType": "address",
          "name": "contractAddr",
          "type": "address"
        },
        {
          "indexed": false,
          "internalType": "uint256",
          "name": "tokenId",
          "type": "uint256"
        },
        {
          "indexed": false,
          "internalType": "uint256",
          "name": "startedAt",
          "type": "uint256"
        },
        {
          "indexed": false,
          "internalType": "address",
          "name": "bidder",
          "type": "address"
        },
        {
          "indexed": false,
          "internalType": "uint8",
          "name": "payment",
          "type": "uint8"
        },
        {
          "indexed": false,
          "internalType": "uint256",
          "name": "price",
          "type": "uint256"
        },
        {
          "indexed": false,
          "internalType": "uint256",
          "name": "amount",
          "type": "uint256"
        }
      ],
      "name": "BidAccepted",
      "type": "event"
    },
    {
      "anonymous": false,
      "inputs": [
        {
          "indexed": false,
          "internalType": "address",
          "name": "contractAddr",
          "type": "address"
        },
        {
          "indexed": false,
          "internalType": "uint256",
          "name": "tokenId",
          "type": "uint256"
        },
        {
          "indexed": false,
          "internalType": "address",
          "name": "auctioneer",
          "type": "address"
        },
        {
          "indexed": false,
          "internalType": "uint256",
          "name": "startedAt",
          "type": "uint256"
        },
        {
          "indexed": false,
          "internalType": "uint256",
          "name": "bidAmount",
          "type": "uint256"
        }
      ],
      "name": "BidCancelled",
      "type": "event"
    },
    {
      "anonymous": false,
      "inputs": [
        {
          "indexed": false,
          "internalType": "uint8",
          "name": "version",
          "type": "uint8"
        }
      ],
      "name": "Initialized",
      "type": "event"
    },
    {
      "anonymous": false,
      "inputs": [
        {
          "indexed": true,
          "internalType": "address",
          "name": "previousOwner",
          "type": "address"
        },
        {
          "indexed": true,
          "internalType": "address",
          "name": "newOwner",
          "type": "address"
        }
      ],
      "name": "OwnershipTransferred",
      "type": "event"
    },
    {
      "anonymous": false,
      "inputs": [
        {
          "indexed": true,
          "internalType": "address",
          "name": "implementation",
          "type": "address"
        }
      ],
      "name": "Upgraded",
      "type": "event"
    },
    {
      "inputs": [
        {
          "internalType": "address",
          "name": "contractAddr",
          "type": "address"
        },
        {
          "internalType": "uint256",
          "name": "tokenId",
          "type": "uint256"
        },
        {
          "internalType": "uint256",
          "name": "startedAt",
          "type": "uint256"
        },
        {
          "internalType": "uint256",
          "name": "bidAmount",
          "type": "uint256"
        }
      ],
      "name": "acceptBid",
      "outputs": [],
      "stateMutability": "payable",
      "type": "function"
    },
    {
      "inputs": [],
      "name": "addressesContractAddr",
      "outputs": [
        {
          "internalType": "address",
          "name": "",
          "type": "address"
        }
      ],
      "stateMutability": "view",
      "type": "function"
    },
    {
      "inputs": [
        {
          "internalType": "address",
          "name": "contractAddr",
          "type": "address"
        },
        {
          "internalType": "uint256",
          "name": "tokenId",
          "type": "uint256"
        },
        {
          "internalType": "address",
          "name": "auctioneer",
          "type": "address"
        },
        {
          "internalType": "uint256",
          "name": "startedAt",
          "type": "uint256"
        },
        {
          "internalType": "uint256",
          "name": "bidAmount",
          "type": "uint256"
        },
        {
          "internalType": "uint256",
          "name": "bidPrice",
          "type": "uint256"
        }
      ],
      "name": "bid",
      "outputs": [],
      "stateMutability": "payable",
      "type": "function"
    },
    {
      "inputs": [
        {
          "internalType": "address",
          "name": "contractAddr",
          "type": "address"
        },
        {
          "internalType": "uint256",
          "name": "tokenId",
          "type": "uint256"
        },
        {
          "internalType": "uint256",
          "name": "startedAt",
          "type": "uint256"
        },
        {
          "internalType": "uint256",
          "name": "amount",
          "type": "uint256"
        }
      ],
      "name": "cancelAuction",
      "outputs": [],
      "stateMutability": "nonpayable",
      "type": "function"
    },
    {
      "inputs": [
        {
          "internalType": "address",
          "name": "contractAddr",
          "type": "address"
        },
        {
          "internalType": "uint256",
          "name": "tokenId",
          "type": "uint256"
        },
        {
          "internalType": "address",
          "name": "auctioneer",
          "type": "address"
        },
        {
          "internalType": "uint256",
          "name": "startedAt",
          "type": "uint256"
        },
        {
          "internalType": "uint256",
          "name": "bidAmount",
          "type": "uint256"
        }
      ],
      "name": "cancelBid",
      "outputs": [],
      "stateMutability": "nonpayable",
      "type": "function"
    },
    {
      "inputs": [
        {
          "internalType": "uint256",
          "name": "amount",
          "type": "uint256"
        },
        {
          "internalType": "uint8",
          "name": "index",
          "type": "uint8"
        }
      ],
      "name": "claim",
      "outputs": [],
      "stateMutability": "nonpayable",
      "type": "function"
    },
    {
      "inputs": [
        {
          "internalType": "address",
          "name": "",
          "type": "address"
        },
        {
          "internalType": "uint256",
          "name": "",
          "type": "uint256"
        }
      ],
      "name": "claimable",
      "outputs": [
        {
          "internalType": "uint256",
          "name": "",
          "type": "uint256"
        }
      ],
      "stateMutability": "view",
      "type": "function"
    },
    {
      "inputs": [
        {
          "internalType": "address",
          "name": "contractAddr",
          "type": "address"
        },
        {
          "internalType": "uint256",
          "name": "tokenId",
          "type": "uint256"
        },
        {
          "internalType": "uint8",
          "name": "payment",
          "type": "uint8"
        },
        {
          "internalType": "uint256",
          "name": "amount",
          "type": "uint256"
        }
      ],
      "name": "createAuction",
      "outputs": [],
      "stateMutability": "nonpayable",
      "type": "function"
    },
    {
      "inputs": [
        {
          "internalType": "address",
          "name": "contractAddr",
          "type": "address"
        }
      ],
      "name": "getAuctions",
      "outputs": [
        {
          "components": [
            {
              "internalType": "uint8",
              "name": "payment",
              "type": "uint8"
            },
            {
              "internalType": "address",
              "name": "auctioneer",
              "type": "address"
            },
            {
              "internalType": "uint256",
              "name": "amount",
              "type": "uint256"
            },
            {
              "internalType": "uint256",
              "name": "startedAt",
              "type": "uint256"
            },
            {
              "internalType": "address[]",
              "name": "bidders",
              "type": "address[]"
            },
            {
              "internalType": "uint256[]",
              "name": "bidPrices",
              "type": "uint256[]"
            },
            {
              "internalType": "uint256[]",
              "name": "bidAmounts",
              "type": "uint256[]"
            }
          ],
          "internalType": "struct ERC1155AuctionBase.Auction[]",
          "name": "auctions",
          "type": "tuple[]"
        }
      ],
      "stateMutability": "view",
      "type": "function"
    },
    {
      "inputs": [
        {
          "internalType": "address",
          "name": "contractAddr",
          "type": "address"
        },
        {
          "internalType": "uint256",
          "name": "tokenId",
          "type": "uint256"
        }
      ],
      "name": "getAuctionsByNFT",
      "outputs": [
        {
          "components": [
            {
              "internalType": "uint8",
              "name": "payment",
              "type": "uint8"
            },
            {
              "internalType": "address",
              "name": "auctioneer",
              "type": "address"
            },
            {
              "internalType": "uint256",
              "name": "amount",
              "type": "uint256"
            },
            {
              "internalType": "uint256",
              "name": "startedAt",
              "type": "uint256"
            },
            {
              "internalType": "address[]",
              "name": "bidders",
              "type": "address[]"
            },
            {
              "internalType": "uint256[]",
              "name": "bidPrices",
              "type": "uint256[]"
            },
            {
              "internalType": "uint256[]",
              "name": "bidAmounts",
              "type": "uint256[]"
            }
          ],
          "internalType": "struct ERC1155AuctionBase.Auction[]",
          "name": "",
          "type": "tuple[]"
        }
      ],
      "stateMutability": "view",
      "type": "function"
    },
    {
      "inputs": [
        {
          "internalType": "address",
          "name": "contractAddr",
          "type": "address"
        },
        {
          "internalType": "address",
          "name": "owner",
          "type": "address"
        }
      ],
      "name": "getAuctionsBySeller",
      "outputs": [
        {
          "components": [
            {
              "internalType": "uint8",
              "name": "payment",
              "type": "uint8"
            },
            {
              "internalType": "address",
              "name": "auctioneer",
              "type": "address"
            },
            {
              "internalType": "uint256",
              "name": "amount",
              "type": "uint256"
            },
            {
              "internalType": "uint256",
              "name": "startedAt",
              "type": "uint256"
            },
            {
              "internalType": "address[]",
              "name": "bidders",
              "type": "address[]"
            },
            {
              "internalType": "uint256[]",
              "name": "bidPrices",
              "type": "uint256[]"
            },
            {
              "internalType": "uint256[]",
              "name": "bidAmounts",
              "type": "uint256[]"
            }
          ],
          "internalType": "struct ERC1155AuctionBase.Auction[]",
          "name": "auctions",
          "type": "tuple[]"
        }
      ],
      "stateMutability": "view",
      "type": "function"
    },
    {
      "inputs": [
        {
          "internalType": "address",
          "name": "seller",
          "type": "address"
        },
        {
          "internalType": "address",
          "name": "contractAddr",
          "type": "address"
        },
        {
          "internalType": "uint256",
          "name": "tokenId",
          "type": "uint256"
        }
      ],
      "name": "getAuctionsBySellerNFT",
      "outputs": [
        {
          "components": [
            {
              "internalType": "uint8",
              "name": "payment",
              "type": "uint8"
            },
            {
              "internalType": "address",
              "name": "auctioneer",
              "type": "address"
            },
            {
              "internalType": "uint256",
              "name": "amount",
              "type": "uint256"
            },
            {
              "internalType": "uint256",
              "name": "startedAt",
              "type": "uint256"
            },
            {
              "internalType": "address[]",
              "name": "bidders",
              "type": "address[]"
            },
            {
              "internalType": "uint256[]",
              "name": "bidPrices",
              "type": "uint256[]"
            },
            {
              "internalType": "uint256[]",
              "name": "bidAmounts",
              "type": "uint256[]"
            }
          ],
          "internalType": "struct ERC1155AuctionBase.Auction[]",
          "name": "",
          "type": "tuple[]"
        }
      ],
      "stateMutability": "view",
      "type": "function"
    },
    {
      "inputs": [],
      "name": "initialize",
      "outputs": [],
      "stateMutability": "nonpayable",
      "type": "function"
    },
    {
      "inputs": [
        {
          "internalType": "address",
          "name": "",
          "type": "address"
        },
        {
          "internalType": "address",
          "name": "",
          "type": "address"
        },
        {
          "internalType": "uint256[]",
          "name": "",
          "type": "uint256[]"
        },
        {
          "internalType": "uint256[]",
          "name": "",
          "type": "uint256[]"
        },
        {
          "internalType": "bytes",
          "name": "",
          "type": "bytes"
        }
      ],
      "name": "onERC1155BatchReceived",
      "outputs": [
        {
          "internalType": "bytes4",
          "name": "",
          "type": "bytes4"
        }
      ],
      "stateMutability": "nonpayable",
      "type": "function"
    },
    {
      "inputs": [
        {
          "internalType": "address",
          "name": "",
          "type": "address"
        },
        {
          "internalType": "address",
          "name": "",
          "type": "address"
        },
        {
          "internalType": "uint256",
          "name": "",
          "type": "uint256"
        },
        {
          "internalType": "uint256",
          "name": "",
          "type": "uint256"
        },
        {
          "internalType": "bytes",
          "name": "",
          "type": "bytes"
        }
      ],
      "name": "onERC1155Received",
      "outputs": [
        {
          "internalType": "bytes4",
          "name": "",
          "type": "bytes4"
        }
      ],
      "stateMutability": "nonpayable",
      "type": "function"
    },
    {
      "inputs": [],
      "name": "owner",
      "outputs": [
        {
          "internalType": "address",
          "name": "",
          "type": "address"
        }
      ],
      "stateMutability": "view",
      "type": "function"
    },
    {
      "inputs": [],
      "name": "proxiableUUID",
      "outputs": [
        {
          "internalType": "bytes32",
          "name": "",
          "type": "bytes32"
        }
      ],
      "stateMutability": "view",
      "type": "function"
    },
    {
      "inputs": [],
      "name": "renounceOwnership",
      "outputs": [],
      "stateMutability": "nonpayable",
      "type": "function"
    },
    {
      "inputs": [
        {
          "internalType": "address",
          "name": "contractAddr",
          "type": "address"
        }
      ],
      "name": "setAddressesContractAddr",
      "outputs": [],
      "stateMutability": "nonpayable",
      "type": "function"
    },
    {
      "inputs": [
        {
          "internalType": "address",
          "name": "newSparkAddr",
          "type": "address"
        }
      ],
      "name": "setSparkTokenContractAddr",
      "outputs": [],
      "stateMutability": "nonpayable",
      "type": "function"
    },
    {
      "inputs": [
        {
          "internalType": "bytes4",
          "name": "interfaceId",
          "type": "bytes4"
        }
      ],
      "name": "supportsInterface",
      "outputs": [
        {
          "internalType": "bool",
          "name": "",
          "type": "bool"
        }
      ],
      "stateMutability": "view",
      "type": "function"
    },
    {
      "inputs": [
        {
          "internalType": "uint256",
          "name": "",
          "type": "uint256"
        }
      ],
      "name": "tokenAddrs",
      "outputs": [
        {
          "internalType": "address",
          "name": "",
          "type": "address"
        }
      ],
      "stateMutability": "view",
      "type": "function"
    },
    {
      "inputs": [
        {
          "internalType": "address",
          "name": "newOwner",
          "type": "address"
        }
      ],
      "name": "transferOwnership",
      "outputs": [],
      "stateMutability": "nonpayable",
      "type": "function"
    },
    {
      "inputs": [
        {
          "internalType": "address",
          "name": "newImplementation",
          "type": "address"
        }
      ],
      "name": "upgradeTo",
      "outputs": [],
      "stateMutability": "nonpayable",
      "type": "function"
    },
    {
      "inputs": [
        {
          "internalType": "address",
          "name": "newImplementation",
          "type": "address"
        },
        {
          "internalType": "bytes",
          "name": "data",
          "type": "bytes"
        }
      ],
      "name": "upgradeToAndCall",
      "outputs": [],
      "stateMutability": "payable",
      "type": "function"
    }
  ],
  "bytecode": "0x60a06040523060805234801561001457600080fd5b50608051614ccf61004c60003960008181610c7101528181610cb101528181610d5101528181610d910152610e200152614ccf6000f3fe6080604052600436106101665760003560e01c80638da5cb5b116100d1578063d9c8cf121161008a578063f23a6e6111610064578063f23a6e611461042c578063f2fde38b14610458578063f8e8b4b814610478578063fb0f93631461049857600080fd5b8063d9c8cf12146103d9578063db9d48d8146103f9578063e9f841871461041957600080fd5b80638da5cb5b146102e2578063915044ec14610314578063a5756bd214610334578063bc197c8114610354578063bc4781af14610399578063c4a5b0f6146103b957600080fd5b806352d1902d1161012357806352d1902d1461024257806360efe334146102655780636772f21114610285578063715018a6146102985780638129fc1c146102ad5780638174b256146102c257600080fd5b806301ffc9a71461016b578063047fbbe2146101a057806328932a83146101cd5780632faf3ea6146101ed5780633659cfe61461020f5780634f1ef2861461022f575b600080fd5b34801561017757600080fd5b5061018b610186366004614273565b6104b8565b60405190151581526020015b60405180910390f35b3480156101ac57600080fd5b506101c06101bb3660046142b2565b6104ef565b6040516101979190614367565b3480156101d957600080fd5b506101c06101e8366004614442565b610785565b3480156101f957600080fd5b5061020d610208366004614491565b610b94565b005b34801561021b57600080fd5b5061020d61022a3660046144bd565b610c66565b61020d61023d366004614591565b610d46565b34801561024e57600080fd5b50610257610e13565b604051908152602001610197565b34801561027157600080fd5b506102576102803660046145e1565b610ec6565b61020d61029336600461460d565b610eeb565b3480156102a457600080fd5b5061020d611405565b3480156102b957600080fd5b5061020d611419565b3480156102ce57600080fd5b5061020d6102dd366004614669565b611531565b3480156102ee57600080fd5b506033546001600160a01b03165b6040516001600160a01b039091168152602001610197565b34801561032057600080fd5b506102fc61032f3660046146a4565b6115a1565b34801561034057600080fd5b5061020d61034f3660046144bd565b6115c1565b34801561036057600080fd5b5061038061036f36600461473d565b63bc197c8160e01b95945050505050565b6040516001600160e01b03199091168152602001610197565b3480156103a557600080fd5b5061020d6103b43660046144bd565b6115eb565b3480156103c557600080fd5b5061020d6103d43660046147eb565b611615565b3480156103e557600080fd5b506101c06103f43660046145e1565b611bed565b34801561040557600080fd5b5060fb546102fc906001600160a01b031681565b61020d610427366004614669565b611e6d565b34801561043857600080fd5b5061038061044736600461483d565b63f23a6e6160e01b95945050505050565b34801561046457600080fd5b5061020d6104733660046144bd565b6124de565b34801561048457600080fd5b5061020d6104933660046148a6565b612554565b3480156104a457600080fd5b506101c06104b33660046144bd565b612933565b60006001600160e01b03198216630271189760e51b14806104e957506301ffc9a760e01b6001600160e01b03198316145b92915050565b60fb5460609083906001600160a01b03166105255760405162461bcd60e51b815260040161051c906148ec565b60405180910390fd5b60fb5460405163b9209e3360e01b81526001600160a01b0383811660048301529091169063b9209e339060240160206040518083038186803b15801561056a57600080fd5b505afa15801561057e573d6000803e3d6000fd5b505050506040513d601f19601f820116820180604052508101906105a29190614919565b6105be5760405162461bcd60e51b815260040161051c9061493b565b6001600160a01b038086166000908152610102602090815260408083209388168352928152828220868352815282822080548451818402810184019095528085529092909184015b828210156107775760008481526020908190206040805160e08101825260068602909201805460ff8116845261010090046001600160a01b03168385015260018101548383015260028101546060840152600381018054835181870281018701909452808452939491936080860193928301828280156106af57602002820191906000526020600020905b81546001600160a01b03168152600190910190602001808311610691575b505050505081526020016004820180548060200260200160405190810160405280929190818152602001828054801561070757602002820191906000526020600020905b8154815260200190600101908083116106f3575b505050505081526020016005820180548060200260200160405190810160405280929190818152602001828054801561075f57602002820191906000526020600020905b81548152602001906001019080831161074b575b50505050508152505081526020019060010190610606565b505050509150509392505050565b60fb5460609083906001600160a01b03166107b25760405162461bcd60e51b815260040161051c906148ec565b60fb5460405163b9209e3360e01b81526001600160a01b0383811660048301529091169063b9209e339060240160206040518083038186803b1580156107f757600080fd5b505afa15801561080b573d6000803e3d6000fd5b505050506040513d601f19601f8201168201806040525081019061082f9190614919565b61084b5760405162461bcd60e51b815260040161051c9061493b565b6001600160a01b03808416600090815261010060209081526040808320938816835292905290812080548291905b808310156108fa576001600160a01b03808816600090815261010260209081526040808320938c16835292905290812083549091908490869081106108c0576108c0614961565b9060005260206000200154815260200190815260200160002080549050846108e8919061498d565b93506108f3836149a5565b9250610879565b8367ffffffffffffffff811115610913576109136144da565b60405190808252806020026020018201604052801561094c57816020015b61093961411b565b8152602001906001900390816109315790505b50955060009350600092505b80831015610b89576001600160a01b03808816600090815261010260209081526040808320938c1683529290529081208354829085908790811061099e5761099e614961565b90600052602060002001548152602001908152602001600020905060008180549050905060005b81811015610b75578281815481106109df576109df614961565b60009182526020918290206040805160e0810182526006909302909101805460ff811684526001600160a01b0361010090910416838501526001810154838301526002810154606084015260038101805483518187028101870190945280845293949193608086019392830182828015610a8257602002820191906000526020600020905b81546001600160a01b03168152600190910190602001808311610a64575b5050505050815260200160048201805480602002602001604051908101604052809291908181526020018280548015610ada57602002820191906000526020600020905b815481526020019060010190808311610ac6575b5050505050815260200160058201805480602002602001604051908101604052809291908181526020018280548015610b3257602002820191906000526020600020905b815481526020019060010190808311610b1e575b505050505081525050898880610b47906149a5565b995081518110610b5957610b59614961565b602002602001018190525080610b6e906149a5565b90506109c5565b50505082610b82906149a5565b9250610958565b505050505092915050565b33600090815260fe6020526040902060ff821660028110610bb757610bb7614961565b0154821115610bfc5760405162461bcd60e51b81526020600482015260116024820152704578636565647320436c61696d61626c6560781b604482015260640161051c565b33600090815260fe60205260409020829060ff831660028110610c2157610c21614961565b016000828254610c3191906149c0565b90915550610c62905060fc60ff831660028110610c5057610c50614961565b01546001600160a01b03168333612d08565b5050565b306001600160a01b037f0000000000000000000000000000000000000000000000000000000000000000161415610caf5760405162461bcd60e51b815260040161051c906149d7565b7f00000000000000000000000000000000000000000000000000000000000000006001600160a01b0316610cf8600080516020614c53833981519152546001600160a01b031690565b6001600160a01b031614610d1e5760405162461bcd60e51b815260040161051c90614a23565b610d2781612dd9565b60408051600080825260208201909252610d4391839190612de1565b50565b306001600160a01b037f0000000000000000000000000000000000000000000000000000000000000000161415610d8f5760405162461bcd60e51b815260040161051c906149d7565b7f00000000000000000000000000000000000000000000000000000000000000006001600160a01b0316610dd8600080516020614c53833981519152546001600160a01b031690565b6001600160a01b031614610dfe5760405162461bcd60e51b815260040161051c90614a23565b610e0782612dd9565b610c6282826001612de1565b6000306001600160a01b037f00000000000000000000000000000000000000000000000000000000000000001614610eb35760405162461bcd60e51b815260206004820152603860248201527f555550535570677261646561626c653a206d757374206e6f742062652063616c60448201527f6c6564207468726f7567682064656c656761746563616c6c0000000000000000606482015260840161051c565b50600080516020614c5383398151915290565b60fe6020528160005260406000208160028110610ee257600080fd5b01549150829050565b336001600160a01b0385161415610f345760405162461bcd60e51b815260206004820152600d60248201526c24b99020bab1ba34b7b732b2b960991b604482015260640161051c565b6001600160a01b038616600090815261010160209081526040808320888452825280832080548251818502810185019093528083529093926110f492918591859084015b828210156110e95760008481526020908190206040805160e08101825260068602909201805460ff8116845261010090046001600160a01b031683850152600181015483830152600281015460608401526003810180548351818702810187019094528084529394919360808601939283018282801561102157602002820191906000526020600020905b81546001600160a01b03168152600190910190602001808311611003575b505050505081526020016004820180548060200260200160405190810160405280929190818152602001828054801561107957602002820191906000526020600020905b815481526020019060010190808311611065575b50505050508152602001600582018054806020026020016040519081016040528092919081815260200182805480156110d157602002820191906000526020600020905b8154815260200190600101908083116110bd575b50505050508152505081526020019060010190610f78565b505050508787612f5b565b905061114b60fc83838154811061110d5761110d614961565b600091825260209091206006909102015460ff166002811061113157611131614961565b01546001600160a01b03166111468686614a6f565b61301d565b6111c682828154811061116057611160614961565b90600052602060002090600602018486600383018054600181810183556000928352602080842090920180546001600160a01b03191633179055600486018054808301825590845282842001949094556005909401805493840181558152929092200155565b6001600160a01b03808716600090815261010260209081526040808320938c1683529281528282208a8352815282822080548451818402810184019095528085529095506113859392869284015b828210156110e95760008481526020908190206040805160e08101825260068602909201805460ff8116845261010090046001600160a01b03168385015260018101548383015260028101546060840152600381018054835181870281018701909452808452939491936080860193928301828280156112bd57602002820191906000526020600020905b81546001600160a01b0316815260019091019060200180831161129f575b505050505081526020016004820180548060200260200160405190810160405280929190818152602001828054801561131557602002820191906000526020600020905b815481526020019060010190808311611301575b505050505081526020016005820180548060200260200160405190810160405280929190818152602001828054801561136d57602002820191906000526020600020905b815481526020019060010190808311611359575b50505050508152505081526020019060010190611214565b905061139c82828154811061116057611160614961565b604080516001600160a01b038a81168252602082018a9052881681830152606081018790526080810185905260a0810186905290517f655205e96b9305660f5038b619021f639bdae3e650b35974f3391889062fd6ae9181900360c00190a15050505050505050565b61140d6130f5565b611417600061314f565b565b600054610100900460ff16158080156114395750600054600160ff909116105b806114535750303b158015611453575060005460ff166001145b6114b65760405162461bcd60e51b815260206004820152602e60248201527f496e697469616c697a61626c653a20636f6e747261637420697320616c72656160448201526d191e481a5b9a5d1a585b1a5e995960921b606482015260840161051c565b6000805460ff1916600117905580156114d9576000805461ff0019166101001790555b6114e16131a1565b6114e96131d0565b8015610d43576000805461ff0019169055604051600181527f7f26b83ff96e1f2b6a682f133852f6798a09c465da95921460cefb38474024989060200160405180910390a150565b61153e84303386856131f7565b61154a8484848461327d565b604080516001600160a01b038616815260208101859052908101839052606081018290527fec94f23a53c14e3a874ff8e014bfd5549ff7148c40d2cbfcdd3fe6079bd3ccfd9060800160405180910390a150505050565b60fc81600281106115b157600080fd5b01546001600160a01b0316905081565b6115c96130f5565b60fd80546001600160a01b0319166001600160a01b0392909216919091179055565b6115f36130f5565b60fb80546001600160a01b0319166001600160a01b0392909216919091179055565b6001600160a01b038516600090815261010160209081526040808320878452825280832080548251818502810185019093528083529093926117d592918591859084015b828210156117ca5760008481526020908190206040805160e08101825260068602909201805460ff8116845261010090046001600160a01b031683850152600181015483830152600281015460608401526003810180548351818702810187019094528084529394919360808601939283018282801561170257602002820191906000526020600020905b81546001600160a01b031681526001909101906020018083116116e4575b505050505081526020016004820180548060200260200160405190810160405280929190818152602001828054801561175a57602002820191906000526020600020905b815481526020019060010190808311611746575b50505050508152602001600582018054806020026020016040519081016040528092919081815260200182805480156117b257602002820191906000526020600020905b81548152602001906001019080831161179e575b50505050508152505081526020019060010190611659565b505050508686612f5b565b905060008282815481106117eb576117eb614961565b906000526020600020906006020160030180548060200260200160405190810160405280929190818152602001828054801561185057602002820191906000526020600020905b81546001600160a01b03168152600190910190602001808311611832575b5050604051636e44fbfb60e01b815273__$e9d29609e19beebe46219d41a81a317a2e$__94636e44fbfb945061188d935091503390600401614a8e565b60206040518083038186803b1580156118a557600080fd5b505af41580156118b9573d6000803e3d6000fd5b505050506040513d601f19601f820116820180604052508101906118dd9190614aeb565b90506000848484815481106118f4576118f4614961565b9060005260206000209060060201600401838154811061191657611916614961565b906000526020600020015461192b9190614a6f565b905061197a60fc85858154811061194457611944614961565b600091825260209091206006909102015460ff166002811061196857611968614961565b01546001600160a01b03168233612d08565b6119a484848154811061198f5761198f614961565b9060005260206000209060060201338761330b565b6001600160a01b03808816600090815261010260209081526040808320938d1683529281528282208b835281528282208054845181840281018401909552808552909750611b6e9392889284015b82821015611b635760008481526020908190206040805160e08101825260068602909201805460ff8116845261010090046001600160a01b0316838501526001810154838301526002810154606084015260038101805483518187028101870190945280845293949193608086019392830182828015611a9b57602002820191906000526020600020905b81546001600160a01b03168152600190910190602001808311611a7d575b5050505050815260200160048201805480602002602001604051908101604052809291908181526020018280548015611af357602002820191906000526020600020905b815481526020019060010190808311611adf575b5050505050815260200160058201805480602002602001604051908101604052809291908181526020018280548015611b4b57602002820191906000526020600020905b815481526020019060010190808311611b37575b505050505081525050815260200190600101906119f2565b505050508888612f5b565b9250611b8584848154811061198f5761198f614961565b604080516001600160a01b03808c168252602082018b905289169181019190915260608101879052608081018690527f7a54a7192782f8b43271471a9b16f3d7ab360cf2e6b5925695094306c44411749060a0015b60405180910390a1505050505050505050565b60fb5460609083906001600160a01b0316611c1a5760405162461bcd60e51b815260040161051c906148ec565b60fb5460405163b9209e3360e01b81526001600160a01b0383811660048301529091169063b9209e339060240160206040518083038186803b158015611c5f57600080fd5b505afa158015611c73573d6000803e3d6000fd5b505050506040513d601f19601f82011682018060405250810190611c979190614919565b611cb35760405162461bcd60e51b815260040161051c9061493b565b6001600160a01b038416600090815261010160209081526040808320868452825280832080548251818502810185019093528083529193909284015b82821015611e605760008481526020908190206040805160e08101825260068602909201805460ff8116845261010090046001600160a01b0316838501526001810154838301526002810154606084015260038101805483518187028101870190945280845293949193608086019392830182828015611d9857602002820191906000526020600020905b81546001600160a01b03168152600190910190602001808311611d7a575b5050505050815260200160048201805480602002602001604051908101604052809291908181526020018280548015611df057602002820191906000526020600020905b815481526020019060010190808311611ddc575b5050505050815260200160058201805480602002602001604051908101604052809291908181526020018280548015611e4857602002820191906000526020600020905b815481526020019060010190808311611e34575b50505050508152505081526020019060010190611cef565b5050505091505092915050565b6001600160a01b0384166000908152610101602090815260408083208684528252808320805482518185028101850190935280835290939261202d92918591859084015b828210156120225760008481526020908190206040805160e08101825260068602909201805460ff8116845261010090046001600160a01b0316838501526001810154838301526002810154606084015260038101805483518187028101870190945280845293949193608086019392830182828015611f5a57602002820191906000526020600020905b81546001600160a01b03168152600190910190602001808311611f3c575b5050505050815260200160048201805480602002602001604051908101604052809291908181526020018280548015611fb257602002820191906000526020600020905b815481526020019060010190808311611f9e575b505050505081526020016005820180548060200260200160405190810160405280929190818152602001828054801561200a57602002820191906000526020600020905b815481526020019060010190808311611ff6575b50505050508152505081526020019060010190611eb1565b505050503386612f5b565b9050600082828154811061204357612043614961565b9060005260206000209060060201905060008160030180549050116120935760405162461bcd60e51b8152602060048201526006602482015265139bc8109a5960d21b604482015260640161051c565b806004018054806020026020016040519081016040528092919081815260200182805480156120e157602002820191906000526020600020905b8154815260200190600101908083116120cd575b5050604051632d49165560e11b815273__$e9d29609e19beebe46219d41a81a317a2e$__94635a922caa945061211c93509150600401614b04565b60206040518083038186803b15801561213457600080fd5b505af4158015612148573d6000803e3d6000fd5b505050506040513d601f19601f8201168201806040525081019061216c9190614aeb565b91508381600501838154811061218457612184614961565b906000526020600020015410156121cf5760405162461bcd60e51b815260206004820152600f60248201526e125b9cdd599998da595b9d08109a59608a1b604482015260640161051c565b60008160030183815481106121e6576121e6614961565b6000918252602090912001546001600160a01b0316905061220a8830838a896131f7565b600082600401848154811061222157612221614961565b60009182526020909120015483549091506122699060fc9060ff166002811061224c5761224c614961565b01546001600160a01b03166122618884614a6f565b338c8c61363a565b61227483838861330b565b336000908152610102602090815260408083206001600160a01b038d16845282528083208b84528252808320805482518185028101850190935280835290985061243c93919289929084015b828210156124315760008481526020908190206040805160e08101825260068602909201805460ff8116845261010090046001600160a01b031683850152600181015483830152600281015460608401526003810180548351818702810187019094528084529394919360808601939283018282801561236957602002820191906000526020600020905b81546001600160a01b0316815260019091019060200180831161234b575b50505050508152602001600482018054806020026020016040519081016040528092919081815260200182805480156123c157602002820191906000526020600020905b8154815260200190600101908083116123ad575b505050505081526020016005820180548060200260200160405190810160405280929190818152602001828054801561241957602002820191906000526020600020905b815481526020019060010190808311612405575b505050505081525050815260200190600101906122c0565b505050503389612f5b565b935061246885858154811061245357612453614961565b9060005260206000209060060201838861330b565b6124748989898961327d565b8254604080516001600160a01b03808d168252602082018c90529181018a9052908416606082015260ff909116608082015260a0810182905260c081018790527f7bdc6422b24f174b98f732d38c8c8debe636a10397b05276d2260bc270d416259060e001611bda565b6124e66130f5565b6001600160a01b03811661254b5760405162461bcd60e51b815260206004820152602660248201527f4f776e61626c653a206e6577206f776e657220697320746865207a65726f206160448201526564647265737360d01b606482015260840161051c565b610d438161314f565b60fb5484906001600160a01b031661257e5760405162461bcd60e51b815260040161051c906148ec565b60fb5460405163b9209e3360e01b81526001600160a01b0383811660048301529091169063b9209e339060240160206040518083038186803b1580156125c357600080fd5b505afa1580156125d7573d6000803e3d6000fd5b505050506040513d601f19601f820116820180604052508101906125fb9190614919565b6126175760405162461bcd60e51b815260040161051c9061493b565b61262485333087866131f7565b6040805160e08101825260ff851681523360208083019190915281830185905242606083015282516000808252818301855260808401919091528351818152808301855260a08401528351818152808301855260c08401526001600160a01b0389168152610101825283812088825290915291909120546126cb576001600160a01b038616600090815260ff60209081526040822080546001810182559083529120018590555b6001600160a01b038087166000908152610101602090815260408083208984528252808320805460018181018355918552938390208651600690950201805487850151909616610100026001600160a81b031990961660ff90951694909417949094178355840151928201929092556060830151600282015560808301518051849361275e926003850192910190614164565b5060a0820151805161277a9160048401916020909101906141c9565b5060c082015180516127969160058401916020909101906141c9565b5050336000908152610102602090815260408083206001600160a01b038b16845282528083208984529091529020541515905061280257336000908152610100602090815260408083206001600160a01b038a1684528252822080546001810182559083529120018590555b336000908152610102602090815260408083206001600160a01b038a811685529083528184208985528352818420805460018181018355918652948490208651600690960201805487860151909316610100026001600160a81b031990931660ff909616959095179190911784559084015190830155606083015160028301556080830151805184939261289d926003850192910190614164565b5060a082015180516128b99160048401916020909101906141c9565b5060c082015180516128d59160058401916020909101906141c9565b5050604080516001600160a01b03891681526020810188905260ff8716818301526060810186905290517f9105d65cece839e8f5e744f8ac3cabbc364eabba323a7c6b4ab7fdcc1728db8e92509081900360800190a1505050505050565b60fb5460609082906001600160a01b03166129605760405162461bcd60e51b815260040161051c906148ec565b60fb5460405163b9209e3360e01b81526001600160a01b0383811660048301529091169063b9209e339060240160206040518083038186803b1580156129a557600080fd5b505afa1580156129b9573d6000803e3d6000fd5b505050506040513d601f19601f820116820180604052508101906129dd9190614919565b6129f95760405162461bcd60e51b815260040161051c9061493b565b6001600160a01b038316600090815260ff6020526040812081905b8054821015612a87576001600160a01b0386166000908152610101602052604081208254909190839085908110612a4d57612a4d614961565b906000526020600020015481526020019081526020016000208054905083612a75919061498d565b9250612a80826149a5565b9150612a14565b8267ffffffffffffffff811115612aa057612aa06144da565b604051908082528060200260200182016040528015612ad957816020015b612ac661411b565b815260200190600190039081612abe5790505b50945060009250600091505b8054821015612cff576001600160a01b03861660009081526101016020526040812082548290849086908110612b1d57612b1d614961565b90600052602060002001548152602001908152602001600020905060005b8154811015612cec57818181548110612b5657612b56614961565b60009182526020918290206040805160e0810182526006909302909101805460ff811684526001600160a01b0361010090910416838501526001810154838301526002810154606084015260038101805483518187028101870190945280845293949193608086019392830182828015612bf957602002820191906000526020600020905b81546001600160a01b03168152600190910190602001808311612bdb575b5050505050815260200160048201805480602002602001604051908101604052809291908181526020018280548015612c5157602002820191906000526020600020905b815481526020019060010190808311612c3d575b5050505050815260200160058201805480602002602001604051908101604052809291908181526020018280548015612ca957602002820191906000526020600020905b815481526020019060010190808311612c95575b505050505081525050878680612cbe906149a5565b975081518110612cd057612cd0614961565b602002602001018190525080612ce5906149a5565b9050612b3b565b505081612cf8906149a5565b9150612ae5565b50505050919050565b6001600160a01b038316612d52576040516001600160a01b0382169083156108fc029084906000818181858888f19350505050158015612d4c573d6000803e3d6000fd5b50505050565b60405163a9059cbb60e01b81526001600160a01b0382811660048301526024820184905284169063a9059cbb90604401602060405180830381600087803b158015612d9c57600080fd5b505af1158015612db0573d6000803e3d6000fd5b505050506040513d601f19601f82011682018060405250810190612d4c9190614919565b505050565b610d436130f5565b7f4910fdfa16fed3260ed0e7147f7cc6da11a60208b5b9406d12a635614ffd91435460ff1615612e1457612dd483613673565b826001600160a01b03166352d1902d6040518163ffffffff1660e01b815260040160206040518083038186803b158015612e4d57600080fd5b505afa925050508015612e7d575060408051601f3d908101601f19168201909252612e7a91810190614aeb565b60015b612ee05760405162461bcd60e51b815260206004820152602e60248201527f45524331393637557067726164653a206e657720696d706c656d656e7461746960448201526d6f6e206973206e6f74205555505360901b606482015260840161051c565b600080516020614c538339815191528114612f4f5760405162461bcd60e51b815260206004820152602960248201527f45524331393637557067726164653a20756e737570706f727465642070726f786044820152681a58589b195555525160ba1b606482015260840161051c565b50612dd483838361370f565b60005b835181108015612fc45750826001600160a01b0316848281518110612f8557612f85614961565b6020026020010151602001516001600160a01b0316141580612fc4575081848281518110612fb557612fb5614961565b60200260200101516060015114155b15612fd957612fd2816149a5565b9050612f5e565b835181106130165760405162461bcd60e51b815260206004820152600a60248201526927379020bab1ba34b7b760b11b604482015260640161051c565b9392505050565b6001600160a01b03821661306f5780341015610c625760405162461bcd60e51b8152602060048201526011602482015270125b9cdd59999a58da595b9d08119d5b99607a1b604482015260640161051c565b6040516323b872dd60e01b8152336004820152306024820152604481018290526001600160a01b038316906323b872dd90606401602060405180830381600087803b1580156130bd57600080fd5b505af11580156130d1573d6000803e3d6000fd5b505050506040513d601f19601f82011682018060405250810190612dd49190614919565b6033546001600160a01b031633146114175760405162461bcd60e51b815260206004820181905260248201527f4f776e61626c653a2063616c6c6572206973206e6f7420746865206f776e6572604482015260640161051c565b603380546001600160a01b038381166001600160a01b0319831681179093556040519116919082907f8be0079c531659141344cd1fd0a4f28419497f9722a3daafe3b4186f6b6457e090600090a35050565b600054610100900460ff166131c85760405162461bcd60e51b815260040161051c90614b48565b611417613734565b600054610100900460ff166114175760405162461bcd60e51b815260040161051c90614b48565b604051637921219560e11b81526001600160a01b0385811660048301528481166024830152604482018490526064820183905260a06084830152600060a483015286169063f242432a9060c401600060405180830381600087803b15801561325e57600080fd5b505af1158015613272573d6000803e3d6000fd5b505050505050505050565b6001600160a01b038416600081815261010160209081526040808320878452825280832093835260ff90915290206132ba91908585856001613764565b336000818152610102602090815260408083206001600160a01b038916808552908352818420888552835281842094845261010083528184209084529091528120612d4c9291869086908690613764565b60008360030180548060200260200160405190810160405280929190818152602001828054801561336557602002820191906000526020600020905b81546001600160a01b03168152600190910190602001808311613347575b5050604051636e44fbfb60e01b815273__$e9d29609e19beebe46219d41a81a317a2e$__94636e44fbfb94506133a2935091508790600401614a8e565b60206040518083038186803b1580156133ba57600080fd5b505af41580156133ce573d6000803e3d6000fd5b505050506040513d601f19601f820116820180604052508101906133f29190614aeb565b600385015490915081106134315760405162461bcd60e51b8152602060048201526006602482015265139bc8109a5960d21b604482015260640161051c565b8184600501828154811061344757613447614961565b906000526020600020015410156134935760405162461bcd60e51b815260206004820152601060248201526f125b9cdd59999a58da595b9d08109a5960821b604482015260640161051c565b818460050182815481106134a9576134a9614961565b9060005260206000200160008282546134c291906149c0565b9091555050600584018054829081106134dd576134dd614961565b906000526020600020015460001415612d4c57604051637b150e3d60e01b81526003850160048201526024810182905273__$e9d29609e19beebe46219d41a81a317a2e$__90637b150e3d9060440160006040518083038186803b15801561354457600080fd5b505af4158015613558573d6000803e3d6000fd5b5050604051633c764a6160e21b81526004878101908201526024810184905273__$e9d29609e19beebe46219d41a81a317a2e$__925063f1d92984915060440160006040518083038186803b1580156135b057600080fd5b505af41580156135c4573d6000803e3d6000fd5b5050604051633c764a6160e21b81526005870160048201526024810184905273__$e9d29609e19beebe46219d41a81a317a2e$__925063f1d92984915060440160006040518083038186803b15801561361c57600080fd5b505af4158015613630573d6000803e3d6000fd5b5050505050505050565b600061364583613cda565b1561365d5761365683838888613d5b565b9050613660565b50835b61366b868286612d08565b505050505050565b6001600160a01b0381163b6136e05760405162461bcd60e51b815260206004820152602d60248201527f455243313936373a206e657720696d706c656d656e746174696f6e206973206e60448201526c1bdd08184818dbdb9d1c9858dd609a1b606482015260840161051c565b600080516020614c5383398151915280546001600160a01b0319166001600160a01b0392909216919091179055565b61371883613e56565b6000825111806137255750805b15612dd457612d4c8383613e96565b600054610100900460ff1661375b5760405162461bcd60e51b815260040161051c90614b48565b6114173361314f565b60006138fb87805480602002602001604051908101604052809291908181526020016000905b828210156120225760008481526020908190206040805160e08101825260068602909201805460ff8116845261010090046001600160a01b031683850152600181015483830152600281015460608401526003810180548351818702810187019094528084529394919360808601939283018282801561383357602002820191906000526020600020905b81546001600160a01b03168152600190910190602001808311613815575b505050505081526020016004820180548060200260200160405190810160405280929190818152602001828054801561388b57602002820191906000526020600020905b815481526020019060010190808311613877575b50505050508152602001600582018054806020026020016040519081016040528092919081815260200182805480156138e357602002820191906000526020600020905b8154815260200190600101908083116138cf575b5050505050815250508152602001906001019061378a565b90508287828154811061391057613910614961565b90600052602060002090600602016001015410156139675760405162461bcd60e51b815260206004820152601460248201527324b739bab33334b1b4b2b73a1020bab1ba34b7b760611b604482015260640161051c565b8287828154811061397a5761397a614961565b9060005260206000209060060201600101600082825461399a91906149c0565b90915550600090505b8782815481106139b5576139b5614961565b906000526020600020906006020160030180549050811015613c29578782815481106139e3576139e3614961565b906000526020600020906006020160010154888381548110613a0757613a07614961565b90600052602060002090600602016005018281548110613a2957613a29614961565b90600052602060002001541115613c19576000888381548110613a4e57613a4e614961565b906000526020600020906006020160010154898481548110613a7257613a72614961565b90600052602060002090600602016005018381548110613a9457613a94614961565b9060005260206000200154613aa991906149c0565b90508315613ba55780898481548110613ac457613ac4614961565b90600052602060002090600602016004018381548110613ae657613ae6614961565b9060005260206000200154613afb9190614a6f565b60fe60008b8681548110613b1157613b11614961565b90600052602060002090600602016003018581548110613b3357613b33614961565b60009182526020808320909101546001600160a01b0316835282019290925260400190208a548b9086908110613b6b57613b6b614961565b600091825260209091206006909102015460ff1660028110613b8f57613b8f614961565b016000828254613b9f919061498d565b90915550505b613c17898481548110613bba57613bba614961565b90600052602060002090600602018a8581548110613bda57613bda614961565b90600052602060002090600602016003018481548110613bfc57613bfc614961565b6000918252602090912001546001600160a01b03168361330b565b505b613c22816149a5565b90506139a3565b50868181548110613c3c57613c3c614961565b90600052602060002090600602016001015460001415613cd157613c608782613f8a565b8654613cd157604051630cef945b60e31b8152600481018790526024810186905273__$e9d29609e19beebe46219d41a81a317a2e$__9063677ca2d89060440160006040518083038186803b158015613cb857600080fd5b505af4158015613ccc573d6000803e3d6000fd5b505050505b50505050505050565b6040516301ffc9a760e01b815263152a902d60e11b60048201526000906001600160a01b038316906301ffc9a79060240160206040518083038186803b158015613d2357600080fd5b505afa158015613d37573d6000803e3d6000fd5b505050506040513d601f19601f820116820180604052508101906104e99190614919565b60405163152a902d60e11b81526004810184905260248101829052600090819081906001600160a01b03881690632a55205a90604401604080518083038186803b158015613da857600080fd5b505afa158015613dbc573d6000803e3d6000fd5b505050506040513d601f19601f82011682018060405250810190613de09190614b93565b9092509050613def81856149c0565b92508015613e0257613e02858284612d08565b604080516001600160a01b0389168152602081018890529081018290527f7a474f3ea7966b6a336a0169253a863c5bbe817379d3570951736f604adbe2699060600160405180910390a15050949350505050565b613e5f81613673565b6040516001600160a01b038216907fbc7cd75a20ee27fd9adebab32041f755214dbc6bffa90cc0225b39da2e5c2d3b90600090a250565b60606001600160a01b0383163b613efe5760405162461bcd60e51b815260206004820152602660248201527f416464726573733a2064656c65676174652063616c6c20746f206e6f6e2d636f6044820152651b9d1c9858dd60d21b606482015260840161051c565b600080846001600160a01b031684604051613f199190614bed565b600060405180830381855af49150503d8060008114613f54576040519150601f19603f3d011682016040523d82523d6000602084013e613f59565b606091505b5091509150613f818282604051806060016040528060278152602001614c73602791396140dd565b95945050505050565b81548290613f9a906001906149c0565b81548110613faa57613faa614961565b9060005260206000209060060201828281548110613fca57613fca614961565b600091825260209091208254600690920201805460ff90921660ff1983168117825583546001600160a81b031990931617610100928390046001600160a01b031690920291909117815560018083015490820155600280830154908201556003808301805461403c9284019190614204565b50600482810180546140519284019190614204565b50600582810180546140669284019190614204565b509050508180548061407a5761407a614c09565b60008281526020812060066000199093019283020180546001600160a81b03191681556001810182905560028101829055906140b96003830182614244565b6140c7600483016000614244565b6140d5600583016000614244565b505090555050565b606083156140ec575081613016565b61301683838151156141015781518083602001fd5b8060405162461bcd60e51b815260040161051c9190614c1f565b6040518060e00160405280600060ff16815260200160006001600160a01b0316815260200160008152602001600081526020016060815260200160608152602001606081525090565b8280548282559060005260206000209081019282156141b9579160200282015b828111156141b957825182546001600160a01b0319166001600160a01b03909116178255602090920191600190910190614184565b506141c592915061425e565b5090565b8280548282559060005260206000209081019282156141b9579160200282015b828111156141b95782518255916020019190600101906141e9565b8280548282559060005260206000209081019282156141b95760005260206000209182015b828111156141b9578254825591600101919060010190614229565b5080546000825590600052602060002090810190610d4391905b5b808211156141c5576000815560010161425f565b60006020828403121561428557600080fd5b81356001600160e01b03198116811461301657600080fd5b6001600160a01b0381168114610d4357600080fd5b6000806000606084860312156142c757600080fd5b83356142d28161429d565b925060208401356142e28161429d565b929592945050506040919091013590565b600081518084526020808501945080840160005b8381101561432c5781516001600160a01b031687529582019590820190600101614307565b509495945050505050565b600081518084526020808501945080840160005b8381101561432c5781518752958201959082019060010161434b565b60006020808301818452808551808352604092508286019150828160051b87010184880160005b8381101561443457888303603f190185528151805160ff168452878101516001600160a01b03168885015286810151878501526060808201519085015260808082015160e082870181905291906143e7838801826142f3565b9250505060a080830151868303828801526144028382614337565b9250505060c080830151925085820381870152506144208183614337565b96890196945050509086019060010161438e565b509098975050505050505050565b6000806040838503121561445557600080fd5b82356144608161429d565b915060208301356144708161429d565b809150509250929050565b803560ff8116811461448c57600080fd5b919050565b600080604083850312156144a457600080fd5b823591506144b46020840161447b565b90509250929050565b6000602082840312156144cf57600080fd5b81356130168161429d565b634e487b7160e01b600052604160045260246000fd5b604051601f8201601f1916810167ffffffffffffffff81118282101715614519576145196144da565b604052919050565b600082601f83011261453257600080fd5b813567ffffffffffffffff81111561454c5761454c6144da565b61455f601f8201601f19166020016144f0565b81815284602083860101111561457457600080fd5b816020850160208301376000918101602001919091529392505050565b600080604083850312156145a457600080fd5b82356145af8161429d565b9150602083013567ffffffffffffffff8111156145cb57600080fd5b6145d785828601614521565b9150509250929050565b600080604083850312156145f457600080fd5b82356145ff8161429d565b946020939093013593505050565b60008060008060008060c0878903121561462657600080fd5b86356146318161429d565b95506020870135945060408701356146488161429d565b959894975094956060810135955060808101359460a0909101359350915050565b6000806000806080858703121561467f57600080fd5b843561468a8161429d565b966020860135965060408601359560600135945092505050565b6000602082840312156146b657600080fd5b5035919050565b600082601f8301126146ce57600080fd5b8135602067ffffffffffffffff8211156146ea576146ea6144da565b8160051b6146f98282016144f0565b928352848101820192828101908785111561471357600080fd5b83870192505b8483101561473257823582529183019190830190614719565b979650505050505050565b600080600080600060a0868803121561475557600080fd5b85356147608161429d565b945060208601356147708161429d565b9350604086013567ffffffffffffffff8082111561478d57600080fd5b61479989838a016146bd565b945060608801359150808211156147af57600080fd5b6147bb89838a016146bd565b935060808801359150808211156147d157600080fd5b506147de88828901614521565b9150509295509295909350565b600080600080600060a0868803121561480357600080fd5b853561480e8161429d565b94506020860135935060408601356148258161429d565b94979396509394606081013594506080013592915050565b600080600080600060a0868803121561485557600080fd5b85356148608161429d565b945060208601356148708161429d565b93506040860135925060608601359150608086013567ffffffffffffffff81111561489a57600080fd5b6147de88828901614521565b600080600080608085870312156148bc57600080fd5b84356148c78161429d565b9350602085013592506148dc6040860161447b565b9396929550929360600135925050565b602080825260139082015272139bc81059191c995cdcc810dbdb9d1c9858dd606a1b604082015260600190565b60006020828403121561492b57600080fd5b8151801515811461301657600080fd5b6020808252600c908201526b139bdd0815995c9a599a595960a21b604082015260600190565b634e487b7160e01b600052603260045260246000fd5b634e487b7160e01b600052601160045260246000fd5b600082198211156149a0576149a0614977565b500190565b60006000198214156149b9576149b9614977565b5060010190565b6000828210156149d2576149d2614977565b500390565b6020808252602c908201527f46756e6374696f6e206d7573742062652063616c6c6564207468726f7567682060408201526b19195b1959d85d1958d85b1b60a21b606082015260800190565b6020808252602c908201527f46756e6374696f6e206d7573742062652063616c6c6564207468726f7567682060408201526b6163746976652070726f787960a01b606082015260800190565b6000816000190483118215151615614a8957614a89614977565b500290565b604080825283519082018190526000906020906060840190828701845b82811015614ad05781516001600160a01b031684529284019290840190600101614aab565b5050506001600160a01b039490941692019190915250919050565b600060208284031215614afd57600080fd5b5051919050565b6020808252825182820181905260009190848201906040850190845b81811015614b3c57835183529284019291840191600101614b20565b50909695505050505050565b6020808252602b908201527f496e697469616c697a61626c653a20636f6e7472616374206973206e6f74206960408201526a6e697469616c697a696e6760a81b606082015260800190565b60008060408385031215614ba657600080fd5b8251614bb18161429d565b6020939093015192949293505050565b60005b83811015614bdc578181015183820152602001614bc4565b83811115612d4c5750506000910152565b60008251614bff818460208701614bc1565b9190910192915050565b634e487b7160e01b600052603160045260246000fd5b6020815260008251806020840152614c3e816040850160208701614bc1565b601f01601f1916919091016040019291505056fe360894a13ba1a3210667c828492db98dca3e2076cc3735a920a3ca505d382bbc416464726573733a206c6f772d6c6576656c2064656c65676174652063616c6c206661696c6564a264697066735822122024b9550f8fab6d27f6f4654884be94556c10b152d6e79f7be572dfe86328e09a64736f6c63430008090033",
  "linkReferences": {
    "contracts/libraries/ArrayLibrary.sol": {
      "ArrayLibrary": [
        {
          "length": 20,
          "start": 6317
        },
        {
          "length": 20,
          "start": 8510
        },
        {
          "length": 20,
          "start": 13250
        },
        {
          "length": 20,
          "start": 13659
        },
        {
          "length": 20,
          "start": 13765
        },
        {
          "length": 20,
          "start": 13873
        },
        {
          "length": 20,
          "start": 15567
        }
      ]
    }
  },
  "deployedLinkReferences": {
    "contracts/libraries/ArrayLibrary.sol": {
      "ArrayLibrary": [
        {
          "length": 20,
          "start": 6241
        },
        {
          "length": 20,
          "start": 8434
        },
        {
          "length": 20,
          "start": 13174
        },
        {
          "length": 20,
          "start": 13583
        },
        {
          "length": 20,
          "start": 13689
        },
        {
          "length": 20,
          "start": 13797
        },
        {
          "length": 20,
          "start": 15491
        }
      ]
    }
  }
}