{
  "_format": "hh-sol-artifact-1",
  "contractName": "CalculateRewardLib",
  "sourceName": "contracts/mocks/Spark/libraries/CalculateRewardLib.sol",
  "abi": [
    {
      "inputs": [
        {
          "internalType": "uint256",
          "name": "totalRewardRate",
          "type": "uint256"
        },
        {
          "internalType": "uint256",
          "name": "timeDuration",
          "type": "uint256"
        },
        {
          "internalType": "uint256",
          "name": "totalStakedBalance",
          "type": "uint256"
        }
      ],
      "name": "calcStakingReturn",
      "outputs": [
        {
          "internalType": "uint256",
          "name": "",
          "type": "uint256"
        }
      ],
      "stateMutability": "pure",
      "type": "function"
    },
    {
      "inputs": [],
      "name": "dexDecimal",
      "outputs": [
        {
          "internalType": "uint256",
          "name": "",
          "type": "uint256"
        }
      ],
      "stateMutability": "view",
      "type": "function"
    }
  ],
  "bytecode": "0x61042861003a600b82828239805160001a60731461002d57634e487b7160e01b600052600060045260246000fd5b30600052607381538281f3fe730000000000000000000000000000000000000000301460806040526004361061004b5760003560e01c806359cd3e0a14610050578063a47a0bc114610075578063ce61df1614610088575b600080fd5b61006361005e366004610234565b610090565b60405190815260200160405180910390f35b61006361008336600461024d565b6100cb565b610063600881565b80546000906100a157506000919050565b6007820154600090610100900460ff166100c55782546100c2908290610204565b90505b92915050565b60006301e13380816100ec6305f5e1006100e6600285610373565b90610210565b905060006101026113886100e685818a8c610210565b905060006101216113886100e661011a600288610373565b8b90610210565b90506000610149600661014361013860028d610373565b6100e660028d610373565b9061021c565b9050600061016d6002610143886100e660028f6101669190610373565b8e90610210565b90506000610191600361014361018460028b610373565b60028f6100e69190610373565b905060006101ab826101a586818b8b610204565b90610204565b90506101c1836101bb8388610228565b90610228565b90506101d18b6100e6838f610210565b90506101f464e8d4a510006101436101ea60038c610373565b610143858f610210565b9c9b505050505050505050505050565b60006100c28284610382565b60006100c2828461039a565b60006100c282846103b9565b60006100c282846103db565b60006020828403121561024657600080fd5b5035919050565b60008060006060848603121561026257600080fd5b505081359360208301359350604090920135919050565b634e487b7160e01b600052601160045260246000fd5b600181815b808511156102ca5781600019048211156102b0576102b0610279565b808516156102bd57918102915b93841c9390800290610294565b509250929050565b6000826102e1575060016100c5565b816102ee575060006100c5565b8160018114610304576002811461030e5761032a565b60019150506100c5565b60ff84111561031f5761031f610279565b50506001821b6100c5565b5060208310610133831016604e8410600b841016171561034d575081810a6100c5565b610357838361028f565b806000190482111561036b5761036b610279565b029392505050565b60006100c260ff8416836102d2565b6000821982111561039557610395610279565b500190565b60008160001904831182151516156103b4576103b4610279565b500290565b6000826103d657634e487b7160e01b600052601260045260246000fd5b500490565b6000828210156103ed576103ed610279565b50039056fea2646970667358221220c6c109cc7fcba841178f3f3b5b72bdb3bdbd7fdfc73c7640462513a50f1082da64736f6c63430008090033",
  "linkReferences": {},
  "deployedLinkReferences": {}
}