{
  "_format": "hh-sol-artifact-1",
  "contractName": "NFTBankStorageStructure",
  "sourceName": "contracts/mocks/Spark/Claim/NFTBankStorageStructure.sol",
  "abi": [
    {
      "anonymous": false,
      "inputs": [
        {
          "indexed": false,
          "internalType": "uint8",
          "name": "version",
          "type": "uint8"
        }
      ],
      "name": "Initialized",
      "type": "event"
    },
    {
      "anonymous": false,
      "inputs": [
        {
          "indexed": true,
          "internalType": "address",
          "name": "previousOwner",
          "type": "address"
        },
        {
          "indexed": true,
          "internalType": "address",
          "name": "newOwner",
          "type": "address"
        }
      ],
      "name": "OwnershipTransferred",
      "type": "event"
    },
    {
      "inputs": [],
      "name": "bankType",
      "outputs": [
        {
          "internalType": "string",
          "name": "",
          "type": "string"
        }
      ],
      "stateMutability": "view",
      "type": "function"
    },
    {
      "inputs": [],
      "name": "erc1155",
      "outputs": [
        {
          "internalType": "uint256",
          "name": "",
          "type": "uint256"
        }
      ],
      "stateMutability": "view",
      "type": "function"
    },
    {
      "inputs": [],
      "name": "erc721",
      "outputs": [
        {
          "internalType": "uint256",
          "name": "",
          "type": "uint256"
        }
      ],
      "stateMutability": "view",
      "type": "function"
    },
    {
      "inputs": [],
      "name": "isDeleted",
      "outputs": [
        {
          "internalType": "bool",
          "name": "",
          "type": "bool"
        }
      ],
      "stateMutability": "view",
      "type": "function"
    },
    {
      "inputs": [],
      "name": "isLocked",
      "outputs": [
        {
          "internalType": "bool",
          "name": "",
          "type": "bool"
        }
      ],
      "stateMutability": "view",
      "type": "function"
    },
    {
      "inputs": [],
      "name": "isNFTScheduleSettled",
      "outputs": [
        {
          "internalType": "bool",
          "name": "",
          "type": "bool"
        }
      ],
      "stateMutability": "view",
      "type": "function"
    },
    {
      "inputs": [],
      "name": "nftBankImplementation",
      "outputs": [
        {
          "internalType": "address",
          "name": "",
          "type": "address"
        }
      ],
      "stateMutability": "view",
      "type": "function"
    },
    {
      "inputs": [
        {
          "internalType": "address",
          "name": "",
          "type": "address"
        }
      ],
      "name": "nftRecipients",
      "outputs": [
        {
          "internalType": "bool",
          "name": "isWinner",
          "type": "bool"
        },
        {
          "internalType": "bool",
          "name": "didNFTwithdrawn",
          "type": "bool"
        },
        {
          "internalType": "uint256",
          "name": "nftID",
          "type": "uint256"
        }
      ],
      "stateMutability": "view",
      "type": "function"
    },
    {
      "inputs": [],
      "name": "nftScheduleStartDate",
      "outputs": [
        {
          "internalType": "uint256",
          "name": "",
          "type": "uint256"
        }
      ],
      "stateMutability": "view",
      "type": "function"
    },
    {
      "inputs": [],
      "name": "nftToken",
      "outputs": [
        {
          "internalType": "address",
          "name": "",
          "type": "address"
        }
      ],
      "stateMutability": "view",
      "type": "function"
    },
    {
      "inputs": [],
      "name": "nftType",
      "outputs": [
        {
          "internalType": "uint256",
          "name": "",
          "type": "uint256"
        }
      ],
      "stateMutability": "view",
      "type": "function"
    },
    {
      "inputs": [
        {
          "internalType": "address",
          "name": "",
          "type": "address"
        },
        {
          "internalType": "address",
          "name": "",
          "type": "address"
        },
        {
          "internalType": "uint256[]",
          "name": "",
          "type": "uint256[]"
        },
        {
          "internalType": "uint256[]",
          "name": "",
          "type": "uint256[]"
        },
        {
          "internalType": "bytes",
          "name": "",
          "type": "bytes"
        }
      ],
      "name": "onERC1155BatchReceived",
      "outputs": [
        {
          "internalType": "bytes4",
          "name": "",
          "type": "bytes4"
        }
      ],
      "stateMutability": "nonpayable",
      "type": "function"
    },
    {
      "inputs": [
        {
          "internalType": "address",
          "name": "",
          "type": "address"
        },
        {
          "internalType": "address",
          "name": "",
          "type": "address"
        },
        {
          "internalType": "uint256",
          "name": "",
          "type": "uint256"
        },
        {
          "internalType": "uint256",
          "name": "",
          "type": "uint256"
        },
        {
          "internalType": "bytes",
          "name": "",
          "type": "bytes"
        }
      ],
      "name": "onERC1155Received",
      "outputs": [
        {
          "internalType": "bytes4",
          "name": "",
          "type": "bytes4"
        }
      ],
      "stateMutability": "nonpayable",
      "type": "function"
    },
    {
      "inputs": [
        {
          "internalType": "address",
          "name": "",
          "type": "address"
        },
        {
          "internalType": "address",
          "name": "",
          "type": "address"
        },
        {
          "internalType": "uint256",
          "name": "",
          "type": "uint256"
        },
        {
          "internalType": "bytes",
          "name": "",
          "type": "bytes"
        }
      ],
      "name": "onERC721Received",
      "outputs": [
        {
          "internalType": "bytes4",
          "name": "",
          "type": "bytes4"
        }
      ],
      "stateMutability": "nonpayable",
      "type": "function"
    },
    {
      "inputs": [],
      "name": "owner",
      "outputs": [
        {
          "internalType": "address",
          "name": "",
          "type": "address"
        }
      ],
      "stateMutability": "view",
      "type": "function"
    },
    {
      "inputs": [],
      "name": "poolCreator",
      "outputs": [
        {
          "internalType": "address",
          "name": "",
          "type": "address"
        }
      ],
      "stateMutability": "view",
      "type": "function"
    },
    {
      "inputs": [],
      "name": "renounceOwnership",
      "outputs": [],
      "stateMutability": "nonpayable",
      "type": "function"
    },
    {
      "inputs": [
        {
          "internalType": "bytes4",
          "name": "interfaceId",
          "type": "bytes4"
        }
      ],
      "name": "supportsInterface",
      "outputs": [
        {
          "internalType": "bool",
          "name": "",
          "type": "bool"
        }
      ],
      "stateMutability": "view",
      "type": "function"
    },
    {
      "inputs": [
        {
          "internalType": "address",
          "name": "newOwner",
          "type": "address"
        }
      ],
      "name": "transferOwnership",
      "outputs": [],
      "stateMutability": "nonpayable",
      "type": "function"
    },
    {
      "inputs": [],
      "name": "upgradeEnabled",
      "outputs": [
        {
          "internalType": "bool",
          "name": "",
          "type": "bool"
        }
      ],
      "stateMutability": "view",
      "type": "function"
    },
    {
      "inputs": [
        {
          "internalType": "uint256",
          "name": "",
          "type": "uint256"
        }
      ],
      "name": "winners",
      "outputs": [
        {
          "internalType": "address",
          "name": "",
          "type": "address"
        }
      ],
      "stateMutability": "view",
      "type": "function"
    }
  ],
  "bytecode": "0x608060405234801561001057600080fd5b50610967806100206000396000f3fe608060405234801561001057600080fd5b50600436106101375760003560e01c8063a4e2d634116100b8578063c6c1decd1161007c578063c6c1decd146102d1578063d06fcba8146102e4578063d56022d7146102f7578063d7efb6b714610300578063f23a6e6114610313578063f2fde38b1461033257600080fd5b8063a4e2d63414610277578063b5e827db14610289578063bc197c8114610296578063bca6ce64146102b5578063bcb6d24e146102be57600080fd5b806382be5634116100ff57806382be56341461020d5780638cf0e21e146102165780638da5cb5b1461022a578063a2fb11751461024f578063a363b2141461026257600080fd5b806301ffc9a71461013c578063150b7a02146101645780632fa7c4f01461019b5780636fac889b146101ec578063715018a614610203575b600080fd5b61014f61014a366004610572565b610345565b60405190151581526020015b60405180910390f35b610182610172366004610676565b630a85bd0160e11b949350505050565b6040516001600160e01b0319909116815260200161015b565b6101cf6101a93660046106de565b6068602052600090815260409020805460019091015460ff808316926101009004169083565b60408051931515845291151560208401529082015260600161015b565b6101f5606a5481565b60405190815260200161015b565b61020b61037c565b005b6101f5606c5481565b606d5461014f906301000000900460ff1681565b6033546001600160a01b03165b6040516001600160a01b03909116815260200161015b565b61023761025d3660046106f9565b610390565b61026a6103ba565b60405161015b9190610712565b606d5461014f90610100900460ff1681565b606d5461014f9060ff1681565b6101826102a43660046107e7565b63bc197c8160e01b95945050505050565b6101f56102d181565b606554610237906001600160a01b031681565b606654610237906001600160a01b031681565b606954610237906001600160a01b031681565b6101f561048381565b606d5461014f9062010000900460ff1681565b610182610321366004610891565b63f23a6e6160e01b95945050505050565b61020b6103403660046106de565b610448565b60006001600160e01b03198216630271189760e51b148061037657506301ffc9a760e01b6001600160e01b03198316145b92915050565b6103846104c6565b61038e6000610520565b565b606781815481106103a057600080fd5b6000918252602090912001546001600160a01b0316905081565b606b80546103c7906108f6565b80601f01602080910402602001604051908101604052809291908181526020018280546103f3906108f6565b80156104405780601f1061041557610100808354040283529160200191610440565b820191906000526020600020905b81548152906001019060200180831161042357829003601f168201915b505050505081565b6104506104c6565b6001600160a01b0381166104ba5760405162461bcd60e51b815260206004820152602660248201527f4f776e61626c653a206e6577206f776e657220697320746865207a65726f206160448201526564647265737360d01b60648201526084015b60405180910390fd5b6104c381610520565b50565b6033546001600160a01b0316331461038e5760405162461bcd60e51b815260206004820181905260248201527f4f776e61626c653a2063616c6c6572206973206e6f7420746865206f776e657260448201526064016104b1565b603380546001600160a01b038381166001600160a01b0319831681179093556040519116919082907f8be0079c531659141344cd1fd0a4f28419497f9722a3daafe3b4186f6b6457e090600090a35050565b60006020828403121561058457600080fd5b81356001600160e01b03198116811461059c57600080fd5b9392505050565b80356001600160a01b03811681146105ba57600080fd5b919050565b634e487b7160e01b600052604160045260246000fd5b604051601f8201601f1916810167ffffffffffffffff811182821017156105fe576105fe6105bf565b604052919050565b600082601f83011261061757600080fd5b813567ffffffffffffffff811115610631576106316105bf565b610644601f8201601f19166020016105d5565b81815284602083860101111561065957600080fd5b816020850160208301376000918101602001919091529392505050565b6000806000806080858703121561068c57600080fd5b610695856105a3565b93506106a3602086016105a3565b925060408501359150606085013567ffffffffffffffff8111156106c657600080fd5b6106d287828801610606565b91505092959194509250565b6000602082840312156106f057600080fd5b61059c826105a3565b60006020828403121561070b57600080fd5b5035919050565b600060208083528351808285015260005b8181101561073f57858101830151858201604001528201610723565b81811115610751576000604083870101525b50601f01601f1916929092016040019392505050565b600082601f83011261077857600080fd5b8135602067ffffffffffffffff821115610794576107946105bf565b8160051b6107a38282016105d5565b92835284810182019282810190878511156107bd57600080fd5b83870192505b848310156107dc578235825291830191908301906107c3565b979650505050505050565b600080600080600060a086880312156107ff57600080fd5b610808866105a3565b9450610816602087016105a3565b9350604086013567ffffffffffffffff8082111561083357600080fd5b61083f89838a01610767565b9450606088013591508082111561085557600080fd5b61086189838a01610767565b9350608088013591508082111561087757600080fd5b5061088488828901610606565b9150509295509295909350565b600080600080600060a086880312156108a957600080fd5b6108b2866105a3565b94506108c0602087016105a3565b93506040860135925060608601359150608086013567ffffffffffffffff8111156108ea57600080fd5b61088488828901610606565b600181811c9082168061090a57607f821691505b6020821081141561092b57634e487b7160e01b600052602260045260246000fd5b5091905056fea26469706673582212208400a3e341c61057511aae532cd32f59492f7728202f2580489031a8c3fbe52064736f6c63430008090033",
  "linkReferences": {},
  "deployedLinkReferences": {}
}