{
  "_format": "hh-sol-artifact-1",
  "contractName": "PredictionNumber",
  "sourceName": "contracts/mocks/Spark/libraries/PredictionNumber.sol",
  "abi": [
    {
      "inputs": [
        {
          "internalType": "uint256[6]",
          "name": "_newPredictionRanges",
          "type": "uint256[6]"
        }
      ],
      "stateMutability": "nonpayable",
      "type": "constructor"
    },
    {
      "anonymous": false,
      "inputs": [
        {
          "indexed": true,
          "internalType": "address",
          "name": "previousOwner",
          "type": "address"
        },
        {
          "indexed": true,
          "internalType": "address",
          "name": "newOwner",
          "type": "address"
        }
      ],
      "name": "OwnershipTransferred",
      "type": "event"
    },
    {
      "anonymous": false,
      "inputs": [
        {
          "indexed": false,
          "internalType": "uint256[6]",
          "name": "newRanges",
          "type": "uint256[6]"
        }
      ],
      "name": "PredictionRangeSettled",
      "type": "event"
    },
    {
      "inputs": [
        {
          "internalType": "uint256",
          "name": "_amount",
          "type": "uint256"
        }
      ],
      "name": "getNumberOfPredictions",
      "outputs": [
        {
          "internalType": "uint256",
          "name": "",
          "type": "uint256"
        }
      ],
      "stateMutability": "view",
      "type": "function"
    },
    {
      "inputs": [],
      "name": "owner",
      "outputs": [
        {
          "internalType": "address",
          "name": "",
          "type": "address"
        }
      ],
      "stateMutability": "view",
      "type": "function"
    },
    {
      "inputs": [
        {
          "internalType": "uint256",
          "name": "",
          "type": "uint256"
        }
      ],
      "name": "predictionRanges",
      "outputs": [
        {
          "internalType": "uint256",
          "name": "",
          "type": "uint256"
        }
      ],
      "stateMutability": "view",
      "type": "function"
    },
    {
      "inputs": [],
      "name": "renounceOwnership",
      "outputs": [],
      "stateMutability": "nonpayable",
      "type": "function"
    },
    {
      "inputs": [
        {
          "internalType": "uint256[6]",
          "name": "_newPredictionRanges",
          "type": "uint256[6]"
        }
      ],
      "name": "setNewPredictionLimits",
      "outputs": [],
      "stateMutability": "nonpayable",
      "type": "function"
    },
    {
      "inputs": [
        {
          "internalType": "address",
          "name": "newOwner",
          "type": "address"
        }
      ],
      "name": "transferOwnership",
      "outputs": [],
      "stateMutability": "nonpayable",
      "type": "function"
    }
  ],
  "bytecode": "0x608060405234801561001057600080fd5b5060405161077538038061077583398101604081905261002f91610127565b61003833610084565b61004560018260066100d4565b507fc5e6d43565993002c4a6a0d1e2657e107c635fd5aa2e363aebed956882d57a6d600160405161007691906101b2565b60405180910390a1506101e3565b600080546001600160a01b038381166001600160a01b0319831681178455604051919092169283917f8be0079c531659141344cd1fd0a4f28419497f9722a3daafe3b4186f6b6457e09190a35050565b8260068101928215610102579160200282015b828111156101025782518255916020019190600101906100e7565b5061010e929150610112565b5090565b5b8082111561010e5760008155600101610113565b600060c0828403121561013957600080fd5b82601f83011261014857600080fd5b60405160c081016001600160401b038111828210171561017857634e487b7160e01b600052604160045260246000fd5b6040528060c084018581111561018d57600080fd5b845b818110156101a757805183526020928301920161018f565b509195945050505050565b60c08101818360005b60068110156101da5781548352602090920191600191820191016101bb565b50505092915050565b610583806101f26000396000f3fe608060405234801561001057600080fd5b50600436106100625760003560e01c806308813b7614610067578063715018a61461008d5780638da5cb5b14610097578063c81f78c8146100b2578063df1788cf146100c5578063f2fde38b146100d8575b600080fd5b61007a610075366004610406565b6100eb565b6040519081526020015b60405180910390f35b610095610102565b005b6000546040516001600160a01b039091168152602001610084565b6100956100c036600461041f565b610116565b61007a6100d3366004610406565b610167565b6100956100e63660046104ab565b610278565b600181600681106100fb57600080fd5b0154905081565b61010a6102f6565b6101146000610350565b565b61011e6102f6565b61012b60018260066103b3565b507fc5e6d43565993002c4a6a0d1e2657e107c635fd5aa2e363aebed956882d57a6d600160405161015c91906104d4565b60405180910390a150565b60015460025460009190829061017d9083610505565b905060006001600201546101919083610505565b905060006001600301546101a59083610505565b905060006001600401546101b99083610505565b905060006001600501546101cd9083610505565b9050858810156101e557506001979650505050505050565b848810156101fb57506002979650505050505050565b8388101561021157506003979650505050505050565b8288101561022757506004979650505050505050565b8188101561023d57506005979650505050505050565b8088101561025357506006979650505050505050565b6006546102619089906103a0565b61026c906001610505565b98975050505050505050565b6102806102f6565b6001600160a01b0381166102ea5760405162461bcd60e51b815260206004820152602660248201527f4f776e61626c653a206e6577206f776e657220697320746865207a65726f206160448201526564647265737360d01b60648201526084015b60405180910390fd5b6102f381610350565b50565b6000546001600160a01b031633146101145760405162461bcd60e51b815260206004820181905260248201527f4f776e61626c653a2063616c6c6572206973206e6f7420746865206f776e657260448201526064016102e1565b600080546001600160a01b038381166001600160a01b0319831681178455604051919092169283917f8be0079c531659141344cd1fd0a4f28419497f9722a3daafe3b4186f6b6457e09190a35050565b60006103ac828461052b565b9392505050565b82600681019282156103e1579160200282015b828111156103e15782518255916020019190600101906103c6565b506103ed9291506103f1565b5090565b5b808211156103ed57600081556001016103f2565b60006020828403121561041857600080fd5b5035919050565b600060c0828403121561043157600080fd5b82601f83011261044057600080fd5b60405160c0810181811067ffffffffffffffff8211171561047157634e487b7160e01b600052604160045260246000fd5b6040528060c084018581111561048657600080fd5b845b818110156104a0578035835260209283019201610488565b509195945050505050565b6000602082840312156104bd57600080fd5b81356001600160a01b03811681146103ac57600080fd5b60c08101818360005b60068110156104fc5781548352602090920191600191820191016104dd565b50505092915050565b6000821982111561052657634e487b7160e01b600052601160045260246000fd5b500190565b60008261054857634e487b7160e01b600052601260045260246000fd5b50049056fea264697066735822122052ace8876bac333487b82a90de532dd3a28126b5c0339bdee6163a58d559ddb964736f6c63430008090033",
  "linkReferences": {},
  "deployedLinkReferences": {}
}