{
  "_format": "hh-sol-artifact-1",
  "contractName": "NFTBankImplementation",
  "sourceName": "contracts/mocks/Spark/Claim/NFTBankImplementation.sol",
  "abi": [
    {
      "anonymous": false,
      "inputs": [
        {
          "indexed": false,
          "internalType": "uint8",
          "name": "version",
          "type": "uint8"
        }
      ],
      "name": "Initialized",
      "type": "event"
    },
    {
      "anonymous": false,
      "inputs": [
        {
          "indexed": true,
          "internalType": "address",
          "name": "previousOwner",
          "type": "address"
        },
        {
          "indexed": true,
          "internalType": "address",
          "name": "newOwner",
          "type": "address"
        }
      ],
      "name": "OwnershipTransferred",
      "type": "event"
    },
    {
      "anonymous": false,
      "inputs": [],
      "name": "PoolDeleted",
      "type": "event"
    },
    {
      "anonymous": false,
      "inputs": [],
      "name": "PoolLocked",
      "type": "event"
    },
    {
      "anonymous": false,
      "inputs": [],
      "name": "PoolSorted",
      "type": "event"
    },
    {
      "anonymous": false,
      "inputs": [],
      "name": "PoolUnLocked",
      "type": "event"
    },
    {
      "anonymous": false,
      "inputs": [
        {
          "indexed": true,
          "internalType": "address",
          "name": "user",
          "type": "address"
        },
        {
          "indexed": false,
          "internalType": "uint256",
          "name": "nftID",
          "type": "uint256"
        }
      ],
      "name": "WithdrawNFT",
      "type": "event"
    },
    {
      "inputs": [],
      "name": "bankType",
      "outputs": [
        {
          "internalType": "string",
          "name": "",
          "type": "string"
        }
      ],
      "stateMutability": "view",
      "type": "function"
    },
    {
      "inputs": [],
      "name": "claimNFT",
      "outputs": [],
      "stateMutability": "nonpayable",
      "type": "function"
    },
    {
      "inputs": [],
      "name": "deletePool",
      "outputs": [],
      "stateMutability": "nonpayable",
      "type": "function"
    },
    {
      "inputs": [],
      "name": "erc1155",
      "outputs": [
        {
          "internalType": "uint256",
          "name": "",
          "type": "uint256"
        }
      ],
      "stateMutability": "view",
      "type": "function"
    },
    {
      "inputs": [],
      "name": "erc721",
      "outputs": [
        {
          "internalType": "uint256",
          "name": "",
          "type": "uint256"
        }
      ],
      "stateMutability": "view",
      "type": "function"
    },
    {
      "inputs": [],
      "name": "getWinners",
      "outputs": [
        {
          "internalType": "address[]",
          "name": "",
          "type": "address[]"
        }
      ],
      "stateMutability": "view",
      "type": "function"
    },
    {
      "inputs": [],
      "name": "isDeleted",
      "outputs": [
        {
          "internalType": "bool",
          "name": "",
          "type": "bool"
        }
      ],
      "stateMutability": "view",
      "type": "function"
    },
    {
      "inputs": [],
      "name": "isLocked",
      "outputs": [
        {
          "internalType": "bool",
          "name": "",
          "type": "bool"
        }
      ],
      "stateMutability": "view",
      "type": "function"
    },
    {
      "inputs": [],
      "name": "isNFTScheduleSettled",
      "outputs": [
        {
          "internalType": "bool",
          "name": "",
          "type": "bool"
        }
      ],
      "stateMutability": "view",
      "type": "function"
    },
    {
      "inputs": [],
      "name": "lockPool",
      "outputs": [],
      "stateMutability": "nonpayable",
      "type": "function"
    },
    {
      "inputs": [],
      "name": "nftBankImplementation",
      "outputs": [
        {
          "internalType": "address",
          "name": "",
          "type": "address"
        }
      ],
      "stateMutability": "view",
      "type": "function"
    },
    {
      "inputs": [
        {
          "internalType": "address",
          "name": "",
          "type": "address"
        }
      ],
      "name": "nftRecipients",
      "outputs": [
        {
          "internalType": "bool",
          "name": "isWinner",
          "type": "bool"
        },
        {
          "internalType": "bool",
          "name": "didNFTwithdrawn",
          "type": "bool"
        },
        {
          "internalType": "uint256",
          "name": "nftID",
          "type": "uint256"
        }
      ],
      "stateMutability": "view",
      "type": "function"
    },
    {
      "inputs": [],
      "name": "nftScheduleStartDate",
      "outputs": [
        {
          "internalType": "uint256",
          "name": "",
          "type": "uint256"
        }
      ],
      "stateMutability": "view",
      "type": "function"
    },
    {
      "inputs": [],
      "name": "nftToken",
      "outputs": [
        {
          "internalType": "address",
          "name": "",
          "type": "address"
        }
      ],
      "stateMutability": "view",
      "type": "function"
    },
    {
      "inputs": [],
      "name": "nftType",
      "outputs": [
        {
          "internalType": "uint256",
          "name": "",
          "type": "uint256"
        }
      ],
      "stateMutability": "view",
      "type": "function"
    },
    {
      "inputs": [
        {
          "internalType": "address",
          "name": "",
          "type": "address"
        },
        {
          "internalType": "address",
          "name": "",
          "type": "address"
        },
        {
          "internalType": "uint256[]",
          "name": "",
          "type": "uint256[]"
        },
        {
          "internalType": "uint256[]",
          "name": "",
          "type": "uint256[]"
        },
        {
          "internalType": "bytes",
          "name": "",
          "type": "bytes"
        }
      ],
      "name": "onERC1155BatchReceived",
      "outputs": [
        {
          "internalType": "bytes4",
          "name": "",
          "type": "bytes4"
        }
      ],
      "stateMutability": "nonpayable",
      "type": "function"
    },
    {
      "inputs": [
        {
          "internalType": "address",
          "name": "",
          "type": "address"
        },
        {
          "internalType": "address",
          "name": "",
          "type": "address"
        },
        {
          "internalType": "uint256",
          "name": "",
          "type": "uint256"
        },
        {
          "internalType": "uint256",
          "name": "",
          "type": "uint256"
        },
        {
          "internalType": "bytes",
          "name": "",
          "type": "bytes"
        }
      ],
      "name": "onERC1155Received",
      "outputs": [
        {
          "internalType": "bytes4",
          "name": "",
          "type": "bytes4"
        }
      ],
      "stateMutability": "nonpayable",
      "type": "function"
    },
    {
      "inputs": [
        {
          "internalType": "address",
          "name": "",
          "type": "address"
        },
        {
          "internalType": "address",
          "name": "",
          "type": "address"
        },
        {
          "internalType": "uint256",
          "name": "",
          "type": "uint256"
        },
        {
          "internalType": "bytes",
          "name": "",
          "type": "bytes"
        }
      ],
      "name": "onERC721Received",
      "outputs": [
        {
          "internalType": "bytes4",
          "name": "",
          "type": "bytes4"
        }
      ],
      "stateMutability": "nonpayable",
      "type": "function"
    },
    {
      "inputs": [],
      "name": "owner",
      "outputs": [
        {
          "internalType": "address",
          "name": "",
          "type": "address"
        }
      ],
      "stateMutability": "view",
      "type": "function"
    },
    {
      "inputs": [],
      "name": "poolCreator",
      "outputs": [
        {
          "internalType": "address",
          "name": "",
          "type": "address"
        }
      ],
      "stateMutability": "view",
      "type": "function"
    },
    {
      "inputs": [
        {
          "internalType": "address[]",
          "name": "addrArray",
          "type": "address[]"
        }
      ],
      "name": "removeWinners",
      "outputs": [],
      "stateMutability": "nonpayable",
      "type": "function"
    },
    {
      "inputs": [],
      "name": "renounceOwnership",
      "outputs": [],
      "stateMutability": "nonpayable",
      "type": "function"
    },
    {
      "inputs": [
        {
          "internalType": "address[]",
          "name": "_addrArray",
          "type": "address[]"
        },
        {
          "internalType": "uint256[]",
          "name": "_idArray",
          "type": "uint256[]"
        }
      ],
      "name": "setWinners",
      "outputs": [],
      "stateMutability": "nonpayable",
      "type": "function"
    },
    {
      "inputs": [
        {
          "internalType": "bytes4",
          "name": "interfaceId",
          "type": "bytes4"
        }
      ],
      "name": "supportsInterface",
      "outputs": [
        {
          "internalType": "bool",
          "name": "",
          "type": "bool"
        }
      ],
      "stateMutability": "view",
      "type": "function"
    },
    {
      "inputs": [
        {
          "internalType": "address",
          "name": "newOwner",
          "type": "address"
        }
      ],
      "name": "transferOwnership",
      "outputs": [],
      "stateMutability": "nonpayable",
      "type": "function"
    },
    {
      "inputs": [
        {
          "internalType": "uint256",
          "name": "_nftType",
          "type": "uint256"
        }
      ],
      "name": "updateNFTType",
      "outputs": [],
      "stateMutability": "nonpayable",
      "type": "function"
    },
    {
      "inputs": [],
      "name": "upgradeEnabled",
      "outputs": [
        {
          "internalType": "bool",
          "name": "",
          "type": "bool"
        }
      ],
      "stateMutability": "view",
      "type": "function"
    },
    {
      "inputs": [
        {
          "internalType": "uint256",
          "name": "",
          "type": "uint256"
        }
      ],
      "name": "winners",
      "outputs": [
        {
          "internalType": "address",
          "name": "",
          "type": "address"
        }
      ],
      "stateMutability": "view",
      "type": "function"
    },
    {
      "inputs": [
        {
          "internalType": "address",
          "name": "_stuckToken",
          "type": "address"
        },
        {
          "internalType": "address",
          "name": "_receiver",
          "type": "address"
        },
        {
          "internalType": "uint256",
          "name": "_id",
          "type": "uint256"
        },
        {
          "internalType": "uint256",
          "name": "_amount",
          "type": "uint256"
        },
        {
          "internalType": "bytes",
          "name": "_data",
          "type": "bytes"
        }
      ],
      "name": "withdrawStuckERC1155NFTs",
      "outputs": [],
      "stateMutability": "nonpayable",
      "type": "function"
    },
    {
      "inputs": [
        {
          "internalType": "address",
          "name": "_stuckToken",
          "type": "address"
        },
        {
          "internalType": "address",
          "name": "_receiver",
          "type": "address"
        },
        {
          "internalType": "uint256",
          "name": "_id",
          "type": "uint256"
        }
      ],
      "name": "withdrawStuckERC721NFTs",
      "outputs": [],
      "stateMutability": "nonpayable",
      "type": "function"
    },
    {
      "inputs": [
        {
          "internalType": "address",
          "name": "_stuckToken",
          "type": "address"
        },
        {
          "internalType": "address",
          "name": "_receiver",
          "type": "address"
        },
        {
          "internalType": "uint256",
          "name": "_amount",
          "type": "uint256"
        }
      ],
      "name": "withdrawStuckTokens",
      "outputs": [],
      "stateMutability": "nonpayable",
      "type": "function"
    }
  ],
  "bytecode": "0x608060405234801561001057600080fd5b506117e1806100206000396000f3fe608060405234801561001057600080fd5b50600436106101e55760003560e01c8063a363b2141161010f578063d56022d7116100a2578063efd6dce911610071578063efd6dce91461043a578063f23a6e611461044d578063f2fde38b1461046c578063fdff785c1461047f57600080fd5b8063d56022d7146103f6578063d7efb6b7146103ff578063df15c37e14610412578063dff2cec91461042757600080fd5b8063bca6ce64116100de578063bca6ce64146103b4578063bcb6d24e146103bd578063c6c1decd146103d0578063d06fcba8146103e357600080fd5b8063a363b21414610361578063a4e2d63414610376578063b5e827db14610388578063bc197c811461039557600080fd5b80636fac889b116101875780638bfbbcbe116101565780638bfbbcbe1461030d5780638cf0e21e146103155780638da5cb5b14610329578063a2fb11751461034e57600080fd5b80636fac889b146102d2578063715018a6146102e957806379192c85146102f157806382be56341461030457600080fd5b80632fa7c4f0116101c35780632fa7c4f01461025e5780634026478e146102af57806365e6b7df146102b7578063672756ad146102ca57600080fd5b806301ffc9a7146101ea578063061b117914610212578063150b7a0214610227575b600080fd5b6101fd6101f8366004611188565b610492565b60405190151581526020015b60405180910390f35b6102256102203660046111b9565b6104c9565b005b6102456102353660046112a5565b630a85bd0160e11b949350505050565b6040516001600160e01b03199091168152602001610209565b61029261026c36600461130d565b6068602052600090815260409020805460019091015460ff808316926101009004169083565b604080519315158452911515602084015290820152606001610209565b610225610567565b6102256102c5366004611374565b6105d4565b610225610792565b6102db606a5481565b604051908152602001610209565b61022561094f565b6102256102ff3660046113b6565b610963565b6102db606c5481565b610225610be7565b606d546101fd906301000000900460ff1681565b6033546001600160a01b03165b6040516001600160a01b039091168152602001610209565b61033661035c3660046111b9565b610c56565b610369610c80565b604051610209919061146f565b606d546101fd90610100900460ff1681565b606d546101fd9060ff1681565b6102456103a3366004611502565b63bc197c8160e01b95945050505050565b6102db6102d181565b606554610336906001600160a01b031681565b606654610336906001600160a01b031681565b606954610336906001600160a01b031681565b6102db61048381565b606d546101fd9062010000900460ff1681565b61041a610d0e565b60405161020991906115ac565b6102256104353660046115f9565b610ddb565b610225610448366004611635565b610e19565b61024561045b366004611635565b63f23a6e6160e01b95945050505050565b61022561047a36600461130d565b610e60565b61022561048d3660046115f9565b610ed6565b60006001600160e01b03198216630271189760e51b14806104c357506301ffc9a760e01b6001600160e01b03198316145b92915050565b6066546001600160a01b0316336001600160a01b0316146105055760405162461bcd60e51b81526004016104fc9061169a565b60405180910390fd5b6102d1811480610516575061048381145b6105625760405162461bcd60e51b815260206004820152601b60248201527f30333032206f6e6c792037323120616e6420313135352045524373000000000060448201526064016104fc565b606a55565b6066546001600160a01b0316336001600160a01b03161461059a5760405162461bcd60e51b81526004016104fc9061169a565b606d805461ff0019166101001790556040517f2e136745550967f28b779ce8c395ca060a2f844edfb5b06631fe677f66f9e30590600090a1565b6066546001600160a01b0316336001600160a01b0316146106075760405162461bcd60e51b81526004016104fc9061169a565b606d5460ff16158061061a5750606c5442105b6106605760405162461bcd60e51b81526020600482015260176024820152760c0d8dcd481cdd185c9d0819185d19481c995858da1959604a1b60448201526064016104fc565b606754156106745761067460676000611156565b60005b81811015610764576000838383818110610693576106936116db565b90506020020160208101906106a8919061130d565b6001600160a01b031614156106bc57610764565b60408051606081018252600080825260208201819052918101829052906068908585858181106106ee576106ee6116db565b9050602002016020810190610703919061130d565b6001600160a01b031681526020808201929092526040908101600020835181549385015161ffff1990941690151561ff001916176101009315159390930292909217825591909101516001909101558061075c816116f1565b915050610677565b506040517f9331b2a38c658c57a39ea19b2709d928c28a12cc8fbb838d12b85148550f937d90600090a15050565b606d54610100900460ff16156107e05760405162461bcd60e51b81526020600482015260136024820152720c0d8dcc081c1bdbdb081a5cc81b1bd8dad959606a1b60448201526064016104fc565b606c544210156108325760405162461bcd60e51b815260206004820152601d60248201527f3036373520737461727420646174652069736e2774207265616368656400000060448201526064016104fc565b336000908152606860209081526040918290208251606081018452815460ff808216151580845261010090920416151593820193909352600190910154928101929092526108c25760405162461bcd60e51b815260206004820152601e60248201527f30363731206f6e6c792077696e6e6572732063616e207075726368617365000060448201526064016104fc565b806020015161094c576102d1606a5414156108fb576108e033610f8e565b6069546108fb906001600160a01b0316338360400151610fc9565b610483606a54141561094c57604080518082019091526002815261060f60f31b602082015260019061092c33610f8e565b606954610949906001600160a01b0316338560400151858561103a565b50505b50565b6109576110aa565b6109616000611104565b565b6066546001600160a01b0316336001600160a01b0316146109965760405162461bcd60e51b81526004016104fc9061169a565b606d5460ff1615806109a95750606c5442105b6109ef5760405162461bcd60e51b81526020600482015260176024820152760c0d8dcd481cdd185c9d0819185d19481c995858da1959604a1b60448201526064016104fc565b828114610a3e5760405162461bcd60e51b815260206004820152601960248201527f6172726179206c656e67746820696e636f6d70617469626c650000000000000060448201526064016104fc565b60675415610a5257610a5260676000611156565b60005b83811015610bb7576000858583818110610a7157610a716116db565b9050602002016020810190610a86919061130d565b6001600160a01b03161415610a9a57610bb7565b6067858583818110610aae57610aae6116db565b9050602002016020810190610ac3919061130d565b8154600180820184556000938452602080852090920180546001600160a01b0319166001600160a01b0394909416939093179092556040805160608101825292835290820192909252908101848484818110610b2157610b216116db565b9050602002013581525060686000878785818110610b4157610b416116db565b9050602002016020810190610b56919061130d565b6001600160a01b031681526020808201929092526040908101600020835181549385015161ffff1990941690151561ff0019161761010093151593909302929092178255919091015160019091015580610baf816116f1565b915050610a55565b506040517f5c243cc6e4f210bf2dd86b8eca0ca891d3f8ad2eb09fbf91735eb348bc199c7e90600090a150505050565b6066546001600160a01b0316336001600160a01b031614610c1a5760405162461bcd60e51b81526004016104fc9061169a565b606d805462ff00001916620100001790556040517f9331b2a38c658c57a39ea19b2709d928c28a12cc8fbb838d12b85148550f937d90600090a1565b60678181548110610c6657600080fd5b6000918252602090912001546001600160a01b0316905081565b606b8054610c8d9061171a565b80601f0160208091040260200160405190810160405280929190818152602001828054610cb99061171a565b8015610d065780601f10610cdb57610100808354040283529160200191610d06565b820191906000526020600020905b815481529060010190602001808311610ce957829003601f168201915b505050505081565b60675460609060009067ffffffffffffffff811115610d2f57610d2f6111ee565b604051908082528060200260200182016040528015610d58578160200160208202803683370190505b50905060005b606754811015610dd55760678181548110610d7b57610d7b6116db565b9060005260206000200160009054906101000a90046001600160a01b0316828281518110610dab57610dab6116db565b6001600160a01b039092166020928302919091019091015280610dcd816116f1565b915050610d5e565b50919050565b6066546001600160a01b0316336001600160a01b031614610e0e5760405162461bcd60e51b81526004016104fc9061169a565b610949838383610fc9565b6066546001600160a01b0316336001600160a01b031614610e4c5760405162461bcd60e51b81526004016104fc9061169a565b610e59858585858561103a565b5050505050565b610e686110aa565b6001600160a01b038116610ecd5760405162461bcd60e51b815260206004820152602660248201527f4f776e61626c653a206e6577206f776e657220697320746865207a65726f206160448201526564647265737360d01b60648201526084016104fc565b61094c81611104565b6066546001600160a01b0316336001600160a01b031614610f095760405162461bcd60e51b81526004016104fc9061169a565b60405163a9059cbb60e01b81526001600160a01b0383811660048301526024820183905284919082169063a9059cbb90604401602060405180830381600087803b158015610f5657600080fd5b505af1158015610f6a573d6000803e3d6000fd5b505050506040513d601f19601f82011682018060405250810190610e59919061174f565b6001600160a01b03811660009081526068602052604090208054610100900460ff1615610fb9575050565b805461ff00191661010017905550565b604051632142170760e11b81523060048201526001600160a01b038381166024830152604482018390528491908216906342842e0e90606401600060405180830381600087803b15801561101c57600080fd5b505af1158015611030573d6000803e3d6000fd5b5050505050505050565b604051637921219560e11b815285906001600160a01b0382169063f242432a906110709030908990899089908990600401611771565b600060405180830381600087803b15801561108a57600080fd5b505af115801561109e573d6000803e3d6000fd5b50505050505050505050565b6033546001600160a01b031633146109615760405162461bcd60e51b815260206004820181905260248201527f4f776e61626c653a2063616c6c6572206973206e6f7420746865206f776e657260448201526064016104fc565b603380546001600160a01b038381166001600160a01b0319831681179093556040519116919082907f8be0079c531659141344cd1fd0a4f28419497f9722a3daafe3b4186f6b6457e090600090a35050565b508054600082559060005260206000209081019061094c91905b808211156111845760008155600101611170565b5090565b60006020828403121561119a57600080fd5b81356001600160e01b0319811681146111b257600080fd5b9392505050565b6000602082840312156111cb57600080fd5b5035919050565b80356001600160a01b03811681146111e957600080fd5b919050565b634e487b7160e01b600052604160045260246000fd5b604051601f8201601f1916810167ffffffffffffffff8111828210171561122d5761122d6111ee565b604052919050565b600082601f83011261124657600080fd5b813567ffffffffffffffff811115611260576112606111ee565b611273601f8201601f1916602001611204565b81815284602083860101111561128857600080fd5b816020850160208301376000918101602001919091529392505050565b600080600080608085870312156112bb57600080fd5b6112c4856111d2565b93506112d2602086016111d2565b925060408501359150606085013567ffffffffffffffff8111156112f557600080fd5b61130187828801611235565b91505092959194509250565b60006020828403121561131f57600080fd5b6111b2826111d2565b60008083601f84011261133a57600080fd5b50813567ffffffffffffffff81111561135257600080fd5b6020830191508360208260051b850101111561136d57600080fd5b9250929050565b6000806020838503121561138757600080fd5b823567ffffffffffffffff81111561139e57600080fd5b6113aa85828601611328565b90969095509350505050565b600080600080604085870312156113cc57600080fd5b843567ffffffffffffffff808211156113e457600080fd5b6113f088838901611328565b9096509450602087013591508082111561140957600080fd5b5061141687828801611328565b95989497509550505050565b6000815180845260005b818110156114485760208185018101518683018201520161142c565b8181111561145a576000602083870101525b50601f01601f19169290920160200192915050565b6020815260006111b26020830184611422565b600082601f83011261149357600080fd5b8135602067ffffffffffffffff8211156114af576114af6111ee565b8160051b6114be828201611204565b92835284810182019282810190878511156114d857600080fd5b83870192505b848310156114f7578235825291830191908301906114de565b979650505050505050565b600080600080600060a0868803121561151a57600080fd5b611523866111d2565b9450611531602087016111d2565b9350604086013567ffffffffffffffff8082111561154e57600080fd5b61155a89838a01611482565b9450606088013591508082111561157057600080fd5b61157c89838a01611482565b9350608088013591508082111561159257600080fd5b5061159f88828901611235565b9150509295509295909350565b6020808252825182820181905260009190848201906040850190845b818110156115ed5783516001600160a01b0316835292840192918401916001016115c8565b50909695505050505050565b60008060006060848603121561160e57600080fd5b611617846111d2565b9250611625602085016111d2565b9150604084013590509250925092565b600080600080600060a0868803121561164d57600080fd5b611656866111d2565b9450611664602087016111d2565b93506040860135925060608601359150608086013567ffffffffffffffff81111561168e57600080fd5b61159f88828901611235565b60208082526021908201527f303630302063616c6c6572206973206e6f74206120706f6f6c2063726561746f6040820152603960f91b606082015260800190565b634e487b7160e01b600052603260045260246000fd5b600060001982141561171357634e487b7160e01b600052601160045260246000fd5b5060010190565b600181811c9082168061172e57607f821691505b60208210811415610dd557634e487b7160e01b600052602260045260246000fd5b60006020828403121561176157600080fd5b815180151581146111b257600080fd5b6001600160a01b03868116825285166020820152604081018490526060810183905260a0608082018190526000906114f79083018461142256fea2646970667358221220748ae08f069a81e83c6b5d936f71eadabe3c3ae5d7294982238b16fc2130d3fc64736f6c63430008090033",
  "linkReferences": {},
  "deployedLinkReferences": {}
}