{
  "_format": "hh-sol-artifact-1",
  "contractName": "Custom1155",
  "sourceName": "contracts/mocks/Custom1155.sol",
  "abi": [
    {
      "inputs": [
        {
          "internalType": "address",
          "name": "proxy",
          "type": "address"
        }
      ],
      "stateMutability": "nonpayable",
      "type": "constructor"
    },
    {
      "anonymous": false,
      "inputs": [
        {
          "indexed": true,
          "internalType": "address",
          "name": "account",
          "type": "address"
        },
        {
          "indexed": true,
          "internalType": "address",
          "name": "operator",
          "type": "address"
        },
        {
          "indexed": false,
          "internalType": "bool",
          "name": "approved",
          "type": "bool"
        }
      ],
      "name": "ApprovalForAll",
      "type": "event"
    },
    {
      "anonymous": false,
      "inputs": [
        {
          "indexed": false,
          "internalType": "uint256",
          "name": "tokenId",
          "type": "uint256"
        },
        {
          "indexed": false,
          "internalType": "uint256",
          "name": "amount",
          "type": "uint256"
        },
        {
          "indexed": false,
          "internalType": "address",
          "name": "minter",
          "type": "address"
        }
      ],
      "name": "Minted",
      "type": "event"
    },
    {
      "anonymous": false,
      "inputs": [
        {
          "indexed": true,
          "internalType": "address",
          "name": "operator",
          "type": "address"
        },
        {
          "indexed": true,
          "internalType": "address",
          "name": "from",
          "type": "address"
        },
        {
          "indexed": true,
          "internalType": "address",
          "name": "to",
          "type": "address"
        },
        {
          "indexed": false,
          "internalType": "uint256[]",
          "name": "ids",
          "type": "uint256[]"
        },
        {
          "indexed": false,
          "internalType": "uint256[]",
          "name": "values",
          "type": "uint256[]"
        }
      ],
      "name": "TransferBatch",
      "type": "event"
    },
    {
      "anonymous": false,
      "inputs": [
        {
          "indexed": true,
          "internalType": "address",
          "name": "operator",
          "type": "address"
        },
        {
          "indexed": true,
          "internalType": "address",
          "name": "from",
          "type": "address"
        },
        {
          "indexed": true,
          "internalType": "address",
          "name": "to",
          "type": "address"
        },
        {
          "indexed": false,
          "internalType": "uint256",
          "name": "id",
          "type": "uint256"
        },
        {
          "indexed": false,
          "internalType": "uint256",
          "name": "value",
          "type": "uint256"
        }
      ],
      "name": "TransferSingle",
      "type": "event"
    },
    {
      "anonymous": false,
      "inputs": [
        {
          "indexed": false,
          "internalType": "string",
          "name": "value",
          "type": "string"
        },
        {
          "indexed": true,
          "internalType": "uint256",
          "name": "id",
          "type": "uint256"
        }
      ],
      "name": "URI",
      "type": "event"
    },
    {
      "inputs": [
        {
          "internalType": "address",
          "name": "account",
          "type": "address"
        },
        {
          "internalType": "uint256",
          "name": "id",
          "type": "uint256"
        }
      ],
      "name": "balanceOf",
      "outputs": [
        {
          "internalType": "uint256",
          "name": "",
          "type": "uint256"
        }
      ],
      "stateMutability": "view",
      "type": "function"
    },
    {
      "inputs": [
        {
          "internalType": "address[]",
          "name": "accounts",
          "type": "address[]"
        },
        {
          "internalType": "uint256[]",
          "name": "ids",
          "type": "uint256[]"
        }
      ],
      "name": "balanceOfBatch",
      "outputs": [
        {
          "internalType": "uint256[]",
          "name": "",
          "type": "uint256[]"
        }
      ],
      "stateMutability": "view",
      "type": "function"
    },
    {
      "inputs": [
        {
          "internalType": "uint256",
          "name": "id",
          "type": "uint256"
        }
      ],
      "name": "exists",
      "outputs": [
        {
          "internalType": "bool",
          "name": "",
          "type": "bool"
        }
      ],
      "stateMutability": "view",
      "type": "function"
    },
    {
      "inputs": [
        {
          "internalType": "address",
          "name": "_owner",
          "type": "address"
        },
        {
          "internalType": "address",
          "name": "_operator",
          "type": "address"
        }
      ],
      "name": "isApprovedForAll",
      "outputs": [
        {
          "internalType": "bool",
          "name": "",
          "type": "bool"
        }
      ],
      "stateMutability": "view",
      "type": "function"
    },
    {
      "inputs": [
        {
          "internalType": "string",
          "name": "tokenUri",
          "type": "string"
        },
        {
          "internalType": "uint256",
          "name": "amount",
          "type": "uint256"
        }
      ],
      "name": "mint",
      "outputs": [],
      "stateMutability": "nonpayable",
      "type": "function"
    },
    {
      "inputs": [
        {
          "internalType": "address",
          "name": "from",
          "type": "address"
        },
        {
          "internalType": "address",
          "name": "to",
          "type": "address"
        },
        {
          "internalType": "uint256[]",
          "name": "ids",
          "type": "uint256[]"
        },
        {
          "internalType": "uint256[]",
          "name": "amounts",
          "type": "uint256[]"
        },
        {
          "internalType": "bytes",
          "name": "data",
          "type": "bytes"
        }
      ],
      "name": "safeBatchTransferFrom",
      "outputs": [],
      "stateMutability": "nonpayable",
      "type": "function"
    },
    {
      "inputs": [
        {
          "internalType": "address",
          "name": "from",
          "type": "address"
        },
        {
          "internalType": "address",
          "name": "to",
          "type": "address"
        },
        {
          "internalType": "uint256",
          "name": "id",
          "type": "uint256"
        },
        {
          "internalType": "uint256",
          "name": "amount",
          "type": "uint256"
        },
        {
          "internalType": "bytes",
          "name": "data",
          "type": "bytes"
        }
      ],
      "name": "safeTransferFrom",
      "outputs": [],
      "stateMutability": "nonpayable",
      "type": "function"
    },
    {
      "inputs": [
        {
          "internalType": "address",
          "name": "operator",
          "type": "address"
        },
        {
          "internalType": "bool",
          "name": "approved",
          "type": "bool"
        }
      ],
      "name": "setApprovalForAll",
      "outputs": [],
      "stateMutability": "nonpayable",
      "type": "function"
    },
    {
      "inputs": [
        {
          "internalType": "bytes4",
          "name": "interfaceId",
          "type": "bytes4"
        }
      ],
      "name": "supportsInterface",
      "outputs": [
        {
          "internalType": "bool",
          "name": "",
          "type": "bool"
        }
      ],
      "stateMutability": "view",
      "type": "function"
    },
    {
      "inputs": [],
      "name": "totalMinted",
      "outputs": [
        {
          "internalType": "uint256",
          "name": "",
          "type": "uint256"
        }
      ],
      "stateMutability": "view",
      "type": "function"
    },
    {
      "inputs": [
        {
          "internalType": "uint256",
          "name": "id",
          "type": "uint256"
        }
      ],
      "name": "totalSupply",
      "outputs": [
        {
          "internalType": "uint256",
          "name": "",
          "type": "uint256"
        }
      ],
      "stateMutability": "view",
      "type": "function"
    },
    {
      "inputs": [
        {
          "internalType": "uint256",
          "name": "tokenId",
          "type": "uint256"
        }
      ],
      "name": "uri",
      "outputs": [
        {
          "internalType": "string",
          "name": "",
          "type": "string"
        }
      ],
      "stateMutability": "view",
      "type": "function"
    }
  ],
  "bytecode": "0x60806040523480156200001157600080fd5b5060405162001bba38038062001bba833981016040819052620000349162000134565b6040805160208101909152600081526200004e8162000075565b50600680546001600160a01b0319166001600160a01b0392909216919091179055620001a3565b80516200008a9060029060208401906200008e565b5050565b8280546200009c9062000166565b90600052602060002090601f016020900481019282620000c057600085556200010b565b82601f10620000db57805160ff19168380011785556200010b565b828001600101855582156200010b579182015b828111156200010b578251825591602001919060010190620000ee565b50620001199291506200011d565b5090565b5b808211156200011957600081556001016200011e565b6000602082840312156200014757600080fd5b81516001600160a01b03811681146200015f57600080fd5b9392505050565b600181811c908216806200017b57607f821691505b602082108114156200019d57634e487b7160e01b600052602260045260246000fd5b50919050565b611a0780620001b36000396000f3fe608060405234801561001057600080fd5b50600436106100b35760003560e01c80634f558e79116100715780634f558e7914610169578063a22cb4651461018b578063a2309ff81461019e578063bd85b039146101a7578063e985e9c5146101c7578063f242432a146101da57600080fd5b8062fdd58e146100b857806301ffc9a7146100de578063056b01ce146101015780630e89341c146101165780632eb2c2d6146101365780634e1273f414610149575b600080fd5b6100cb6100c6366004611139565b6101ed565b6040519081526020015b60405180910390f35b6100f16100ec36600461117c565b610286565b60405190151581526020016100d5565b61011461010f36600461123a565b6102d6565b005b610129610124366004611293565b6103bb565b6040516100d591906112f9565b6101146101443660046113c1565b6104b7565b61015c61015736600461146b565b610503565b6040516100d59190611571565b6100f1610177366004611293565b600090815260036020526040902054151590565b610114610199366004611592565b61062d565b6100cb60045481565b6100cb6101b5366004611293565b60009081526003602052604090205490565b6100f16101d53660046115c9565b61063c565b6101146101e83660046115fc565b61067f565b60006001600160a01b03831661025d5760405162461bcd60e51b815260206004820152602a60248201527f455243313135353a2061646472657373207a65726f206973206e6f742061207660448201526930b634b21037bbb732b960b11b60648201526084015b60405180910390fd5b506000818152602081815260408083206001600160a01b03861684529091529020545b92915050565b60006001600160e01b03198216636cdb3d1360e11b14806102b757506001600160e01b031982166303a24d0760e21b145b8061028057506301ffc9a760e01b6001600160e01b0319831614610280565b6004600081546102e590611677565b90915550806103365760405162461bcd60e51b815260206004820152601860248201527f4d696e74696e672030206973206e6f7420616c6c6f77656400000000000000006044820152606401610254565b6103533360045483604051806020016040528060008152506106c4565b6004546000908152600560209081526040909120835161037592850190611084565b5060045460408051918252602082018390523382820152517f259eb7b480b3d449f506927269e4665c83c69e4cd797143eaa8f84632dc7a02b9181900360600190a15050565b6000818152600360205260409020546060906104195760405162461bcd60e51b815260206004820152601860248201527f54686520546f6b656e20646f6573206e6f7420657869737400000000000000006044820152606401610254565b6000828152600560205260409020805461043290611692565b80601f016020809104026020016040519081016040528092919081815260200182805461045e90611692565b80156104ab5780601f10610480576101008083540402835291602001916104ab565b820191906000526020600020905b81548152906001019060200180831161048e57829003601f168201915b50505050509050919050565b6001600160a01b0385163314806104d357506104d3853361063c565b6104ef5760405162461bcd60e51b8152600401610254906116cd565b6104fc85858585856107e7565b5050505050565b606081518351146105685760405162461bcd60e51b815260206004820152602960248201527f455243313135353a206163636f756e747320616e6420696473206c656e677468604482015268040dad2e6dac2e8c6d60bb1b6064820152608401610254565b6000835167ffffffffffffffff81111561058457610584611199565b6040519080825280602002602001820160405280156105ad578160200160208202803683370190505b50905060005b8451811015610625576105f88582815181106105d1576105d161171b565b60200260200101518583815181106105eb576105eb61171b565b60200260200101516101ed565b82828151811061060a5761060a61171b565b602090810291909101015261061e81611677565b90506105b3565b509392505050565b6106383383836109d2565b5050565b60006106488383610ab3565b8061067857506001600160a01b0380841660009081526001602090815260408083209386168352929052205460ff165b9392505050565b6001600160a01b03851633148061069b575061069b853361063c565b6106b75760405162461bcd60e51b8152600401610254906116cd565b6104fc8585858585610b53565b6001600160a01b0384166107245760405162461bcd60e51b815260206004820152602160248201527f455243313135353a206d696e7420746f20746865207a65726f206164647265736044820152607360f81b6064820152608401610254565b33600061073085610c8b565b9050600061073d85610c8b565b905061074e83600089858589610cd6565b6000868152602081815260408083206001600160a01b038b1684529091528120805487929061077e908490611731565b909155505060408051878152602081018790526001600160a01b03808a1692600092918716917fc3d58168c5ae7397731d063d5bbf3d657854427343f4c083240f7aacaa2d0f62910160405180910390a46107de83600089898989610e4f565b50505050505050565b81518351146108495760405162461bcd60e51b815260206004820152602860248201527f455243313135353a2069647320616e6420616d6f756e7473206c656e677468206044820152670dad2e6dac2e8c6d60c31b6064820152608401610254565b6001600160a01b03841661086f5760405162461bcd60e51b815260040161025490611749565b3361087e818787878787610cd6565b60005b845181101561096457600085828151811061089e5761089e61171b565b6020026020010151905060008583815181106108bc576108bc61171b565b602090810291909101810151600084815280835260408082206001600160a01b038e16835290935291909120549091508181101561090c5760405162461bcd60e51b81526004016102549061178e565b6000838152602081815260408083206001600160a01b038e8116855292528083208585039055908b16825281208054849290610949908490611731565b925050819055505050508061095d90611677565b9050610881565b50846001600160a01b0316866001600160a01b0316826001600160a01b03167f4a39dc06d4c0dbc64b70af90fd698a233a518aa5d07e595d983b8c0526c8f7fb87876040516109b49291906117d8565b60405180910390a46109ca818787878787610fba565b505050505050565b816001600160a01b0316836001600160a01b03161415610a465760405162461bcd60e51b815260206004820152602960248201527f455243313135353a2073657474696e6720617070726f76616c20737461747573604482015268103337b91039b2b63360b91b6064820152608401610254565b6001600160a01b03838116600081815260016020908152604080832094871680845294825291829020805460ff191686151590811790915591519182527f17307eab39ab6107e8899845ad3d59bd9653f200f220920489ca2b5937696c31910160405180910390a3505050565b6006546000906001600160a01b0316610ace57506000610280565b6006546040516336d42e9b60e01b81526001600160a01b0385811660048301528481166024830152909116906336d42e9b9060440160206040518083038186803b158015610b1b57600080fd5b505afa158015610b2f573d6000803e3d6000fd5b505050506040513d601f19601f820116820180604052508101906106789190611806565b6001600160a01b038416610b795760405162461bcd60e51b815260040161025490611749565b336000610b8585610c8b565b90506000610b9285610c8b565b9050610ba2838989858589610cd6565b6000868152602081815260408083206001600160a01b038c16845290915290205485811015610be35760405162461bcd60e51b81526004016102549061178e565b6000878152602081815260408083206001600160a01b038d8116855292528083208985039055908a16825281208054889290610c20908490611731565b909155505060408051888152602081018890526001600160a01b03808b16928c821692918816917fc3d58168c5ae7397731d063d5bbf3d657854427343f4c083240f7aacaa2d0f62910160405180910390a4610c80848a8a8a8a8a610e4f565b505050505050505050565b60408051600180825281830190925260609160009190602080830190803683370190505090508281600081518110610cc557610cc561171b565b602090810291909101015292915050565b6001600160a01b038516610d5d5760005b8351811015610d5b57828181518110610d0257610d0261171b565b602002602001015160036000868481518110610d2057610d2061171b565b602002602001015181526020019081526020016000206000828254610d459190611731565b90915550610d54905081611677565b9050610ce7565b505b6001600160a01b0384166109ca5760005b83518110156107de576000848281518110610d8b57610d8b61171b565b602002602001015190506000848381518110610da957610da961171b565b6020026020010151905060006003600084815260200190815260200160002054905081811015610e2c5760405162461bcd60e51b815260206004820152602860248201527f455243313135353a206275726e20616d6f756e74206578636565647320746f74604482015267616c537570706c7960c01b6064820152608401610254565b60009283526003602052604090922091039055610e4881611677565b9050610d6e565b6001600160a01b0384163b156109ca5760405163f23a6e6160e01b81526001600160a01b0385169063f23a6e6190610e939089908990889088908890600401611823565b602060405180830381600087803b158015610ead57600080fd5b505af1925050508015610edd575060408051601f3d908101601f19168201909252610eda91810190611868565b60015b610f8a57610ee9611885565b806308c379a01415610f235750610efe6118a1565b80610f095750610f25565b8060405162461bcd60e51b815260040161025491906112f9565b505b60405162461bcd60e51b815260206004820152603460248201527f455243313135353a207472616e7366657220746f206e6f6e2d455243313135356044820152732932b1b2b4bb32b91034b6b83632b6b2b73a32b960611b6064820152608401610254565b6001600160e01b0319811663f23a6e6160e01b146107de5760405162461bcd60e51b81526004016102549061192b565b6001600160a01b0384163b156109ca5760405163bc197c8160e01b81526001600160a01b0385169063bc197c8190610ffe9089908990889088908890600401611973565b602060405180830381600087803b15801561101857600080fd5b505af1925050508015611048575060408051601f3d908101601f1916820190925261104591810190611868565b60015b61105457610ee9611885565b6001600160e01b0319811663bc197c8160e01b146107de5760405162461bcd60e51b81526004016102549061192b565b82805461109090611692565b90600052602060002090601f0160209004810192826110b257600085556110f8565b82601f106110cb57805160ff19168380011785556110f8565b828001600101855582156110f8579182015b828111156110f85782518255916020019190600101906110dd565b50611104929150611108565b5090565b5b808211156111045760008155600101611109565b80356001600160a01b038116811461113457600080fd5b919050565b6000806040838503121561114c57600080fd5b6111558361111d565b946020939093013593505050565b6001600160e01b03198116811461117957600080fd5b50565b60006020828403121561118e57600080fd5b813561067881611163565b634e487b7160e01b600052604160045260246000fd5b601f8201601f1916810167ffffffffffffffff811182821017156111d5576111d5611199565b6040525050565b600067ffffffffffffffff8311156111f6576111f6611199565b60405161120d601f8501601f1916602001826111af565b80915083815284848401111561122257600080fd5b83836020830137600060208583010152509392505050565b6000806040838503121561124d57600080fd5b823567ffffffffffffffff81111561126457600080fd5b8301601f8101851361127557600080fd5b611284858235602084016111dc565b95602094909401359450505050565b6000602082840312156112a557600080fd5b5035919050565b6000815180845260005b818110156112d2576020818501810151868301820152016112b6565b818111156112e4576000602083870101525b50601f01601f19169290920160200192915050565b60208152600061067860208301846112ac565b600067ffffffffffffffff82111561132657611326611199565b5060051b60200190565b600082601f83011261134157600080fd5b8135602061134e8261130c565b60405161135b82826111af565b83815260059390931b850182019282810191508684111561137b57600080fd5b8286015b84811015611396578035835291830191830161137f565b509695505050505050565b600082601f8301126113b257600080fd5b610678838335602085016111dc565b600080600080600060a086880312156113d957600080fd5b6113e28661111d565b94506113f06020870161111d565b9350604086013567ffffffffffffffff8082111561140d57600080fd5b61141989838a01611330565b9450606088013591508082111561142f57600080fd5b61143b89838a01611330565b9350608088013591508082111561145157600080fd5b5061145e888289016113a1565b9150509295509295909350565b6000806040838503121561147e57600080fd5b823567ffffffffffffffff8082111561149657600080fd5b818501915085601f8301126114aa57600080fd5b813560206114b78261130c565b6040516114c482826111af565b83815260059390931b85018201928281019150898411156114e457600080fd5b948201945b83861015611509576114fa8661111d565b825294820194908201906114e9565b9650508601359250508082111561151f57600080fd5b5061152c85828601611330565b9150509250929050565b600081518084526020808501945080840160005b838110156115665781518752958201959082019060010161154a565b509495945050505050565b6020815260006106786020830184611536565b801515811461117957600080fd5b600080604083850312156115a557600080fd5b6115ae8361111d565b915060208301356115be81611584565b809150509250929050565b600080604083850312156115dc57600080fd5b6115e58361111d565b91506115f36020840161111d565b90509250929050565b600080600080600060a0868803121561161457600080fd5b61161d8661111d565b945061162b6020870161111d565b93506040860135925060608601359150608086013567ffffffffffffffff81111561165557600080fd5b61145e888289016113a1565b634e487b7160e01b600052601160045260246000fd5b600060001982141561168b5761168b611661565b5060010190565b600181811c908216806116a657607f821691505b602082108114156116c757634e487b7160e01b600052602260045260246000fd5b50919050565b6020808252602e908201527f455243313135353a2063616c6c6572206973206e6f7420746f6b656e206f776e60408201526d195c881bdc88185c1c1c9bdd995960921b606082015260800190565b634e487b7160e01b600052603260045260246000fd5b6000821982111561174457611744611661565b500190565b60208082526025908201527f455243313135353a207472616e7366657220746f20746865207a65726f206164604082015264647265737360d81b606082015260800190565b6020808252602a908201527f455243313135353a20696e73756666696369656e742062616c616e636520666f60408201526939103a3930b739b332b960b11b606082015260800190565b6040815260006117eb6040830185611536565b82810360208401526117fd8185611536565b95945050505050565b60006020828403121561181857600080fd5b815161067881611584565b6001600160a01b03868116825285166020820152604081018490526060810183905260a06080820181905260009061185d908301846112ac565b979650505050505050565b60006020828403121561187a57600080fd5b815161067881611163565b600060033d111561189e5760046000803e5060005160e01c5b90565b600060443d10156118af5790565b6040516003193d81016004833e81513d67ffffffffffffffff81602484011181841117156118df57505050505090565b82850191508151818111156118f75750505050505090565b843d87010160208285010111156119115750505050505090565b611920602082860101876111af565b509095945050505050565b60208082526028908201527f455243313135353a204552433131353552656365697665722072656a656374656040820152676420746f6b656e7360c01b606082015260800190565b6001600160a01b0386811682528516602082015260a06040820181905260009061199f90830186611536565b82810360608401526119b18186611536565b905082810360808401526119c581856112ac565b9897505050505050505056fea2646970667358221220d1cafbdbaa85b10030db46607b7711ba0b2c62404f933884a9d07275b1cec03a64736f6c63430008090033",
  "linkReferences": {},
  "deployedLinkReferences": {}
}