{
  "_format": "hh-sol-artifact-1",
  "contractName": "ERC721Auction",
  "sourceName": "contracts/ERC721Auction.sol",
  "abi": [
    {
      "anonymous": false,
      "inputs": [
        {
          "indexed": false,
          "internalType": "address",
          "name": "previousAdmin",
          "type": "address"
        },
        {
          "indexed": false,
          "internalType": "address",
          "name": "newAdmin",
          "type": "address"
        }
      ],
      "name": "AdminChanged",
      "type": "event"
    },
    {
      "anonymous": false,
      "inputs": [
        {
          "indexed": false,
          "internalType": "address",
          "name": "contractAddr",
          "type": "address"
        },
        {
          "indexed": false,
          "internalType": "uint256",
          "name": "tokenId",
          "type": "uint256"
        },
        {
          "indexed": false,
          "internalType": "address",
          "name": "bidder",
          "type": "address"
        },
        {
          "indexed": false,
          "internalType": "uint256",
          "name": "bidPrice",
          "type": "uint256"
        }
      ],
      "name": "AuctionBid",
      "type": "event"
    },
    {
      "anonymous": false,
      "inputs": [
        {
          "indexed": false,
          "internalType": "address",
          "name": "contractAddr",
          "type": "address"
        },
        {
          "indexed": false,
          "internalType": "uint256",
          "name": "tokenId",
          "type": "uint256"
        },
        {
          "indexed": false,
          "internalType": "address",
          "name": "auctioneer",
          "type": "address"
        }
      ],
      "name": "AuctionCancelled",
      "type": "event"
    },
    {
      "anonymous": false,
      "inputs": [
        {
          "indexed": false,
          "internalType": "address",
          "name": "contractAddr",
          "type": "address"
        },
        {
          "indexed": false,
          "internalType": "uint256",
          "name": "tokenId",
          "type": "uint256"
        },
        {
          "indexed": false,
          "internalType": "uint8",
          "name": "payment",
          "type": "uint8"
        },
        {
          "indexed": false,
          "internalType": "address",
          "name": "auctioneer",
          "type": "address"
        }
      ],
      "name": "AuctionCreated",
      "type": "event"
    },
    {
      "anonymous": false,
      "inputs": [
        {
          "indexed": true,
          "internalType": "address",
          "name": "beacon",
          "type": "address"
        }
      ],
      "name": "BeaconUpgraded",
      "type": "event"
    },
    {
      "anonymous": false,
      "inputs": [
        {
          "indexed": false,
          "internalType": "address",
          "name": "contractAddr",
          "type": "address"
        },
        {
          "indexed": false,
          "internalType": "uint256",
          "name": "tokenId",
          "type": "uint256"
        },
        {
          "indexed": false,
          "internalType": "uint8",
          "name": "payment",
          "type": "uint8"
        },
        {
          "indexed": false,
          "internalType": "address",
          "name": "bidder",
          "type": "address"
        },
        {
          "indexed": false,
          "internalType": "uint256",
          "name": "bidPrice",
          "type": "uint256"
        }
      ],
      "name": "BidAccepted",
      "type": "event"
    },
    {
      "anonymous": false,
      "inputs": [
        {
          "indexed": false,
          "internalType": "address",
          "name": "contractAddr",
          "type": "address"
        },
        {
          "indexed": false,
          "internalType": "uint256",
          "name": "tokenId",
          "type": "uint256"
        },
        {
          "indexed": false,
          "internalType": "address",
          "name": "bidder",
          "type": "address"
        }
      ],
      "name": "BidCancelled",
      "type": "event"
    },
    {
      "anonymous": false,
      "inputs": [
        {
          "indexed": false,
          "internalType": "uint8",
          "name": "version",
          "type": "uint8"
        }
      ],
      "name": "Initialized",
      "type": "event"
    },
    {
      "anonymous": false,
      "inputs": [
        {
          "indexed": true,
          "internalType": "address",
          "name": "previousOwner",
          "type": "address"
        },
        {
          "indexed": true,
          "internalType": "address",
          "name": "newOwner",
          "type": "address"
        }
      ],
      "name": "OwnershipTransferred",
      "type": "event"
    },
    {
      "anonymous": false,
      "inputs": [
        {
          "indexed": true,
          "internalType": "address",
          "name": "implementation",
          "type": "address"
        }
      ],
      "name": "Upgraded",
      "type": "event"
    },
    {
      "inputs": [
        {
          "internalType": "address",
          "name": "contractAddr",
          "type": "address"
        },
        {
          "internalType": "uint256",
          "name": "tokenId",
          "type": "uint256"
        }
      ],
      "name": "acceptBid",
      "outputs": [],
      "stateMutability": "nonpayable",
      "type": "function"
    },
    {
      "inputs": [],
      "name": "addressesContractAddr",
      "outputs": [
        {
          "internalType": "address",
          "name": "",
          "type": "address"
        }
      ],
      "stateMutability": "view",
      "type": "function"
    },
    {
      "inputs": [
        {
          "internalType": "address",
          "name": "contractAddr",
          "type": "address"
        },
        {
          "internalType": "uint256",
          "name": "tokenId",
          "type": "uint256"
        },
        {
          "internalType": "uint256",
          "name": "price",
          "type": "uint256"
        }
      ],
      "name": "bid",
      "outputs": [],
      "stateMutability": "payable",
      "type": "function"
    },
    {
      "inputs": [
        {
          "internalType": "address",
          "name": "contractAddr",
          "type": "address"
        },
        {
          "internalType": "uint256",
          "name": "tokenId",
          "type": "uint256"
        }
      ],
      "name": "cancelAuction",
      "outputs": [],
      "stateMutability": "payable",
      "type": "function"
    },
    {
      "inputs": [
        {
          "internalType": "address",
          "name": "contractAddr",
          "type": "address"
        },
        {
          "internalType": "uint256",
          "name": "tokenId",
          "type": "uint256"
        }
      ],
      "name": "cancelBid",
      "outputs": [],
      "stateMutability": "nonpayable",
      "type": "function"
    },
    {
      "inputs": [
        {
          "internalType": "uint256",
          "name": "amount",
          "type": "uint256"
        },
        {
          "internalType": "uint8",
          "name": "index",
          "type": "uint8"
        }
      ],
      "name": "claim",
      "outputs": [],
      "stateMutability": "nonpayable",
      "type": "function"
    },
    {
      "inputs": [
        {
          "internalType": "address",
          "name": "",
          "type": "address"
        },
        {
          "internalType": "uint256",
          "name": "",
          "type": "uint256"
        }
      ],
      "name": "claimable",
      "outputs": [
        {
          "internalType": "uint256",
          "name": "",
          "type": "uint256"
        }
      ],
      "stateMutability": "view",
      "type": "function"
    },
    {
      "inputs": [
        {
          "internalType": "address",
          "name": "contractAddr",
          "type": "address"
        },
        {
          "internalType": "uint256",
          "name": "tokenId",
          "type": "uint256"
        },
        {
          "internalType": "uint8",
          "name": "payment",
          "type": "uint8"
        }
      ],
      "name": "createAuction",
      "outputs": [],
      "stateMutability": "nonpayable",
      "type": "function"
    },
    {
      "inputs": [
        {
          "internalType": "address",
          "name": "contractAddr",
          "type": "address"
        }
      ],
      "name": "getAuctions",
      "outputs": [
        {
          "components": [
            {
              "internalType": "uint8",
              "name": "payment",
              "type": "uint8"
            },
            {
              "internalType": "address",
              "name": "auctioneer",
              "type": "address"
            },
            {
              "internalType": "address[]",
              "name": "bidders",
              "type": "address[]"
            },
            {
              "internalType": "uint256[]",
              "name": "bidPrices",
              "type": "uint256[]"
            }
          ],
          "internalType": "struct ERC721AuctionBase.Auction[]",
          "name": "auctions",
          "type": "tuple[]"
        }
      ],
      "stateMutability": "view",
      "type": "function"
    },
    {
      "inputs": [
        {
          "internalType": "address",
          "name": "contractAddr",
          "type": "address"
        },
        {
          "internalType": "address",
          "name": "seller",
          "type": "address"
        }
      ],
      "name": "getAuctionsBySeller",
      "outputs": [
        {
          "components": [
            {
              "internalType": "uint8",
              "name": "payment",
              "type": "uint8"
            },
            {
              "internalType": "address",
              "name": "auctioneer",
              "type": "address"
            },
            {
              "internalType": "address[]",
              "name": "bidders",
              "type": "address[]"
            },
            {
              "internalType": "uint256[]",
              "name": "bidPrices",
              "type": "uint256[]"
            }
          ],
          "internalType": "struct ERC721AuctionBase.Auction[]",
          "name": "auctions",
          "type": "tuple[]"
        }
      ],
      "stateMutability": "view",
      "type": "function"
    },
    {
      "inputs": [],
      "name": "initialize",
      "outputs": [],
      "stateMutability": "nonpayable",
      "type": "function"
    },
    {
      "inputs": [],
      "name": "owner",
      "outputs": [
        {
          "internalType": "address",
          "name": "",
          "type": "address"
        }
      ],
      "stateMutability": "view",
      "type": "function"
    },
    {
      "inputs": [],
      "name": "proxiableUUID",
      "outputs": [
        {
          "internalType": "bytes32",
          "name": "",
          "type": "bytes32"
        }
      ],
      "stateMutability": "view",
      "type": "function"
    },
    {
      "inputs": [],
      "name": "renounceOwnership",
      "outputs": [],
      "stateMutability": "nonpayable",
      "type": "function"
    },
    {
      "inputs": [
        {
          "internalType": "address",
          "name": "contractAddr",
          "type": "address"
        }
      ],
      "name": "setAddressesContractAddr",
      "outputs": [],
      "stateMutability": "nonpayable",
      "type": "function"
    },
    {
      "inputs": [
        {
          "internalType": "address",
          "name": "newSparkAddr",
          "type": "address"
        }
      ],
      "name": "setSparkTokenContractAddr",
      "outputs": [],
      "stateMutability": "nonpayable",
      "type": "function"
    },
    {
      "inputs": [
        {
          "internalType": "uint256",
          "name": "",
          "type": "uint256"
        }
      ],
      "name": "tokenAddrs",
      "outputs": [
        {
          "internalType": "address",
          "name": "",
          "type": "address"
        }
      ],
      "stateMutability": "view",
      "type": "function"
    },
    {
      "inputs": [
        {
          "internalType": "address",
          "name": "newOwner",
          "type": "address"
        }
      ],
      "name": "transferOwnership",
      "outputs": [],
      "stateMutability": "nonpayable",
      "type": "function"
    },
    {
      "inputs": [
        {
          "internalType": "address",
          "name": "newImplementation",
          "type": "address"
        }
      ],
      "name": "upgradeTo",
      "outputs": [],
      "stateMutability": "nonpayable",
      "type": "function"
    },
    {
      "inputs": [
        {
          "internalType": "address",
          "name": "newImplementation",
          "type": "address"
        },
        {
          "internalType": "bytes",
          "name": "data",
          "type": "bytes"
        }
      ],
      "name": "upgradeToAndCall",
      "outputs": [],
      "stateMutability": "payable",
      "type": "function"
    }
  ],
  "bytecode": "0x60a06040523060805234801561001457600080fd5b5060805161337b61004c60003960008181610a9201528181610ad201528181610f4301528181610f830152611012015261337b6000f3fe60806040526004361061011f5760003560e01c8063859b97fe116100a0578063bc4781af11610064578063bc4781af146102f4578063db9d48d814610314578063e63db64514610334578063f2fde38b14610354578063fb0f93631461037457600080fd5b8063859b97fe1461024f5780638da5cb5b14610262578063915044ec14610294578063955a5a76146102b4578063a5756bd2146102d457600080fd5b80634f1ef286116100e75780634f1ef286146101cf57806352d1902d146101e257806360efe33414610205578063715018a6146102255780638129fc1c1461023a57600080fd5b80630f41ba4b1461012457806328932a83146101395780632faf3ea61461016f5780633659cfe61461018f57806339b6b1e5146101af575b600080fd5b610137610132366004612c44565b610394565b005b34801561014557600080fd5b50610159610154366004612c79565b6106db565b6040516101669190612ced565b60405180910390f35b34801561017b57600080fd5b5061013761018a366004612ddb565b6109b5565b34801561019b57600080fd5b506101376101aa366004612e07565b610a87565b3480156101bb57600080fd5b506101376101ca366004612e24565b610b67565b6101376101dd366004612e66565b610f38565b3480156101ee57600080fd5b506101f7611005565b604051908152602001610166565b34801561021157600080fd5b506101f7610220366004612e24565b6110b8565b34801561023157600080fd5b506101376110dd565b34801561024657600080fd5b506101376110f1565b61013761025d366004612e24565b611209565b34801561026e57600080fd5b506033546001600160a01b03165b6040516001600160a01b039091168152602001610166565b3480156102a057600080fd5b5061027c6102af366004612f2a565b6114fe565b3480156102c057600080fd5b506101376102cf366004612e24565b61151e565b3480156102e057600080fd5b506101376102ef366004612e07565b6119bf565b34801561030057600080fd5b5061013761030f366004612e07565b6119e9565b34801561032057600080fd5b5060fb5461027c906001600160a01b031681565b34801561034057600080fd5b5061013761034f366004612f43565b611a13565b34801561036057600080fd5b5061013761036f366004612e07565b611cc7565b34801561038057600080fd5b5061015961038f366004612e07565b611d3d565b60fb5483906001600160a01b03166103c75760405162461bcd60e51b81526004016103be90612f81565b60405180910390fd5b60fb5460405163b9209e3360e01b81526001600160a01b0383811660048301529091169063b9209e339060240160206040518083038186803b15801561040c57600080fd5b505afa158015610420573d6000803e3d6000fd5b505050506040513d601f19601f820116820180604052508101906104449190612fae565b6104605760405162461bcd60e51b81526004016103be90612fd0565b6001600160a01b03808516600090815261010160209081526040808320878452909152902080549091610100909104166104ac5760405162461bcd60e51b81526004016103be90612ff6565b805461010090046001600160a01b03163314156104fb5760405162461bcd60e51b815260206004820152600d60248201526c24b99020bab1ba34b7b732b2b960991b60448201526064016103be565b60018101805460408051602080840282018101909252828152919290839083018282801561055257602002820191906000526020600020905b81546001600160a01b03168152600190910190602001808311610534575b5050604051636e44fbfb60e01b815273__$e9d29609e19beebe46219d41a81a317a2e$__94636e44fbfb945061058f93509150339060040161301e565b60206040518083038186803b1580156105a757600080fd5b505af41580156105bb573d6000803e3d6000fd5b505050506040513d601f19601f820116820180604052508101906105df919061307b565b146106165760405162461bcd60e51b815260206004820152600760248201526612185cc8109a5960ca1b60448201526064016103be565b80546106439060fc9060ff166002811061063257610632613094565b01546001600160a01b031684611ffb565b6001818101805480830182556000918252602080832090910180546001600160a01b031916339081179091556002850180549485018155835291819020909201859055604080516001600160a01b0389168152928301879052820152606081018490527fe900ceb34119bc787c85684a28af29af0f2327a6a2f169c01aaebc9b99581da4906080015b60405180910390a15050505050565b60fb5460609083906001600160a01b03166107085760405162461bcd60e51b81526004016103be90612f81565b60fb5460405163b9209e3360e01b81526001600160a01b0383811660048301529091169063b9209e339060240160206040518083038186803b15801561074d57600080fd5b505afa158015610761573d6000803e3d6000fd5b505050506040513d601f19601f820116820180604052508101906107859190612fae565b6107a15760405162461bcd60e51b81526004016103be90612fd0565b6001600160a01b03808416600090815261010060209081526040808320938816835292905220548067ffffffffffffffff8111156107e1576107e1612e50565b60405190808252806020026020018201604052801561083557816020015b60408051608081018252600080825260208201526060918101829052818101919091528152602001906001900390816107ff5790505b50925060005b818110156109ac576001600160a01b03808716600081815261010160209081526040808320948a168352610100825280832093835292905290812080548490811061088857610888613094565b6000918252602080832090910154835282810193909352604091820190208151608081018352815460ff811682526001600160a01b03610100909104168185015260018201805484518187028101870186528181529295939486019383018282801561091d57602002820191906000526020600020905b81546001600160a01b031681526001909101906020018083116108ff575b505050505081526020016002820180548060200260200160405190810160405280929190818152602001828054801561097557602002820191906000526020600020905b815481526020019060010190808311610961575b50505050508152505084828151811061099057610990613094565b6020026020010181905250806109a5906130c0565b905061083b565b50505092915050565b33600090815260fe6020526040902060ff8216600281106109d8576109d8613094565b0154821115610a1d5760405162461bcd60e51b81526020600482015260116024820152704578636565647320436c61696d61626c6560781b60448201526064016103be565b33600090815260fe60205260409020829060ff831660028110610a4257610a42613094565b016000828254610a5291906130db565b90915550610a83905060fc60ff831660028110610a7157610a71613094565b01546001600160a01b031683336120d4565b5050565b306001600160a01b037f0000000000000000000000000000000000000000000000000000000000000000161415610ad05760405162461bcd60e51b81526004016103be906130f2565b7f00000000000000000000000000000000000000000000000000000000000000006001600160a01b0316610b196000805160206132ff833981519152546001600160a01b031690565b6001600160a01b031614610b3f5760405162461bcd60e51b81526004016103be9061313e565b610b48816121a0565b60408051600080825260208201909252610b64918391906121a8565b50565b60fb5482906001600160a01b0316610b915760405162461bcd60e51b81526004016103be90612f81565b60fb5460405163b9209e3360e01b81526001600160a01b0383811660048301529091169063b9209e339060240160206040518083038186803b158015610bd657600080fd5b505afa158015610bea573d6000803e3d6000fd5b505050506040513d601f19601f82011682018060405250810190610c0e9190612fae565b610c2a5760405162461bcd60e51b81526004016103be90612fd0565b6001600160a01b0380841660009081526101016020908152604080832086845290915290208054909161010090910416610c765760405162461bcd60e51b81526004016103be90612ff6565b600081600101805480602002602001604051908101604052809291908181526020018280548015610cd057602002820191906000526020600020905b81546001600160a01b03168152600190910190602001808311610cb2575b5050604051636e44fbfb60e01b815273__$e9d29609e19beebe46219d41a81a317a2e$__94636e44fbfb9450610d0d93509150339060040161301e565b60206040518083038186803b158015610d2557600080fd5b505af4158015610d39573d6000803e3d6000fd5b505050506040513d601f19601f82011682018060405250810190610d5d919061307b565b60018301549091508110610d9c5760405162461bcd60e51b8152602060048201526006602482015265139bc8109a5960d21b60448201526064016103be565b8154610e169060fc9060ff1660028110610db857610db8613094565b01546002840180546001600160a01b039092169184908110610ddc57610ddc613094565b9060005260206000200154846001018481548110610dfc57610dfc613094565b6000918252602090912001546001600160a01b03166120d4565b604051637b150e3d60e01b81526001830160048201526024810182905273__$e9d29609e19beebe46219d41a81a317a2e$__90637b150e3d9060440160006040518083038186803b158015610e6a57600080fd5b505af4158015610e7e573d6000803e3d6000fd5b5050604051633c764a6160e21b81526002850160048201526024810184905273__$e9d29609e19beebe46219d41a81a317a2e$__925063f1d92984915060440160006040518083038186803b158015610ed657600080fd5b505af4158015610eea573d6000803e3d6000fd5b5050604080516001600160a01b03891681526020810188905233918101919091527fb8e43d06d45f4356ae16497418cc2bfd5bd4d12adf5c227fa803182c041ab3a7925060600190506106cc565b306001600160a01b037f0000000000000000000000000000000000000000000000000000000000000000161415610f815760405162461bcd60e51b81526004016103be906130f2565b7f00000000000000000000000000000000000000000000000000000000000000006001600160a01b0316610fca6000805160206132ff833981519152546001600160a01b031690565b6001600160a01b031614610ff05760405162461bcd60e51b81526004016103be9061313e565b610ff9826121a0565b610a83828260016121a8565b6000306001600160a01b037f000000000000000000000000000000000000000000000000000000000000000016146110a55760405162461bcd60e51b815260206004820152603860248201527f555550535570677261646561626c653a206d757374206e6f742062652063616c60448201527f6c6564207468726f7567682064656c656761746563616c6c000000000000000060648201526084016103be565b506000805160206132ff83398151915290565b60fe60205281600052604060002081600281106110d457600080fd5b01549150829050565b6110e5612322565b6110ef600061237c565b565b600054610100900460ff16158080156111115750600054600160ff909116105b8061112b5750303b15801561112b575060005460ff166001145b61118e5760405162461bcd60e51b815260206004820152602e60248201527f496e697469616c697a61626c653a20636f6e747261637420697320616c72656160448201526d191e481a5b9a5d1a585b1a5e995960921b60648201526084016103be565b6000805460ff1916600117905580156111b1576000805461ff0019166101001790555b6111b96123ce565b6111c16123fd565b8015610b64576000805461ff0019169055604051600181527f7f26b83ff96e1f2b6a682f133852f6798a09c465da95921460cefb38474024989060200160405180910390a150565b60fb5482906001600160a01b03166112335760405162461bcd60e51b81526004016103be90612f81565b60fb5460405163b9209e3360e01b81526001600160a01b0383811660048301529091169063b9209e339060240160206040518083038186803b15801561127857600080fd5b505afa15801561128c573d6000803e3d6000fd5b505050506040513d601f19601f820116820180604052508101906112b09190612fae565b6112cc5760405162461bcd60e51b81526004016103be90612fd0565b6001600160a01b0380841660009081526101016020908152604080832086845282528083208151608081018352815460ff81168252610100900490951685840152600181018054835181860281018601855281815295969592949386019383018282801561136357602002820191906000526020600020905b81546001600160a01b03168152600190910190602001808311611345575b50505050508152602001600282018054806020026020016040519081016040528092919081815260200182805480156113bb57602002820191906000526020600020905b8154815260200190600101908083116113a7575b5050509190925250505060208101519091506001600160a01b03166113f25760405162461bcd60e51b81526004016103be90612ff6565b60208101516001600160a01b0316331461143f5760405162461bcd60e51b815260206004820152600e60248201526d2737ba1020bab1ba34b7b732b2b960911b60448201526064016103be565b6040516323b872dd60e01b81526001600160a01b038516906323b872dd9061146f9030903390889060040161318a565b600060405180830381600087803b15801561148957600080fd5b505af115801561149d573d6000803e3d6000fd5b505050506114ab8484612424565b604080516001600160a01b03861681526020810185905233918101919091527f81ac9b9393c688a58e4829f289ada7a9a0ef6b193b25950986416ef84025becd906060015b60405180910390a150505050565b60fc816002811061150e57600080fd5b01546001600160a01b0316905081565b60fb5482906001600160a01b03166115485760405162461bcd60e51b81526004016103be90612f81565b60fb5460405163b9209e3360e01b81526001600160a01b0383811660048301529091169063b9209e339060240160206040518083038186803b15801561158d57600080fd5b505afa1580156115a1573d6000803e3d6000fd5b505050506040513d601f19601f820116820180604052508101906115c59190612fae565b6115e15760405162461bcd60e51b81526004016103be90612fd0565b6001600160a01b038084166000908152610101602090815260408083208684529091529020805490916101009091041661162d5760405162461bcd60e51b81526004016103be90612ff6565b60018101546116675760405162461bcd60e51b8152602060048201526006602482015265139bc8109a5960d21b60448201526064016103be565b805461010090046001600160a01b031633146116b65760405162461bcd60e51b815260206004820152600e60248201526d2737ba1020bab1ba34b7b732b2b960911b60448201526064016103be565b60008160020180548060200260200160405190810160405280929190818152602001828054801561170657602002820191906000526020600020905b8154815260200190600101908083116116f2575b5050604051632d49165560e11b815273__$e9d29609e19beebe46219d41a81a317a2e$__94635a922caa9450611741935091506004016131ae565b60206040518083038186803b15801561175957600080fd5b505af415801561176d573d6000803e3d6000fd5b505050506040513d601f19601f82011682018060405250810190611791919061307b565b905060008260010182815481106117aa576117aa613094565b60009182526020822001546002850180546001600160a01b03909216935090849081106117d9576117d9613094565b600091825260209091200154845490915060ff1661181760fc826002811061180357611803613094565b01546001600160a01b031683338b8b612736565b6040516323b872dd60e01b81526001600160a01b038916906323b872dd9061184790309087908c9060040161318a565b600060405180830381600087803b15801561186157600080fd5b505af1158015611875573d6000803e3d6000fd5b5050604051637b150e3d60e01b81526001880160048201526024810187905273__$e9d29609e19beebe46219d41a81a317a2e$__9250637b150e3d915060440160006040518083038186803b1580156118cd57600080fd5b505af41580156118e1573d6000803e3d6000fd5b5050604051633c764a6160e21b81526002880160048201526024810187905273__$e9d29609e19beebe46219d41a81a317a2e$__925063f1d92984915060440160006040518083038186803b15801561193957600080fd5b505af415801561194d573d6000803e3d6000fd5b5050505061195b8888612424565b604080516001600160a01b038a81168252602082018a905260ff841682840152851660608201526080810184905290517fe4a8c4262c20543f8886e176bba2092ed67581b6979ac2a847808909fbc729bb9181900360a00190a15050505050505050565b6119c7612322565b60fd80546001600160a01b0319166001600160a01b0392909216919091179055565b6119f1612322565b60fb80546001600160a01b0319166001600160a01b0392909216919091179055565b60fb5483906001600160a01b0316611a3d5760405162461bcd60e51b81526004016103be90612f81565b60fb5460405163b9209e3360e01b81526001600160a01b0383811660048301529091169063b9209e339060240160206040518083038186803b158015611a8257600080fd5b505afa158015611a96573d6000803e3d6000fd5b505050506040513d601f19601f82011682018060405250810190611aba9190612fae565b611ad65760405162461bcd60e51b81526004016103be90612fd0565b6040516323b872dd60e01b81526001600160a01b038516906323b872dd90611b069033903090889060040161318a565b600060405180830381600087803b158015611b2057600080fd5b505af1158015611b34573d6000803e3d6000fd5b50506040805160808101825260ff861681523360208201529250820190506000604051908082528060200260200182016040528015611b7d578160200160208202803683370190505b5081526020016000604051908082528060200260200182016040528015611bae578160200160208202803683370190505b5090526001600160a01b038086166000908152610101602090815260408083208884528252918290208451815486840151909516610100026001600160a81b031990951660ff90911617939093178355908301518051611c149260018501920190612b60565b5060608201518051611c30916002840191602090910190612bc5565b5050506001600160a01b038416600081815260ff60208181526040808420805460018082018355918652838620018990553380865261010084528286208787528452828620805492830181558652948390200188905580519485529084018790529085169083015260608201527f1df419565c25d841d5b690727468f881e0dde598219194c94cb1bd07015457c6906080016114f0565b611ccf612322565b6001600160a01b038116611d345760405162461bcd60e51b815260206004820152602660248201527f4f776e61626c653a206e6577206f776e657220697320746865207a65726f206160448201526564647265737360d01b60648201526084016103be565b610b648161237c565b60fb5460609082906001600160a01b0316611d6a5760405162461bcd60e51b81526004016103be90612f81565b60fb5460405163b9209e3360e01b81526001600160a01b0383811660048301529091169063b9209e339060240160206040518083038186803b158015611daf57600080fd5b505afa158015611dc3573d6000803e3d6000fd5b505050506040513d601f19601f82011682018060405250810190611de79190612fae565b611e035760405162461bcd60e51b81526004016103be90612fd0565b6001600160a01b038316600090815260ff60205260409020548067ffffffffffffffff811115611e3557611e35612e50565b604051908082528060200260200182016040528015611e8957816020015b6040805160808101825260008082526020820152606091810182905281810191909152815260200190600190039081611e535790505b50925060005b81811015611ff3576001600160a01b03851660009081526101016020908152604080832060ff9092528220805491929184908110611ecf57611ecf613094565b6000918252602080832090910154835282810193909352604091820190208151608081018352815460ff811682526001600160a01b036101009091041681850152600182018054845181870281018701865281815292959394860193830182828015611f6457602002820191906000526020600020905b81546001600160a01b03168152600190910190602001808311611f46575b5050505050815260200160028201805480602002602001604051908101604052809291908181526020018280548015611fbc57602002820191906000526020600020905b815481526020019060010190808311611fa8575b505050505081525050848281518110611fd757611fd7613094565b602002602001018190525080611fec906130c0565b9050611e8f565b505050919050565b6001600160a01b03821661204d5780341015610a835760405162461bcd60e51b8152602060048201526011602482015270125b9cdd59999a58da595b9d08119d5b99607a1b60448201526064016103be565b6040516323b872dd60e01b81526001600160a01b038316906323b872dd9061207d9033903090869060040161318a565b602060405180830381600087803b15801561209757600080fd5b505af11580156120ab573d6000803e3d6000fd5b505050506040513d601f19601f820116820180604052508101906120cf9190612fae565b505050565b6001600160a01b03831661211e576040516001600160a01b0382169083156108fc029084906000818181858888f19350505050158015612118573d6000803e3d6000fd5b50505050565b60405163a9059cbb60e01b81526001600160a01b0382811660048301526024820184905284169063a9059cbb90604401602060405180830381600087803b15801561216857600080fd5b505af115801561217c573d6000803e3d6000fd5b505050506040513d601f19601f820116820180604052508101906121189190612fae565b610b64612322565b7f4910fdfa16fed3260ed0e7147f7cc6da11a60208b5b9406d12a635614ffd91435460ff16156121db576120cf8361276f565b826001600160a01b03166352d1902d6040518163ffffffff1660e01b815260040160206040518083038186803b15801561221457600080fd5b505afa925050508015612244575060408051601f3d908101601f191682019092526122419181019061307b565b60015b6122a75760405162461bcd60e51b815260206004820152602e60248201527f45524331393637557067726164653a206e657720696d706c656d656e7461746960448201526d6f6e206973206e6f74205555505360901b60648201526084016103be565b6000805160206132ff83398151915281146123165760405162461bcd60e51b815260206004820152602960248201527f45524331393637557067726164653a20756e737570706f727465642070726f786044820152681a58589b195555525160ba1b60648201526084016103be565b506120cf83838361280b565b6033546001600160a01b031633146110ef5760405162461bcd60e51b815260206004820181905260248201527f4f776e61626c653a2063616c6c6572206973206e6f7420746865206f776e657260448201526064016103be565b603380546001600160a01b038381166001600160a01b0319831681179093556040519116919082907f8be0079c531659141344cd1fd0a4f28419497f9722a3daafe3b4186f6b6457e090600090a35050565b600054610100900460ff166123f55760405162461bcd60e51b81526004016103be906131f2565b6110ef612830565b600054610100900460ff166110ef5760405162461bcd60e51b81526004016103be906131f2565b6001600160a01b0380831660009081526101016020908152604080832085845282528083208151608081018352815460ff8116825261010090049095168584015260018101805483518186028101860185528181529596959294938601938301828280156124bb57602002820191906000526020600020905b81546001600160a01b0316815260019091019060200180831161249d575b505050505081526020016002820180548060200260200160405190810160405280929190818152602001828054801561251357602002820191906000526020600020905b8154815260200190600101908083116124ff575b505050505081525050905060005b8160400151518110156125cc578160600151818151811061254457612544613094565b602002602001015160fe60008460400151848151811061256657612566613094565b60200260200101516001600160a01b03166001600160a01b03168152602001908152602001600020836000015160ff16600281106125a6576125a6613094565b0160008282546125b6919061323d565b909155506125c59050816130c0565b9050612521565b506001600160a01b038316600090815261010160209081526040808320858452909152812080546001600160a81b03191681559061260d6001830182612c00565b61261b600283016000612c00565b50506001600160a01b038316600090815260ff6020526040908190209051630cef945b60e31b815260048101919091526024810183905273__$e9d29609e19beebe46219d41a81a317a2e$__9063677ca2d89060440160006040518083038186803b15801561268957600080fd5b505af415801561269d573d6000803e3d6000fd5b5050336000908152610100602090815260408083206001600160a01b0389168452909152908190209051630cef945b60e31b815260048101919091526024810185905273__$e9d29609e19beebe46219d41a81a317a2e$__925063677ca2d8915060440160006040518083038186803b15801561271957600080fd5b505af415801561272d573d6000803e3d6000fd5b50505050505050565b600061274183612860565b1561275957612752838388886128e7565b905061275c565b50835b6127678682866120d4565b505050505050565b6001600160a01b0381163b6127dc5760405162461bcd60e51b815260206004820152602d60248201527f455243313936373a206e657720696d706c656d656e746174696f6e206973206e60448201526c1bdd08184818dbdb9d1c9858dd609a1b60648201526084016103be565b6000805160206132ff83398151915280546001600160a01b0319166001600160a01b0392909216919091179055565b612814836129e2565b6000825111806128215750805b156120cf576121188383612a22565b600054610100900460ff166128575760405162461bcd60e51b81526004016103be906131f2565b6110ef3361237c565b6040516301ffc9a760e01b815263152a902d60e11b60048201526000906001600160a01b038316906301ffc9a79060240160206040518083038186803b1580156128a957600080fd5b505afa1580156128bd573d6000803e3d6000fd5b505050506040513d601f19601f820116820180604052508101906128e19190612fae565b92915050565b60405163152a902d60e11b81526004810184905260248101829052600090819081906001600160a01b03881690632a55205a90604401604080518083038186803b15801561293457600080fd5b505afa158015612948573d6000803e3d6000fd5b505050506040513d601f19601f8201168201806040525081019061296c9190613255565b909250905061297b81856130db565b9250801561298e5761298e8582846120d4565b604080516001600160a01b0389168152602081018890529081018290527f7a474f3ea7966b6a336a0169253a863c5bbe817379d3570951736f604adbe2699060600160405180910390a15050949350505050565b6129eb8161276f565b6040516001600160a01b038216907fbc7cd75a20ee27fd9adebab32041f755214dbc6bffa90cc0225b39da2e5c2d3b90600090a250565b60606001600160a01b0383163b612a8a5760405162461bcd60e51b815260206004820152602660248201527f416464726573733a2064656c65676174652063616c6c20746f206e6f6e2d636f6044820152651b9d1c9858dd60d21b60648201526084016103be565b600080846001600160a01b031684604051612aa591906132af565b600060405180830381855af49150503d8060008114612ae0576040519150601f19603f3d011682016040523d82523d6000602084013e612ae5565b606091505b5091509150612b0d828260405180606001604052806027815260200161331f60279139612b16565b95945050505050565b60608315612b25575081612b2f565b612b2f8383612b36565b9392505050565b815115612b465781518083602001fd5b8060405162461bcd60e51b81526004016103be91906132cb565b828054828255906000526020600020908101928215612bb5579160200282015b82811115612bb557825182546001600160a01b0319166001600160a01b03909116178255602090920191600190910190612b80565b50612bc1929150612c1a565b5090565b828054828255906000526020600020908101928215612bb5579160200282015b82811115612bb5578251825591602001919060010190612be5565b5080546000825590600052602060002090810190610b6491905b5b80821115612bc15760008155600101612c1b565b6001600160a01b0381168114610b6457600080fd5b600080600060608486031215612c5957600080fd5b8335612c6481612c2f565b95602085013595506040909401359392505050565b60008060408385031215612c8c57600080fd5b8235612c9781612c2f565b91506020830135612ca781612c2f565b809150509250929050565b600081518084526020808501945080840160005b83811015612ce257815187529582019590820190600101612cc6565b509495945050505050565b60006020808301818452808551808352604092508286019150828160051b8701018488016000805b84811015612db657898403603f190186528251805160ff168552888101516001600160a01b039081168a8701528882015160808a8801819052815190880181905260a0880192918c019186915b80831015612d8457835182168552938d0193928d019260019290920191612d62565b5050505060608083015192508682038188015250612da28183612cb2565b978a01979550505091870191600101612d15565b50919998505050505050505050565b803560ff81168114612dd657600080fd5b919050565b60008060408385031215612dee57600080fd5b82359150612dfe60208401612dc5565b90509250929050565b600060208284031215612e1957600080fd5b8135612b2f81612c2f565b60008060408385031215612e3757600080fd5b8235612e4281612c2f565b946020939093013593505050565b634e487b7160e01b600052604160045260246000fd5b60008060408385031215612e7957600080fd5b8235612e8481612c2f565b9150602083013567ffffffffffffffff80821115612ea157600080fd5b818501915085601f830112612eb557600080fd5b813581811115612ec757612ec7612e50565b604051601f8201601f19908116603f01168101908382118183101715612eef57612eef612e50565b81604052828152886020848701011115612f0857600080fd5b8260208601602083013760006020848301015280955050505050509250929050565b600060208284031215612f3c57600080fd5b5035919050565b600080600060608486031215612f5857600080fd5b8335612f6381612c2f565b925060208401359150612f7860408501612dc5565b90509250925092565b602080825260139082015272139bc81059191c995cdcc810dbdb9d1c9858dd606a1b604082015260600190565b600060208284031215612fc057600080fd5b81518015158114612b2f57600080fd5b6020808252600c908201526b139bdd0815995c9a599a595960a21b604082015260600190565b6020808252600e908201526d2737ba1027b71020bab1ba34b7b760911b604082015260600190565b604080825283519082018190526000906020906060840190828701845b828110156130605781516001600160a01b03168452928401929084019060010161303b565b5050506001600160a01b039490941692019190915250919050565b60006020828403121561308d57600080fd5b5051919050565b634e487b7160e01b600052603260045260246000fd5b634e487b7160e01b600052601160045260246000fd5b60006000198214156130d4576130d46130aa565b5060010190565b6000828210156130ed576130ed6130aa565b500390565b6020808252602c908201527f46756e6374696f6e206d7573742062652063616c6c6564207468726f7567682060408201526b19195b1959d85d1958d85b1b60a21b606082015260800190565b6020808252602c908201527f46756e6374696f6e206d7573742062652063616c6c6564207468726f7567682060408201526b6163746976652070726f787960a01b606082015260800190565b6001600160a01b039384168152919092166020820152604081019190915260600190565b6020808252825182820181905260009190848201906040850190845b818110156131e6578351835292840192918401916001016131ca565b50909695505050505050565b6020808252602b908201527f496e697469616c697a61626c653a20636f6e7472616374206973206e6f74206960408201526a6e697469616c697a696e6760a81b606082015260800190565b60008219821115613250576132506130aa565b500190565b6000806040838503121561326857600080fd5b825161327381612c2f565b6020939093015192949293505050565b60005b8381101561329e578181015183820152602001613286565b838111156121185750506000910152565b600082516132c1818460208701613283565b9190910192915050565b60208152600082518060208401526132ea816040850160208701613283565b601f01601f1916919091016040019291505056fe360894a13ba1a3210667c828492db98dca3e2076cc3735a920a3ca505d382bbc416464726573733a206c6f772d6c6576656c2064656c65676174652063616c6c206661696c6564a264697066735822122056464c06487eca91522e7746f88c9088eaf06784c8da129bf448f7d9a40fd1f864736f6c63430008090033",
  "linkReferences": {
    "contracts/libraries/ArrayLibrary.sol": {
      "ArrayLibrary": [
        {
          "length": 20,
          "start": 1455
        },
        {
          "length": 20,
          "start": 3373
        },
        {
          "length": 20,
          "start": 3713
        },
        {
          "length": 20,
          "start": 3819
        },
        {
          "length": 20,
          "start": 5987
        },
        {
          "length": 20,
          "start": 6370
        },
        {
          "length": 20,
          "start": 6478
        },
        {
          "length": 20,
          "start": 9888
        },
        {
          "length": 20,
          "start": 10030
        }
      ]
    }
  },
  "deployedLinkReferences": {
    "contracts/libraries/ArrayLibrary.sol": {
      "ArrayLibrary": [
        {
          "length": 20,
          "start": 1379
        },
        {
          "length": 20,
          "start": 3297
        },
        {
          "length": 20,
          "start": 3637
        },
        {
          "length": 20,
          "start": 3743
        },
        {
          "length": 20,
          "start": 5911
        },
        {
          "length": 20,
          "start": 6294
        },
        {
          "length": 20,
          "start": 6402
        },
        {
          "length": 20,
          "start": 9812
        },
        {
          "length": 20,
          "start": 9954
        }
      ]
    }
  }
}