{
  "_format": "hh-sol-artifact-1",
  "contractName": "ProxyRegistry",
  "sourceName": "contracts/ProxyRegistry.sol",
  "abi": [
    {
      "inputs": [
        {
          "internalType": "address",
          "name": "",
          "type": "address"
        },
        {
          "internalType": "address",
          "name": "",
          "type": "address"
        }
      ],
      "name": "proxies",
      "outputs": [
        {
          "internalType": "bool",
          "name": "",
          "type": "bool"
        }
      ],
      "stateMutability": "view",
      "type": "function"
    },
    {
      "inputs": [
        {
          "internalType": "address",
          "name": "addr",
          "type": "address"
        }
      ],
      "name": "setProxy",
      "outputs": [],
      "stateMutability": "nonpayable",
      "type": "function"
    }
  ],
  "bytecode": "0x608060405234801561001057600080fd5b50610160806100206000396000f3fe608060405234801561001057600080fd5b50600436106100365760003560e01c806336d42e9b1461003b57806397107d6d1461007a575b600080fd5b6100666100493660046100d5565b600060208181529281526040808220909352908152205460ff1681565b604051901515815260200160405180910390f35b6100b7610088366004610108565b336000908152602081815260408083206001600160a01b0394909416835292905220805460ff19166001179055565b005b80356001600160a01b03811681146100d057600080fd5b919050565b600080604083850312156100e857600080fd5b6100f1836100b9565b91506100ff602084016100b9565b90509250929050565b60006020828403121561011a57600080fd5b610123826100b9565b939250505056fea2646970667358221220e345e5158af5a32bd78bb1bb5c965560070ffaf5f61c15de385903060af26fcf64736f6c63430008090033",
  "linkReferences": {},
  "deployedLinkReferences": {}
}