{
  "_format": "hh-sol-artifact-1",
  "contractName": "Custom721Royal",
  "sourceName": "contracts/mocks/Custom721Royal.sol",
  "abi": [
    {
      "inputs": [
        {
          "internalType": "string",
          "name": "name",
          "type": "string"
        },
        {
          "internalType": "string",
          "name": "symbol",
          "type": "string"
        },
        {
          "internalType": "address",
          "name": "proxy",
          "type": "address"
        }
      ],
      "stateMutability": "nonpayable",
      "type": "constructor"
    },
    {
      "anonymous": false,
      "inputs": [
        {
          "indexed": true,
          "internalType": "address",
          "name": "owner",
          "type": "address"
        },
        {
          "indexed": true,
          "internalType": "address",
          "name": "approved",
          "type": "address"
        },
        {
          "indexed": true,
          "internalType": "uint256",
          "name": "tokenId",
          "type": "uint256"
        }
      ],
      "name": "Approval",
      "type": "event"
    },
    {
      "anonymous": false,
      "inputs": [
        {
          "indexed": true,
          "internalType": "address",
          "name": "owner",
          "type": "address"
        },
        {
          "indexed": true,
          "internalType": "address",
          "name": "operator",
          "type": "address"
        },
        {
          "indexed": false,
          "internalType": "bool",
          "name": "approved",
          "type": "bool"
        }
      ],
      "name": "ApprovalForAll",
      "type": "event"
    },
    {
      "anonymous": false,
      "inputs": [
        {
          "indexed": true,
          "internalType": "address",
          "name": "from",
          "type": "address"
        },
        {
          "indexed": true,
          "internalType": "address",
          "name": "to",
          "type": "address"
        },
        {
          "indexed": true,
          "internalType": "uint256",
          "name": "tokenId",
          "type": "uint256"
        }
      ],
      "name": "Transfer",
      "type": "event"
    },
    {
      "inputs": [
        {
          "internalType": "address",
          "name": "to",
          "type": "address"
        },
        {
          "internalType": "uint256",
          "name": "tokenId",
          "type": "uint256"
        }
      ],
      "name": "approve",
      "outputs": [],
      "stateMutability": "nonpayable",
      "type": "function"
    },
    {
      "inputs": [
        {
          "internalType": "address",
          "name": "owner",
          "type": "address"
        }
      ],
      "name": "balanceOf",
      "outputs": [
        {
          "internalType": "uint256",
          "name": "",
          "type": "uint256"
        }
      ],
      "stateMutability": "view",
      "type": "function"
    },
    {
      "inputs": [
        {
          "internalType": "uint256",
          "name": "tokenId",
          "type": "uint256"
        }
      ],
      "name": "getApproved",
      "outputs": [
        {
          "internalType": "address",
          "name": "",
          "type": "address"
        }
      ],
      "stateMutability": "view",
      "type": "function"
    },
    {
      "inputs": [
        {
          "internalType": "address",
          "name": "_owner",
          "type": "address"
        },
        {
          "internalType": "address",
          "name": "_operator",
          "type": "address"
        }
      ],
      "name": "isApprovedForAll",
      "outputs": [
        {
          "internalType": "bool",
          "name": "",
          "type": "bool"
        }
      ],
      "stateMutability": "view",
      "type": "function"
    },
    {
      "inputs": [
        {
          "internalType": "string",
          "name": "uri",
          "type": "string"
        },
        {
          "internalType": "uint256",
          "name": "cnt",
          "type": "uint256"
        },
        {
          "internalType": "address",
          "name": "royaltyReceiver",
          "type": "address"
        },
        {
          "internalType": "uint96",
          "name": "royaltyPercentage",
          "type": "uint96"
        }
      ],
      "name": "mint",
      "outputs": [],
      "stateMutability": "nonpayable",
      "type": "function"
    },
    {
      "inputs": [],
      "name": "name",
      "outputs": [
        {
          "internalType": "string",
          "name": "",
          "type": "string"
        }
      ],
      "stateMutability": "view",
      "type": "function"
    },
    {
      "inputs": [
        {
          "internalType": "uint256",
          "name": "tokenId",
          "type": "uint256"
        }
      ],
      "name": "ownerOf",
      "outputs": [
        {
          "internalType": "address",
          "name": "",
          "type": "address"
        }
      ],
      "stateMutability": "view",
      "type": "function"
    },
    {
      "inputs": [
        {
          "internalType": "uint256",
          "name": "_tokenId",
          "type": "uint256"
        },
        {
          "internalType": "uint256",
          "name": "_salePrice",
          "type": "uint256"
        }
      ],
      "name": "royaltyInfo",
      "outputs": [
        {
          "internalType": "address",
          "name": "",
          "type": "address"
        },
        {
          "internalType": "uint256",
          "name": "",
          "type": "uint256"
        }
      ],
      "stateMutability": "view",
      "type": "function"
    },
    {
      "inputs": [
        {
          "internalType": "address",
          "name": "from",
          "type": "address"
        },
        {
          "internalType": "address",
          "name": "to",
          "type": "address"
        },
        {
          "internalType": "uint256",
          "name": "tokenId",
          "type": "uint256"
        }
      ],
      "name": "safeTransferFrom",
      "outputs": [],
      "stateMutability": "nonpayable",
      "type": "function"
    },
    {
      "inputs": [
        {
          "internalType": "address",
          "name": "from",
          "type": "address"
        },
        {
          "internalType": "address",
          "name": "to",
          "type": "address"
        },
        {
          "internalType": "uint256",
          "name": "tokenId",
          "type": "uint256"
        },
        {
          "internalType": "bytes",
          "name": "data",
          "type": "bytes"
        }
      ],
      "name": "safeTransferFrom",
      "outputs": [],
      "stateMutability": "nonpayable",
      "type": "function"
    },
    {
      "inputs": [
        {
          "internalType": "address",
          "name": "operator",
          "type": "address"
        },
        {
          "internalType": "bool",
          "name": "approved",
          "type": "bool"
        }
      ],
      "name": "setApprovalForAll",
      "outputs": [],
      "stateMutability": "nonpayable",
      "type": "function"
    },
    {
      "inputs": [
        {
          "internalType": "bytes4",
          "name": "interfaceId",
          "type": "bytes4"
        }
      ],
      "name": "supportsInterface",
      "outputs": [
        {
          "internalType": "bool",
          "name": "",
          "type": "bool"
        }
      ],
      "stateMutability": "view",
      "type": "function"
    },
    {
      "inputs": [],
      "name": "symbol",
      "outputs": [
        {
          "internalType": "string",
          "name": "",
          "type": "string"
        }
      ],
      "stateMutability": "view",
      "type": "function"
    },
    {
      "inputs": [
        {
          "internalType": "uint256",
          "name": "index",
          "type": "uint256"
        }
      ],
      "name": "tokenByIndex",
      "outputs": [
        {
          "internalType": "uint256",
          "name": "",
          "type": "uint256"
        }
      ],
      "stateMutability": "view",
      "type": "function"
    },
    {
      "inputs": [
        {
          "internalType": "address",
          "name": "owner",
          "type": "address"
        },
        {
          "internalType": "uint256",
          "name": "index",
          "type": "uint256"
        }
      ],
      "name": "tokenOfOwnerByIndex",
      "outputs": [
        {
          "internalType": "uint256",
          "name": "",
          "type": "uint256"
        }
      ],
      "stateMutability": "view",
      "type": "function"
    },
    {
      "inputs": [
        {
          "internalType": "uint256",
          "name": "tokenId",
          "type": "uint256"
        }
      ],
      "name": "tokenURI",
      "outputs": [
        {
          "internalType": "string",
          "name": "",
          "type": "string"
        }
      ],
      "stateMutability": "view",
      "type": "function"
    },
    {
      "inputs": [],
      "name": "totalMinted",
      "outputs": [
        {
          "internalType": "uint256",
          "name": "",
          "type": "uint256"
        }
      ],
      "stateMutability": "view",
      "type": "function"
    },
    {
      "inputs": [],
      "name": "totalSupply",
      "outputs": [
        {
          "internalType": "uint256",
          "name": "",
          "type": "uint256"
        }
      ],
      "stateMutability": "view",
      "type": "function"
    },
    {
      "inputs": [
        {
          "internalType": "address",
          "name": "from",
          "type": "address"
        },
        {
          "internalType": "address",
          "name": "to",
          "type": "address"
        },
        {
          "internalType": "uint256",
          "name": "tokenId",
          "type": "uint256"
        }
      ],
      "name": "transferFrom",
      "outputs": [],
      "stateMutability": "nonpayable",
      "type": "function"
    }
  ],
  "bytecode": "0x60806040523480156200001157600080fd5b5060405162001f1138038062001f11833981016040819052620000349162000203565b8251839083906200004d90600090602085019062000090565b5080516200006390600190602084019062000090565b5050600e80546001600160a01b0319166001600160a01b03939093169290921790915550620002cd915050565b8280546200009e9062000290565b90600052602060002090601f016020900481019282620000c257600085556200010d565b82601f10620000dd57805160ff19168380011785556200010d565b828001600101855582156200010d579182015b828111156200010d578251825591602001919060010190620000f0565b506200011b9291506200011f565b5090565b5b808211156200011b576000815560010162000120565b634e487b7160e01b600052604160045260246000fd5b600082601f8301126200015e57600080fd5b81516001600160401b03808211156200017b576200017b62000136565b604051601f8301601f19908116603f01168101908282118183101715620001a657620001a662000136565b81604052838152602092508683858801011115620001c357600080fd5b600091505b83821015620001e75785820183015181830184015290820190620001c8565b83821115620001f95760008385830101525b9695505050505050565b6000806000606084860312156200021957600080fd5b83516001600160401b03808211156200023157600080fd5b6200023f878388016200014c565b945060208601519150808211156200025657600080fd5b5062000265868287016200014c565b604086015190935090506001600160a01b03811681146200028557600080fd5b809150509250925092565b600181811c90821680620002a557607f821691505b60208210811415620002c757634e487b7160e01b600052602260045260246000fd5b50919050565b611c3480620002dd6000396000f3fe608060405234801561001057600080fd5b50600436106101215760003560e01c80634f6ccce7116100ad578063a22cb46511610071578063a22cb46514610274578063a2309ff814610287578063b88d4fde14610290578063c87b56dd146102a3578063e985e9c5146102b657600080fd5b80634f6ccce7146102205780636352211e1461023357806370a08231146102465780637b8a5a2f1461025957806395d89b411461026c57600080fd5b806318160ddd116100f457806318160ddd146101a357806323b872dd146101b55780632a55205a146101c85780632f745c59146101fa57806342842e0e1461020d57600080fd5b806301ffc9a71461012657806306fdde031461014e578063081812fc14610163578063095ea7b31461018e575b600080fd5b61013961013436600461163c565b6102c9565b60405190151581526020015b60405180910390f35b6101566102da565b60405161014591906116a6565b6101766101713660046116b9565b61036c565b6040516001600160a01b039091168152602001610145565b6101a161019c3660046116ee565b610393565b005b6008545b604051908152602001610145565b6101a16101c3366004611718565b6104ae565b6101db6101d6366004611754565b6104df565b604080516001600160a01b039093168352602083019190915201610145565b6101a76102083660046116ee565b61058b565b6101a161021b366004611718565b610621565b6101a761022e3660046116b9565b61063c565b6101766102413660046116b9565b6106cf565b6101a7610254366004611776565b61072f565b6101a161026736600461181d565b6107b5565b610156610824565b6101a16102823660046118b5565b610833565b6101a7600c5481565b6101a161029e3660046118ec565b610842565b6101566102b13660046116b9565b61087a565b6101396102c4366004611968565b61091c565b60006102d48261095f565b92915050565b6060600080546102e99061199b565b80601f01602080910402602001604051908101604052809291908181526020018280546103159061199b565b80156103625780601f1061033757610100808354040283529160200191610362565b820191906000526020600020905b81548152906001019060200180831161034557829003601f168201915b5050505050905090565b600061037782610984565b506000908152600460205260409020546001600160a01b031690565b600061039e826106cf565b9050806001600160a01b0316836001600160a01b031614156104115760405162461bcd60e51b815260206004820152602160248201527f4552433732313a20617070726f76616c20746f2063757272656e74206f776e656044820152603960f91b60648201526084015b60405180910390fd5b336001600160a01b038216148061042d575061042d813361091c565b61049f5760405162461bcd60e51b815260206004820152603d60248201527f4552433732313a20617070726f76652063616c6c6572206973206e6f7420746f60448201527f6b656e206f776e6572206f7220617070726f76656420666f7220616c6c0000006064820152608401610408565b6104a983836109e6565b505050565b6104b83382610a54565b6104d45760405162461bcd60e51b8152600401610408906119d6565b6104a9838383610ab3565b6000828152600b602090815260408083208151808301909252546001600160a01b038116808352600160a01b9091046001600160601b0316928201929092528291610554575060408051808201909152600a546001600160a01b0381168252600160a01b90046001600160601b031660208201525b602081015160009061271090610573906001600160601b031687611a39565b61057d9190611a58565b915196919550909350505050565b60006105968361072f565b82106105f85760405162461bcd60e51b815260206004820152602b60248201527f455243373231456e756d657261626c653a206f776e657220696e646578206f7560448201526a74206f6620626f756e647360a81b6064820152608401610408565b506001600160a01b03919091166000908152600660209081526040808320938352929052205490565b6104a983838360405180602001604052806000815250610842565b600061064760085490565b82106106aa5760405162461bcd60e51b815260206004820152602c60248201527f455243373231456e756d657261626c653a20676c6f62616c20696e646578206f60448201526b7574206f6620626f756e647360a01b6064820152608401610408565b600882815481106106bd576106bd611a7a565b90600052602060002001549050919050565b6000818152600260205260408120546001600160a01b0316806102d45760405162461bcd60e51b8152602060048201526018602482015277115490cdcc8c4e881a5b9d985b1a59081d1bdad95b88125160421b6044820152606401610408565b60006001600160a01b0382166107995760405162461bcd60e51b815260206004820152602960248201527f4552433732313a2061646472657373207a65726f206973206e6f7420612076616044820152683634b21037bbb732b960b91b6064820152608401610408565b506001600160a01b031660009081526003602052604090205490565b60005b8381101561081d576107dd33600c600081546107d390611a90565b9182905550610c24565b6107ea600c548484610c3e565b600c546000908152600d60209081526040909120865161080c9288019061158d565b5061081681611a90565b90506107b8565b5050505050565b6060600180546102e99061199b565b61083e338383610d4c565b5050565b61084c3383610a54565b6108685760405162461bcd60e51b8152600401610408906119d6565b61087484848484610e1b565b50505050565b6000818152600d602052604090208054606091906108979061199b565b80601f01602080910402602001604051908101604052809291908181526020018280546108c39061199b565b80156109105780601f106108e557610100808354040283529160200191610910565b820191906000526020600020905b8154815290600101906020018083116108f357829003601f168201915b50505050509050919050565b60006109288383610e4e565b8061095857506001600160a01b0380841660009081526005602090815260408083209386168352929052205460ff165b9392505050565b60006001600160e01b0319821663152a902d60e11b14806102d457506102d482610eee565b6000818152600260205260409020546001600160a01b03166109e35760405162461bcd60e51b8152602060048201526018602482015277115490cdcc8c4e881a5b9d985b1a59081d1bdad95b88125160421b6044820152606401610408565b50565b600081815260046020526040902080546001600160a01b0319166001600160a01b0384169081179091558190610a1b826106cf565b6001600160a01b03167f8c5be1e5ebec7d5bd14f71427d1e84f3dd0314c0f7b2291e5b200ac8c7c3b92560405160405180910390a45050565b600080610a60836106cf565b9050806001600160a01b0316846001600160a01b03161480610a875750610a87818561091c565b80610aab5750836001600160a01b0316610aa08461036c565b6001600160a01b0316145b949350505050565b826001600160a01b0316610ac6826106cf565b6001600160a01b031614610aec5760405162461bcd60e51b815260040161040890611aab565b6001600160a01b038216610b4e5760405162461bcd60e51b8152602060048201526024808201527f4552433732313a207472616e7366657220746f20746865207a65726f206164646044820152637265737360e01b6064820152608401610408565b610b5b8383836001610f13565b826001600160a01b0316610b6e826106cf565b6001600160a01b031614610b945760405162461bcd60e51b815260040161040890611aab565b600081815260046020908152604080832080546001600160a01b03199081169091556001600160a01b0387811680865260038552838620805460001901905590871680865283862080546001019055868652600290945282852080549092168417909155905184937fddf252ad1be2c89b69c2b068fc378daa952ba7f163c4a11628f55a4df523b3ef91a4505050565b61083e82826040518060200160405280600081525061104c565b6127106001600160601b0382161115610cac5760405162461bcd60e51b815260206004820152602a60248201527f455243323938313a20726f79616c7479206665652077696c6c206578636565646044820152692073616c65507269636560b01b6064820152608401610408565b6001600160a01b038216610d025760405162461bcd60e51b815260206004820152601b60248201527f455243323938313a20496e76616c696420706172616d657465727300000000006044820152606401610408565b6040805180820182526001600160a01b0393841681526001600160601b0392831660208083019182526000968752600b90529190942093519051909116600160a01b029116179055565b816001600160a01b0316836001600160a01b03161415610dae5760405162461bcd60e51b815260206004820152601960248201527f4552433732313a20617070726f766520746f2063616c6c6572000000000000006044820152606401610408565b6001600160a01b03838116600081815260056020908152604080832094871680845294825291829020805460ff191686151590811790915591519182527f17307eab39ab6107e8899845ad3d59bd9653f200f220920489ca2b5937696c31910160405180910390a3505050565b610e26848484610ab3565b610e328484848461107f565b6108745760405162461bcd60e51b815260040161040890611af0565b600e546000906001600160a01b0316610e69575060006102d4565b600e546040516336d42e9b60e01b81526001600160a01b0385811660048301528481166024830152909116906336d42e9b9060440160206040518083038186803b158015610eb657600080fd5b505afa158015610eca573d6000803e3d6000fd5b505050506040513d601f19601f820116820180604052508101906109589190611b42565b60006001600160e01b0319821663780e9d6360e01b14806102d457506102d48261118c565b610f1f848484846111dc565b6001811115610f8e5760405162461bcd60e51b815260206004820152603560248201527f455243373231456e756d657261626c653a20636f6e7365637574697665207472604482015274185b9cd9995c9cc81b9bdd081cdd5c1c1bdc9d1959605a1b6064820152608401610408565b816001600160a01b038516610fea57610fe581600880546000838152600960205260408120829055600182018355919091527ff3f7a9fe364faab93b216da50a3214154f22a0a2b415b23a84c8169e8b636ee30155565b61100d565b836001600160a01b0316856001600160a01b03161461100d5761100d8582611264565b6001600160a01b0384166110295761102481611301565b61081d565b846001600160a01b0316846001600160a01b03161461081d5761081d84826113b0565b61105683836113f4565b611063600084848461107f565b6104a95760405162461bcd60e51b815260040161040890611af0565b60006001600160a01b0384163b1561118157604051630a85bd0160e11b81526001600160a01b0385169063150b7a02906110c3903390899088908890600401611b5f565b602060405180830381600087803b1580156110dd57600080fd5b505af192505050801561110d575060408051601f3d908101601f1916820190925261110a91810190611b9c565b60015b611167573d80801561113b576040519150601f19603f3d011682016040523d82523d6000602084013e611140565b606091505b50805161115f5760405162461bcd60e51b815260040161040890611af0565b805181602001fd5b6001600160e01b031916630a85bd0160e11b149050610aab565b506001949350505050565b60006001600160e01b031982166380ac58cd60e01b14806111bd57506001600160e01b03198216635b5e139f60e01b145b806102d457506301ffc9a760e01b6001600160e01b03198316146102d4565b6001811115610874576001600160a01b03841615611222576001600160a01b0384166000908152600360205260408120805483929061121c908490611bb9565b90915550505b6001600160a01b03831615610874576001600160a01b03831660009081526003602052604081208054839290611259908490611bd0565b909155505050505050565b600060016112718461072f565b61127b9190611bb9565b6000838152600760205260409020549091508082146112ce576001600160a01b03841660009081526006602090815260408083208584528252808320548484528184208190558352600790915290208190555b5060009182526007602090815260408084208490556001600160a01b039094168352600681528383209183525290812055565b60085460009061131390600190611bb9565b6000838152600960205260408120546008805493945090928490811061133b5761133b611a7a565b90600052602060002001549050806008838154811061135c5761135c611a7a565b600091825260208083209091019290925582815260099091526040808220849055858252812055600880548061139457611394611be8565b6001900381819060005260206000200160009055905550505050565b60006113bb8361072f565b6001600160a01b039093166000908152600660209081526040808320868452825280832085905593825260079052919091209190915550565b6001600160a01b03821661144a5760405162461bcd60e51b815260206004820181905260248201527f4552433732313a206d696e7420746f20746865207a65726f20616464726573736044820152606401610408565b6000818152600260205260409020546001600160a01b0316156114af5760405162461bcd60e51b815260206004820152601c60248201527f4552433732313a20746f6b656e20616c7265616479206d696e746564000000006044820152606401610408565b6114bd600083836001610f13565b6000818152600260205260409020546001600160a01b0316156115225760405162461bcd60e51b815260206004820152601c60248201527f4552433732313a20746f6b656e20616c7265616479206d696e746564000000006044820152606401610408565b6001600160a01b038216600081815260036020908152604080832080546001019055848352600290915280822080546001600160a01b0319168417905551839291907fddf252ad1be2c89b69c2b068fc378daa952ba7f163c4a11628f55a4df523b3ef908290a45050565b8280546115999061199b565b90600052602060002090601f0160209004810192826115bb5760008555611601565b82601f106115d457805160ff1916838001178555611601565b82800160010185558215611601579182015b828111156116015782518255916020019190600101906115e6565b5061160d929150611611565b5090565b5b8082111561160d5760008155600101611612565b6001600160e01b0319811681146109e357600080fd5b60006020828403121561164e57600080fd5b813561095881611626565b6000815180845260005b8181101561167f57602081850181015186830182015201611663565b81811115611691576000602083870101525b50601f01601f19169290920160200192915050565b6020815260006109586020830184611659565b6000602082840312156116cb57600080fd5b5035919050565b80356001600160a01b03811681146116e957600080fd5b919050565b6000806040838503121561170157600080fd5b61170a836116d2565b946020939093013593505050565b60008060006060848603121561172d57600080fd5b611736846116d2565b9250611744602085016116d2565b9150604084013590509250925092565b6000806040838503121561176757600080fd5b50508035926020909101359150565b60006020828403121561178857600080fd5b610958826116d2565b634e487b7160e01b600052604160045260246000fd5b600067ffffffffffffffff808411156117c2576117c2611791565b604051601f8501601f19908116603f011681019082821181831017156117ea576117ea611791565b8160405280935085815286868601111561180357600080fd5b858560208301376000602087830101525050509392505050565b6000806000806080858703121561183357600080fd5b843567ffffffffffffffff81111561184a57600080fd5b8501601f8101871361185b57600080fd5b61186a878235602084016117a7565b94505060208501359250611880604086016116d2565b915060608501356001600160601b038116811461189c57600080fd5b939692955090935050565b80151581146109e357600080fd5b600080604083850312156118c857600080fd5b6118d1836116d2565b915060208301356118e1816118a7565b809150509250929050565b6000806000806080858703121561190257600080fd5b61190b856116d2565b9350611919602086016116d2565b925060408501359150606085013567ffffffffffffffff81111561193c57600080fd5b8501601f8101871361194d57600080fd5b61195c878235602084016117a7565b91505092959194509250565b6000806040838503121561197b57600080fd5b611984836116d2565b9150611992602084016116d2565b90509250929050565b600181811c908216806119af57607f821691505b602082108114156119d057634e487b7160e01b600052602260045260246000fd5b50919050565b6020808252602d908201527f4552433732313a2063616c6c6572206973206e6f7420746f6b656e206f776e6560408201526c1c881bdc88185c1c1c9bdd9959609a1b606082015260800190565b634e487b7160e01b600052601160045260246000fd5b6000816000190483118215151615611a5357611a53611a23565b500290565b600082611a7557634e487b7160e01b600052601260045260246000fd5b500490565b634e487b7160e01b600052603260045260246000fd5b6000600019821415611aa457611aa4611a23565b5060010190565b60208082526025908201527f4552433732313a207472616e736665722066726f6d20696e636f72726563742060408201526437bbb732b960d91b606082015260800190565b60208082526032908201527f4552433732313a207472616e7366657220746f206e6f6e20455243373231526560408201527131b2b4bb32b91034b6b83632b6b2b73a32b960711b606082015260800190565b600060208284031215611b5457600080fd5b8151610958816118a7565b6001600160a01b0385811682528416602082015260408101839052608060608201819052600090611b9290830184611659565b9695505050505050565b600060208284031215611bae57600080fd5b815161095881611626565b600082821015611bcb57611bcb611a23565b500390565b60008219821115611be357611be3611a23565b500190565b634e487b7160e01b600052603160045260246000fdfea2646970667358221220f40b34980f8cf45c5caedf0a31e23fdbc1947c562881436a443110d4db3a97b064736f6c63430008090033",
  "linkReferences": {},
  "deployedLinkReferences": {}
}