{
  "_format": "hh-sol-artifact-1",
  "contractName": "Operator",
  "sourceName": "contracts/mocks/Spark/Role/Operator.sol",
  "abi": [
    {
      "inputs": [],
      "stateMutability": "nonpayable",
      "type": "constructor"
    },
    {
      "anonymous": false,
      "inputs": [
        {
          "indexed": true,
          "internalType": "address",
          "name": "account",
          "type": "address"
        }
      ],
      "name": "OperatorAdded",
      "type": "event"
    },
    {
      "anonymous": false,
      "inputs": [
        {
          "indexed": true,
          "internalType": "address",
          "name": "account",
          "type": "address"
        }
      ],
      "name": "OperatorRemoved",
      "type": "event"
    },
    {
      "inputs": [
        {
          "internalType": "address",
          "name": "account",
          "type": "address"
        }
      ],
      "name": "addOperator",
      "outputs": [],
      "stateMutability": "nonpayable",
      "type": "function"
    },
    {
      "inputs": [
        {
          "internalType": "address",
          "name": "account",
          "type": "address"
        }
      ],
      "name": "isOperator",
      "outputs": [
        {
          "internalType": "bool",
          "name": "",
          "type": "bool"
        }
      ],
      "stateMutability": "view",
      "type": "function"
    },
    {
      "inputs": [],
      "name": "renounceOperator",
      "outputs": [],
      "stateMutability": "nonpayable",
      "type": "function"
    }
  ],
  "bytecode": "0x608060405234801561001057600080fd5b5061001a3361002c565b610027576100273361004c565b61019f565b600061004682600061009b60201b61012a1790919060201c565b92915050565b61006481600061012360201b6101ad1790919060201c565b6040516001600160a01b038216907fac6fa858e9350a46cec16539926e0fde25b7629f84b5a72bffaae4df888ae86d90600090a250565b60006001600160a01b0382166101035760405162461bcd60e51b815260206004820152602260248201527f526f6c65733a206163636f756e7420697320746865207a65726f206164647265604482015261737360f01b60648201526084015b60405180910390fd5b506001600160a01b03166000908152602091909152604090205460ff1690565b61012d828261009b565b1561017a5760405162461bcd60e51b815260206004820152601f60248201527f526f6c65733a206163636f756e7420616c72656164792068617320726f6c650060448201526064016100fa565b6001600160a01b0316600090815260209190915260409020805460ff19166001179055565b610395806101ae6000396000f3fe608060405234801561001057600080fd5b50600436106100415760003560e01c80632ab6f8db146100465780636d70f7ae146100505780639870d7fe14610077575b600080fd5b61004e61008a565b005b61006361005e36600461032f565b610095565b604051901515815260200160405180910390f35b61004e61008536600461032f565b6100a7565b61009333610229565b565b60006100a1818361012a565b92915050565b6100b033610095565b61011e5760405162461bcd60e51b815260206004820152603460248201527f4f70657261746f72526f6c653a2063616c6c657220646f6573206e6f74206861604482015273766520746865204f70657261746f7220726f6c6560601b60648201526084015b60405180910390fd5b6101278161026b565b50565b60006001600160a01b03821661018d5760405162461bcd60e51b815260206004820152602260248201527f526f6c65733a206163636f756e7420697320746865207a65726f206164647265604482015261737360f01b6064820152608401610115565b506001600160a01b03166000908152602091909152604090205460ff1690565b6101b7828261012a565b156102045760405162461bcd60e51b815260206004820152601f60248201527f526f6c65733a206163636f756e7420616c72656164792068617320726f6c65006044820152606401610115565b6001600160a01b0316600090815260209190915260409020805460ff19166001179055565b6102346000826102ad565b6040516001600160a01b038216907f80c0b871b97b595b16a7741c1b06fed0c6f6f558639f18ccbce50724325dc40d90600090a250565b6102766000826101ad565b6040516001600160a01b038216907fac6fa858e9350a46cec16539926e0fde25b7629f84b5a72bffaae4df888ae86d90600090a250565b6102b7828261012a565b61030d5760405162461bcd60e51b815260206004820152602160248201527f526f6c65733a206163636f756e7420646f6573206e6f74206861766520726f6c6044820152606560f81b6064820152608401610115565b6001600160a01b0316600090815260209190915260409020805460ff19169055565b60006020828403121561034157600080fd5b81356001600160a01b038116811461035857600080fd5b939250505056fea2646970667358221220a7effee1b06c48459e555a989e03065dff3aa6beffb9eac295cb9ac5c4967eca64736f6c63430008090033",
  "linkReferences": {},
  "deployedLinkReferences": {}
}