{
  "_format": "hh-sol-artifact-1",
  "contractName": "NFT",
  "sourceName": "contracts/mocks/Spark/NFT/NFT.sol",
  "abi": [
    {
      "inputs": [],
      "stateMutability": "nonpayable",
      "type": "constructor"
    },
    {
      "anonymous": false,
      "inputs": [
        {
          "indexed": true,
          "internalType": "address",
          "name": "owner",
          "type": "address"
        },
        {
          "indexed": true,
          "internalType": "address",
          "name": "approved",
          "type": "address"
        },
        {
          "indexed": true,
          "internalType": "uint256",
          "name": "tokenId",
          "type": "uint256"
        }
      ],
      "name": "Approval",
      "type": "event"
    },
    {
      "anonymous": false,
      "inputs": [
        {
          "indexed": true,
          "internalType": "address",
          "name": "owner",
          "type": "address"
        },
        {
          "indexed": true,
          "internalType": "address",
          "name": "operator",
          "type": "address"
        },
        {
          "indexed": false,
          "internalType": "bool",
          "name": "approved",
          "type": "bool"
        }
      ],
      "name": "ApprovalForAll",
      "type": "event"
    },
    {
      "anonymous": false,
      "inputs": [
        {
          "indexed": true,
          "internalType": "address",
          "name": "previousOwner",
          "type": "address"
        },
        {
          "indexed": true,
          "internalType": "address",
          "name": "newOwner",
          "type": "address"
        }
      ],
      "name": "OwnershipTransferred",
      "type": "event"
    },
    {
      "anonymous": false,
      "inputs": [
        {
          "indexed": true,
          "internalType": "address",
          "name": "from",
          "type": "address"
        },
        {
          "indexed": true,
          "internalType": "address",
          "name": "to",
          "type": "address"
        },
        {
          "indexed": true,
          "internalType": "uint256",
          "name": "tokenId",
          "type": "uint256"
        }
      ],
      "name": "Transfer",
      "type": "event"
    },
    {
      "inputs": [],
      "name": "MINT_PRICE",
      "outputs": [
        {
          "internalType": "uint256",
          "name": "",
          "type": "uint256"
        }
      ],
      "stateMutability": "view",
      "type": "function"
    },
    {
      "inputs": [],
      "name": "TOTAL_SUPPLY",
      "outputs": [
        {
          "internalType": "uint256",
          "name": "",
          "type": "uint256"
        }
      ],
      "stateMutability": "view",
      "type": "function"
    },
    {
      "inputs": [
        {
          "internalType": "address",
          "name": "to",
          "type": "address"
        },
        {
          "internalType": "uint256",
          "name": "tokenId",
          "type": "uint256"
        }
      ],
      "name": "approve",
      "outputs": [],
      "stateMutability": "nonpayable",
      "type": "function"
    },
    {
      "inputs": [
        {
          "internalType": "address",
          "name": "owner",
          "type": "address"
        }
      ],
      "name": "balanceOf",
      "outputs": [
        {
          "internalType": "uint256",
          "name": "",
          "type": "uint256"
        }
      ],
      "stateMutability": "view",
      "type": "function"
    },
    {
      "inputs": [],
      "name": "baseTokenURI",
      "outputs": [
        {
          "internalType": "string",
          "name": "",
          "type": "string"
        }
      ],
      "stateMutability": "view",
      "type": "function"
    },
    {
      "inputs": [
        {
          "internalType": "uint256",
          "name": "tokenId",
          "type": "uint256"
        }
      ],
      "name": "getApproved",
      "outputs": [
        {
          "internalType": "address",
          "name": "",
          "type": "address"
        }
      ],
      "stateMutability": "view",
      "type": "function"
    },
    {
      "inputs": [
        {
          "internalType": "address",
          "name": "owner",
          "type": "address"
        },
        {
          "internalType": "address",
          "name": "operator",
          "type": "address"
        }
      ],
      "name": "isApprovedForAll",
      "outputs": [
        {
          "internalType": "bool",
          "name": "",
          "type": "bool"
        }
      ],
      "stateMutability": "view",
      "type": "function"
    },
    {
      "inputs": [
        {
          "internalType": "address",
          "name": "recipient",
          "type": "address"
        }
      ],
      "name": "mintTo",
      "outputs": [
        {
          "internalType": "uint256",
          "name": "",
          "type": "uint256"
        }
      ],
      "stateMutability": "payable",
      "type": "function"
    },
    {
      "inputs": [],
      "name": "name",
      "outputs": [
        {
          "internalType": "string",
          "name": "",
          "type": "string"
        }
      ],
      "stateMutability": "view",
      "type": "function"
    },
    {
      "inputs": [],
      "name": "owner",
      "outputs": [
        {
          "internalType": "address",
          "name": "",
          "type": "address"
        }
      ],
      "stateMutability": "view",
      "type": "function"
    },
    {
      "inputs": [
        {
          "internalType": "uint256",
          "name": "tokenId",
          "type": "uint256"
        }
      ],
      "name": "ownerOf",
      "outputs": [
        {
          "internalType": "address",
          "name": "",
          "type": "address"
        }
      ],
      "stateMutability": "view",
      "type": "function"
    },
    {
      "inputs": [
        {
          "internalType": "address",
          "name": "dest",
          "type": "address"
        }
      ],
      "name": "payments",
      "outputs": [
        {
          "internalType": "uint256",
          "name": "",
          "type": "uint256"
        }
      ],
      "stateMutability": "view",
      "type": "function"
    },
    {
      "inputs": [],
      "name": "renounceOwnership",
      "outputs": [],
      "stateMutability": "nonpayable",
      "type": "function"
    },
    {
      "inputs": [
        {
          "internalType": "address",
          "name": "from",
          "type": "address"
        },
        {
          "internalType": "address",
          "name": "to",
          "type": "address"
        },
        {
          "internalType": "uint256",
          "name": "tokenId",
          "type": "uint256"
        }
      ],
      "name": "safeTransferFrom",
      "outputs": [],
      "stateMutability": "nonpayable",
      "type": "function"
    },
    {
      "inputs": [
        {
          "internalType": "address",
          "name": "from",
          "type": "address"
        },
        {
          "internalType": "address",
          "name": "to",
          "type": "address"
        },
        {
          "internalType": "uint256",
          "name": "tokenId",
          "type": "uint256"
        },
        {
          "internalType": "bytes",
          "name": "data",
          "type": "bytes"
        }
      ],
      "name": "safeTransferFrom",
      "outputs": [],
      "stateMutability": "nonpayable",
      "type": "function"
    },
    {
      "inputs": [
        {
          "internalType": "address",
          "name": "operator",
          "type": "address"
        },
        {
          "internalType": "bool",
          "name": "approved",
          "type": "bool"
        }
      ],
      "name": "setApprovalForAll",
      "outputs": [],
      "stateMutability": "nonpayable",
      "type": "function"
    },
    {
      "inputs": [
        {
          "internalType": "string",
          "name": "_baseTokenURI",
          "type": "string"
        }
      ],
      "name": "setBaseTokenURI",
      "outputs": [],
      "stateMutability": "nonpayable",
      "type": "function"
    },
    {
      "inputs": [
        {
          "internalType": "bytes4",
          "name": "interfaceId",
          "type": "bytes4"
        }
      ],
      "name": "supportsInterface",
      "outputs": [
        {
          "internalType": "bool",
          "name": "",
          "type": "bool"
        }
      ],
      "stateMutability": "view",
      "type": "function"
    },
    {
      "inputs": [],
      "name": "symbol",
      "outputs": [
        {
          "internalType": "string",
          "name": "",
          "type": "string"
        }
      ],
      "stateMutability": "view",
      "type": "function"
    },
    {
      "inputs": [
        {
          "internalType": "uint256",
          "name": "tokenId",
          "type": "uint256"
        }
      ],
      "name": "tokenURI",
      "outputs": [
        {
          "internalType": "string",
          "name": "",
          "type": "string"
        }
      ],
      "stateMutability": "view",
      "type": "function"
    },
    {
      "inputs": [
        {
          "internalType": "address",
          "name": "from",
          "type": "address"
        },
        {
          "internalType": "address",
          "name": "to",
          "type": "address"
        },
        {
          "internalType": "uint256",
          "name": "tokenId",
          "type": "uint256"
        }
      ],
      "name": "transferFrom",
      "outputs": [],
      "stateMutability": "nonpayable",
      "type": "function"
    },
    {
      "inputs": [
        {
          "internalType": "address",
          "name": "newOwner",
          "type": "address"
        }
      ],
      "name": "transferOwnership",
      "outputs": [],
      "stateMutability": "nonpayable",
      "type": "function"
    },
    {
      "inputs": [
        {
          "internalType": "address payable",
          "name": "payee",
          "type": "address"
        }
      ],
      "name": "withdrawPayments",
      "outputs": [],
      "stateMutability": "nonpayable",
      "type": "function"
    }
  ],
  "bytecode": "0x60a06040523480156200001157600080fd5b50604080518082018252600b81526a139195151d5d1bdc9a585b60aa1b60208083019182528351808501909452600384526213919560ea1b908401528151919291620000609160009162000135565b5080516200007690600190602084019062000135565b5050506040516200008790620001c4565b604051809103906000f080158015620000a4573d6000803e3d6000fd5b506001600160a01b0316608052620000bc33620000e3565b604080516020810191829052600090819052620000dc9160089162000135565b5062000226565b600680546001600160a01b038381166001600160a01b0319831681179093556040519116919082907f8be0079c531659141344cd1fd0a4f28419497f9722a3daafe3b4186f6b6457e090600090a35050565b8280546200014390620001e9565b90600052602060002090601f016020900481019282620001675760008555620001b2565b82601f106200018257805160ff1916838001178555620001b2565b82800160010185558215620001b2579182015b82811115620001b257825182559160200191906001019062000195565b50620001c0929150620001d2565b5090565b61058b8062001d5383390190565b5b80821115620001c05760008155600101620001d3565b600181811c90821680620001fe57607f821691505b602082108114156200022057634e487b7160e01b600052602260045260246000fd5b50919050565b608051611b0a6200024960003960008181610a440152610e6c0152611b0a6000f3fe6080604052600436106101405760003560e01c8063755edd17116100b6578063c002d23d1161006f578063c002d23d14610375578063c87b56dd14610391578063d547cfb7146103b1578063e2982c21146103c6578063e985e9c5146103e6578063f2fde38b1461042f57600080fd5b8063755edd17146102d95780638da5cb5b146102ec578063902d55a51461030a57806395d89b4114610320578063a22cb46514610335578063b88d4fde1461035557600080fd5b806330176e131161010857806330176e131461021657806331b3eb941461023657806342842e0e146102565780636352211e1461027657806370a0823114610296578063715018a6146102c457600080fd5b806301ffc9a71461014557806306fdde031461017a578063081812fc1461019c578063095ea7b3146101d457806323b872dd146101f6575b600080fd5b34801561015157600080fd5b506101656101603660046115cd565b61044f565b60405190151581526020015b60405180910390f35b34801561018657600080fd5b5061018f6104a1565b6040516101719190611642565b3480156101a857600080fd5b506101bc6101b7366004611655565b610533565b6040516001600160a01b039091168152602001610171565b3480156101e057600080fd5b506101f46101ef366004611683565b61055a565b005b34801561020257600080fd5b506101f46102113660046116af565b610675565b34801561022257600080fd5b506101f461023136600461177c565b6106a6565b34801561024257600080fd5b506101f46102513660046117c5565b6106c5565b34801561026257600080fd5b506101f46102713660046116af565b6106d9565b34801561028257600080fd5b506101bc610291366004611655565b6106f4565b3480156102a257600080fd5b506102b66102b13660046117c5565b610754565b604051908152602001610171565b3480156102d057600080fd5b506101f46107da565b6102b66102e73660046117c5565b6107ee565b3480156102f857600080fd5b506006546001600160a01b03166101bc565b34801561031657600080fd5b506102b661271081565b34801561032c57600080fd5b5061018f6108dc565b34801561034157600080fd5b506101f46103503660046117e2565b6108eb565b34801561036157600080fd5b506101f4610370366004611820565b6108f6565b34801561038157600080fd5b506102b667011c37937e08000081565b34801561039d57600080fd5b5061018f6103ac366004611655565b61092e565b3480156103bd57600080fd5b5061018f610994565b3480156103d257600080fd5b506102b66103e13660046117c5565b610a22565b3480156103f257600080fd5b506101656104013660046118a0565b6001600160a01b03918216600090815260056020908152604080832093909416825291909152205460ff1690565b34801561043b57600080fd5b506101f461044a3660046117c5565b610ac0565b60006001600160e01b031982166380ac58cd60e01b148061048057506001600160e01b03198216635b5e139f60e01b145b8061049b57506301ffc9a760e01b6001600160e01b03198316145b92915050565b6060600080546104b0906118ce565b80601f01602080910402602001604051908101604052809291908181526020018280546104dc906118ce565b80156105295780601f106104fe57610100808354040283529160200191610529565b820191906000526020600020905b81548152906001019060200180831161050c57829003601f168201915b5050505050905090565b600061053e82610b36565b506000908152600460205260409020546001600160a01b031690565b6000610565826106f4565b9050806001600160a01b0316836001600160a01b031614156105d85760405162461bcd60e51b815260206004820152602160248201527f4552433732313a20617070726f76616c20746f2063757272656e74206f776e656044820152603960f91b60648201526084015b60405180910390fd5b336001600160a01b03821614806105f457506105f48133610401565b6106665760405162461bcd60e51b815260206004820152603d60248201527f4552433732313a20617070726f76652063616c6c6572206973206e6f7420746f60448201527f6b656e206f776e6572206f7220617070726f76656420666f7220616c6c00000060648201526084016105cf565b6106708383610b95565b505050565b61067f3382610c03565b61069b5760405162461bcd60e51b81526004016105cf90611909565b610670838383610c82565b6106ae610df3565b80516106c190600890602084019061151e565b5050565b6106cd610df3565b6106d681610e4d565b50565b610670838383604051806020016040528060008152506108f6565b6000818152600260205260408120546001600160a01b03168061049b5760405162461bcd60e51b8152602060048201526018602482015277115490cdcc8c4e881a5b9d985b1a59081d1bdad95b88125160421b60448201526064016105cf565b60006001600160a01b0382166107be5760405162461bcd60e51b815260206004820152602960248201527f4552433732313a2061646472657373207a65726f206973206e6f7420612076616044820152683634b21037bbb732b960b91b60648201526084016105cf565b506001600160a01b031660009081526003602052604090205490565b6107e2610df3565b6107ec6000610ecb565b565b6000806107fa60075490565b905061271081106108425760405162461bcd60e51b815260206004820152601260248201527113585e081cdd5c1c1b1e481c995858da195960721b60448201526064016105cf565b67011c37937e08000034146108b05760405162461bcd60e51b815260206004820152602e60248201527f5472616e73616374696f6e2076616c756520646964206e6f7420657175616c2060448201526d746865206d696e7420707269636560901b60648201526084016105cf565b6108be600780546001019055565b60006108c960075490565b90506108d58482610f1d565b9392505050565b6060600180546104b0906118ce565b6106c1338383610f37565b6109003383610c03565b61091c5760405162461bcd60e51b81526004016105cf90611909565b61092884848484611006565b50505050565b606061093982610b36565b6000610943611039565b9050600081511161096357604051806020016040528060008152506108d5565b8061096d84611048565b60405160200161097e929190611956565b6040516020818303038152906040529392505050565b600880546109a1906118ce565b80601f01602080910402602001604051908101604052809291908181526020018280546109cd906118ce565b8015610a1a5780601f106109ef57610100808354040283529160200191610a1a565b820191906000526020600020905b8154815290600101906020018083116109fd57829003601f168201915b505050505081565b6040516371d4ed8d60e11b81526001600160a01b0382811660048301526000917f00000000000000000000000000000000000000000000000000000000000000009091169063e3a9db1a9060240160206040518083038186803b158015610a8857600080fd5b505afa158015610a9c573d6000803e3d6000fd5b505050506040513d601f19601f8201168201806040525081019061049b9190611985565b610ac8610df3565b6001600160a01b038116610b2d5760405162461bcd60e51b815260206004820152602660248201527f4f776e61626c653a206e6577206f776e657220697320746865207a65726f206160448201526564647265737360d01b60648201526084016105cf565b6106d681610ecb565b6000818152600260205260409020546001600160a01b03166106d65760405162461bcd60e51b8152602060048201526018602482015277115490cdcc8c4e881a5b9d985b1a59081d1bdad95b88125160421b60448201526064016105cf565b600081815260046020526040902080546001600160a01b0319166001600160a01b0384169081179091558190610bca826106f4565b6001600160a01b03167f8c5be1e5ebec7d5bd14f71427d1e84f3dd0314c0f7b2291e5b200ac8c7c3b92560405160405180910390a45050565b600080610c0f836106f4565b9050806001600160a01b0316846001600160a01b03161480610c5657506001600160a01b0380821660009081526005602090815260408083209388168352929052205460ff165b80610c7a5750836001600160a01b0316610c6f84610533565b6001600160a01b0316145b949350505050565b826001600160a01b0316610c95826106f4565b6001600160a01b031614610cbb5760405162461bcd60e51b81526004016105cf9061199e565b6001600160a01b038216610d1d5760405162461bcd60e51b8152602060048201526024808201527f4552433732313a207472616e7366657220746f20746865207a65726f206164646044820152637265737360e01b60648201526084016105cf565b610d2a83838360016110e5565b826001600160a01b0316610d3d826106f4565b6001600160a01b031614610d635760405162461bcd60e51b81526004016105cf9061199e565b600081815260046020908152604080832080546001600160a01b03199081169091556001600160a01b0387811680865260038552838620805460001901905590871680865283862080546001019055868652600290945282852080549092168417909155905184937fddf252ad1be2c89b69c2b068fc378daa952ba7f163c4a11628f55a4df523b3ef91a4505050565b6006546001600160a01b031633146107ec5760405162461bcd60e51b815260206004820181905260248201527f4f776e61626c653a2063616c6c6572206973206e6f7420746865206f776e657260448201526064016105cf565b6040516351cff8d960e01b81526001600160a01b0382811660048301527f000000000000000000000000000000000000000000000000000000000000000016906351cff8d990602401600060405180830381600087803b158015610eb057600080fd5b505af1158015610ec4573d6000803e3d6000fd5b5050505050565b600680546001600160a01b038381166001600160a01b0319831681179093556040519116919082907f8be0079c531659141344cd1fd0a4f28419497f9722a3daafe3b4186f6b6457e090600090a35050565b6106c182826040518060200160405280600081525061116d565b816001600160a01b0316836001600160a01b03161415610f995760405162461bcd60e51b815260206004820152601960248201527f4552433732313a20617070726f766520746f2063616c6c65720000000000000060448201526064016105cf565b6001600160a01b03838116600081815260056020908152604080832094871680845294825291829020805460ff191686151590811790915591519182527f17307eab39ab6107e8899845ad3d59bd9653f200f220920489ca2b5937696c31910160405180910390a3505050565b611011848484610c82565b61101d848484846111a0565b6109285760405162461bcd60e51b81526004016105cf906119e3565b6060600880546104b0906118ce565b60606000611055836112ad565b600101905060008167ffffffffffffffff811115611075576110756116f0565b6040519080825280601f01601f19166020018201604052801561109f576020820181803683370190505b5090508181016020015b600019016f181899199a1a9b1b9c1cb0b131b232b360811b600a86061a8153600a85049450846110d8576110dd565b6110a9565b509392505050565b6001811115610928576001600160a01b0384161561112b576001600160a01b03841660009081526003602052604081208054839290611125908490611a4b565b90915550505b6001600160a01b03831615610928576001600160a01b03831660009081526003602052604081208054839290611162908490611a62565b909155505050505050565b6111778383611385565b61118460008484846111a0565b6106705760405162461bcd60e51b81526004016105cf906119e3565b60006001600160a01b0384163b156112a257604051630a85bd0160e11b81526001600160a01b0385169063150b7a02906111e4903390899088908890600401611a7a565b602060405180830381600087803b1580156111fe57600080fd5b505af192505050801561122e575060408051601f3d908101601f1916820190925261122b91810190611ab7565b60015b611288573d80801561125c576040519150601f19603f3d011682016040523d82523d6000602084013e611261565b606091505b5080516112805760405162461bcd60e51b81526004016105cf906119e3565b805181602001fd5b6001600160e01b031916630a85bd0160e11b149050610c7a565b506001949350505050565b60008072184f03e93ff9f4daa797ed6e38ed64bf6a1f0160401b83106112ec5772184f03e93ff9f4daa797ed6e38ed64bf6a1f0160401b830492506040015b6d04ee2d6d415b85acef81000000008310611318576d04ee2d6d415b85acef8100000000830492506020015b662386f26fc10000831061133657662386f26fc10000830492506010015b6305f5e100831061134e576305f5e100830492506008015b612710831061136257612710830492506004015b60648310611374576064830492506002015b600a831061049b5760010192915050565b6001600160a01b0382166113db5760405162461bcd60e51b815260206004820181905260248201527f4552433732313a206d696e7420746f20746865207a65726f206164647265737360448201526064016105cf565b6000818152600260205260409020546001600160a01b0316156114405760405162461bcd60e51b815260206004820152601c60248201527f4552433732313a20746f6b656e20616c7265616479206d696e7465640000000060448201526064016105cf565b61144e6000838360016110e5565b6000818152600260205260409020546001600160a01b0316156114b35760405162461bcd60e51b815260206004820152601c60248201527f4552433732313a20746f6b656e20616c7265616479206d696e7465640000000060448201526064016105cf565b6001600160a01b038216600081815260036020908152604080832080546001019055848352600290915280822080546001600160a01b0319168417905551839291907fddf252ad1be2c89b69c2b068fc378daa952ba7f163c4a11628f55a4df523b3ef908290a45050565b82805461152a906118ce565b90600052602060002090601f01602090048101928261154c5760008555611592565b82601f1061156557805160ff1916838001178555611592565b82800160010185558215611592579182015b82811115611592578251825591602001919060010190611577565b5061159e9291506115a2565b5090565b5b8082111561159e57600081556001016115a3565b6001600160e01b0319811681146106d657600080fd5b6000602082840312156115df57600080fd5b81356108d5816115b7565b60005b838110156116055781810151838201526020016115ed565b838111156109285750506000910152565b6000815180845261162e8160208601602086016115ea565b601f01601f19169290920160200192915050565b6020815260006108d56020830184611616565b60006020828403121561166757600080fd5b5035919050565b6001600160a01b03811681146106d657600080fd5b6000806040838503121561169657600080fd5b82356116a18161166e565b946020939093013593505050565b6000806000606084860312156116c457600080fd5b83356116cf8161166e565b925060208401356116df8161166e565b929592945050506040919091013590565b634e487b7160e01b600052604160045260246000fd5b600067ffffffffffffffff80841115611721576117216116f0565b604051601f8501601f19908116603f01168101908282118183101715611749576117496116f0565b8160405280935085815286868601111561176257600080fd5b858560208301376000602087830101525050509392505050565b60006020828403121561178e57600080fd5b813567ffffffffffffffff8111156117a557600080fd5b8201601f810184136117b657600080fd5b610c7a84823560208401611706565b6000602082840312156117d757600080fd5b81356108d58161166e565b600080604083850312156117f557600080fd5b82356118008161166e565b91506020830135801515811461181557600080fd5b809150509250929050565b6000806000806080858703121561183657600080fd5b84356118418161166e565b935060208501356118518161166e565b925060408501359150606085013567ffffffffffffffff81111561187457600080fd5b8501601f8101871361188557600080fd5b61189487823560208401611706565b91505092959194509250565b600080604083850312156118b357600080fd5b82356118be8161166e565b915060208301356118158161166e565b600181811c908216806118e257607f821691505b6020821081141561190357634e487b7160e01b600052602260045260246000fd5b50919050565b6020808252602d908201527f4552433732313a2063616c6c6572206973206e6f7420746f6b656e206f776e6560408201526c1c881bdc88185c1c1c9bdd9959609a1b606082015260800190565b600083516119688184602088016115ea565b83519083019061197c8183602088016115ea565b01949350505050565b60006020828403121561199757600080fd5b5051919050565b60208082526025908201527f4552433732313a207472616e736665722066726f6d20696e636f72726563742060408201526437bbb732b960d91b606082015260800190565b60208082526032908201527f4552433732313a207472616e7366657220746f206e6f6e20455243373231526560408201527131b2b4bb32b91034b6b83632b6b2b73a32b960711b606082015260800190565b634e487b7160e01b600052601160045260246000fd5b600082821015611a5d57611a5d611a35565b500390565b60008219821115611a7557611a75611a35565b500190565b6001600160a01b0385811682528416602082015260408101839052608060608201819052600090611aad90830184611616565b9695505050505050565b600060208284031215611ac957600080fd5b81516108d5816115b756fea264697066735822122025fc7ab6193ae9bdf5c3a1e92236ed39ddc448bbc6b343e85baa0d907155bcf264736f6c63430008090033608060405234801561001057600080fd5b5061001a3361001f565b61006f565b600080546001600160a01b038381166001600160a01b0319831681178455604051919092169283917f8be0079c531659141344cd1fd0a4f28419497f9722a3daafe3b4186f6b6457e09190a35050565b61050d8061007e6000396000f3fe6080604052600436106100555760003560e01c806351cff8d91461005a578063715018a61461007c5780638da5cb5b14610091578063e3a9db1a146100be578063f2fde38b14610102578063f340fa0114610122575b600080fd5b34801561006657600080fd5b5061007a61007536600461048d565b610135565b005b34801561008857600080fd5b5061007a6101ac565b34801561009d57600080fd5b506000546040516001600160a01b0390911681526020015b60405180910390f35b3480156100ca57600080fd5b506100f46100d936600461048d565b6001600160a01b031660009081526001602052604090205490565b6040519081526020016100b5565b34801561010e57600080fd5b5061007a61011d36600461048d565b6101c0565b61007a61013036600461048d565b61023e565b61013d6102b0565b6001600160a01b0381166000818152600160205260408120805491905590610165908261030a565b816001600160a01b03167f7084f5476618d8e60b11ef0d7d3f06914655adb8793e28ff7f018d4c76d505d5826040516101a091815260200190565b60405180910390a25050565b6101b46102b0565b6101be6000610428565b565b6101c86102b0565b6001600160a01b0381166102325760405162461bcd60e51b815260206004820152602660248201527f4f776e61626c653a206e6577206f776e657220697320746865207a65726f206160448201526564647265737360d01b60648201526084015b60405180910390fd5b61023b81610428565b50565b6102466102b0565b6001600160a01b0381166000908152600160205260408120805434928392916102709084906104b1565b90915550506040518181526001600160a01b038316907f2da466a7b24304f47e87fa2e1e5a81b9831ce54fec19055ce277ca2f39ba42c4906020016101a0565b6000546001600160a01b031633146101be5760405162461bcd60e51b815260206004820181905260248201527f4f776e61626c653a2063616c6c6572206973206e6f7420746865206f776e65726044820152606401610229565b8047101561035a5760405162461bcd60e51b815260206004820152601d60248201527f416464726573733a20696e73756666696369656e742062616c616e63650000006044820152606401610229565b6000826001600160a01b03168260405160006040518083038185875af1925050503d80600081146103a7576040519150601f19603f3d011682016040523d82523d6000602084013e6103ac565b606091505b50509050806104235760405162461bcd60e51b815260206004820152603a60248201527f416464726573733a20756e61626c6520746f2073656e642076616c75652c207260448201527f6563697069656e74206d617920686176652072657665727465640000000000006064820152608401610229565b505050565b600080546001600160a01b038381166001600160a01b0319831681178455604051919092169283917f8be0079c531659141344cd1fd0a4f28419497f9722a3daafe3b4186f6b6457e09190a35050565b6001600160a01b038116811461023b57600080fd5b60006020828403121561049f57600080fd5b81356104aa81610478565b9392505050565b600082198211156104d257634e487b7160e01b600052601160045260246000fd5b50019056fea26469706673582212206bc8670de8b5ab105882b51248028dcbea517d3935485defbb0db842a3b75ccb64736f6c63430008090033",
  "linkReferences": {},
  "deployedLinkReferences": {}
}