{
  "_format": "hh-sol-artifact-1",
  "contractName": "NFTBankProxy",
  "sourceName": "contracts/mocks/Spark/Claim/NFTBankProxy.sol",
  "abi": [
    {
      "inputs": [],
      "stateMutability": "nonpayable",
      "type": "constructor"
    },
    {
      "anonymous": false,
      "inputs": [],
      "name": "ImplementationUpgraded",
      "type": "event"
    },
    {
      "anonymous": false,
      "inputs": [
        {
          "indexed": false,
          "internalType": "uint8",
          "name": "version",
          "type": "uint8"
        }
      ],
      "name": "Initialized",
      "type": "event"
    },
    {
      "anonymous": false,
      "inputs": [
        {
          "indexed": true,
          "internalType": "address",
          "name": "previousOwner",
          "type": "address"
        },
        {
          "indexed": true,
          "internalType": "address",
          "name": "newOwner",
          "type": "address"
        }
      ],
      "name": "OwnershipTransferred",
      "type": "event"
    },
    {
      "stateMutability": "payable",
      "type": "fallback"
    },
    {
      "inputs": [],
      "name": "bankType",
      "outputs": [
        {
          "internalType": "string",
          "name": "",
          "type": "string"
        }
      ],
      "stateMutability": "view",
      "type": "function"
    },
    {
      "inputs": [],
      "name": "disableUpgrade",
      "outputs": [],
      "stateMutability": "nonpayable",
      "type": "function"
    },
    {
      "inputs": [],
      "name": "enableUpgrade",
      "outputs": [],
      "stateMutability": "nonpayable",
      "type": "function"
    },
    {
      "inputs": [],
      "name": "erc1155",
      "outputs": [
        {
          "internalType": "uint256",
          "name": "",
          "type": "uint256"
        }
      ],
      "stateMutability": "view",
      "type": "function"
    },
    {
      "inputs": [],
      "name": "erc721",
      "outputs": [
        {
          "internalType": "uint256",
          "name": "",
          "type": "uint256"
        }
      ],
      "stateMutability": "view",
      "type": "function"
    },
    {
      "inputs": [
        {
          "internalType": "string",
          "name": "_bankType",
          "type": "string"
        },
        {
          "internalType": "address",
          "name": "_nftToken",
          "type": "address"
        },
        {
          "internalType": "address",
          "name": "_poolCreator",
          "type": "address"
        },
        {
          "internalType": "uint256[2]",
          "name": "_variables",
          "type": "uint256[2]"
        }
      ],
      "name": "initialize",
      "outputs": [],
      "stateMutability": "nonpayable",
      "type": "function"
    },
    {
      "inputs": [],
      "name": "isDeleted",
      "outputs": [
        {
          "internalType": "bool",
          "name": "",
          "type": "bool"
        }
      ],
      "stateMutability": "view",
      "type": "function"
    },
    {
      "inputs": [],
      "name": "isLocked",
      "outputs": [
        {
          "internalType": "bool",
          "name": "",
          "type": "bool"
        }
      ],
      "stateMutability": "view",
      "type": "function"
    },
    {
      "inputs": [],
      "name": "isNFTScheduleSettled",
      "outputs": [
        {
          "internalType": "bool",
          "name": "",
          "type": "bool"
        }
      ],
      "stateMutability": "view",
      "type": "function"
    },
    {
      "inputs": [],
      "name": "nftBankImplementation",
      "outputs": [
        {
          "internalType": "address",
          "name": "",
          "type": "address"
        }
      ],
      "stateMutability": "view",
      "type": "function"
    },
    {
      "inputs": [
        {
          "internalType": "address",
          "name": "",
          "type": "address"
        }
      ],
      "name": "nftRecipients",
      "outputs": [
        {
          "internalType": "bool",
          "name": "isWinner",
          "type": "bool"
        },
        {
          "internalType": "bool",
          "name": "didNFTwithdrawn",
          "type": "bool"
        },
        {
          "internalType": "uint256",
          "name": "nftID",
          "type": "uint256"
        }
      ],
      "stateMutability": "view",
      "type": "function"
    },
    {
      "inputs": [],
      "name": "nftScheduleStartDate",
      "outputs": [
        {
          "internalType": "uint256",
          "name": "",
          "type": "uint256"
        }
      ],
      "stateMutability": "view",
      "type": "function"
    },
    {
      "inputs": [],
      "name": "nftToken",
      "outputs": [
        {
          "internalType": "address",
          "name": "",
          "type": "address"
        }
      ],
      "stateMutability": "view",
      "type": "function"
    },
    {
      "inputs": [],
      "name": "nftType",
      "outputs": [
        {
          "internalType": "uint256",
          "name": "",
          "type": "uint256"
        }
      ],
      "stateMutability": "view",
      "type": "function"
    },
    {
      "inputs": [
        {
          "internalType": "address",
          "name": "",
          "type": "address"
        },
        {
          "internalType": "address",
          "name": "",
          "type": "address"
        },
        {
          "internalType": "uint256[]",
          "name": "",
          "type": "uint256[]"
        },
        {
          "internalType": "uint256[]",
          "name": "",
          "type": "uint256[]"
        },
        {
          "internalType": "bytes",
          "name": "",
          "type": "bytes"
        }
      ],
      "name": "onERC1155BatchReceived",
      "outputs": [
        {
          "internalType": "bytes4",
          "name": "",
          "type": "bytes4"
        }
      ],
      "stateMutability": "nonpayable",
      "type": "function"
    },
    {
      "inputs": [
        {
          "internalType": "address",
          "name": "",
          "type": "address"
        },
        {
          "internalType": "address",
          "name": "",
          "type": "address"
        },
        {
          "internalType": "uint256",
          "name": "",
          "type": "uint256"
        },
        {
          "internalType": "uint256",
          "name": "",
          "type": "uint256"
        },
        {
          "internalType": "bytes",
          "name": "",
          "type": "bytes"
        }
      ],
      "name": "onERC1155Received",
      "outputs": [
        {
          "internalType": "bytes4",
          "name": "",
          "type": "bytes4"
        }
      ],
      "stateMutability": "nonpayable",
      "type": "function"
    },
    {
      "inputs": [
        {
          "internalType": "address",
          "name": "",
          "type": "address"
        },
        {
          "internalType": "address",
          "name": "",
          "type": "address"
        },
        {
          "internalType": "uint256",
          "name": "",
          "type": "uint256"
        },
        {
          "internalType": "bytes",
          "name": "",
          "type": "bytes"
        }
      ],
      "name": "onERC721Received",
      "outputs": [
        {
          "internalType": "bytes4",
          "name": "",
          "type": "bytes4"
        }
      ],
      "stateMutability": "nonpayable",
      "type": "function"
    },
    {
      "inputs": [],
      "name": "owner",
      "outputs": [
        {
          "internalType": "address",
          "name": "",
          "type": "address"
        }
      ],
      "stateMutability": "view",
      "type": "function"
    },
    {
      "inputs": [],
      "name": "poolCreator",
      "outputs": [
        {
          "internalType": "address",
          "name": "",
          "type": "address"
        }
      ],
      "stateMutability": "view",
      "type": "function"
    },
    {
      "inputs": [],
      "name": "renounceOwnership",
      "outputs": [],
      "stateMutability": "nonpayable",
      "type": "function"
    },
    {
      "inputs": [
        {
          "internalType": "bytes4",
          "name": "interfaceId",
          "type": "bytes4"
        }
      ],
      "name": "supportsInterface",
      "outputs": [
        {
          "internalType": "bool",
          "name": "",
          "type": "bool"
        }
      ],
      "stateMutability": "view",
      "type": "function"
    },
    {
      "inputs": [
        {
          "internalType": "address",
          "name": "newOwner",
          "type": "address"
        }
      ],
      "name": "transferOwnership",
      "outputs": [],
      "stateMutability": "nonpayable",
      "type": "function"
    },
    {
      "inputs": [],
      "name": "upgradeEnabled",
      "outputs": [
        {
          "internalType": "bool",
          "name": "",
          "type": "bool"
        }
      ],
      "stateMutability": "view",
      "type": "function"
    },
    {
      "inputs": [
        {
          "internalType": "address",
          "name": "_nftBankImplementation",
          "type": "address"
        }
      ],
      "name": "upgradeTo",
      "outputs": [],
      "stateMutability": "nonpayable",
      "type": "function"
    },
    {
      "inputs": [
        {
          "internalType": "uint256",
          "name": "",
          "type": "uint256"
        }
      ],
      "name": "winners",
      "outputs": [
        {
          "internalType": "address",
          "name": "",
          "type": "address"
        }
      ],
      "stateMutability": "view",
      "type": "function"
    },
    {
      "stateMutability": "payable",
      "type": "receive"
    }
  ],
  "bytecode": "0x608060405234801561001057600080fd5b50606680546001600160a01b03191633179055606d805463ff000000191663010000001790556111a9806100456000396000f3fe60806040526004361061016a5760003560e01c8063a2fb1175116100d1578063bcb6d24e1161008a578063d56022d711610064578063d56022d7146104ad578063d7efb6b7146104c3578063f23a6e61146104e3578063f2fde38b1461050f57610171565b8063bcb6d24e1461044d578063c6c1decd1461046d578063d06fcba81461048d57610171565b8063a2fb117514610390578063a363b214146103b0578063a4e2d634146103d2578063b5e827db146103f1578063bc197c811461040b578063bca6ce641461043757610171565b806367fc91381161012357806367fc9138146102d95780636fac889b146102ee578063715018a61461031257806382be5634146103275780638cf0e21e1461033d5780638da5cb5b1461035e57610171565b806301ffc9a7146101ab578063150b7a02146101e057806328016f9a146102245780632fa7c4f01461023b5780633659cfe6146102995780636667606f146102b957610171565b3661017157005b6065546001600160a01b03168061018757600080fd5b3660008037600080366000845af43d6000803e8080156101a6573d6000f35b3d6000fd5b3480156101b757600080fd5b506101cb6101c6366004610c75565b61052f565b60405190151581526020015b60405180910390f35b3480156101ec57600080fd5b5061020b6101fb366004610daa565b630a85bd0160e11b949350505050565b6040516001600160e01b031990911681526020016101d7565b34801561023057600080fd5b50610239610566565b005b34801561024757600080fd5b5061027c610256366004610e12565b6068602052600090815260409020805460019091015460ff808316926101009004169083565b6040805193151584529115156020840152908201526060016101d7565b3480156102a557600080fd5b506102396102b4366004610e12565b610583565b3480156102c557600080fd5b506102396102d4366004610e2d565b61066f565b3480156102e557600080fd5b50610239610907565b3480156102fa57600080fd5b50610304606a5481565b6040519081526020016101d7565b34801561031e57600080fd5b5061023961091e565b34801561033357600080fd5b50610304606c5481565b34801561034957600080fd5b50606d546101cb906301000000900460ff1681565b34801561036a57600080fd5b506033546001600160a01b03165b6040516001600160a01b0390911681526020016101d7565b34801561039c57600080fd5b506103786103ab366004610ef0565b610932565b3480156103bc57600080fd5b506103c561095c565b6040516101d79190610f09565b3480156103de57600080fd5b50606d546101cb90610100900460ff1681565b3480156103fd57600080fd5b50606d546101cb9060ff1681565b34801561041757600080fd5b5061020b610426366004610fde565b63bc197c8160e01b95945050505050565b34801561044357600080fd5b506103046102d181565b34801561045957600080fd5b50606554610378906001600160a01b031681565b34801561047957600080fd5b50606654610378906001600160a01b031681565b34801561049957600080fd5b50606954610378906001600160a01b031681565b3480156104b957600080fd5b5061030461048381565b3480156104cf57600080fd5b50606d546101cb9062010000900460ff1681565b3480156104ef57600080fd5b5061020b6104fe366004611088565b63f23a6e6160e01b95945050505050565b34801561051b57600080fd5b5061023961052a366004610e12565b6109ea565b60006001600160e01b03198216630271189760e51b148061056057506301ffc9a760e01b6001600160e01b03198316145b92915050565b61056e610a63565b606d805463ff00000019166301000000179055565b6066546001600160a01b031633146105e25760405162461bcd60e51b815260206004820152601a60248201527f6d73672e73656e646572206973206e6f7420616e206f776e657200000000000060448201526064015b60405180910390fd5b606d546301000000900460ff1661063b5760405162461bcd60e51b815260206004820152601a60248201527f55706772616465206973206e6f7420656e61626c65642079657400000000000060448201526064016105d9565b6065546001600160a01b038281169116141561065657600080fd5b61065f81610abd565b50606d805463ff00000019169055565b600054610100900460ff161580801561068f5750600054600160ff909116105b806106a95750303b1580156106a9575060005460ff166001145b61070c5760405162461bcd60e51b815260206004820152602e60248201527f496e697469616c697a61626c653a20636f6e747261637420697320616c72656160448201526d191e481a5b9a5d1a585b1a5e995960921b60648201526084016105d9565b6000805460ff19166001179055801561072f576000805461ff0019166101001790555b6066546001600160a01b031633146107895760405162461bcd60e51b815260206004820152601a60248201527f6d73672e73656e646572206973206e6f7420616e206f776e657200000000000060448201526064016105d9565b610791610b04565b610799610b33565b815142106107f75760405162461bcd60e51b815260206004820152602560248201527f30333031206c61756e636820646174652063616e277420626520696e20746865604482015264081c185cdd60da1b60648201526084016105d9565b60208201516102d1148061081057506020820151610483145b61085c5760405162461bcd60e51b815260206004820152601b60248201527f30333032206f6e6c792037323120616e6420313135352045524373000000000060448201526064016105d9565b845161086f90606b906020880190610bdc565b50606980546001600160a01b038681166001600160a01b03199283161790925560668054928616929091169190911790558151606c556020820151606a55606d805460ff191660011790558015610900576000805461ff0019169055604051600181527f7f26b83ff96e1f2b6a682f133852f6798a09c465da95921460cefb38474024989060200160405180910390a15b5050505050565b61090f610a63565b606d805463ff00000019169055565b610926610a63565b6109306000610b5a565b565b6067818154811061094257600080fd5b6000918252602090912001546001600160a01b0316905081565b606b8054610969906110ed565b80601f0160208091040260200160405190810160405280929190818152602001828054610995906110ed565b80156109e25780601f106109b7576101008083540402835291602001916109e2565b820191906000526020600020905b8154815290600101906020018083116109c557829003601f168201915b505050505081565b6109f2610a63565b6001600160a01b038116610a575760405162461bcd60e51b815260206004820152602660248201527f4f776e61626c653a206e6577206f776e657220697320746865207a65726f206160448201526564647265737360d01b60648201526084016105d9565b610a6081610b5a565b50565b6033546001600160a01b031633146109305760405162461bcd60e51b815260206004820181905260248201527f4f776e61626c653a2063616c6c6572206973206e6f7420746865206f776e657260448201526064016105d9565b606580546001600160a01b0319166001600160a01b0383161790556040517f3dab95f89f74034beeac9f9fe9bec350186cb958223e1791afb0dbb64859cabd90600090a150565b600054610100900460ff16610b2b5760405162461bcd60e51b81526004016105d990611128565b610930610bac565b600054610100900460ff166109305760405162461bcd60e51b81526004016105d990611128565b603380546001600160a01b038381166001600160a01b0319831681179093556040519116919082907f8be0079c531659141344cd1fd0a4f28419497f9722a3daafe3b4186f6b6457e090600090a35050565b600054610100900460ff16610bd35760405162461bcd60e51b81526004016105d990611128565b61093033610b5a565b828054610be8906110ed565b90600052602060002090601f016020900481019282610c0a5760008555610c50565b82601f10610c2357805160ff1916838001178555610c50565b82800160010185558215610c50579182015b82811115610c50578251825591602001919060010190610c35565b50610c5c929150610c60565b5090565b5b80821115610c5c5760008155600101610c61565b600060208284031215610c8757600080fd5b81356001600160e01b031981168114610c9f57600080fd5b9392505050565b80356001600160a01b0381168114610cbd57600080fd5b919050565b634e487b7160e01b600052604160045260246000fd5b6040805190810167ffffffffffffffff81118282101715610cfb57610cfb610cc2565b60405290565b604051601f8201601f1916810167ffffffffffffffff81118282101715610d2a57610d2a610cc2565b604052919050565b600067ffffffffffffffff831115610d4c57610d4c610cc2565b610d5f601f8401601f1916602001610d01565b9050828152838383011115610d7357600080fd5b828260208301376000602084830101529392505050565b600082601f830112610d9b57600080fd5b610c9f83833560208501610d32565b60008060008060808587031215610dc057600080fd5b610dc985610ca6565b9350610dd760208601610ca6565b925060408501359150606085013567ffffffffffffffff811115610dfa57600080fd5b610e0687828801610d8a565b91505092959194509250565b600060208284031215610e2457600080fd5b610c9f82610ca6565b60008060008060a08587031215610e4357600080fd5b843567ffffffffffffffff811115610e5a57600080fd5b8501601f81018713610e6b57600080fd5b6020610e7b888335838501610d32565b9550610e88818801610ca6565b9450610e9660408801610ca6565b935087607f880112610ea757600080fd5b610eaf610cd8565b91508160a0880189811115610ec357600080fd5b606089015b81811015610edf5780358552938301938301610ec8565b505080935050505092959194509250565b600060208284031215610f0257600080fd5b5035919050565b600060208083528351808285015260005b81811015610f3657858101830151858201604001528201610f1a565b81811115610f48576000604083870101525b50601f01601f1916929092016040019392505050565b600082601f830112610f6f57600080fd5b8135602067ffffffffffffffff821115610f8b57610f8b610cc2565b8160051b610f9a828201610d01565b9283528481018201928281019087851115610fb457600080fd5b83870192505b84831015610fd357823582529183019190830190610fba565b979650505050505050565b600080600080600060a08688031215610ff657600080fd5b610fff86610ca6565b945061100d60208701610ca6565b9350604086013567ffffffffffffffff8082111561102a57600080fd5b61103689838a01610f5e565b9450606088013591508082111561104c57600080fd5b61105889838a01610f5e565b9350608088013591508082111561106e57600080fd5b5061107b88828901610d8a565b9150509295509295909350565b600080600080600060a086880312156110a057600080fd5b6110a986610ca6565b94506110b760208701610ca6565b93506040860135925060608601359150608086013567ffffffffffffffff8111156110e157600080fd5b61107b88828901610d8a565b600181811c9082168061110157607f821691505b6020821081141561112257634e487b7160e01b600052602260045260246000fd5b50919050565b6020808252602b908201527f496e697469616c697a61626c653a20636f6e7472616374206973206e6f74206960408201526a6e697469616c697a696e6760a81b60608201526080019056fea26469706673582212204a3c5e223d6a23ba48b1380ad9bd3fb7db06ea859c2d2631d16e97841742cdb564736f6c63430008090033",
  "linkReferences": {},
  "deployedLinkReferences": {}
}