{
  "_format": "hh-sol-artifact-1",
  "contractName": "Addresses",
  "sourceName": "contracts/Addresses.sol",
  "abi": [
    {
      "inputs": [],
      "stateMutability": "nonpayable",
      "type": "constructor"
    },
    {
      "anonymous": false,
      "inputs": [
        {
          "indexed": false,
          "internalType": "uint8",
          "name": "version",
          "type": "uint8"
        }
      ],
      "name": "Initialized",
      "type": "event"
    },
    {
      "anonymous": false,
      "inputs": [
        {
          "indexed": true,
          "internalType": "address",
          "name": "previousOwner",
          "type": "address"
        },
        {
          "indexed": true,
          "internalType": "address",
          "name": "newOwner",
          "type": "address"
        }
      ],
      "name": "OwnershipTransferred",
      "type": "event"
    },
    {
      "inputs": [
        {
          "internalType": "address",
          "name": "contractAddr",
          "type": "address"
        }
      ],
      "name": "add",
      "outputs": [],
      "stateMutability": "nonpayable",
      "type": "function"
    },
    {
      "inputs": [
        {
          "internalType": "address",
          "name": "contractAddr",
          "type": "address"
        }
      ],
      "name": "existingContract",
      "outputs": [
        {
          "internalType": "bool",
          "name": "",
          "type": "bool"
        }
      ],
      "stateMutability": "view",
      "type": "function"
    },
    {
      "inputs": [],
      "name": "getMultiTokenContracts",
      "outputs": [
        {
          "internalType": "address[]",
          "name": "",
          "type": "address[]"
        }
      ],
      "stateMutability": "view",
      "type": "function"
    },
    {
      "inputs": [
        {
          "internalType": "address",
          "name": "contractAddr",
          "type": "address"
        }
      ],
      "name": "getNFTType",
      "outputs": [
        {
          "internalType": "enum Addresses.NFTType",
          "name": "",
          "type": "uint8"
        }
      ],
      "stateMutability": "view",
      "type": "function"
    },
    {
      "inputs": [],
      "name": "getNormalContracts",
      "outputs": [
        {
          "internalType": "address[]",
          "name": "",
          "type": "address[]"
        }
      ],
      "stateMutability": "view",
      "type": "function"
    },
    {
      "inputs": [],
      "name": "getVerifiedMultiTokenContracts",
      "outputs": [
        {
          "internalType": "address[]",
          "name": "verifiedContracts",
          "type": "address[]"
        }
      ],
      "stateMutability": "view",
      "type": "function"
    },
    {
      "inputs": [],
      "name": "getVerifiedNormalContracts",
      "outputs": [
        {
          "internalType": "address[]",
          "name": "verifiedContracts",
          "type": "address[]"
        }
      ],
      "stateMutability": "view",
      "type": "function"
    },
    {
      "inputs": [
        {
          "internalType": "address",
          "name": "contractAddr",
          "type": "address"
        }
      ],
      "name": "isVerified",
      "outputs": [
        {
          "internalType": "bool",
          "name": "",
          "type": "bool"
        }
      ],
      "stateMutability": "view",
      "type": "function"
    },
    {
      "inputs": [],
      "name": "owner",
      "outputs": [
        {
          "internalType": "address",
          "name": "",
          "type": "address"
        }
      ],
      "stateMutability": "view",
      "type": "function"
    },
    {
      "inputs": [
        {
          "internalType": "address",
          "name": "contractAddr",
          "type": "address"
        }
      ],
      "name": "remove",
      "outputs": [],
      "stateMutability": "nonpayable",
      "type": "function"
    },
    {
      "inputs": [],
      "name": "renounceOwnership",
      "outputs": [],
      "stateMutability": "nonpayable",
      "type": "function"
    },
    {
      "inputs": [
        {
          "internalType": "address",
          "name": "newOwner",
          "type": "address"
        }
      ],
      "name": "transferOwnership",
      "outputs": [],
      "stateMutability": "nonpayable",
      "type": "function"
    },
    {
      "inputs": [
        {
          "internalType": "address",
          "name": "contractAddr",
          "type": "address"
        }
      ],
      "name": "verify",
      "outputs": [],
      "stateMutability": "nonpayable",
      "type": "function"
    }
  ],
  "bytecode": "0x608060405234801561001057600080fd5b5061001a3361001f565b610071565b603380546001600160a01b038381166001600160a01b0319831681179093556040519116919082907f8be0079c531659141344cd1fd0a4f28419497f9722a3daafe3b4186f6b6457e090600090a35050565b610e10806100806000396000f3fe608060405234801561001057600080fd5b50600436106100cf5760003560e01c8063788068391161008c578063971349e311610066578063971349e31461017f578063b9209e331461019f578063e244fc66146101b2578063f2fde38b146101ba57600080fd5b806378806839146101545780638203a1491461015c5780638da5cb5b1461016457600080fd5b80630656dd02146100d45780630a3b0a4f146100fc57806329092d0e146101115780633b2e08331461012457806363a9c3d714610139578063715018a61461014c575b600080fd5b6100e76100e2366004610c80565b6101cd565b60405190151581526020015b60405180910390f35b61010f61010a366004610c80565b610221565b005b61010f61011f366004610c80565b610489565b61012c61062d565b6040516100f39190610ca9565b61010f610147366004610c80565b61068f565b61010f61074b565b61012c61075f565b61012c6108e8565b6033546040516001600160a01b0390911681526020016100f3565b61019261018d366004610c80565b610948565b6040516100f39190610d0c565b6100e76101ad366004610c80565b610990565b61012c6109d8565b61010f6101c8366004610c80565b610b5b565b6001600160a01b03811660009081526068602052604081205460ff1660018160028111156101fd576101fd610cf6565b148061021a5750600281600281111561021857610218610cf6565b145b9392505050565b8061022b816101cd565b156102715760405162461bcd60e51b8152602060048201526011602482015270115e1a5cda5d1b99c810dbdb9d1c9858dd607a1b60448201526064015b60405180910390fd5b610279610bd4565b6040516301ffc9a760e01b81526380ac58cd60e01b600482015282906001600160a01b038216906301ffc9a79060240160206040518083038186803b1580156102c157600080fd5b505afa1580156102d5573d6000803e3d6000fd5b505050506040513d601f19601f820116820180604052508101906102f99190610d34565b156103665750506001600160a01b03166000818152606860205260408120805460ff191660019081179091556065805491820181559091527f8ff97419363ffd7000167f130ef7168fbea05faf9251824ca5043f113cc6a7c70180546001600160a01b0319169091179055565b6040516301ffc9a760e01b8152636cdb3d1360e11b60048201526001600160a01b038216906301ffc9a79060240160206040518083038186803b1580156103ac57600080fd5b505afa1580156103c0573d6000803e3d6000fd5b505050506040513d601f19601f820116820180604052508101906103e49190610d34565b1561044e5750506001600160a01b03166000818152606860205260408120805460ff191660021790556066805460018101825591527f46501879b8ca8525e8c2fd519e2fbfcfa2ebea26501294aa02cbfcfb12e943540180546001600160a01b0319169091179055565b60405162461bcd60e51b815260206004820152601060248201526f556e6b6e6f776e204e4654205479706560801b6044820152606401610268565b80610493816101cd565b6104af5760405162461bcd60e51b815260040161026890610d56565b6104b7610bd4565b60016001600160a01b03831660009081526068602052604090205460ff1660028111156104e6576104e6610cf6565b14156105635760405163edefe12d60e01b8152606560048201526001600160a01b038316602482015273__$e9d29609e19beebe46219d41a81a317a2e$__9063edefe12d9060440160006040518083038186803b15801561054657600080fd5b505af415801561055a573d6000803e3d6000fd5b5050505061060b565b60026001600160a01b03831660009081526068602052604090205460ff16600281111561059257610592610cf6565b141561060b5760405163edefe12d60e01b8152606660048201526001600160a01b038316602482015273__$e9d29609e19beebe46219d41a81a317a2e$__9063edefe12d9060440160006040518083038186803b1580156105f257600080fd5b505af4158015610606573d6000803e3d6000fd5b505050505b506001600160a01b03166000908152606760205260409020805460ff19169055565b6060606580548060200260200160405190810160405280929190818152602001828054801561068557602002820191906000526020600020905b81546001600160a01b03168152600190910190602001808311610667575b5050505050905090565b80610699816101cd565b6106b55760405162461bcd60e51b815260040161026890610d56565b6106bd610bd4565b6001600160a01b03821660009081526067602052604090205460ff16156107265760405162461bcd60e51b815260206004820152601960248201527f416c726561647920566572696669656420436f6e7472616374000000000000006044820152606401610268565b506001600160a01b03166000908152606760205260409020805460ff19166001179055565b610753610bd4565b61075d6000610c2e565b565b606554606090600090815b818310156107d257606760006065858154811061078957610789610d85565b60009182526020808320909101546001600160a01b0316835282019290925260400190205460ff16156107c2576107bf81610d9b565b90505b6107cb83610d9b565b925061076a565b8067ffffffffffffffff8111156107eb576107eb610dc4565b604051908082528060200260200182016040528015610814578160200160208202803683370190505b50935060009050600092505b818310156108e257606760006065858154811061083f5761083f610d85565b60009182526020808320909101546001600160a01b0316835282019290925260400190205460ff16156108d2576065838154811061087f5761087f610d85565b6000918252602090912001546001600160a01b0316848261089f81610d9b565b9350815181106108b1576108b1610d85565b60200260200101906001600160a01b031690816001600160a01b0316815250505b6108db83610d9b565b9250610820565b50505090565b60606066805480602002602001604051908101604052809291908181526020018280548015610685576020028201919060005260206000209081546001600160a01b03168152600190910190602001808311610667575050505050905090565b600081610954816101cd565b6109705760405162461bcd60e51b815260040161026890610d56565b50506001600160a01b031660009081526068602052604090205460ff1690565b60008161099c816101cd565b6109b85760405162461bcd60e51b815260040161026890610d56565b50506001600160a01b031660009081526067602052604090205460ff1690565b606654606090600090815b81831015610a4b576067600060668581548110610a0257610a02610d85565b60009182526020808320909101546001600160a01b0316835282019290925260400190205460ff1615610a3b57610a3881610d9b565b90505b610a4483610d9b565b92506109e3565b8067ffffffffffffffff811115610a6457610a64610dc4565b604051908082528060200260200182016040528015610a8d578160200160208202803683370190505b50935060009050600092505b818310156108e2576067600060668581548110610ab857610ab8610d85565b60009182526020808320909101546001600160a01b0316835282019290925260400190205460ff1615610b4b5760668381548110610af857610af8610d85565b6000918252602090912001546001600160a01b03168482610b1881610d9b565b935081518110610b2a57610b2a610d85565b60200260200101906001600160a01b031690816001600160a01b0316815250505b610b5483610d9b565b9250610a99565b610b63610bd4565b6001600160a01b038116610bc85760405162461bcd60e51b815260206004820152602660248201527f4f776e61626c653a206e6577206f776e657220697320746865207a65726f206160448201526564647265737360d01b6064820152608401610268565b610bd181610c2e565b50565b6033546001600160a01b0316331461075d5760405162461bcd60e51b815260206004820181905260248201527f4f776e61626c653a2063616c6c6572206973206e6f7420746865206f776e65726044820152606401610268565b603380546001600160a01b038381166001600160a01b0319831681179093556040519116919082907f8be0079c531659141344cd1fd0a4f28419497f9722a3daafe3b4186f6b6457e090600090a35050565b600060208284031215610c9257600080fd5b81356001600160a01b038116811461021a57600080fd5b6020808252825182820181905260009190848201906040850190845b81811015610cea5783516001600160a01b031683529284019291840191600101610cc5565b50909695505050505050565b634e487b7160e01b600052602160045260246000fd5b6020810160038310610d2e57634e487b7160e01b600052602160045260246000fd5b91905290565b600060208284031215610d4657600080fd5b8151801515811461021a57600080fd5b602080825260159082015274139bdd08115e1a5cdd1a5b99c810dbdb9d1c9858dd605a1b604082015260600190565b634e487b7160e01b600052603260045260246000fd5b6000600019821415610dbd57634e487b7160e01b600052601160045260246000fd5b5060010190565b634e487b7160e01b600052604160045260246000fdfea264697066735822122002627d7a1a8c87a387bf55430b6a2b7108a570e623ea0408faf6724b3bb7fa7764736f6c63430008090033",
  "linkReferences": {
    "contracts/libraries/ArrayLibrary.sol": {
      "ArrayLibrary": [
        {
          "length": 20,
          "start": 1425
        },
        {
          "length": 20,
          "start": 1597
        }
      ]
    }
  },
  "deployedLinkReferences": {
    "contracts/libraries/ArrayLibrary.sol": {
      "ArrayLibrary": [
        {
          "length": 20,
          "start": 1297
        },
        {
          "length": 20,
          "start": 1469
        }
      ]
    }
  }
}