{
  "_format": "hh-sol-artifact-1",
  "contractName": "PoolCreator",
  "sourceName": "contracts/mocks/Spark/Role/PoolCreator.sol",
  "abi": [
    {
      "inputs": [],
      "stateMutability": "nonpayable",
      "type": "constructor"
    },
    {
      "anonymous": false,
      "inputs": [
        {
          "indexed": true,
          "internalType": "address",
          "name": "account",
          "type": "address"
        }
      ],
      "name": "PoolCreatorAdded",
      "type": "event"
    },
    {
      "anonymous": false,
      "inputs": [
        {
          "indexed": true,
          "internalType": "address",
          "name": "account",
          "type": "address"
        }
      ],
      "name": "PoolCreatorRemoved",
      "type": "event"
    },
    {
      "inputs": [
        {
          "internalType": "address",
          "name": "account",
          "type": "address"
        }
      ],
      "name": "addPoolCreator",
      "outputs": [],
      "stateMutability": "nonpayable",
      "type": "function"
    },
    {
      "inputs": [
        {
          "internalType": "address",
          "name": "account",
          "type": "address"
        }
      ],
      "name": "isPoolCreator",
      "outputs": [
        {
          "internalType": "bool",
          "name": "",
          "type": "bool"
        }
      ],
      "stateMutability": "view",
      "type": "function"
    },
    {
      "inputs": [],
      "name": "renouncePoolCreator",
      "outputs": [],
      "stateMutability": "nonpayable",
      "type": "function"
    }
  ],
  "bytecode": "0x608060405234801561001057600080fd5b5061001a3361002c565b610027576100273361004c565b61019f565b600061004682600061009b60201b6101331790919060201c565b92915050565b61006481600061012360201b6101b61790919060201c565b6040516001600160a01b038216907fac89bb7b3d0c5a763a97f31bc75f8faee00426e7b235f02ca76897d55caf7b6190600090a250565b60006001600160a01b0382166101035760405162461bcd60e51b815260206004820152602260248201527f526f6c65733a206163636f756e7420697320746865207a65726f206164647265604482015261737360f01b60648201526084015b60405180910390fd5b506001600160a01b03166000908152602091909152604090205460ff1690565b61012d828261009b565b1561017a5760405162461bcd60e51b815260206004820152601f60248201527f526f6c65733a206163636f756e7420616c72656164792068617320726f6c650060448201526064016100fa565b6001600160a01b0316600090815260209190915260409020805460ff19166001179055565b61039e806101ae6000396000f3fe608060405234801561001057600080fd5b50600436106100415760003560e01c80638c2d741c146100465780639a94775d1461005b578063e281cc7e14610082575b600080fd5b610059610054366004610338565b61008a565b005b61006e610069366004610338565b610116565b604051901515815260200160405180910390f35b610059610128565b61009333610116565b61010a5760405162461bcd60e51b815260206004820152603a60248201527f506f6f6c43726561746f72526f6c653a2063616c6c657220646f6573206e6f7460448201527f20686176652074686520506f6f6c43726561746f7220726f6c6500000000000060648201526084015b60405180910390fd5b61011381610232565b50565b60006101228183610133565b92915050565b61013133610274565b565b60006001600160a01b0382166101965760405162461bcd60e51b815260206004820152602260248201527f526f6c65733a206163636f756e7420697320746865207a65726f206164647265604482015261737360f01b6064820152608401610101565b506001600160a01b03166000908152602091909152604090205460ff1690565b6101c08282610133565b1561020d5760405162461bcd60e51b815260206004820152601f60248201527f526f6c65733a206163636f756e7420616c72656164792068617320726f6c65006044820152606401610101565b6001600160a01b0316600090815260209190915260409020805460ff19166001179055565b61023d6000826101b6565b6040516001600160a01b038216907fac89bb7b3d0c5a763a97f31bc75f8faee00426e7b235f02ca76897d55caf7b6190600090a250565b61027f6000826102b6565b6040516001600160a01b038216907f2bc71cc60b543df5fdd80ef5a45e1cdb344843769b649e9d901de3be24aeb24e90600090a250565b6102c08282610133565b6103165760405162461bcd60e51b815260206004820152602160248201527f526f6c65733a206163636f756e7420646f6573206e6f74206861766520726f6c6044820152606560f81b6064820152608401610101565b6001600160a01b0316600090815260209190915260409020805460ff19169055565b60006020828403121561034a57600080fd5b81356001600160a01b038116811461036157600080fd5b939250505056fea2646970667358221220136fa25220f666cd8e2e7fc2327f6579515f258097dfb2248cdd25f02fb00daa64736f6c63430008090033",
  "linkReferences": {},
  "deployedLinkReferences": {}
}