{
  "_format": "hh-sol-artifact-1",
  "contractName": "ERC721Sale",
  "sourceName": "contracts/ERC721Sale.sol",
  "abi": [
    {
      "anonymous": false,
      "inputs": [
        {
          "indexed": false,
          "internalType": "address",
          "name": "previousAdmin",
          "type": "address"
        },
        {
          "indexed": false,
          "internalType": "address",
          "name": "newAdmin",
          "type": "address"
        }
      ],
      "name": "AdminChanged",
      "type": "event"
    },
    {
      "anonymous": false,
      "inputs": [
        {
          "indexed": true,
          "internalType": "address",
          "name": "beacon",
          "type": "address"
        }
      ],
      "name": "BeaconUpgraded",
      "type": "event"
    },
    {
      "anonymous": false,
      "inputs": [
        {
          "indexed": false,
          "internalType": "uint8",
          "name": "version",
          "type": "uint8"
        }
      ],
      "name": "Initialized",
      "type": "event"
    },
    {
      "anonymous": false,
      "inputs": [
        {
          "indexed": false,
          "internalType": "address",
          "name": "contractAddr",
          "type": "address"
        },
        {
          "indexed": false,
          "internalType": "uint256",
          "name": "tokenId",
          "type": "uint256"
        },
        {
          "indexed": false,
          "internalType": "uint8",
          "name": "payment",
          "type": "uint8"
        },
        {
          "indexed": false,
          "internalType": "uint256",
          "name": "price",
          "type": "uint256"
        },
        {
          "indexed": false,
          "internalType": "address",
          "name": "offerer",
          "type": "address"
        }
      ],
      "name": "OfferAccepted",
      "type": "event"
    },
    {
      "anonymous": false,
      "inputs": [
        {
          "indexed": false,
          "internalType": "address",
          "name": "contractAddr",
          "type": "address"
        },
        {
          "indexed": false,
          "internalType": "uint256",
          "name": "tokenId",
          "type": "uint256"
        },
        {
          "indexed": false,
          "internalType": "uint256",
          "name": "price",
          "type": "uint256"
        },
        {
          "indexed": false,
          "internalType": "address",
          "name": "offerer",
          "type": "address"
        }
      ],
      "name": "OfferCancelled",
      "type": "event"
    },
    {
      "anonymous": false,
      "inputs": [
        {
          "indexed": false,
          "internalType": "address",
          "name": "contractAddr",
          "type": "address"
        },
        {
          "indexed": false,
          "internalType": "uint256",
          "name": "tokenId",
          "type": "uint256"
        },
        {
          "indexed": false,
          "internalType": "uint256",
          "name": "price",
          "type": "uint256"
        },
        {
          "indexed": false,
          "internalType": "address",
          "name": "offerer",
          "type": "address"
        }
      ],
      "name": "OfferCreated",
      "type": "event"
    },
    {
      "anonymous": false,
      "inputs": [
        {
          "indexed": false,
          "internalType": "address",
          "name": "contractAddr",
          "type": "address"
        },
        {
          "indexed": false,
          "internalType": "uint256",
          "name": "tokenId",
          "type": "uint256"
        },
        {
          "indexed": false,
          "internalType": "uint256",
          "name": "price",
          "type": "uint256"
        },
        {
          "indexed": false,
          "internalType": "address",
          "name": "offerer",
          "type": "address"
        }
      ],
      "name": "OfferUpdated",
      "type": "event"
    },
    {
      "anonymous": false,
      "inputs": [
        {
          "indexed": true,
          "internalType": "address",
          "name": "previousOwner",
          "type": "address"
        },
        {
          "indexed": true,
          "internalType": "address",
          "name": "newOwner",
          "type": "address"
        }
      ],
      "name": "OwnershipTransferred",
      "type": "event"
    },
    {
      "anonymous": false,
      "inputs": [
        {
          "indexed": false,
          "internalType": "address",
          "name": "contractAddr",
          "type": "address"
        },
        {
          "indexed": false,
          "internalType": "uint256",
          "name": "tokenId",
          "type": "uint256"
        }
      ],
      "name": "SaleCancelled",
      "type": "event"
    },
    {
      "anonymous": false,
      "inputs": [
        {
          "indexed": false,
          "internalType": "address",
          "name": "contractAddr",
          "type": "address"
        },
        {
          "indexed": false,
          "internalType": "uint256",
          "name": "tokenId",
          "type": "uint256"
        },
        {
          "indexed": false,
          "internalType": "uint8",
          "name": "payment",
          "type": "uint8"
        },
        {
          "indexed": false,
          "internalType": "uint256",
          "name": "startPrice",
          "type": "uint256"
        },
        {
          "indexed": false,
          "internalType": "uint256",
          "name": "endPrice",
          "type": "uint256"
        },
        {
          "indexed": false,
          "internalType": "uint256",
          "name": "time",
          "type": "uint256"
        },
        {
          "indexed": false,
          "internalType": "uint256",
          "name": "duration",
          "type": "uint256"
        }
      ],
      "name": "SaleCreated",
      "type": "event"
    },
    {
      "anonymous": false,
      "inputs": [
        {
          "indexed": false,
          "internalType": "address",
          "name": "contractAddr",
          "type": "address"
        },
        {
          "indexed": false,
          "internalType": "uint256",
          "name": "tokenId",
          "type": "uint256"
        },
        {
          "indexed": false,
          "internalType": "uint8",
          "name": "payment",
          "type": "uint8"
        },
        {
          "indexed": false,
          "internalType": "uint256",
          "name": "price",
          "type": "uint256"
        },
        {
          "indexed": false,
          "internalType": "address",
          "name": "buyer",
          "type": "address"
        }
      ],
      "name": "SaleSuccessful",
      "type": "event"
    },
    {
      "anonymous": false,
      "inputs": [
        {
          "indexed": false,
          "internalType": "address",
          "name": "contractAddr",
          "type": "address"
        },
        {
          "indexed": false,
          "internalType": "uint256",
          "name": "tokenId",
          "type": "uint256"
        },
        {
          "indexed": false,
          "internalType": "uint8",
          "name": "payment",
          "type": "uint8"
        },
        {
          "indexed": false,
          "internalType": "uint256",
          "name": "startPrice",
          "type": "uint256"
        },
        {
          "indexed": false,
          "internalType": "uint256",
          "name": "endPrice",
          "type": "uint256"
        },
        {
          "indexed": false,
          "internalType": "uint256",
          "name": "time",
          "type": "uint256"
        },
        {
          "indexed": false,
          "internalType": "uint256",
          "name": "duration",
          "type": "uint256"
        }
      ],
      "name": "SaleUpdated",
      "type": "event"
    },
    {
      "anonymous": false,
      "inputs": [
        {
          "indexed": true,
          "internalType": "address",
          "name": "implementation",
          "type": "address"
        }
      ],
      "name": "Upgraded",
      "type": "event"
    },
    {
      "inputs": [
        {
          "internalType": "address",
          "name": "contractAddr",
          "type": "address"
        },
        {
          "internalType": "uint256",
          "name": "tokenId",
          "type": "uint256"
        }
      ],
      "name": "acceptOffer",
      "outputs": [],
      "stateMutability": "nonpayable",
      "type": "function"
    },
    {
      "inputs": [],
      "name": "addressesContractAddr",
      "outputs": [
        {
          "internalType": "address",
          "name": "",
          "type": "address"
        }
      ],
      "stateMutability": "view",
      "type": "function"
    },
    {
      "inputs": [
        {
          "internalType": "address",
          "name": "contractAddr",
          "type": "address"
        },
        {
          "internalType": "uint256",
          "name": "tokenId",
          "type": "uint256"
        }
      ],
      "name": "buy",
      "outputs": [],
      "stateMutability": "payable",
      "type": "function"
    },
    {
      "inputs": [
        {
          "internalType": "address",
          "name": "contractAddr",
          "type": "address"
        },
        {
          "internalType": "uint256",
          "name": "tokenId",
          "type": "uint256"
        }
      ],
      "name": "cancelOffer",
      "outputs": [],
      "stateMutability": "nonpayable",
      "type": "function"
    },
    {
      "inputs": [
        {
          "internalType": "address",
          "name": "contractAddr",
          "type": "address"
        },
        {
          "internalType": "uint256",
          "name": "tokenId",
          "type": "uint256"
        }
      ],
      "name": "cancelSale",
      "outputs": [],
      "stateMutability": "nonpayable",
      "type": "function"
    },
    {
      "inputs": [
        {
          "internalType": "uint256",
          "name": "amount",
          "type": "uint256"
        },
        {
          "internalType": "uint8",
          "name": "index",
          "type": "uint8"
        }
      ],
      "name": "claim",
      "outputs": [],
      "stateMutability": "nonpayable",
      "type": "function"
    },
    {
      "inputs": [
        {
          "internalType": "address",
          "name": "",
          "type": "address"
        },
        {
          "internalType": "uint256",
          "name": "",
          "type": "uint256"
        }
      ],
      "name": "claimable",
      "outputs": [
        {
          "internalType": "uint256",
          "name": "",
          "type": "uint256"
        }
      ],
      "stateMutability": "view",
      "type": "function"
    },
    {
      "inputs": [
        {
          "internalType": "address",
          "name": "contractAddr",
          "type": "address"
        },
        {
          "internalType": "uint256",
          "name": "tokenId",
          "type": "uint256"
        },
        {
          "internalType": "uint8",
          "name": "payment",
          "type": "uint8"
        },
        {
          "internalType": "uint256",
          "name": "startPrice",
          "type": "uint256"
        },
        {
          "internalType": "uint256",
          "name": "endPrice",
          "type": "uint256"
        },
        {
          "internalType": "uint256",
          "name": "duration",
          "type": "uint256"
        }
      ],
      "name": "createSale",
      "outputs": [],
      "stateMutability": "nonpayable",
      "type": "function"
    },
    {
      "inputs": [
        {
          "internalType": "address",
          "name": "contractAddr",
          "type": "address"
        },
        {
          "internalType": "uint256",
          "name": "tokenId",
          "type": "uint256"
        }
      ],
      "name": "getCurrentPrice",
      "outputs": [
        {
          "internalType": "uint256",
          "name": "",
          "type": "uint256"
        }
      ],
      "stateMutability": "view",
      "type": "function"
    },
    {
      "inputs": [
        {
          "internalType": "address",
          "name": "contractAddr",
          "type": "address"
        },
        {
          "internalType": "uint256",
          "name": "tokenId",
          "type": "uint256"
        }
      ],
      "name": "getSale",
      "outputs": [
        {
          "components": [
            {
              "internalType": "address",
              "name": "seller",
              "type": "address"
            },
            {
              "internalType": "uint8",
              "name": "payment",
              "type": "uint8"
            },
            {
              "internalType": "uint256",
              "name": "startPrice",
              "type": "uint256"
            },
            {
              "internalType": "uint256",
              "name": "endPrice",
              "type": "uint256"
            },
            {
              "internalType": "uint256",
              "name": "startedAt",
              "type": "uint256"
            },
            {
              "internalType": "uint256",
              "name": "duration",
              "type": "uint256"
            },
            {
              "internalType": "address[]",
              "name": "offerers",
              "type": "address[]"
            },
            {
              "internalType": "uint256[]",
              "name": "offerPrices",
              "type": "uint256[]"
            }
          ],
          "internalType": "struct ERC721SaleBase.Sale",
          "name": "sale",
          "type": "tuple"
        },
        {
          "internalType": "uint256",
          "name": "currentPrice",
          "type": "uint256"
        }
      ],
      "stateMutability": "view",
      "type": "function"
    },
    {
      "inputs": [
        {
          "internalType": "address",
          "name": "contractAddr",
          "type": "address"
        }
      ],
      "name": "getSaleTokens",
      "outputs": [
        {
          "internalType": "uint256[]",
          "name": "",
          "type": "uint256[]"
        }
      ],
      "stateMutability": "view",
      "type": "function"
    },
    {
      "inputs": [
        {
          "internalType": "address",
          "name": "contractAddr",
          "type": "address"
        },
        {
          "internalType": "address",
          "name": "seller",
          "type": "address"
        }
      ],
      "name": "getSaleTokensBySeller",
      "outputs": [
        {
          "internalType": "uint256[]",
          "name": "",
          "type": "uint256[]"
        }
      ],
      "stateMutability": "view",
      "type": "function"
    },
    {
      "inputs": [
        {
          "internalType": "address",
          "name": "contractAddr",
          "type": "address"
        }
      ],
      "name": "getSales",
      "outputs": [
        {
          "components": [
            {
              "internalType": "address",
              "name": "seller",
              "type": "address"
            },
            {
              "internalType": "uint8",
              "name": "payment",
              "type": "uint8"
            },
            {
              "internalType": "uint256",
              "name": "startPrice",
              "type": "uint256"
            },
            {
              "internalType": "uint256",
              "name": "endPrice",
              "type": "uint256"
            },
            {
              "internalType": "uint256",
              "name": "startedAt",
              "type": "uint256"
            },
            {
              "internalType": "uint256",
              "name": "duration",
              "type": "uint256"
            },
            {
              "internalType": "address[]",
              "name": "offerers",
              "type": "address[]"
            },
            {
              "internalType": "uint256[]",
              "name": "offerPrices",
              "type": "uint256[]"
            }
          ],
          "internalType": "struct ERC721SaleBase.Sale[]",
          "name": "sales",
          "type": "tuple[]"
        },
        {
          "internalType": "uint256[]",
          "name": "currentPrices",
          "type": "uint256[]"
        }
      ],
      "stateMutability": "view",
      "type": "function"
    },
    {
      "inputs": [
        {
          "internalType": "address",
          "name": "contractAddr",
          "type": "address"
        },
        {
          "internalType": "address",
          "name": "seller",
          "type": "address"
        }
      ],
      "name": "getSalesBySeller",
      "outputs": [
        {
          "components": [
            {
              "internalType": "address",
              "name": "seller",
              "type": "address"
            },
            {
              "internalType": "uint8",
              "name": "payment",
              "type": "uint8"
            },
            {
              "internalType": "uint256",
              "name": "startPrice",
              "type": "uint256"
            },
            {
              "internalType": "uint256",
              "name": "endPrice",
              "type": "uint256"
            },
            {
              "internalType": "uint256",
              "name": "startedAt",
              "type": "uint256"
            },
            {
              "internalType": "uint256",
              "name": "duration",
              "type": "uint256"
            },
            {
              "internalType": "address[]",
              "name": "offerers",
              "type": "address[]"
            },
            {
              "internalType": "uint256[]",
              "name": "offerPrices",
              "type": "uint256[]"
            }
          ],
          "internalType": "struct ERC721SaleBase.Sale[]",
          "name": "sales",
          "type": "tuple[]"
        },
        {
          "internalType": "uint256[]",
          "name": "currentPrices",
          "type": "uint256[]"
        }
      ],
      "stateMutability": "view",
      "type": "function"
    },
    {
      "inputs": [],
      "name": "initialize",
      "outputs": [],
      "stateMutability": "nonpayable",
      "type": "function"
    },
    {
      "inputs": [
        {
          "internalType": "address",
          "name": "contractAddr",
          "type": "address"
        },
        {
          "internalType": "uint256",
          "name": "tokenId",
          "type": "uint256"
        },
        {
          "internalType": "uint256",
          "name": "price",
          "type": "uint256"
        }
      ],
      "name": "makeOffer",
      "outputs": [],
      "stateMutability": "payable",
      "type": "function"
    },
    {
      "inputs": [],
      "name": "owner",
      "outputs": [
        {
          "internalType": "address",
          "name": "",
          "type": "address"
        }
      ],
      "stateMutability": "view",
      "type": "function"
    },
    {
      "inputs": [],
      "name": "proxiableUUID",
      "outputs": [
        {
          "internalType": "bytes32",
          "name": "",
          "type": "bytes32"
        }
      ],
      "stateMutability": "view",
      "type": "function"
    },
    {
      "inputs": [],
      "name": "renounceOwnership",
      "outputs": [],
      "stateMutability": "nonpayable",
      "type": "function"
    },
    {
      "inputs": [
        {
          "internalType": "address",
          "name": "contractAddr",
          "type": "address"
        }
      ],
      "name": "setAddressesContractAddr",
      "outputs": [],
      "stateMutability": "nonpayable",
      "type": "function"
    },
    {
      "inputs": [
        {
          "internalType": "address",
          "name": "newSparkAddr",
          "type": "address"
        }
      ],
      "name": "setSparkTokenContractAddr",
      "outputs": [],
      "stateMutability": "nonpayable",
      "type": "function"
    },
    {
      "inputs": [
        {
          "internalType": "uint256",
          "name": "",
          "type": "uint256"
        }
      ],
      "name": "tokenAddrs",
      "outputs": [
        {
          "internalType": "address",
          "name": "",
          "type": "address"
        }
      ],
      "stateMutability": "view",
      "type": "function"
    },
    {
      "inputs": [
        {
          "internalType": "address",
          "name": "newOwner",
          "type": "address"
        }
      ],
      "name": "transferOwnership",
      "outputs": [],
      "stateMutability": "nonpayable",
      "type": "function"
    },
    {
      "inputs": [
        {
          "internalType": "address",
          "name": "contractAddr",
          "type": "address"
        },
        {
          "internalType": "uint256",
          "name": "tokenId",
          "type": "uint256"
        },
        {
          "internalType": "uint256",
          "name": "price",
          "type": "uint256"
        }
      ],
      "name": "updateOffer",
      "outputs": [],
      "stateMutability": "payable",
      "type": "function"
    },
    {
      "inputs": [
        {
          "internalType": "address",
          "name": "contractAddr",
          "type": "address"
        },
        {
          "internalType": "uint256",
          "name": "tokenId",
          "type": "uint256"
        },
        {
          "internalType": "uint8",
          "name": "payment",
          "type": "uint8"
        },
        {
          "internalType": "uint256",
          "name": "startPrice",
          "type": "uint256"
        },
        {
          "internalType": "uint256",
          "name": "endPrice",
          "type": "uint256"
        },
        {
          "internalType": "uint256",
          "name": "duration",
          "type": "uint256"
        }
      ],
      "name": "updateSale",
      "outputs": [],
      "stateMutability": "nonpayable",
      "type": "function"
    },
    {
      "inputs": [
        {
          "internalType": "address",
          "name": "newImplementation",
          "type": "address"
        }
      ],
      "name": "upgradeTo",
      "outputs": [],
      "stateMutability": "nonpayable",
      "type": "function"
    },
    {
      "inputs": [
        {
          "internalType": "address",
          "name": "newImplementation",
          "type": "address"
        },
        {
          "internalType": "bytes",
          "name": "data",
          "type": "bytes"
        }
      ],
      "name": "upgradeToAndCall",
      "outputs": [],
      "stateMutability": "payable",
      "type": "function"
    }
  ],
  "bytecode": "0x60a06040523060805234801561001457600080fd5b50608051614ea261004c600039600081816115390152818161157901528181611b2e01528181611b6e0152611f440152614ea26000f3fe60806040526004361061019c5760003560e01c8063715018a6116100ec578063b1b9e78d1161008a578063db9d48d811610064578063db9d48d814610480578063e16bd3b7146104a0578063f2fde38b146104c0578063f4947f0f146104e057600080fd5b8063b1b9e78d1461042d578063bc4781af1461044d578063cce7ec131461046d57600080fd5b8063821c7818116100c6578063821c78181461038d5780638da5cb5b146103bb578063915044ec146103ed578063a5756bd21461040d57600080fd5b8063715018a6146103505780637de3bd07146103655780638129fc1c1461037857600080fd5b80633659cfe6116101595780635293e6db116101335780635293e6db146102cd57806352d1902d146102ed57806360efe334146103105780636c54df521461033057600080fd5b80633659cfe61461027a578063391056c91461029a5780634f1ef286146102ba57600080fd5b8063058a56ac146101a157806306c0a504146101c357806316d4db74146101f957806316f3a95b1461020c578063225c31311461022c5780632faf3ea61461025a575b600080fd5b3480156101ad57600080fd5b506101c16101bc366004614607565b610500565b005b3480156101cf57600080fd5b506101e36101de366004614633565b61089a565b6040516101f091906146a7565b60405180910390f35b6101c16102073660046146ba565b6109da565b34801561021857600080fd5b506101c1610227366004614607565b610f26565b34801561023857600080fd5b5061024c610247366004614607565b61122f565b6040516101f092919061479f565b34801561026657600080fd5b506101c16102753660046147d7565b61145c565b34801561028657600080fd5b506101c1610295366004614803565b61152e565b3480156102a657600080fd5b506101c16102b5366004614820565b61160e565b6101c16102c8366004614890565b611b23565b3480156102d957600080fd5b506101c16102e8366004614820565b611bf0565b3480156102f957600080fd5b50610302611f37565b6040519081526020016101f0565b34801561031c57600080fd5b5061030261032b366004614607565b611fea565b34801561033c57600080fd5b5061030261034b366004614607565b61200f565b34801561035c57600080fd5b506101c161229d565b6101c16103733660046146ba565b6122b1565b34801561038457600080fd5b506101c161260b565b34801561039957600080fd5b506103ad6103a8366004614633565b612723565b6040516101f0929190614954565b3480156103c757600080fd5b506033546001600160a01b03165b6040516001600160a01b0390911681526020016101f0565b3480156103f957600080fd5b506103d56104083660046149c1565b612a84565b34801561041957600080fd5b506101c1610428366004614803565b612aa4565b34801561043957600080fd5b506101c1610448366004614607565b612ace565b34801561045957600080fd5b506101c1610468366004614803565b61302f565b6101c161047b366004614607565b613059565b34801561048c57600080fd5b5060fb546103d5906001600160a01b031681565b3480156104ac57600080fd5b506103ad6104bb366004614803565b6133e6565b3480156104cc57600080fd5b506101c16104db366004614803565b613727565b3480156104ec57600080fd5b506101e36104fb366004614803565b61379d565b60fb5482906001600160a01b03166105335760405162461bcd60e51b815260040161052a906149da565b60405180910390fd5b60fb5460405163b9209e3360e01b81526001600160a01b0383811660048301529091169063b9209e339060240160206040518083038186803b15801561057857600080fd5b505afa15801561058c573d6000803e3d6000fd5b505050506040513d601f19601f820116820180604052508101906105b09190614a07565b6105cc5760405162461bcd60e51b815260040161052a90614a29565b6001600160a01b038316600090815261010160209081526040808320858452909152902060018101546106115760405162461bcd60e51b815260040161052a90614a4f565b80546001600160a01b031633141561063b5760405162461bcd60e51b815260040161052a90614a74565b60005b6005820154811080156106835750336001600160a01b031682600501828154811061066b5761066b614a97565b6000918252602090912001546001600160a01b031614155b156106985761069181614ac3565b905061063e565b600582015481106106d65760405162461bcd60e51b815260206004820152600860248201526727379027b33332b960c11b604482015260640161052a565b60008260060182815481106106ed576106ed614a97565b60009182526020909120015483549091506107319060fc90600160a01b900460ff166002811061071f5761071f614a97565b01546001600160a01b031682336138ce565b6001600160a01b038616600090815261010160209081526040808320888452909152908190209051637b150e3d60e01b8152600590910160048201526024810183905273__$e9d29609e19beebe46219d41a81a317a2e$__90637b150e3d9060440160006040518083038186803b1580156107ab57600080fd5b505af41580156107bf573d6000803e3d6000fd5b505050506001600160a01b038616600090815261010160209081526040808320888452909152908190209051633c764a6160e21b8152600690910160048201526024810183905273__$e9d29609e19beebe46219d41a81a317a2e$__9063f1d929849060440160006040518083038186803b15801561083d57600080fd5b505af4158015610851573d6000803e3d6000fd5b505050507f484147b537118d64d412586d4a207bc98691c1697b538111d504f4fb381fac6a8686833360405161088a9493929190614ade565b60405180910390a1505050505050565b60fb5460609083906001600160a01b03166108c75760405162461bcd60e51b815260040161052a906149da565b60fb5460405163b9209e3360e01b81526001600160a01b0383811660048301529091169063b9209e339060240160206040518083038186803b15801561090c57600080fd5b505afa158015610920573d6000803e3d6000fd5b505050506040513d601f19601f820116820180604052508101906109449190614a07565b6109605760405162461bcd60e51b815260040161052a90614a29565b6001600160a01b03808416600090815261010060209081526040808320938816835292815290829020805483518184028101840190945280845290918301828280156109cb57602002820191906000526020600020905b8154815260200190600101908083116109b7575b505050505091505b5092915050565b60fb5483906001600160a01b0316610a045760405162461bcd60e51b815260040161052a906149da565b60fb5460405163b9209e3360e01b81526001600160a01b0383811660048301529091169063b9209e339060240160206040518083038186803b158015610a4957600080fd5b505afa158015610a5d573d6000803e3d6000fd5b505050506040513d601f19601f82011682018060405250810190610a819190614a07565b610a9d5760405162461bcd60e51b815260040161052a90614a29565b6001600160a01b03848116600090815261010160209081526040808320878452825280832081516101008101835281549586168152600160a01b90950460ff16858401526001810154858301526002810154606086015260038101546080860152600481015460a0860152600581018054835181860281018601909452808452949594919360c08601939290830182828015610b6257602002820191906000526020600020905b81546001600160a01b03168152600190910190602001808311610b44575b5050505050815260200160068201805480602002602001604051908101604052809291908181526020018280548015610bba57602002820191906000526020600020905b815481526020019060010190808311610ba6575b50505050508152505090506000816040015111610be95760405162461bcd60e51b815260040161052a90614a4f565b80516001600160a01b0316331415610c135760405162461bcd60e51b815260040161052a90614a74565b610c1d858561200f565b8310610c615760405162461bcd60e51b8152602060048201526013602482015272496e76616c6964204f6666657220507269636560681b604482015260640161052a565b6001600160a01b038516600090815261010160209081526040808320878452825280832060050180548251818502810185019093528083529192909190830182828015610cd757602002820191906000526020600020905b81546001600160a01b03168152600190910190602001808311610cb9575b5050604051636e44fbfb60e01b815273__$e9d29609e19beebe46219d41a81a317a2e$__94636e44fbfb9450610d14935091503390600401614b09565b60206040518083038186803b158015610d2c57600080fd5b505af4158015610d40573d6000803e3d6000fd5b505050506040513d601f19601f82011682018060405250810190610d649190614b66565b6001600160a01b0387166000908152610101602090815260408083208984529091529020600501549091508110610dd45760405162461bcd60e51b81526020600482015260146024820152732ab730b13632903a37903334b7321037b33332b960611b604482015260640161052a565b6001600160a01b0386166000908152610101602090815260408083208884529091528120600601805483908110610e0d57610e0d614a97565b9060005260206000200154905080851115610e5e57610e5960fc846020015160ff1660028110610e3f57610e3f614a97565b01546001600160a01b0316610e548388614b7f565b61399a565b610e96565b610e9660fc846020015160ff1660028110610e7b57610e7b614a97565b01546001600160a01b0316610e908784614b7f565b336138ce565b6001600160a01b0387166000908152610101602090815260408083208984529091529020600601805486919084908110610ed257610ed2614a97565b90600052602060002001819055507f65866be81ca3189286b90dae229595c313a6b23785217ef8723061372ecbfe3e87878733604051610f159493929190614ade565b60405180910390a150505050505050565b60fb5482906001600160a01b0316610f505760405162461bcd60e51b815260040161052a906149da565b60fb5460405163b9209e3360e01b81526001600160a01b0383811660048301529091169063b9209e339060240160206040518083038186803b158015610f9557600080fd5b505afa158015610fa9573d6000803e3d6000fd5b505050506040513d601f19601f82011682018060405250810190610fcd9190614a07565b610fe95760405162461bcd60e51b815260040161052a90614a29565b6001600160a01b03838116600090815261010160209081526040808320868452825280832081516101008101835281549586168152600160a01b90950460ff16858401526001810154858301526002810154606086015260038101546080860152600481015460a0860152600581018054835181860281018601909452808452949594919360c086019392908301828280156110ae57602002820191906000526020600020905b81546001600160a01b03168152600190910190602001808311611090575b505050505081526020016006820180548060200260200160405190810160405280929190818152602001828054801561110657602002820191906000526020600020905b8154815260200190600101908083116110f2575b505050505081525050905060008160400151116111355760405162461bcd60e51b815260040161052a90614a4f565b80516001600160a01b0316331461117b5760405162461bcd60e51b815260206004820152600a6024820152692737ba1029b2b63632b960b11b604482015260640161052a565b80516040516323b872dd60e01b81526001600160a01b038616916323b872dd916111ab9130918890600401614b96565b600060405180830381600087803b1580156111c557600080fd5b505af11580156111d9573d6000803e3d6000fd5b505050506111e78484613a6e565b604080516001600160a01b0386168152602081018590527fc9b961c43fe701b83ae14bfe2d7625ea85b27c33b4aae8d1fdf4b344d5ea1dbc910160405180910390a150505050565b6112376144d2565b60fb5460009084906001600160a01b03166112645760405162461bcd60e51b815260040161052a906149da565b60fb5460405163b9209e3360e01b81526001600160a01b0383811660048301529091169063b9209e339060240160206040518083038186803b1580156112a957600080fd5b505afa1580156112bd573d6000803e3d6000fd5b505050506040513d601f19601f820116820180604052508101906112e19190614a07565b6112fd5760405162461bcd60e51b815260040161052a90614a29565b6001600160a01b0385811660009081526101016020908152604080832088845282529182902082516101008101845281549485168152600160a01b90940460ff16848301526001810154848401526002810154606085015260038101546080850152600481015460a0850152600581018054845181850281018501909552808552919360c08601939092908301828280156113c157602002820191906000526020600020905b81546001600160a01b031681526001909101906020018083116113a3575b505050505081526020016006820180548060200260200160405190810160405280929190818152602001828054801561141957602002820191906000526020600020905b815481526020019060010190808311611405575b505050505081525050925060008360400151116114485760405162461bcd60e51b815260040161052a90614a4f565b611452858561200f565b9150509250929050565b33600090815260fe6020526040902060ff82166002811061147f5761147f614a97565b01548211156114c45760405162461bcd60e51b81526020600482015260116024820152704578636565647320436c61696d61626c6560781b604482015260640161052a565b33600090815260fe60205260409020829060ff8316600281106114e9576114e9614a97565b0160008282546114f99190614b7f565b9091555061152a905060fc60ff83166002811061151857611518614a97565b01546001600160a01b031683336138ce565b5050565b306001600160a01b037f00000000000000000000000000000000000000000000000000000000000000001614156115775760405162461bcd60e51b815260040161052a90614bba565b7f00000000000000000000000000000000000000000000000000000000000000006001600160a01b03166115c0600080516020614e26833981519152546001600160a01b031690565b6001600160a01b0316146115e65760405162461bcd60e51b815260040161052a90614c06565b6115ef81613dd2565b6040805160008082526020820190925261160b91839190613dda565b50565b60fb5486906001600160a01b03166116385760405162461bcd60e51b815260040161052a906149da565b60fb5460405163b9209e3360e01b81526001600160a01b0383811660048301529091169063b9209e339060240160206040518083038186803b15801561167d57600080fd5b505afa158015611691573d6000803e3d6000fd5b505050506040513d601f19601f820116820180604052508101906116b59190614a07565b6116d15760405162461bcd60e51b815260040161052a90614a29565b828410156117115760405162461bcd60e51b815260206004820152600d60248201526c496e76616c696420507269636560981b604482015260640161052a565b604080516101008101825233815260ff871660208083019190915281830187905260608201869052426080830181905260a0830186905283516000808252818401865260c085019190915284518181529283019094529260e0830191905090526001600160a01b03808a166000908152610101602090815260408083208c8452825291829020845181548684015160ff16600160a01b026001600160a81b03199091169190951617939093178355908301516001830155606083015160028301556080830151600383015560a0830151600483015560c083015180516117fd9260058501920190614523565b5060e08201518051611819916006840191602090910190614588565b5050506001600160a01b038816600090815260ff602090815260408083208054825181850281018501909352808352919290919083018282801561187c57602002820191906000526020600020905b815481526020019060010190808311611868575b5050604051633d99de8560e01b815273__$e9d29609e19beebe46219d41a81a317a2e$__94633d99de8594506118b9935091508c90600401614c52565b60206040518083038186803b1580156118d157600080fd5b505af41580156118e5573d6000803e3d6000fd5b505050506040513d601f19601f820116820180604052508101906119099190614b66565b6001600160a01b038a16600090815260ff6020526040902054909150811061196f5760405162461bcd60e51b8152602060048201526019602482015278155b98589b19481d1bc8199a5b99081b1a5cdd195908139195603a1b604482015260640161052a565b336000908152610100602090815260408083206001600160a01b038d168452825291829020805483518184028101840190945280845290918301828280156119d657602002820191906000526020600020905b8154815260200190600101908083116119c2575b5050604051633d99de8560e01b815273__$e9d29609e19beebe46219d41a81a317a2e$__94633d99de859450611a13935091508c90600401614c52565b60206040518083038186803b158015611a2b57600080fd5b505af4158015611a3f573d6000803e3d6000fd5b505050506040513d601f19601f82011682018060405250810190611a639190614b66565b336000908152610100602090815260408083206001600160a01b038e1684529091529020549091508110611ad55760405162461bcd60e51b8152602060048201526019602482015278155b98589b19481d1bc8199a5b99081b1a5cdd195908139195603a1b604482015260640161052a565b7fdbc9bf0bcc292f50c1b95f1fad343ac5115199ee73a6550306191cdb76514bbe8989898989878a604051611b109796959493929190614c9a565b60405180910390a1505050505050505050565b306001600160a01b037f0000000000000000000000000000000000000000000000000000000000000000161415611b6c5760405162461bcd60e51b815260040161052a90614bba565b7f00000000000000000000000000000000000000000000000000000000000000006001600160a01b0316611bb5600080516020614e26833981519152546001600160a01b031690565b6001600160a01b031614611bdb5760405162461bcd60e51b815260040161052a90614c06565b611be482613dd2565b61152a82826001613dda565b60fb5486906001600160a01b0316611c1a5760405162461bcd60e51b815260040161052a906149da565b60fb5460405163b9209e3360e01b81526001600160a01b0383811660048301529091169063b9209e339060240160206040518083038186803b158015611c5f57600080fd5b505afa158015611c73573d6000803e3d6000fd5b505050506040513d601f19601f82011682018060405250810190611c979190614a07565b611cb35760405162461bcd60e51b815260040161052a90614a29565b82841015611cf35760405162461bcd60e51b815260206004820152600d60248201526c496e76616c696420507269636560981b604482015260640161052a565b6040516323b872dd60e01b81526001600160a01b038816906323b872dd90611d2390339030908b90600401614b96565b600060405180830381600087803b158015611d3d57600080fd5b505af1158015611d51573d6000803e3d6000fd5b5050604080516101008101825233815260ff8916602082015290810187905260608101869052426080820181905260a082018690529250905060c081016000604051908082528060200260200182016040528015611db9578160200160208202803683370190505b5081526020016000604051908082528060200260200182016040528015611dea578160200160208202803683370190505b5090526001600160a01b03808a166000908152610101602090815260408083208c8452825291829020845181548684015160ff16600160a01b026001600160a81b03199091169190951617939093178355908301516001830155606083015160028301556080830151600383015560a0830151600483015560c08301518051611e799260058501920190614523565b5060e08201518051611e95916006840191602090910190614588565b5050506001600160a01b038816600081815260ff60209081526040808320805460018181018355918552838520018c905533845261010083528184209484529382528083208054948501815583529120909101889055517f466c91b57df6daad340ea674f78c8d7948a1cba6c85e3be3cfe087f463fd0e7090611f25908a908a908a908a908a9088908b90614c9a565b60405180910390a15050505050505050565b6000306001600160a01b037f00000000000000000000000000000000000000000000000000000000000000001614611fd75760405162461bcd60e51b815260206004820152603860248201527f555550535570677261646561626c653a206d757374206e6f742062652063616c60448201527f6c6564207468726f7567682064656c656761746563616c6c0000000000000000606482015260840161052a565b50600080516020614e2683398151915290565b60fe602052816000526040600020816002811061200657600080fd5b01549150829050565b60fb5460009083906001600160a01b031661203c5760405162461bcd60e51b815260040161052a906149da565b60fb5460405163b9209e3360e01b81526001600160a01b0383811660048301529091169063b9209e339060240160206040518083038186803b15801561208157600080fd5b505afa158015612095573d6000803e3d6000fd5b505050506040513d601f19601f820116820180604052508101906120b99190614a07565b6120d55760405162461bcd60e51b815260040161052a90614a29565b6001600160a01b03848116600090815261010160209081526040808320878452825280832081516101008101835281549586168152600160a01b90950460ff16858401526001810154858301526002810154606086015260038101546080860152600481015460a0860152600581018054835181860281018601909452808452949594919360c0860193929083018282801561219a57602002820191906000526020600020905b81546001600160a01b0316815260019091019060200180831161217c575b50505050508152602001600682018054806020026020016040519081016040528092919081815260200182805480156121f257602002820191906000526020600020905b8154815260200190600101908083116121de575b505050505081525050905060008160400151116122215760405162461bcd60e51b815260040161052a90614a4f565b60a08101516080820151429161223691614cd8565b811061224857506060015191506109d3565b60a0820151608083015161225c9083614b7f565b836060015184604001516122709190614b7f565b61227a9190614cf0565b6122849190614d0f565b82604001516122939190614b7f565b9695505050505050565b6122a5613f54565b6122af6000613fae565b565b60fb5483906001600160a01b03166122db5760405162461bcd60e51b815260040161052a906149da565b60fb5460405163b9209e3360e01b81526001600160a01b0383811660048301529091169063b9209e339060240160206040518083038186803b15801561232057600080fd5b505afa158015612334573d6000803e3d6000fd5b505050506040513d601f19601f820116820180604052508101906123589190614a07565b6123745760405162461bcd60e51b815260040161052a90614a29565b6001600160a01b03848116600090815261010160209081526040808320878452825280832081516101008101835281549586168152600160a01b90950460ff16858401526001810154858301526002810154606086015260038101546080860152600481015460a0860152600581018054835181860281018601909452808452949594919360c0860193929083018282801561243957602002820191906000526020600020905b81546001600160a01b0316815260019091019060200180831161241b575b505050505081526020016006820180548060200260200160405190810160405280929190818152602001828054801561249157602002820191906000526020600020905b81548152602001906001019080831161247d575b505050505081525050905060008160400151116124c05760405162461bcd60e51b815260040161052a90614a4f565b80516001600160a01b03163314156124ea5760405162461bcd60e51b815260040161052a90614a74565b6124f4858561200f565b83106125385760405162461bcd60e51b8152602060048201526013602482015272496e76616c6964204f6666657220507269636560681b604482015260640161052a565b61256660fc826020015160ff166002811061255557612555614a97565b01546001600160a01b03168461399a565b6001600160a01b0385166000908152610101602090815260408083208784528252808320600581018054600180820183559186528486200180546001600160a01b03191633908117909155600690920180549182018155855292909320909101859055517fb35e89ddd2b55ef83ae2fadcfb375c6d8523977ba388fb91cb1a0ff231210877916125fc9188918891889190614ade565b60405180910390a15050505050565b600054610100900460ff161580801561262b5750600054600160ff909116105b806126455750303b158015612645575060005460ff166001145b6126a85760405162461bcd60e51b815260206004820152602e60248201527f496e697469616c697a61626c653a20636f6e747261637420697320616c72656160448201526d191e481a5b9a5d1a585b1a5e995960921b606482015260840161052a565b6000805460ff1916600117905580156126cb576000805461ff0019166101001790555b6126d3614000565b6126db61402f565b801561160b576000805461ff0019169055604051600181527f7f26b83ff96e1f2b6a682f133852f6798a09c465da95921460cefb38474024989060200160405180910390a150565b60fb54606090819084906001600160a01b03166127525760405162461bcd60e51b815260040161052a906149da565b60fb5460405163b9209e3360e01b81526001600160a01b0383811660048301529091169063b9209e339060240160206040518083038186803b15801561279757600080fd5b505afa1580156127ab573d6000803e3d6000fd5b505050506040513d601f19601f820116820180604052508101906127cf9190614a07565b6127eb5760405162461bcd60e51b815260040161052a90614a29565b6001600160a01b03808516600090815261010060209081526040808320938916835292905220548067ffffffffffffffff81111561282b5761282b61487a565b60405190808252806020026020018201604052801561286457816020015b6128516144d2565b8152602001906001900390816128495790505b5093508067ffffffffffffffff8111156128805761288061487a565b6040519080825280602002602001820160405280156128a9578160200160208202803683370190505b50925060005b81811015612a7a576001600160a01b03808716600090815261010060209081526040808320938b1683529290529081208054839081106128f1576128f1614a97565b6000918252602080832091909101546001600160a01b038b811684526101018352604080852083865284529384902084516101008101865281549283168152600160a01b90920460ff16828501526001810154828601526002810154606083015260038101546080830152600481015460a08301526005810180548651818702810187019097528087529396509194909360c0860193919291908301828280156129c457602002820191906000526020600020905b81546001600160a01b031681526001909101906020018083116129a6575b5050505050815260200160068201805480602002602001604051908101604052809291908181526020018280548015612a1c57602002820191906000526020600020905b815481526020019060010190808311612a08575b505050505081525050868381518110612a3757612a37614a97565b6020026020010181905250612a4c888261200f565b858381518110612a5e57612a5e614a97565b602090810291909101015250612a7381614ac3565b90506128af565b5050509250929050565b60fc8160028110612a9457600080fd5b01546001600160a01b0316905081565b612aac613f54565b60fd80546001600160a01b0319166001600160a01b0392909216919091179055565b60fb5482906001600160a01b0316612af85760405162461bcd60e51b815260040161052a906149da565b60fb5460405163b9209e3360e01b81526001600160a01b0383811660048301529091169063b9209e339060240160206040518083038186803b158015612b3d57600080fd5b505afa158015612b51573d6000803e3d6000fd5b505050506040513d601f19601f82011682018060405250810190612b759190614a07565b612b915760405162461bcd60e51b815260040161052a90614a29565b6001600160a01b03838116600090815261010160209081526040808320868452825280832081516101008101835281549586168152600160a01b90950460ff16858401526001810154858301526002810154606086015260038101546080860152600481015460a0860152600581018054835181860281018601909452808452949594919360c08601939290830182828015612c5657602002820191906000526020600020905b81546001600160a01b03168152600190910190602001808311612c38575b5050505050815260200160068201805480602002602001604051908101604052809291908181526020018280548015612cae57602002820191906000526020600020905b815481526020019060010190808311612c9a575b50505050508152505090506000816040015111612cdd5760405162461bcd60e51b815260040161052a90614a4f565b80516001600160a01b03163314612d235760405162461bcd60e51b815260206004820152600a6024820152692737ba1029b2b63632b960b11b604482015260640161052a565b6000808260c001515111612d645760405162461bcd60e51b815260206004820152600860248201526727379027b33332b960c11b604482015260640161052a565b60015b8260c0015151811015612dca578260e001518281518110612d8a57612d8a614a97565b60200260200101518360e001518281518110612da857612da8614a97565b60200260200101511115612dba578091505b612dc381614ac3565b9050612d67565b5060008260e001518281518110612de357612de3614a97565b6020026020010151905060008360c001518381518110612e0557612e05614a97565b60200260200101519050612e4060fc856020015160ff1660028110612e2c57612e2c614a97565b01546001600160a01b031683338a8a614056565b6040516323b872dd60e01b81526001600160a01b038816906323b872dd90612e7090309085908b90600401614b96565b600060405180830381600087803b158015612e8a57600080fd5b505af1158015612e9e573d6000803e3d6000fd5b505050506001600160a01b038716600090815261010160209081526040808320898452909152908190209051637b150e3d60e01b8152600590910160048201526024810184905273__$e9d29609e19beebe46219d41a81a317a2e$__90637b150e3d9060440160006040518083038186803b158015612f1c57600080fd5b505af4158015612f30573d6000803e3d6000fd5b505050506001600160a01b038716600090815261010160209081526040808320898452909152908190209051633c764a6160e21b8152600690910160048201526024810184905273__$e9d29609e19beebe46219d41a81a317a2e$__9063f1d929849060440160006040518083038186803b158015612fae57600080fd5b505af4158015612fc2573d6000803e3d6000fd5b50505050612fd08787613a6e565b602080850151604080516001600160a01b03808c1682529381018a905260ff909216908201526060810184905290821660808201527fb6af6a106a35424cce083e957b7173ee5cb2cc8ff96f543561ac8a7dc34ed1ea9060a001610f15565b613037613f54565b60fb80546001600160a01b0319166001600160a01b0392909216919091179055565b60fb5482906001600160a01b03166130835760405162461bcd60e51b815260040161052a906149da565b60fb5460405163b9209e3360e01b81526001600160a01b0383811660048301529091169063b9209e339060240160206040518083038186803b1580156130c857600080fd5b505afa1580156130dc573d6000803e3d6000fd5b505050506040513d601f19601f820116820180604052508101906131009190614a07565b61311c5760405162461bcd60e51b815260040161052a90614a29565b613124614087565b6001600160a01b03838116600090815261010160209081526040808320868452825280832081516101008101835281549586168152600160a01b90950460ff16858401526001810154858301526002810154606086015260038101546080860152600481015460a0860152600581018054835181860281018601909452808452949594919360c086019392908301828280156131e957602002820191906000526020600020905b81546001600160a01b031681526001909101906020018083116131cb575b505050505081526020016006820180548060200260200160405190810160405280929190818152602001828054801561324157602002820191906000526020600020905b81548152602001906001019080831161322d575b505050505081525050905060008160400151116132705760405162461bcd60e51b815260040161052a90614a4f565b80516001600160a01b031633141561329a5760405162461bcd60e51b815260040161052a90614a74565b60006132a6858561200f565b90506132d660fc836020015160ff16600281106132c5576132c5614a97565b01546001600160a01b03168261399a565b61330c60fc836020015160ff16600281106132f3576132f3614a97565b015483516001600160a01b039091169083908888614056565b6133168585613a6e565b6040516323b872dd60e01b81526001600160a01b038616906323b872dd9061334690309033908990600401614b96565b600060405180830381600087803b15801561336057600080fd5b505af1158015613374573d6000803e3d6000fd5b50505050602082810151604080516001600160a01b038916815292830187905260ff9091168282015260608201839052336080830152517f53343ea03762430fa282a1235d1ea91b397487c7f12ba56db2b2a0cf636fec2b9181900360a00190a150506133e16001606555565b505050565b60fb54606090819083906001600160a01b03166134155760405162461bcd60e51b815260040161052a906149da565b60fb5460405163b9209e3360e01b81526001600160a01b0383811660048301529091169063b9209e339060240160206040518083038186803b15801561345a57600080fd5b505afa15801561346e573d6000803e3d6000fd5b505050506040513d601f19601f820116820180604052508101906134929190614a07565b6134ae5760405162461bcd60e51b815260040161052a90614a29565b6001600160a01b038416600090815260ff60205260409020548067ffffffffffffffff8111156134e0576134e061487a565b60405190808252806020026020018201604052801561351957816020015b6135066144d2565b8152602001906001900390816134fe5790505b5093508067ffffffffffffffff8111156135355761353561487a565b60405190808252806020026020018201604052801561355e578160200160208202803683370190505b50925060005b8181101561371f576001600160a01b038616600090815260ff6020526040812080548390811061359657613596614a97565b6000918252602080832091909101546001600160a01b038a811684526101018352604080852083865284529384902084516101008101865281549283168152600160a01b90920460ff16828501526001810154828601526002810154606083015260038101546080830152600481015460a08301526005810180548651818702810187019097528087529396509194909360c08601939192919083018282801561366957602002820191906000526020600020905b81546001600160a01b0316815260019091019060200180831161364b575b50505050508152602001600682018054806020026020016040519081016040528092919081815260200182805480156136c157602002820191906000526020600020905b8154815260200190600101908083116136ad575b5050505050815250508683815181106136dc576136dc614a97565b60200260200101819052506136f1878261200f565b85838151811061370357613703614a97565b60209081029190910101525061371881614ac3565b9050613564565b505050915091565b61372f613f54565b6001600160a01b0381166137945760405162461bcd60e51b815260206004820152602660248201527f4f776e61626c653a206e6577206f776e657220697320746865207a65726f206160448201526564647265737360d01b606482015260840161052a565b61160b81613fae565b60fb5460609082906001600160a01b03166137ca5760405162461bcd60e51b815260040161052a906149da565b60fb5460405163b9209e3360e01b81526001600160a01b0383811660048301529091169063b9209e339060240160206040518083038186803b15801561380f57600080fd5b505afa158015613823573d6000803e3d6000fd5b505050506040513d601f19601f820116820180604052508101906138479190614a07565b6138635760405162461bcd60e51b815260040161052a90614a29565b6001600160a01b038316600090815260ff6020908152604091829020805483518184028101840190945280845290918301828280156138c157602002820191906000526020600020905b8154815260200190600101908083116138ad575b5050505050915050919050565b6001600160a01b038316613918576040516001600160a01b0382169083156108fc029084906000818181858888f19350505050158015613912573d6000803e3d6000fd5b50505050565b60405163a9059cbb60e01b81526001600160a01b0382811660048301526024820184905284169063a9059cbb90604401602060405180830381600087803b15801561396257600080fd5b505af1158015613976573d6000803e3d6000fd5b505050506040513d601f19601f820116820180604052508101906139129190614a07565b6001600160a01b0382166139ec578034101561152a5760405162461bcd60e51b8152602060048201526011602482015270125b9cdd59999a58da595b9d08119d5b99607a1b604482015260640161052a565b6040516323b872dd60e01b81526001600160a01b038316906323b872dd90613a1c90339030908690600401614b96565b602060405180830381600087803b158015613a3657600080fd5b505af1158015613a4a573d6000803e3d6000fd5b505050506040513d601f19601f820116820180604052508101906133e19190614a07565b6001600160a01b038216600090815260ff6020526040908190209051630cef945b60e31b815260048101919091526024810182905273__$e9d29609e19beebe46219d41a81a317a2e$__9063677ca2d89060440160006040518083038186803b158015613ada57600080fd5b505af4158015613aee573d6000803e3d6000fd5b5050506001600160a01b0380841660009081526101016020908152604080832086845282528083208151610100810183528154958616815260ff600160a01b90960495909516858401526001810154858301526002810154606086015260038101546080860152600481015460a0860152600581018054835181860281018601909452808452949650909360c0860193830182828015613bb757602002820191906000526020600020905b81546001600160a01b03168152600190910190602001808311613b99575b5050505050815260200160068201805480602002602001604051908101604052809291908181526020018280548015613c0f57602002820191906000526020600020905b815481526020019060010190808311613bfb575b50505091909252505081516001600160a01b0390811660009081526101006020908152604080832093891683529290528190209051630cef945b60e31b815260048101919091526024810185905291925073__$e9d29609e19beebe46219d41a81a317a2e$__9163677ca2d8915060440160006040518083038186803b158015613c9857600080fd5b505af4158015613cac573d6000803e3d6000fd5b5050505060c08101515160005b81811015613d5f578260e001518181518110613cd757613cd7614a97565b602002602001015160fe60008560c001518481518110613cf957613cf9614a97565b60200260200101516001600160a01b03166001600160a01b03168152602001908152602001600020846020015160ff1660028110613d3957613d39614a97565b016000828254613d499190614cd8565b90915550613d58905081614ac3565b9050613cb9565b506001600160a01b038416600090815261010160209081526040808320868452909152812080546001600160a81b03191681556001810182905560028101829055600381018290556004810182905590613dbc60058301826145c3565b613dca6006830160006145c3565b505050505050565b61160b613f54565b7f4910fdfa16fed3260ed0e7147f7cc6da11a60208b5b9406d12a635614ffd91435460ff1615613e0d576133e1836140e1565b826001600160a01b03166352d1902d6040518163ffffffff1660e01b815260040160206040518083038186803b158015613e4657600080fd5b505afa925050508015613e76575060408051601f3d908101601f19168201909252613e7391810190614b66565b60015b613ed95760405162461bcd60e51b815260206004820152602e60248201527f45524331393637557067726164653a206e657720696d706c656d656e7461746960448201526d6f6e206973206e6f74205555505360901b606482015260840161052a565b600080516020614e268339815191528114613f485760405162461bcd60e51b815260206004820152602960248201527f45524331393637557067726164653a20756e737570706f727465642070726f786044820152681a58589b195555525160ba1b606482015260840161052a565b506133e183838361417d565b6033546001600160a01b031633146122af5760405162461bcd60e51b815260206004820181905260248201527f4f776e61626c653a2063616c6c6572206973206e6f7420746865206f776e6572604482015260640161052a565b603380546001600160a01b038381166001600160a01b0319831681179093556040519116919082907f8be0079c531659141344cd1fd0a4f28419497f9722a3daafe3b4186f6b6457e090600090a35050565b600054610100900460ff166140275760405162461bcd60e51b815260040161052a90614d31565b6122af6141a2565b600054610100900460ff166122af5760405162461bcd60e51b815260040161052a90614d31565b6000614061836141d2565b156140795761407283838888614259565b905061407c565b50835b613dca8682866138ce565b600260655414156140da5760405162461bcd60e51b815260206004820152601f60248201527f5265656e7472616e637947756172643a207265656e7472616e742063616c6c00604482015260640161052a565b6002606555565b6001600160a01b0381163b61414e5760405162461bcd60e51b815260206004820152602d60248201527f455243313936373a206e657720696d706c656d656e746174696f6e206973206e60448201526c1bdd08184818dbdb9d1c9858dd609a1b606482015260840161052a565b600080516020614e2683398151915280546001600160a01b0319166001600160a01b0392909216919091179055565b61418683614354565b6000825111806141935750805b156133e1576139128383614394565b600054610100900460ff166141c95760405162461bcd60e51b815260040161052a90614d31565b6122af33613fae565b6040516301ffc9a760e01b815263152a902d60e11b60048201526000906001600160a01b038316906301ffc9a79060240160206040518083038186803b15801561421b57600080fd5b505afa15801561422f573d6000803e3d6000fd5b505050506040513d601f19601f820116820180604052508101906142539190614a07565b92915050565b60405163152a902d60e11b81526004810184905260248101829052600090819081906001600160a01b03881690632a55205a90604401604080518083038186803b1580156142a657600080fd5b505afa1580156142ba573d6000803e3d6000fd5b505050506040513d601f19601f820116820180604052508101906142de9190614d7c565b90925090506142ed8185614b7f565b92508015614300576143008582846138ce565b604080516001600160a01b0389168152602081018890529081018290527f7a474f3ea7966b6a336a0169253a863c5bbe817379d3570951736f604adbe2699060600160405180910390a15050949350505050565b61435d816140e1565b6040516001600160a01b038216907fbc7cd75a20ee27fd9adebab32041f755214dbc6bffa90cc0225b39da2e5c2d3b90600090a250565b60606001600160a01b0383163b6143fc5760405162461bcd60e51b815260206004820152602660248201527f416464726573733a2064656c65676174652063616c6c20746f206e6f6e2d636f6044820152651b9d1c9858dd60d21b606482015260840161052a565b600080846001600160a01b0316846040516144179190614dd6565b600060405180830381855af49150503d8060008114614452576040519150601f19603f3d011682016040523d82523d6000602084013e614457565b606091505b509150915061447f8282604051806060016040528060278152602001614e4660279139614488565b95945050505050565b606083156144975750816144a1565b6144a183836144a8565b9392505050565b8151156144b85781518083602001fd5b8060405162461bcd60e51b815260040161052a9190614df2565b60405180610100016040528060006001600160a01b03168152602001600060ff1681526020016000815260200160008152602001600081526020016000815260200160608152602001606081525090565b828054828255906000526020600020908101928215614578579160200282015b8281111561457857825182546001600160a01b0319166001600160a01b03909116178255602090920191600190910190614543565b506145849291506145dd565b5090565b828054828255906000526020600020908101928215614578579160200282015b828111156145785782518255916020019190600101906145a8565b508054600082559060005260206000209081019061160b91905b5b8082111561458457600081556001016145de565b6001600160a01b038116811461160b57600080fd5b6000806040838503121561461a57600080fd5b8235614625816145f2565b946020939093013593505050565b6000806040838503121561464657600080fd5b8235614651816145f2565b91506020830135614661816145f2565b809150509250929050565b600081518084526020808501945080840160005b8381101561469c57815187529582019590820190600101614680565b509495945050505050565b6020815260006144a1602083018461466c565b6000806000606084860312156146cf57600080fd5b83356146da816145f2565b95602085013595506040909401359392505050565b600081518084526020808501945080840160005b8381101561469c5781516001600160a01b031687529582019590820190600101614703565b600061010060018060a01b03835116845260ff602084015116602085015260408301516040850152606083015160608501526080830151608085015260a083015160a085015260c08301518160c0860152614785828601826146ef565b91505060e083015184820360e086015261447f828261466c565b6040815260006147b26040830185614728565b90508260208301529392505050565b803560ff811681146147d257600080fd5b919050565b600080604083850312156147ea57600080fd5b823591506147fa602084016147c1565b90509250929050565b60006020828403121561481557600080fd5b81356144a1816145f2565b60008060008060008060c0878903121561483957600080fd5b8635614844816145f2565b955060208701359450614859604088016147c1565b9350606087013592506080870135915060a087013590509295509295509295565b634e487b7160e01b600052604160045260246000fd5b600080604083850312156148a357600080fd5b82356148ae816145f2565b9150602083013567ffffffffffffffff808211156148cb57600080fd5b818501915085601f8301126148df57600080fd5b8135818111156148f1576148f161487a565b604051601f8201601f19908116603f011681019083821181831017156149195761491961487a565b8160405282815288602084870101111561493257600080fd5b8260208601602083013760006020848301015280955050505050509250929050565b6000604082016040835280855180835260608501915060608160051b8601019250602080880160005b838110156149ab57605f19888703018552614999868351614728565b9550938201939082019060010161497d565b50508584038187015250505061447f818561466c565b6000602082840312156149d357600080fd5b5035919050565b602080825260139082015272139bc81059191c995cdcc810dbdb9d1c9858dd606a1b604082015260600190565b600060208284031215614a1957600080fd5b815180151581146144a157600080fd5b6020808252600c908201526b139bdd0815995c9a599a595960a21b604082015260600190565b6020808252600b908201526a4e6f74204f6e2053616c6560a81b604082015260600190565b60208082526009908201526824b99029b2b63632b960b91b604082015260600190565b634e487b7160e01b600052603260045260246000fd5b634e487b7160e01b600052601160045260246000fd5b6000600019821415614ad757614ad7614aad565b5060010190565b6001600160a01b03948516815260208101939093526040830191909152909116606082015260800190565b604080825283519082018190526000906020906060840190828701845b82811015614b4b5781516001600160a01b031684529284019290840190600101614b26565b5050506001600160a01b039490941692019190915250919050565b600060208284031215614b7857600080fd5b5051919050565b600082821015614b9157614b91614aad565b500390565b6001600160a01b039384168152919092166020820152604081019190915260600190565b6020808252602c908201527f46756e6374696f6e206d7573742062652063616c6c6564207468726f7567682060408201526b19195b1959d85d1958d85b1b60a21b606082015260800190565b6020808252602c908201527f46756e6374696f6e206d7573742062652063616c6c6564207468726f7567682060408201526b6163746976652070726f787960a01b606082015260800190565b604080825283519082018190526000906020906060840190828701845b82811015614c8b57815184529284019290840190600101614c6f565b50505092019290925292915050565b6001600160a01b03979097168752602087019590955260ff9390931660408601526060850191909152608084015260a083015260c082015260e00190565b60008219821115614ceb57614ceb614aad565b500190565b6000816000190483118215151615614d0a57614d0a614aad565b500290565b600082614d2c57634e487b7160e01b600052601260045260246000fd5b500490565b6020808252602b908201527f496e697469616c697a61626c653a20636f6e7472616374206973206e6f74206960408201526a6e697469616c697a696e6760a81b606082015260800190565b60008060408385031215614d8f57600080fd5b8251614d9a816145f2565b6020939093015192949293505050565b60005b83811015614dc5578181015183820152602001614dad565b838111156139125750506000910152565b60008251614de8818460208701614daa565b9190910192915050565b6020815260008251806020840152614e11816040850160208701614daa565b601f01601f1916919091016040019291505056fe360894a13ba1a3210667c828492db98dca3e2076cc3735a920a3ca505d382bbc416464726573733a206c6f772d6c6576656c2064656c65676174652063616c6c206661696c6564a26469706673582212201d9a7b7847fe00c7462b35452ad7c16ad04bb92a6055cafa399ca08dd2353e7c64736f6c63430008090033",
  "linkReferences": {
    "contracts/libraries/ArrayLibrary.sol": {
      "ArrayLibrary": [
        {
          "length": 20,
          "start": 1986
        },
        {
          "length": 20,
          "start": 2132
        },
        {
          "length": 20,
          "start": 3380
        },
        {
          "length": 20,
          "start": 6361
        },
        {
          "length": 20,
          "start": 6707
        },
        {
          "length": 20,
          "start": 12083
        },
        {
          "length": 20,
          "start": 12229
        },
        {
          "length": 20,
          "start": 15089
        },
        {
          "length": 20,
          "start": 15534
        }
      ]
    }
  },
  "deployedLinkReferences": {
    "contracts/libraries/ArrayLibrary.sol": {
      "ArrayLibrary": [
        {
          "length": 20,
          "start": 1910
        },
        {
          "length": 20,
          "start": 2056
        },
        {
          "length": 20,
          "start": 3304
        },
        {
          "length": 20,
          "start": 6285
        },
        {
          "length": 20,
          "start": 6631
        },
        {
          "length": 20,
          "start": 12007
        },
        {
          "length": 20,
          "start": 12153
        },
        {
          "length": 20,
          "start": 15013
        },
        {
          "length": 20,
          "start": 15458
        }
      ]
    }
  }
}