{
  "_format": "hh-sol-artifact-1",
  "contractName": "WrappedTokenDistributorUpgradeable",
  "sourceName": "contracts/mocks/Spark/FPL/WrappedTokenDistributorUpgradeable.sol",
  "abi": [
    {
      "anonymous": false,
      "inputs": [
        {
          "indexed": true,
          "internalType": "address",
          "name": "to",
          "type": "address"
        },
        {
          "indexed": false,
          "internalType": "uint256",
          "name": "amount",
          "type": "uint256"
        }
      ],
      "name": "DistributedBTC",
      "type": "event"
    },
    {
      "anonymous": false,
      "inputs": [
        {
          "indexed": false,
          "internalType": "uint8",
          "name": "version",
          "type": "uint8"
        }
      ],
      "name": "Initialized",
      "type": "event"
    },
    {
      "inputs": [
        {
          "internalType": "address",
          "name": "swapRouterAddress",
          "type": "address"
        },
        {
          "internalType": "address",
          "name": "BUSDContractAddress",
          "type": "address"
        },
        {
          "internalType": "address",
          "name": "WrappedTokenContractAddress",
          "type": "address"
        }
      ],
      "name": "__WrappedTokenDistributor_initialize",
      "outputs": [],
      "stateMutability": "nonpayable",
      "type": "function"
    },
    {
      "inputs": [
        {
          "internalType": "uint256",
          "name": "_amount",
          "type": "uint256"
        }
      ],
      "name": "getEstimatedWrappedTokenForUSD",
      "outputs": [
        {
          "internalType": "uint256",
          "name": "",
          "type": "uint256"
        }
      ],
      "stateMutability": "view",
      "type": "function"
    },
    {
      "inputs": [],
      "name": "getPathForUSDToWrappedToken",
      "outputs": [
        {
          "internalType": "address[]",
          "name": "",
          "type": "address[]"
        }
      ],
      "stateMutability": "view",
      "type": "function"
    },
    {
      "inputs": [],
      "name": "getSwapRouter",
      "outputs": [
        {
          "internalType": "address",
          "name": "",
          "type": "address"
        }
      ],
      "stateMutability": "view",
      "type": "function"
    }
  ],
  "bytecode": "0x608060405234801561001057600080fd5b5061058f806100206000396000f3fe608060405234801561001057600080fd5b506004361061004c5760003560e01c80633fcdd82c14610051578063725c9c4914610077578063a35ef3a7146100a1578063a8f7b346146100b6575b600080fd5b61006461005f366004610378565b6100cb565b6040519081526020015b60405180910390f35b6000546201000090046001600160a01b03166040516001600160a01b03909116815260200161006e565b6100a9610184565b60405161006e91906103d5565b6100c96100c436600461040b565b610217565b005b6000805481906201000090046001600160a01b031663d06ca61f846100ee610184565b6040518363ffffffff1660e01b815260040161010b92919061044e565b60006040518083038186803b15801561012357600080fd5b505afa158015610137573d6000803e3d6000fd5b505050506040513d6000823e601f3d908101601f1916820160405261015f9190810190610485565b90508060018151811061017457610174610543565b6020026020010151915050919050565b60408051600280825260608083018452926000929190602083019080368337505060015482519293506001600160a01b0316918391506000906101c9576101c9610543565b6001600160a01b0392831660209182029290920101526002548251911690829060019081106101fa576101fa610543565b6001600160a01b0390921660209283029190910190910152919050565b600054610100900460ff16158080156102375750600054600160ff909116105b806102515750303b158015610251575060005460ff166001145b6102b85760405162461bcd60e51b815260206004820152602e60248201527f496e697469616c697a61626c653a20636f6e747261637420697320616c72656160448201526d191e481a5b9a5d1a585b1a5e995960921b606482015260840160405180910390fd5b6000805460ff1916600117905580156102db576000805461ff0019166101001790555b600080546001600160a01b03808716620100000262010000600160b01b031990921691909117909155600180548583166001600160a01b03199182161790915560028054928516929091169190911790558015610372576000805461ff0019169055604051600181527f7f26b83ff96e1f2b6a682f133852f6798a09c465da95921460cefb38474024989060200160405180910390a15b50505050565b60006020828403121561038a57600080fd5b5035919050565b600081518084526020808501945080840160005b838110156103ca5781516001600160a01b0316875295820195908201906001016103a5565b509495945050505050565b6020815260006103e86020830184610391565b9392505050565b80356001600160a01b038116811461040657600080fd5b919050565b60008060006060848603121561042057600080fd5b610429846103ef565b9250610437602085016103ef565b9150610445604085016103ef565b90509250925092565b8281526040602082015260006104676040830184610391565b949350505050565b634e487b7160e01b600052604160045260246000fd5b6000602080838503121561049857600080fd5b825167ffffffffffffffff808211156104b057600080fd5b818501915085601f8301126104c457600080fd5b8151818111156104d6576104d661046f565b8060051b604051601f19603f830116810181811085821117156104fb576104fb61046f565b60405291825284820192508381018501918883111561051957600080fd5b938501935b828510156105375784518452938501939285019261051e565b98975050505050505050565b634e487b7160e01b600052603260045260246000fdfea2646970667358221220e0f03bcbb107c16b42f56b7067a452a16c117946298fad8fc6da2e0a1b8d792f64736f6c63430008090033",
  "linkReferences": {},
  "deployedLinkReferences": {}
}