{
  "_format": "hh-sol-artifact-1",
  "contractName": "PriceConsumerUpgradeable",
  "sourceName": "contracts/mocks/Spark/FPL/PriceConsumerUpgradeable.sol",
  "abi": [
    {
      "anonymous": false,
      "inputs": [
        {
          "indexed": false,
          "internalType": "uint8",
          "name": "version",
          "type": "uint8"
        }
      ],
      "name": "Initialized",
      "type": "event"
    },
    {
      "inputs": [
        {
          "internalType": "address",
          "name": "_oracle",
          "type": "address"
        }
      ],
      "name": "__PriceConsumer_initialize",
      "outputs": [],
      "stateMutability": "nonpayable",
      "type": "function"
    },
    {
      "inputs": [],
      "name": "getDecimals",
      "outputs": [
        {
          "internalType": "uint8",
          "name": "",
          "type": "uint8"
        }
      ],
      "stateMutability": "view",
      "type": "function"
    },
    {
      "inputs": [],
      "name": "getLatestPrice",
      "outputs": [
        {
          "internalType": "uint256",
          "name": "",
          "type": "uint256"
        }
      ],
      "stateMutability": "view",
      "type": "function"
    }
  ],
  "bytecode": "0x608060405234801561001057600080fd5b506103ee806100206000396000f3fe608060405234801561001057600080fd5b50600436106100415760003560e01c806337c4f6a4146100465780638e15f4731461005b578063f0141d8414610076575b600080fd5b6100596100543660046102f6565b610090565b005b6100636101c0565b6040519081526020015b60405180910390f35b61007e610267565b60405160ff909116815260200161006d565b600054610100900460ff16158080156100b05750600054600160ff909116105b806100ca5750303b1580156100ca575060005460ff166001145b6101315760405162461bcd60e51b815260206004820152602e60248201527f496e697469616c697a61626c653a20636f6e747261637420697320616c72656160448201526d191e481a5b9a5d1a585b1a5e995960921b606482015260840160405180910390fd5b6000805460ff191660011790558015610154576000805461ff0019166101001790555b6000805462010000600160b01b031916620100006001600160a01b0385160217905580156101bc576000805461ff0019169055604051600181527f7f26b83ff96e1f2b6a682f133852f6798a09c465da95921460cefb38474024989060200160405180910390a15b5050565b600080600060029054906101000a90046001600160a01b03166001600160a01b031663feaf968c6040518163ffffffff1660e01b815260040160a06040518083038186803b15801561021157600080fd5b505afa158015610225573d6000803e3d6000fd5b505050506040513d601f19601f820116820180604052508101906102499190610345565b505050915050600081121561025f576000610261565b805b91505090565b600080600060029054906101000a90046001600160a01b03166001600160a01b031663313ce5676040518163ffffffff1660e01b815260040160206040518083038186803b1580156102b857600080fd5b505afa1580156102cc573d6000803e3d6000fd5b505050506040513d601f19601f820116820180604052508101906102f09190610395565b92915050565b60006020828403121561030857600080fd5b81356001600160a01b038116811461031f57600080fd5b9392505050565b805169ffffffffffffffffffff8116811461034057600080fd5b919050565b600080600080600060a0868803121561035d57600080fd5b61036686610326565b945060208601519350604086015192506060860151915061038960808701610326565b90509295509295909350565b6000602082840312156103a757600080fd5b815160ff8116811461031f57600080fdfea264697066735822122035115a2c066a53cd6351a9af8967d935d6e1d828cd98b841c827a25aa315c7c264736f6c63430008090033",
  "linkReferences": {},
  "deployedLinkReferences": {}
}