{
  "_format": "hh-sol-artifact-1",
  "contractName": "ERC1155Sale",
  "sourceName": "contracts/ERC1155Sale.sol",
  "abi": [
    {
      "anonymous": false,
      "inputs": [
        {
          "indexed": false,
          "internalType": "address",
          "name": "previousAdmin",
          "type": "address"
        },
        {
          "indexed": false,
          "internalType": "address",
          "name": "newAdmin",
          "type": "address"
        }
      ],
      "name": "AdminChanged",
      "type": "event"
    },
    {
      "anonymous": false,
      "inputs": [
        {
          "indexed": true,
          "internalType": "address",
          "name": "beacon",
          "type": "address"
        }
      ],
      "name": "BeaconUpgraded",
      "type": "event"
    },
    {
      "anonymous": false,
      "inputs": [
        {
          "indexed": false,
          "internalType": "uint8",
          "name": "version",
          "type": "uint8"
        }
      ],
      "name": "Initialized",
      "type": "event"
    },
    {
      "anonymous": false,
      "inputs": [
        {
          "indexed": false,
          "internalType": "address",
          "name": "contractAddr",
          "type": "address"
        },
        {
          "indexed": false,
          "internalType": "uint256",
          "name": "tokenId",
          "type": "uint256"
        },
        {
          "indexed": false,
          "internalType": "uint8",
          "name": "payment",
          "type": "uint8"
        },
        {
          "indexed": false,
          "internalType": "address",
          "name": "seller",
          "type": "address"
        },
        {
          "indexed": false,
          "internalType": "uint256",
          "name": "startPrice",
          "type": "uint256"
        },
        {
          "indexed": false,
          "internalType": "uint256",
          "name": "endPrice",
          "type": "uint256"
        },
        {
          "indexed": false,
          "internalType": "uint256",
          "name": "startedAt",
          "type": "uint256"
        },
        {
          "indexed": false,
          "internalType": "uint256",
          "name": "duration",
          "type": "uint256"
        },
        {
          "indexed": false,
          "internalType": "uint256",
          "name": "amount",
          "type": "uint256"
        },
        {
          "indexed": false,
          "internalType": "address",
          "name": "offerer",
          "type": "address"
        }
      ],
      "name": "OfferAccepted",
      "type": "event"
    },
    {
      "anonymous": false,
      "inputs": [
        {
          "indexed": false,
          "internalType": "address",
          "name": "contractAddr",
          "type": "address"
        },
        {
          "indexed": false,
          "internalType": "uint256",
          "name": "tokenId",
          "type": "uint256"
        },
        {
          "indexed": false,
          "internalType": "uint8",
          "name": "payment",
          "type": "uint8"
        },
        {
          "indexed": false,
          "internalType": "address",
          "name": "seller",
          "type": "address"
        },
        {
          "indexed": false,
          "internalType": "uint256",
          "name": "startPrice",
          "type": "uint256"
        },
        {
          "indexed": false,
          "internalType": "uint256",
          "name": "endPrice",
          "type": "uint256"
        },
        {
          "indexed": false,
          "internalType": "uint256",
          "name": "startedAt",
          "type": "uint256"
        },
        {
          "indexed": false,
          "internalType": "uint256",
          "name": "duration",
          "type": "uint256"
        },
        {
          "indexed": false,
          "internalType": "uint256",
          "name": "amount",
          "type": "uint256"
        },
        {
          "indexed": false,
          "internalType": "address",
          "name": "offerer",
          "type": "address"
        }
      ],
      "name": "OfferCancelled",
      "type": "event"
    },
    {
      "anonymous": false,
      "inputs": [
        {
          "indexed": false,
          "internalType": "address",
          "name": "contractAddr",
          "type": "address"
        },
        {
          "indexed": false,
          "internalType": "uint256",
          "name": "tokenId",
          "type": "uint256"
        },
        {
          "indexed": false,
          "internalType": "uint8",
          "name": "payment",
          "type": "uint8"
        },
        {
          "indexed": false,
          "internalType": "address",
          "name": "seller",
          "type": "address"
        },
        {
          "indexed": false,
          "internalType": "uint256",
          "name": "startPrice",
          "type": "uint256"
        },
        {
          "indexed": false,
          "internalType": "uint256",
          "name": "endPrice",
          "type": "uint256"
        },
        {
          "indexed": false,
          "internalType": "uint256",
          "name": "startedAt",
          "type": "uint256"
        },
        {
          "indexed": false,
          "internalType": "uint256",
          "name": "duration",
          "type": "uint256"
        },
        {
          "indexed": false,
          "internalType": "uint256",
          "name": "price",
          "type": "uint256"
        },
        {
          "indexed": false,
          "internalType": "uint256",
          "name": "amount",
          "type": "uint256"
        },
        {
          "indexed": false,
          "internalType": "address",
          "name": "offerer",
          "type": "address"
        }
      ],
      "name": "OfferCreated",
      "type": "event"
    },
    {
      "anonymous": false,
      "inputs": [
        {
          "indexed": true,
          "internalType": "address",
          "name": "previousOwner",
          "type": "address"
        },
        {
          "indexed": true,
          "internalType": "address",
          "name": "newOwner",
          "type": "address"
        }
      ],
      "name": "OwnershipTransferred",
      "type": "event"
    },
    {
      "anonymous": false,
      "inputs": [
        {
          "indexed": false,
          "internalType": "address",
          "name": "contractAddr",
          "type": "address"
        },
        {
          "indexed": false,
          "internalType": "uint256",
          "name": "tokenId",
          "type": "uint256"
        },
        {
          "indexed": false,
          "internalType": "uint8",
          "name": "payment",
          "type": "uint8"
        },
        {
          "indexed": false,
          "internalType": "address",
          "name": "seller",
          "type": "address"
        },
        {
          "indexed": false,
          "internalType": "uint256",
          "name": "startPrice",
          "type": "uint256"
        },
        {
          "indexed": false,
          "internalType": "uint256",
          "name": "endPrice",
          "type": "uint256"
        },
        {
          "indexed": false,
          "internalType": "uint256",
          "name": "startedAt",
          "type": "uint256"
        },
        {
          "indexed": false,
          "internalType": "uint256",
          "name": "duration",
          "type": "uint256"
        },
        {
          "indexed": false,
          "internalType": "uint256",
          "name": "amount",
          "type": "uint256"
        }
      ],
      "name": "SaleCancelled",
      "type": "event"
    },
    {
      "anonymous": false,
      "inputs": [
        {
          "indexed": false,
          "internalType": "address",
          "name": "contractAddr",
          "type": "address"
        },
        {
          "indexed": false,
          "internalType": "uint256",
          "name": "tokenId",
          "type": "uint256"
        },
        {
          "indexed": false,
          "internalType": "uint8",
          "name": "payment",
          "type": "uint8"
        },
        {
          "indexed": false,
          "internalType": "address",
          "name": "seller",
          "type": "address"
        },
        {
          "indexed": false,
          "internalType": "uint256",
          "name": "startPrice",
          "type": "uint256"
        },
        {
          "indexed": false,
          "internalType": "uint256",
          "name": "endPrice",
          "type": "uint256"
        },
        {
          "indexed": false,
          "internalType": "uint256",
          "name": "amount",
          "type": "uint256"
        },
        {
          "indexed": false,
          "internalType": "uint256",
          "name": "startedAt",
          "type": "uint256"
        },
        {
          "indexed": false,
          "internalType": "uint256",
          "name": "duration",
          "type": "uint256"
        }
      ],
      "name": "SaleCreated",
      "type": "event"
    },
    {
      "anonymous": false,
      "inputs": [
        {
          "indexed": false,
          "internalType": "address",
          "name": "contractAddr",
          "type": "address"
        },
        {
          "indexed": false,
          "internalType": "uint256",
          "name": "tokenId",
          "type": "uint256"
        },
        {
          "indexed": false,
          "internalType": "uint8",
          "name": "payment",
          "type": "uint8"
        },
        {
          "indexed": false,
          "internalType": "address",
          "name": "seller",
          "type": "address"
        },
        {
          "indexed": false,
          "internalType": "uint256",
          "name": "startPrice",
          "type": "uint256"
        },
        {
          "indexed": false,
          "internalType": "uint256",
          "name": "endPrice",
          "type": "uint256"
        },
        {
          "indexed": false,
          "internalType": "uint256",
          "name": "startedAt",
          "type": "uint256"
        },
        {
          "indexed": false,
          "internalType": "uint256",
          "name": "duration",
          "type": "uint256"
        },
        {
          "indexed": false,
          "internalType": "uint256",
          "name": "price",
          "type": "uint256"
        },
        {
          "indexed": false,
          "internalType": "uint256",
          "name": "amount",
          "type": "uint256"
        },
        {
          "indexed": false,
          "internalType": "address",
          "name": "buyer",
          "type": "address"
        }
      ],
      "name": "SaleSuccessful",
      "type": "event"
    },
    {
      "anonymous": false,
      "inputs": [
        {
          "indexed": true,
          "internalType": "address",
          "name": "implementation",
          "type": "address"
        }
      ],
      "name": "Upgraded",
      "type": "event"
    },
    {
      "inputs": [
        {
          "internalType": "address",
          "name": "contractAddr",
          "type": "address"
        },
        {
          "internalType": "uint256",
          "name": "tokenId",
          "type": "uint256"
        },
        {
          "components": [
            {
              "internalType": "uint8",
              "name": "payment",
              "type": "uint8"
            },
            {
              "internalType": "address",
              "name": "seller",
              "type": "address"
            },
            {
              "internalType": "uint256",
              "name": "startPrice",
              "type": "uint256"
            },
            {
              "internalType": "uint256",
              "name": "endPrice",
              "type": "uint256"
            },
            {
              "internalType": "uint256",
              "name": "amount",
              "type": "uint256"
            },
            {
              "internalType": "uint256",
              "name": "startedAt",
              "type": "uint256"
            },
            {
              "internalType": "uint256",
              "name": "duration",
              "type": "uint256"
            },
            {
              "internalType": "address[]",
              "name": "offerers",
              "type": "address[]"
            },
            {
              "internalType": "uint256[]",
              "name": "offerPrices",
              "type": "uint256[]"
            },
            {
              "internalType": "uint256[]",
              "name": "offerAmounts",
              "type": "uint256[]"
            }
          ],
          "internalType": "struct ERC1155SaleBase.Sale",
          "name": "sale",
          "type": "tuple"
        }
      ],
      "name": "acceptOffer",
      "outputs": [],
      "stateMutability": "nonpayable",
      "type": "function"
    },
    {
      "inputs": [],
      "name": "addressesContractAddr",
      "outputs": [
        {
          "internalType": "address",
          "name": "",
          "type": "address"
        }
      ],
      "stateMutability": "view",
      "type": "function"
    },
    {
      "inputs": [
        {
          "internalType": "address",
          "name": "contractAddr",
          "type": "address"
        },
        {
          "internalType": "uint256",
          "name": "tokenId",
          "type": "uint256"
        },
        {
          "components": [
            {
              "internalType": "uint8",
              "name": "payment",
              "type": "uint8"
            },
            {
              "internalType": "address",
              "name": "seller",
              "type": "address"
            },
            {
              "internalType": "uint256",
              "name": "startPrice",
              "type": "uint256"
            },
            {
              "internalType": "uint256",
              "name": "endPrice",
              "type": "uint256"
            },
            {
              "internalType": "uint256",
              "name": "amount",
              "type": "uint256"
            },
            {
              "internalType": "uint256",
              "name": "startedAt",
              "type": "uint256"
            },
            {
              "internalType": "uint256",
              "name": "duration",
              "type": "uint256"
            },
            {
              "internalType": "address[]",
              "name": "offerers",
              "type": "address[]"
            },
            {
              "internalType": "uint256[]",
              "name": "offerPrices",
              "type": "uint256[]"
            },
            {
              "internalType": "uint256[]",
              "name": "offerAmounts",
              "type": "uint256[]"
            }
          ],
          "internalType": "struct ERC1155SaleBase.Sale",
          "name": "sale",
          "type": "tuple"
        }
      ],
      "name": "buy",
      "outputs": [],
      "stateMutability": "payable",
      "type": "function"
    },
    {
      "inputs": [
        {
          "internalType": "address",
          "name": "contractAddr",
          "type": "address"
        },
        {
          "internalType": "uint256",
          "name": "tokenId",
          "type": "uint256"
        },
        {
          "components": [
            {
              "internalType": "uint8",
              "name": "payment",
              "type": "uint8"
            },
            {
              "internalType": "address",
              "name": "seller",
              "type": "address"
            },
            {
              "internalType": "uint256",
              "name": "startPrice",
              "type": "uint256"
            },
            {
              "internalType": "uint256",
              "name": "endPrice",
              "type": "uint256"
            },
            {
              "internalType": "uint256",
              "name": "amount",
              "type": "uint256"
            },
            {
              "internalType": "uint256",
              "name": "startedAt",
              "type": "uint256"
            },
            {
              "internalType": "uint256",
              "name": "duration",
              "type": "uint256"
            },
            {
              "internalType": "address[]",
              "name": "offerers",
              "type": "address[]"
            },
            {
              "internalType": "uint256[]",
              "name": "offerPrices",
              "type": "uint256[]"
            },
            {
              "internalType": "uint256[]",
              "name": "offerAmounts",
              "type": "uint256[]"
            }
          ],
          "internalType": "struct ERC1155SaleBase.Sale",
          "name": "sale",
          "type": "tuple"
        }
      ],
      "name": "cancelOffer",
      "outputs": [],
      "stateMutability": "nonpayable",
      "type": "function"
    },
    {
      "inputs": [
        {
          "internalType": "address",
          "name": "contractAddr",
          "type": "address"
        },
        {
          "internalType": "uint256",
          "name": "tokenId",
          "type": "uint256"
        },
        {
          "components": [
            {
              "internalType": "uint8",
              "name": "payment",
              "type": "uint8"
            },
            {
              "internalType": "address",
              "name": "seller",
              "type": "address"
            },
            {
              "internalType": "uint256",
              "name": "startPrice",
              "type": "uint256"
            },
            {
              "internalType": "uint256",
              "name": "endPrice",
              "type": "uint256"
            },
            {
              "internalType": "uint256",
              "name": "amount",
              "type": "uint256"
            },
            {
              "internalType": "uint256",
              "name": "startedAt",
              "type": "uint256"
            },
            {
              "internalType": "uint256",
              "name": "duration",
              "type": "uint256"
            },
            {
              "internalType": "address[]",
              "name": "offerers",
              "type": "address[]"
            },
            {
              "internalType": "uint256[]",
              "name": "offerPrices",
              "type": "uint256[]"
            },
            {
              "internalType": "uint256[]",
              "name": "offerAmounts",
              "type": "uint256[]"
            }
          ],
          "internalType": "struct ERC1155SaleBase.Sale",
          "name": "sale",
          "type": "tuple"
        }
      ],
      "name": "cancelSale",
      "outputs": [],
      "stateMutability": "nonpayable",
      "type": "function"
    },
    {
      "inputs": [
        {
          "internalType": "uint256",
          "name": "amount",
          "type": "uint256"
        },
        {
          "internalType": "uint8",
          "name": "index",
          "type": "uint8"
        }
      ],
      "name": "claim",
      "outputs": [],
      "stateMutability": "nonpayable",
      "type": "function"
    },
    {
      "inputs": [
        {
          "internalType": "address",
          "name": "",
          "type": "address"
        },
        {
          "internalType": "uint256",
          "name": "",
          "type": "uint256"
        }
      ],
      "name": "claimable",
      "outputs": [
        {
          "internalType": "uint256",
          "name": "",
          "type": "uint256"
        }
      ],
      "stateMutability": "view",
      "type": "function"
    },
    {
      "inputs": [
        {
          "internalType": "address",
          "name": "contractAddr",
          "type": "address"
        },
        {
          "internalType": "uint256",
          "name": "tokenId",
          "type": "uint256"
        },
        {
          "components": [
            {
              "internalType": "uint8",
              "name": "payment",
              "type": "uint8"
            },
            {
              "internalType": "address",
              "name": "seller",
              "type": "address"
            },
            {
              "internalType": "uint256",
              "name": "startPrice",
              "type": "uint256"
            },
            {
              "internalType": "uint256",
              "name": "endPrice",
              "type": "uint256"
            },
            {
              "internalType": "uint256",
              "name": "amount",
              "type": "uint256"
            },
            {
              "internalType": "uint256",
              "name": "startedAt",
              "type": "uint256"
            },
            {
              "internalType": "uint256",
              "name": "duration",
              "type": "uint256"
            },
            {
              "internalType": "address[]",
              "name": "offerers",
              "type": "address[]"
            },
            {
              "internalType": "uint256[]",
              "name": "offerPrices",
              "type": "uint256[]"
            },
            {
              "internalType": "uint256[]",
              "name": "offerAmounts",
              "type": "uint256[]"
            }
          ],
          "internalType": "struct ERC1155SaleBase.Sale",
          "name": "sale",
          "type": "tuple"
        }
      ],
      "name": "createSale",
      "outputs": [],
      "stateMutability": "nonpayable",
      "type": "function"
    },
    {
      "inputs": [
        {
          "components": [
            {
              "internalType": "uint8",
              "name": "payment",
              "type": "uint8"
            },
            {
              "internalType": "address",
              "name": "seller",
              "type": "address"
            },
            {
              "internalType": "uint256",
              "name": "startPrice",
              "type": "uint256"
            },
            {
              "internalType": "uint256",
              "name": "endPrice",
              "type": "uint256"
            },
            {
              "internalType": "uint256",
              "name": "amount",
              "type": "uint256"
            },
            {
              "internalType": "uint256",
              "name": "startedAt",
              "type": "uint256"
            },
            {
              "internalType": "uint256",
              "name": "duration",
              "type": "uint256"
            },
            {
              "internalType": "address[]",
              "name": "offerers",
              "type": "address[]"
            },
            {
              "internalType": "uint256[]",
              "name": "offerPrices",
              "type": "uint256[]"
            },
            {
              "internalType": "uint256[]",
              "name": "offerAmounts",
              "type": "uint256[]"
            }
          ],
          "internalType": "struct ERC1155SaleBase.Sale",
          "name": "sale",
          "type": "tuple"
        }
      ],
      "name": "getCurrentPrice",
      "outputs": [
        {
          "internalType": "uint256",
          "name": "val",
          "type": "uint256"
        }
      ],
      "stateMutability": "view",
      "type": "function"
    },
    {
      "inputs": [
        {
          "internalType": "address",
          "name": "contractAddr",
          "type": "address"
        },
        {
          "internalType": "uint256",
          "name": "tokenId",
          "type": "uint256"
        },
        {
          "components": [
            {
              "internalType": "uint8",
              "name": "payment",
              "type": "uint8"
            },
            {
              "internalType": "address",
              "name": "seller",
              "type": "address"
            },
            {
              "internalType": "uint256",
              "name": "startPrice",
              "type": "uint256"
            },
            {
              "internalType": "uint256",
              "name": "endPrice",
              "type": "uint256"
            },
            {
              "internalType": "uint256",
              "name": "amount",
              "type": "uint256"
            },
            {
              "internalType": "uint256",
              "name": "startedAt",
              "type": "uint256"
            },
            {
              "internalType": "uint256",
              "name": "duration",
              "type": "uint256"
            },
            {
              "internalType": "address[]",
              "name": "offerers",
              "type": "address[]"
            },
            {
              "internalType": "uint256[]",
              "name": "offerPrices",
              "type": "uint256[]"
            },
            {
              "internalType": "uint256[]",
              "name": "offerAmounts",
              "type": "uint256[]"
            }
          ],
          "internalType": "struct ERC1155SaleBase.Sale",
          "name": "sl",
          "type": "tuple"
        }
      ],
      "name": "getSale",
      "outputs": [
        {
          "components": [
            {
              "internalType": "uint8",
              "name": "payment",
              "type": "uint8"
            },
            {
              "internalType": "address",
              "name": "seller",
              "type": "address"
            },
            {
              "internalType": "uint256",
              "name": "startPrice",
              "type": "uint256"
            },
            {
              "internalType": "uint256",
              "name": "endPrice",
              "type": "uint256"
            },
            {
              "internalType": "uint256",
              "name": "amount",
              "type": "uint256"
            },
            {
              "internalType": "uint256",
              "name": "startedAt",
              "type": "uint256"
            },
            {
              "internalType": "uint256",
              "name": "duration",
              "type": "uint256"
            },
            {
              "internalType": "address[]",
              "name": "offerers",
              "type": "address[]"
            },
            {
              "internalType": "uint256[]",
              "name": "offerPrices",
              "type": "uint256[]"
            },
            {
              "internalType": "uint256[]",
              "name": "offerAmounts",
              "type": "uint256[]"
            }
          ],
          "internalType": "struct ERC1155SaleBase.Sale",
          "name": "sale",
          "type": "tuple"
        },
        {
          "internalType": "uint256",
          "name": "currentPrice",
          "type": "uint256"
        }
      ],
      "stateMutability": "view",
      "type": "function"
    },
    {
      "inputs": [
        {
          "internalType": "address",
          "name": "contractAddr",
          "type": "address"
        }
      ],
      "name": "getSaleTokens",
      "outputs": [
        {
          "internalType": "uint256[]",
          "name": "",
          "type": "uint256[]"
        }
      ],
      "stateMutability": "view",
      "type": "function"
    },
    {
      "inputs": [
        {
          "internalType": "address",
          "name": "contractAddr",
          "type": "address"
        },
        {
          "internalType": "address",
          "name": "seller",
          "type": "address"
        }
      ],
      "name": "getSaleTokensBySeller",
      "outputs": [
        {
          "internalType": "uint256[]",
          "name": "",
          "type": "uint256[]"
        }
      ],
      "stateMutability": "view",
      "type": "function"
    },
    {
      "inputs": [
        {
          "internalType": "address",
          "name": "contractAddr",
          "type": "address"
        }
      ],
      "name": "getSales",
      "outputs": [
        {
          "components": [
            {
              "internalType": "uint8",
              "name": "payment",
              "type": "uint8"
            },
            {
              "internalType": "address",
              "name": "seller",
              "type": "address"
            },
            {
              "internalType": "uint256",
              "name": "startPrice",
              "type": "uint256"
            },
            {
              "internalType": "uint256",
              "name": "endPrice",
              "type": "uint256"
            },
            {
              "internalType": "uint256",
              "name": "amount",
              "type": "uint256"
            },
            {
              "internalType": "uint256",
              "name": "startedAt",
              "type": "uint256"
            },
            {
              "internalType": "uint256",
              "name": "duration",
              "type": "uint256"
            },
            {
              "internalType": "address[]",
              "name": "offerers",
              "type": "address[]"
            },
            {
              "internalType": "uint256[]",
              "name": "offerPrices",
              "type": "uint256[]"
            },
            {
              "internalType": "uint256[]",
              "name": "offerAmounts",
              "type": "uint256[]"
            }
          ],
          "internalType": "struct ERC1155SaleBase.Sale[]",
          "name": "sales",
          "type": "tuple[]"
        },
        {
          "internalType": "uint256[]",
          "name": "currentPrices",
          "type": "uint256[]"
        }
      ],
      "stateMutability": "view",
      "type": "function"
    },
    {
      "inputs": [
        {
          "internalType": "address",
          "name": "contractAddr",
          "type": "address"
        },
        {
          "internalType": "uint256",
          "name": "tokenId",
          "type": "uint256"
        }
      ],
      "name": "getSalesByNFT",
      "outputs": [
        {
          "components": [
            {
              "internalType": "uint8",
              "name": "payment",
              "type": "uint8"
            },
            {
              "internalType": "address",
              "name": "seller",
              "type": "address"
            },
            {
              "internalType": "uint256",
              "name": "startPrice",
              "type": "uint256"
            },
            {
              "internalType": "uint256",
              "name": "endPrice",
              "type": "uint256"
            },
            {
              "internalType": "uint256",
              "name": "amount",
              "type": "uint256"
            },
            {
              "internalType": "uint256",
              "name": "startedAt",
              "type": "uint256"
            },
            {
              "internalType": "uint256",
              "name": "duration",
              "type": "uint256"
            },
            {
              "internalType": "address[]",
              "name": "offerers",
              "type": "address[]"
            },
            {
              "internalType": "uint256[]",
              "name": "offerPrices",
              "type": "uint256[]"
            },
            {
              "internalType": "uint256[]",
              "name": "offerAmounts",
              "type": "uint256[]"
            }
          ],
          "internalType": "struct ERC1155SaleBase.Sale[]",
          "name": "sales",
          "type": "tuple[]"
        },
        {
          "internalType": "uint256[]",
          "name": "currentPrices",
          "type": "uint256[]"
        }
      ],
      "stateMutability": "view",
      "type": "function"
    },
    {
      "inputs": [
        {
          "internalType": "address",
          "name": "contractAddr",
          "type": "address"
        },
        {
          "internalType": "address",
          "name": "owner",
          "type": "address"
        }
      ],
      "name": "getSalesBySeller",
      "outputs": [
        {
          "components": [
            {
              "internalType": "uint8",
              "name": "payment",
              "type": "uint8"
            },
            {
              "internalType": "address",
              "name": "seller",
              "type": "address"
            },
            {
              "internalType": "uint256",
              "name": "startPrice",
              "type": "uint256"
            },
            {
              "internalType": "uint256",
              "name": "endPrice",
              "type": "uint256"
            },
            {
              "internalType": "uint256",
              "name": "amount",
              "type": "uint256"
            },
            {
              "internalType": "uint256",
              "name": "startedAt",
              "type": "uint256"
            },
            {
              "internalType": "uint256",
              "name": "duration",
              "type": "uint256"
            },
            {
              "internalType": "address[]",
              "name": "offerers",
              "type": "address[]"
            },
            {
              "internalType": "uint256[]",
              "name": "offerPrices",
              "type": "uint256[]"
            },
            {
              "internalType": "uint256[]",
              "name": "offerAmounts",
              "type": "uint256[]"
            }
          ],
          "internalType": "struct ERC1155SaleBase.Sale[]",
          "name": "sales",
          "type": "tuple[]"
        },
        {
          "internalType": "uint256[]",
          "name": "currentPrices",
          "type": "uint256[]"
        }
      ],
      "stateMutability": "view",
      "type": "function"
    },
    {
      "inputs": [
        {
          "internalType": "address",
          "name": "seller",
          "type": "address"
        },
        {
          "internalType": "address",
          "name": "contractAddr",
          "type": "address"
        },
        {
          "internalType": "uint256",
          "name": "tokenId",
          "type": "uint256"
        }
      ],
      "name": "getSalesBySellerNFT",
      "outputs": [
        {
          "components": [
            {
              "internalType": "uint8",
              "name": "payment",
              "type": "uint8"
            },
            {
              "internalType": "address",
              "name": "seller",
              "type": "address"
            },
            {
              "internalType": "uint256",
              "name": "startPrice",
              "type": "uint256"
            },
            {
              "internalType": "uint256",
              "name": "endPrice",
              "type": "uint256"
            },
            {
              "internalType": "uint256",
              "name": "amount",
              "type": "uint256"
            },
            {
              "internalType": "uint256",
              "name": "startedAt",
              "type": "uint256"
            },
            {
              "internalType": "uint256",
              "name": "duration",
              "type": "uint256"
            },
            {
              "internalType": "address[]",
              "name": "offerers",
              "type": "address[]"
            },
            {
              "internalType": "uint256[]",
              "name": "offerPrices",
              "type": "uint256[]"
            },
            {
              "internalType": "uint256[]",
              "name": "offerAmounts",
              "type": "uint256[]"
            }
          ],
          "internalType": "struct ERC1155SaleBase.Sale[]",
          "name": "sales",
          "type": "tuple[]"
        },
        {
          "internalType": "uint256[]",
          "name": "currentPrices",
          "type": "uint256[]"
        }
      ],
      "stateMutability": "view",
      "type": "function"
    },
    {
      "inputs": [],
      "name": "initialize",
      "outputs": [],
      "stateMutability": "nonpayable",
      "type": "function"
    },
    {
      "inputs": [
        {
          "internalType": "address",
          "name": "contractAddr",
          "type": "address"
        },
        {
          "internalType": "uint256",
          "name": "tokenId",
          "type": "uint256"
        },
        {
          "components": [
            {
              "internalType": "uint8",
              "name": "payment",
              "type": "uint8"
            },
            {
              "internalType": "address",
              "name": "seller",
              "type": "address"
            },
            {
              "internalType": "uint256",
              "name": "startPrice",
              "type": "uint256"
            },
            {
              "internalType": "uint256",
              "name": "endPrice",
              "type": "uint256"
            },
            {
              "internalType": "uint256",
              "name": "amount",
              "type": "uint256"
            },
            {
              "internalType": "uint256",
              "name": "startedAt",
              "type": "uint256"
            },
            {
              "internalType": "uint256",
              "name": "duration",
              "type": "uint256"
            },
            {
              "internalType": "address[]",
              "name": "offerers",
              "type": "address[]"
            },
            {
              "internalType": "uint256[]",
              "name": "offerPrices",
              "type": "uint256[]"
            },
            {
              "internalType": "uint256[]",
              "name": "offerAmounts",
              "type": "uint256[]"
            }
          ],
          "internalType": "struct ERC1155SaleBase.Sale",
          "name": "sale",
          "type": "tuple"
        },
        {
          "internalType": "uint256",
          "name": "price",
          "type": "uint256"
        }
      ],
      "name": "makeOffer",
      "outputs": [],
      "stateMutability": "payable",
      "type": "function"
    },
    {
      "inputs": [
        {
          "internalType": "address",
          "name": "",
          "type": "address"
        },
        {
          "internalType": "address",
          "name": "",
          "type": "address"
        },
        {
          "internalType": "uint256[]",
          "name": "",
          "type": "uint256[]"
        },
        {
          "internalType": "uint256[]",
          "name": "",
          "type": "uint256[]"
        },
        {
          "internalType": "bytes",
          "name": "",
          "type": "bytes"
        }
      ],
      "name": "onERC1155BatchReceived",
      "outputs": [
        {
          "internalType": "bytes4",
          "name": "",
          "type": "bytes4"
        }
      ],
      "stateMutability": "nonpayable",
      "type": "function"
    },
    {
      "inputs": [
        {
          "internalType": "address",
          "name": "",
          "type": "address"
        },
        {
          "internalType": "address",
          "name": "",
          "type": "address"
        },
        {
          "internalType": "uint256",
          "name": "",
          "type": "uint256"
        },
        {
          "internalType": "uint256",
          "name": "",
          "type": "uint256"
        },
        {
          "internalType": "bytes",
          "name": "",
          "type": "bytes"
        }
      ],
      "name": "onERC1155Received",
      "outputs": [
        {
          "internalType": "bytes4",
          "name": "",
          "type": "bytes4"
        }
      ],
      "stateMutability": "nonpayable",
      "type": "function"
    },
    {
      "inputs": [],
      "name": "owner",
      "outputs": [
        {
          "internalType": "address",
          "name": "",
          "type": "address"
        }
      ],
      "stateMutability": "view",
      "type": "function"
    },
    {
      "inputs": [],
      "name": "proxiableUUID",
      "outputs": [
        {
          "internalType": "bytes32",
          "name": "",
          "type": "bytes32"
        }
      ],
      "stateMutability": "view",
      "type": "function"
    },
    {
      "inputs": [],
      "name": "renounceOwnership",
      "outputs": [],
      "stateMutability": "nonpayable",
      "type": "function"
    },
    {
      "inputs": [
        {
          "internalType": "address",
          "name": "contractAddr",
          "type": "address"
        }
      ],
      "name": "setAddressesContractAddr",
      "outputs": [],
      "stateMutability": "nonpayable",
      "type": "function"
    },
    {
      "inputs": [
        {
          "internalType": "address",
          "name": "newSparkAddr",
          "type": "address"
        }
      ],
      "name": "setSparkTokenContractAddr",
      "outputs": [],
      "stateMutability": "nonpayable",
      "type": "function"
    },
    {
      "inputs": [
        {
          "internalType": "bytes4",
          "name": "interfaceId",
          "type": "bytes4"
        }
      ],
      "name": "supportsInterface",
      "outputs": [
        {
          "internalType": "bool",
          "name": "",
          "type": "bool"
        }
      ],
      "stateMutability": "view",
      "type": "function"
    },
    {
      "inputs": [
        {
          "internalType": "uint256",
          "name": "",
          "type": "uint256"
        }
      ],
      "name": "tokenAddrs",
      "outputs": [
        {
          "internalType": "address",
          "name": "",
          "type": "address"
        }
      ],
      "stateMutability": "view",
      "type": "function"
    },
    {
      "inputs": [
        {
          "internalType": "address",
          "name": "newOwner",
          "type": "address"
        }
      ],
      "name": "transferOwnership",
      "outputs": [],
      "stateMutability": "nonpayable",
      "type": "function"
    },
    {
      "inputs": [
        {
          "internalType": "address",
          "name": "newImplementation",
          "type": "address"
        }
      ],
      "name": "upgradeTo",
      "outputs": [],
      "stateMutability": "nonpayable",
      "type": "function"
    },
    {
      "inputs": [
        {
          "internalType": "address",
          "name": "newImplementation",
          "type": "address"
        },
        {
          "internalType": "bytes",
          "name": "data",
          "type": "bytes"
        }
      ],
      "name": "upgradeToAndCall",
      "outputs": [],
      "stateMutability": "payable",
      "type": "function"
    }
  ],
  "bytecode": "0x60a06040523060805234801561001457600080fd5b50608051615e7e6200004d600039600081816111a7015281816111e701528181611287015281816112c701526113560152615e7e6000f3fe6080604052600436106101cd5760003560e01c8063a5756bd2116100f7578063db73982911610095578063f19727fd11610064578063f19727fd1461054f578063f23a6e611461056f578063f2fde38b1461059b578063f4947f0f146105bb57600080fd5b8063db739829146104cf578063db9d48d8146104ef578063e16bd3b71461050f578063e409886b1461052f57600080fd5b8063b69fa39e116100d1578063b69fa39e1461042a578063bc197c811461044a578063bc4781af1461048f578063dab54e61146104af57600080fd5b8063a5756bd2146103d7578063b1a1c8fc146103f7578063b4fc38bc1461041757600080fd5b80634f1ef2861161016f5780638129fc1c1161013e5780638129fc1c14610342578063821c7818146103575780638da5cb5b14610385578063915044ec146103b757600080fd5b80634f1ef286146102d757806352d1902d146102ea57806360efe3341461030d578063715018a61461032d57600080fd5b80630c5e921e116101ab5780630c5e921e1461026257806314ebe08e146102845780632faf3ea6146102975780633659cfe6146102b757600080fd5b806301ffc9a7146101d257806303bdb5fb1461020757806306c0a50414610235575b600080fd5b3480156101de57600080fd5b506101f26101ed36600461511e565b6105db565b60405190151581526020015b60405180910390f35b34801561021357600080fd5b506102276102223660046153cb565b610612565b6040516101fe929190615548565b34801561024157600080fd5b5061025561025036600461556a565b610997565b6040516101fe91906155a3565b34801561026e57600080fd5b5061028261027d3660046153cb565b610a11565b005b6102826102923660046153cb565b610f0d565b3480156102a357600080fd5b506102826102b23660046155b6565b6110ca565b3480156102c357600080fd5b506102826102d23660046155e2565b61119c565b6102826102e536600461566e565b61127c565b3480156102f657600080fd5b506102ff611349565b6040519081526020016101fe565b34801561031957600080fd5b506102ff6103283660046156bd565b6113fc565b34801561033957600080fd5b50610282611421565b34801561034e57600080fd5b50610282611435565b34801561036357600080fd5b5061037761037236600461556a565b61154d565b6040516101fe9291906156e9565b34801561039157600080fd5b506033546001600160a01b03165b6040516001600160a01b0390911681526020016101fe565b3480156103c357600080fd5b5061039f6103d2366004615756565b611a98565b3480156103e357600080fd5b506102826103f23660046155e2565b611ab8565b34801561040357600080fd5b506102826104123660046153cb565b611ae2565b61028261042536600461576f565b611c17565b34801561043657600080fd5b506103776104453660046157cf565b611e9b565b34801561045657600080fd5b50610476610465366004615810565b63bc197c8160e01b95945050505050565b6040516001600160e01b031990911681526020016101fe565b34801561049b57600080fd5b506102826104aa3660046155e2565b612125565b3480156104bb57600080fd5b506102826104ca3660046153cb565b61214f565b3480156104db57600080fd5b506103776104ea3660046156bd565b6127a1565b3480156104fb57600080fd5b5060fb5461039f906001600160a01b031681565b34801561051b57600080fd5b5061037761052a3660046155e2565b612a0f565b34801561053b57600080fd5b5061028261054a3660046153cb565b612daa565b34801561055b57600080fd5b506102ff61056a3660046158bd565b61327e565b34801561057b57600080fd5b5061047661058a3660046158f9565b63f23a6e6160e01b95945050505050565b3480156105a757600080fd5b506102826105b63660046155e2565b6132ec565b3480156105c757600080fd5b506102556105d63660046155e2565b613362565b60006001600160e01b03198216630271189760e51b148061060c57506301ffc9a760e01b6001600160e01b03198316145b92915050565b61061a614fb0565b6001600160a01b0384166000908152610101602090815260408083208684528252808320805482518185028101850190935280835290926107f792918491869084015b828210156107ed576000848152602090819020604080516101408101825260098602909201805460ff8116845261010090046001600160a01b0316838501526001810154838301526002810154606084015260038101546080840152600481015460a0840152600581015460c08401526006810180548351818702810187019094528084529394919360e08601939283018282801561072557602002820191906000526020600020905b81546001600160a01b03168152600190910190602001808311610707575b505050505081526020016007820180548060200260200160405190810160405280929190818152602001828054801561077d57602002820191906000526020600020905b815481526020019060010190808311610769575b50505050508152602001600882018054806020026020016040519081016040528092919081815260200182805480156107d557602002820191906000526020600020905b8154815260200190600101908083116107c1575b5050505050815250508152602001906001019061065d565b50505050856133ce565b8154811061080757610807615961565b600091825260209182902060408051610140810182526009909302909101805460ff811684526001600160a01b0361010090910416838501526001810154838301526002810154606084015260038101546080840152600481015460a0840152600581015460c08401526006810180548351818702810187019094528084529394919360e0860193928301828280156108c957602002820191906000526020600020905b81546001600160a01b031681526001909101906020018083116108ab575b505050505081526020016007820180548060200260200160405190810160405280929190818152602001828054801561092157602002820191906000526020600020905b81548152602001906001019080831161090d575b505050505081526020016008820180548060200260200160405190810160405280929190818152602001828054801561097957602002820191906000526020600020905b815481526020019060010190808311610965575b505050505081525050915061098d8361327e565b9050935093915050565b6001600160a01b03808216600090815261010060209081526040808320938616835292815290829020805483518184028101840190945280845260609392830182828015610a0457602002820191906000526020600020905b8154815260200190600101908083116109f0575b5050505050905092915050565b60fb5483906001600160a01b0316610a445760405162461bcd60e51b8152600401610a3b90615977565b60405180910390fd5b60fb5460405163b9209e3360e01b81526001600160a01b0383811660048301529091169063b9209e339060240160206040518083038186803b158015610a8957600080fd5b505afa158015610a9d573d6000803e3d6000fd5b505050506040513d601f19601f82011682018060405250810190610ac191906159a4565b610add5760405162461bcd60e51b8152600401610a3b906159c6565b816060015182604001511015610b055760405162461bcd60e51b8152600401610a3b906159ec565b6040805160008082526020808301845260e08601929092528251818152808301845261010086015282519081528082018352610120850152339084018190524260a085015260808401519151637921219560e11b81526001600160a01b0387169263f242432a92610b7f9290913091899190600401615a13565b600060405180830381600087803b158015610b9957600080fd5b505af1158015610bad573d6000803e3d6000fd5b505050506001600160a01b038416600090815261010160209081526040808320868452909152902054610c06576001600160a01b038416600090815260ff60209081526040822080546001810182559083529120018390555b6001600160a01b038085166000908152610101602090815260408083208784528252808320805460018181018355918552938390208751600990950201805488850151909616610100026001600160a81b031990961660ff9095169490941794909417835585015192820192909255606084015160028201556080840151600382015560a0840151600482015560c0840151600582015560e084015180518593610cb792600685019291019061500f565b506101008201518051610cd4916007840191602090910190615074565b506101208201518051610cf1916008840191602090910190615074565b5050336000908152610102602090815260408083206001600160a01b0389168452825280832087845290915290205415159050610d5d57336000908152610100602090815260408083206001600160a01b03881684528252822080546001810182559083529120018390555b336000908152610102602090815260408083206001600160a01b0388811685529083528184208785528352818420805460018181018355918652948490208751600990960201805488860151909316610100026001600160a81b031990931660ff909616959095179190911784559085015190830155606084015160028301556080840151600383015560a0840151600483015560c0840151600583015560e08401518051859392610e1692600685019291019061500f565b506101008201518051610e33916007840191602090910190615074565b506101208201518051610e50916008840191602090910190615074565b5050507f38a0a1f75b774e0d12cb7ff4847e94d3350d45c3b561435ad9b9868b0ec4a76f8484846000015185602001518660400151876060015188608001518960a001518a60c00151604051610eff999897969594939291906001600160a01b03998a168152602081019890985260ff969096166040880152939096166060860152608085019190915260a084015260c083019390935260e08201929092526101008101919091526101200190565b60405180910390a150505050565b60fb5483906001600160a01b0316610f375760405162461bcd60e51b8152600401610a3b90615977565b60fb5460405163b9209e3360e01b81526001600160a01b0383811660048301529091169063b9209e339060240160206040518083038186803b158015610f7c57600080fd5b505afa158015610f90573d6000803e3d6000fd5b505050506040513d601f19601f82011682018060405250810190610fb491906159a4565b610fd05760405162461bcd60e51b8152600401610a3b906159c6565b610fd86134d4565b81602001516001600160a01b0316336001600160a01b0316141561102a5760405162461bcd60e51b815260206004820152600960248201526824b99029b2b63632b960b91b6044820152606401610a3b565b60006110358361327e565b905061105285858586608001518561104d9190615a61565b61352e565b7fccba53a0685635d0ba900921ada09238126320e6a868f1bbd7a5c525d550b1bb858585600001518660200151876040015188606001518960a001518a60c00151898c60800151336040516110b19b9a99989796959493929190615a80565b60405180910390a1506110c46001606555565b50505050565b33600090815260fe6020526040902060ff8216600281106110ed576110ed615961565b01548211156111325760405162461bcd60e51b81526020600482015260116024820152704578636565647320436c61696d61626c6560781b6044820152606401610a3b565b33600090815260fe60205260409020829060ff83166002811061115757611157615961565b0160008282546111679190615ade565b90915550611198905060fc60ff83166002811061118657611186615961565b01546001600160a01b03168333613595565b5050565b306001600160a01b037f00000000000000000000000000000000000000000000000000000000000000001614156111e55760405162461bcd60e51b8152600401610a3b90615af5565b7f00000000000000000000000000000000000000000000000000000000000000006001600160a01b031661122e600080516020615e02833981519152546001600160a01b031690565b6001600160a01b0316146112545760405162461bcd60e51b8152600401610a3b90615b41565b61125d81613660565b6040805160008082526020820190925261127991839190613668565b50565b306001600160a01b037f00000000000000000000000000000000000000000000000000000000000000001614156112c55760405162461bcd60e51b8152600401610a3b90615af5565b7f00000000000000000000000000000000000000000000000000000000000000006001600160a01b031661130e600080516020615e02833981519152546001600160a01b031690565b6001600160a01b0316146113345760405162461bcd60e51b8152600401610a3b90615b41565b61133d82613660565b61119882826001613668565b6000306001600160a01b037f000000000000000000000000000000000000000000000000000000000000000016146113e95760405162461bcd60e51b815260206004820152603860248201527f555550535570677261646561626c653a206d757374206e6f742062652063616c60448201527f6c6564207468726f7567682064656c656761746563616c6c00000000000000006064820152608401610a3b565b50600080516020615e0283398151915290565b60fe602052816000526040600020816002811061141857600080fd5b01549150829050565b6114296137e2565b611433600061383c565b565b600054610100900460ff16158080156114555750600054600160ff909116105b8061146f5750303b15801561146f575060005460ff166001145b6114d25760405162461bcd60e51b815260206004820152602e60248201527f496e697469616c697a61626c653a20636f6e747261637420697320616c72656160448201526d191e481a5b9a5d1a585b1a5e995960921b6064820152608401610a3b565b6000805460ff1916600117905580156114f5576000805461ff0019166101001790555b6114fd61388e565b6115056138bd565b8015611279576000805461ff0019169055604051600181527f7f26b83ff96e1f2b6a682f133852f6798a09c465da95921460cefb38474024989060200160405180910390a150565b6001600160a01b0380821660009081526101006020908152604080832093861683529290529081206060918291815b81548110156115fa576001600160a01b03808716600090815261010260209081526040808320938b1683529290529081209083836115b981615b8d565b9450815481106115cb576115cb615961565b9060005260206000200154815260200190815260200160002080549050836115f39190615ba8565b925061157c565b50816001600160401b038111156116135761161361516d565b60405190808252806020026020018201604052801561164c57816020015b611639614fb0565b8152602001906001900390816116315790505b509350816001600160401b038111156116675761166761516d565b604051908082528060200260200182016040528015611690578160200160208202803683370190505b5092506000915060005b8154811015611a8e576001600160a01b03808716600090815261010260209081526040808320938b1683529290529081208184846116d781615b8d565b9550815481106116e9576116e9615961565b90600052602060002001548152602001908152602001600020905060005b8154811015611a875781818154811061172257611722615961565b600091825260209182902060408051610140810182526009909302909101805460ff811684526001600160a01b0361010090910416838501526001810154838301526002810154606084015260038101546080840152600481015460a0840152600581015460c08401526006810180548351818702810187019094528084529394919360e0860193928301828280156117e457602002820191906000526020600020905b81546001600160a01b031681526001909101906020018083116117c6575b505050505081526020016007820180548060200260200160405190810160405280929190818152602001828054801561183c57602002820191906000526020600020905b815481526020019060010190808311611828575b505050505081526020016008820180548060200260200160405190810160405280929190818152602001828054801561189457602002820191906000526020600020905b815481526020019060010190808311611880575b5050505050815250508786815181106118af576118af615961565b6020026020010181905250611a4f8282815481106118cf576118cf615961565b600091825260209182902060408051610140810182526009909302909101805460ff811684526001600160a01b0361010090910416838501526001810154838301526002810154606084015260038101546080840152600481015460a0840152600581015460c08401526006810180548351818702810187019094528084529394919360e08601939283018282801561199157602002820191906000526020600020905b81546001600160a01b03168152600190910190602001808311611973575b50505050508152602001600782018054806020026020016040519081016040528092919081815260200182805480156119e957602002820191906000526020600020905b8154815260200190600101908083116119d5575b5050505050815260200160088201805480602002602001604051908101604052809291908181526020018280548015611a4157602002820191906000526020600020905b815481526020019060010190808311611a2d575b50505050508152505061327e565b8686611a5a81615b8d565b975081518110611a6c57611a6c615961565b6020908102919091010152611a8081615b8d565b9050611707565b505061169a565b5050509250929050565b60fc8160028110611aa857600080fd5b01546001600160a01b0316905081565b611ac06137e2565b60fd80546001600160a01b0319166001600160a01b0392909216919091179055565b60fb5483906001600160a01b0316611b0c5760405162461bcd60e51b8152600401610a3b90615977565b60fb5460405163b9209e3360e01b81526001600160a01b0383811660048301529091169063b9209e339060240160206040518083038186803b158015611b5157600080fd5b505afa158015611b65573d6000803e3d6000fd5b505050506040513d601f19601f82011682018060405250810190611b8991906159a4565b611ba55760405162461bcd60e51b8152600401610a3b906159c6565b6080820151604051637921219560e11b81526001600160a01b0386169163f242432a91611bda91309133918991600401615a13565b600060405180830381600087803b158015611bf457600080fd5b505af1158015611c08573d6000803e3d6000fd5b505050506110c48484846138e4565b60fb5484906001600160a01b0316611c415760405162461bcd60e51b8152600401610a3b90615977565b60fb5460405163b9209e3360e01b81526001600160a01b0383811660048301529091169063b9209e339060240160206040518083038186803b158015611c8657600080fd5b505afa158015611c9a573d6000803e3d6000fd5b505050506040513d601f19601f82011682018060405250810190611cbe91906159a4565b611cda5760405162461bcd60e51b8152600401610a3b906159c6565b82602001516001600160a01b0316336001600160a01b03161415611d2c5760405162461bcd60e51b815260206004820152600960248201526824b99029b2b63632b960b91b6044820152606401610a3b565b6000611d378461327e565b9050808310611d7e5760405162461bcd60e51b8152602060048201526013602482015272496e76616c6964204f6666657220507269636560681b6044820152606401610a3b565b611dbd60fc856000015160ff1660028110611d9b57611d9b615961565b015460808601516001600160a01b0390911690611db89086615a61565b61397a565b6001600160a01b0386166000908152610101602090815260408083208884529091529020611ded90858584613a52565b6020808501516001600160a01b03908116600090815261010283526040808220928a1682529183528181208882529092529020611e2c90858584613a52565b7f3e1a01baff8094b01a8767647c320f6aa3c7ba8cf71046aa7ac4f062de2b0488868686600001518760200151886040015189606001518a60a001518b60c001518b8d6080015133604051611e8b9b9a99989796959493929190615a80565b60405180910390a1505050505050565b6001600160a01b038084166000908152610102602090815260408083209386168352928152828220848352815282822080548451818402810184019095528085526060948594909384015b82821015612076576000848152602090819020604080516101408101825260098602909201805460ff8116845261010090046001600160a01b0316838501526001810154838301526002810154606084015260038101546080840152600481015460a0840152600581015460c08401526006810180548351818702810187019094528084529394919360e086019392830182828015611fae57602002820191906000526020600020905b81546001600160a01b03168152600190910190602001808311611f90575b505050505081526020016007820180548060200260200160405190810160405280929190818152602001828054801561200657602002820191906000526020600020905b815481526020019060010190808311611ff2575b505050505081526020016008820180548060200260200160405190810160405280929190818152602001828054801561205e57602002820191906000526020600020905b81548152602001906001019080831161204a575b50505050508152505081526020019060010190611ee6565b50505050915081516001600160401b038111156120955761209561516d565b6040519080825280602002602001820160405280156120be578160200160208202803683370190505b50905060005b825181101561211c576120ef8382815181106120e2576120e2615961565b602002602001015161327e565b82828151811061210157612101615961565b602090810291909101015261211581615b8d565b90506120c4565b50935093915050565b61212d6137e2565b60fb80546001600160a01b0319166001600160a01b0392909216919091179055565b60fb5483906001600160a01b03166121795760405162461bcd60e51b8152600401610a3b90615977565b60fb5460405163b9209e3360e01b81526001600160a01b0383811660048301529091169063b9209e339060240160206040518083038186803b1580156121be57600080fd5b505afa1580156121d2573d6000803e3d6000fd5b505050506040513d601f19601f820116820180604052508101906121f691906159a4565b6122125760405162461bcd60e51b8152600401610a3b906159c6565b6001600160a01b038416600090815261010160209081526040808320868452825280832080548251818502810185019093528083526123ea93859084015b828210156123e0576000848152602090819020604080516101408101825260098602909201805460ff8116845261010090046001600160a01b0316838501526001810154838301526002810154606084015260038101546080840152600481015460a0840152600581015460c08401526006810180548351818702810187019094528084529394919360e08601939283018282801561231857602002820191906000526020600020905b81546001600160a01b031681526001909101906020018083116122fa575b505050505081526020016007820180548060200260200160405190810160405280929190818152602001828054801561237057602002820191906000526020600020905b81548152602001906001019080831161235c575b50505050508152602001600882018054806020026020016040519081016040528092919081815260200182805480156123c857602002820191906000526020600020905b8154815260200190600101908083116123b4575b50505050508152505081526020019060010190612250565b50505050846133ce565b6001600160a01b038616600090815261010160209081526040808320888452909152902054909150811061244e5760405162461bcd60e51b815260206004820152600b60248201526a4e6f74204f6e2053616c6560a81b6044820152606401610a3b565b6001600160a01b038516600090815261010160209081526040808320878452909152812080548390811061248457612484615961565b9060005260206000209060090201905060008160060180549050116124d65760405162461bcd60e51b815260206004820152600860248201526727379027b33332b960c11b6044820152606401610a3b565b604051632d49165560e11b815260009073__$e9d29609e19beebe46219d41a81a317a2e$__90635a922caa90612513906007860190600401615bc0565b60206040518083038186803b15801561252b57600080fd5b505af415801561253f573d6000803e3d6000fd5b505050506040513d601f19601f820116820180604052508101906125639190615c07565b9050846080015182600801828154811061257f5761257f615961565b906000526020600020015410156125cd5760405162461bcd60e51b815260206004820152601260248201527124b739bab33334b1b4b2b73a1027b33332b960711b6044820152606401610a3b565b61263060fc866000015160ff16600281106125ea576125ea615961565b015460808701516007850180546001600160a01b03909316928590811061261357612613615961565b90600052602060002001546126289190615a61565b338a8a613f4c565b600082600601828154811061264757612647615961565b6000918252602090912001546080870151604051637921219560e11b81526001600160a01b039283169350918a169163f242432a9161268f91309186918d9190600401615a13565b600060405180830381600087803b1580156126a957600080fd5b505af11580156126bd573d6000803e3d6000fd5b5050506001600160a01b0389166000908152610101602090815260408083208b845290915290206126f091508783613f7d565b336000908152610102602090815260408083206001600160a01b038c16845282528083208a84529091529020612727908783613f7d565b6127328888886138e4565b7f0125ca0ceb0e88f6ace0a67fe790ebd6976c2c19b625f679c8ad52e5c68471b18888886000015189602001518a604001518b606001518c60a001518d60c001518e608001518a60405161278f9a99989796959493929190615c20565b60405180910390a15050505050505050565b6001600160a01b03821660009081526101016020908152604080832084845282528083208054825181850281018501909352808352606094859484015b8282101561296e576000848152602090819020604080516101408101825260098602909201805460ff8116845261010090046001600160a01b0316838501526001810154838301526002810154606084015260038101546080840152600481015460a0840152600581015460c08401526006810180548351818702810187019094528084529394919360e0860193928301828280156128a657602002820191906000526020600020905b81546001600160a01b03168152600190910190602001808311612888575b50505050508152602001600782018054806020026020016040519081016040528092919081815260200182805480156128fe57602002820191906000526020600020905b8154815260200190600101908083116128ea575b505050505081526020016008820180548060200260200160405190810160405280929190818152602001828054801561295657602002820191906000526020600020905b815481526020019060010190808311612942575b505050505081525050815260200190600101906127de565b50505050915081516001600160401b0381111561298d5761298d61516d565b6040519080825280602002602001820160405280156129b6578160200160208202803683370190505b50905060005b8251811015612a07576129da8382815181106120e2576120e2615961565b8282815181106129ec576129ec615961565b6020908102919091010152612a0081615b8d565b90506129bc565b509250929050565b6001600160a01b038116600090815260ff602052604081206060918291815b8154811015612a9d576001600160a01b038616600090815261010160205260408120908383612a5c81615b8d565b945081548110612a6e57612a6e615961565b906000526020600020015481526020019081526020016000208054905083612a969190615ba8565b9250612a2e565b50816001600160401b03811115612ab657612ab661516d565b604051908082528060200260200182016040528015612aef57816020015b612adc614fb0565b815260200190600190039081612ad45790505b509350816001600160401b03811115612b0a57612b0a61516d565b604051908082528060200260200182016040528015612b33578160200160208202803683370190505b5092506000915060005b8154811015612da2576001600160a01b038616600090815261010160205260408120818484612b6b81615b8d565b955081548110612b7d57612b7d615961565b90600052602060002001548152602001908152602001600020905060005b8154811015612d9b57818181548110612bb657612bb6615961565b600091825260209182902060408051610140810182526009909302909101805460ff811684526001600160a01b0361010090910416838501526001810154838301526002810154606084015260038101546080840152600481015460a0840152600581015460c08401526006810180548351818702810187019094528084529394919360e086019392830182828015612c7857602002820191906000526020600020905b81546001600160a01b03168152600190910190602001808311612c5a575b5050505050815260200160078201805480602002602001604051908101604052809291908181526020018280548015612cd057602002820191906000526020600020905b815481526020019060010190808311612cbc575b5050505050815260200160088201805480602002602001604051908101604052809291908181526020018280548015612d2857602002820191906000526020600020905b815481526020019060010190808311612d14575b505050505081525050878681518110612d4357612d43615961565b6020026020010181905250612d638282815481106118cf576118cf615961565b8686612d6e81615b8d565b975081518110612d8057612d80615961565b6020908102919091010152612d9481615b8d565b9050612b9b565b5050612b3d565b505050915091565b60fb5483906001600160a01b0316612dd45760405162461bcd60e51b8152600401610a3b90615977565b60fb5460405163b9209e3360e01b81526001600160a01b0383811660048301529091169063b9209e339060240160206040518083038186803b158015612e1957600080fd5b505afa158015612e2d573d6000803e3d6000fd5b505050506040513d601f19601f82011682018060405250810190612e5191906159a4565b612e6d5760405162461bcd60e51b8152600401610a3b906159c6565b6001600160a01b03841660009081526101016020908152604080832086845282528083208054825181850281018501909352808352909261304092918491869084015b828210156107ed576000848152602090819020604080516101408101825260098602909201805460ff8116845261010090046001600160a01b0316838501526001810154838301526002810154606084015260038101546080840152600481015460a0840152600581015460c08401526006810180548351818702810187019094528084529394919360e086019392830182828015612f7857602002820191906000526020600020905b81546001600160a01b03168152600190910190602001808311612f5a575b5050505050815260200160078201805480602002602001604051908101604052809291908181526020018280548015612fd057602002820191906000526020600020905b815481526020019060010190808311612fbc575b505050505081526020016008820180548060200260200160405190810160405280929190818152602001828054801561302857602002820191906000526020600020905b815481526020019060010190808311613014575b50505050508152505081526020019060010190612eb0565b8154811061305057613050615961565b6000918252602090912060099091020180549091506131a59060fc9060ff166002811061307f5761307f615961565b01546080850151600684018054604080516020808402820181019092528281526001600160a01b03909516946007880193909290918301828280156130ed57602002820191906000526020600020905b81546001600160a01b031681526001909101906020018083116130cf575b5050604051636e44fbfb60e01b815273__$e9d29609e19beebe46219d41a81a317a2e$__94636e44fbfb945061312a935091503390600401615c78565b60206040518083038186803b15801561314257600080fd5b505af4158015613156573d6000803e3d6000fd5b505050506040513d601f19601f8201168201806040525081019061317a9190615c07565b8154811061318a5761318a615961565b906000526020600020015461319f9190615a61565b33613595565b6001600160a01b03851660009081526101016020908152604080832087845290915290206131d4908433613f7d565b6020808401516001600160a01b0390811660009081526101028352604080822092891682529183528181208782529092529020613212908433613f7d565b7fa9748c93c15f93e884198ec4883cae2a18adb4e9fcc36d4773185e916e4359c7858585600001518660200151876040015188606001518960a001518a60c001518b608001513360405161326f9a99989796959493929190615c20565b60405180910390a15050505050565b60008160c001518260a001516132949190615ba8565b42106132a1575060608101515b60c082015160a08301516132b59042615ade565b836060015184604001516132c99190615ade565b6132d39190615a61565b6132dd9190615cd5565b826040015161060c9190615ade565b6132f46137e2565b6001600160a01b0381166133595760405162461bcd60e51b815260206004820152602660248201527f4f776e61626c653a206e6577206f776e657220697320746865207a65726f206160448201526564647265737360d01b6064820152608401610a3b565b6112798161383c565b6001600160a01b038116600090815260ff60209081526040918290208054835181840281018401909452808452606093928301828280156133c257602002820191906000526020600020905b8154815260200190600101908083116133ae575b50505050509050919050565b60005b82518110156134965760008382815181106133ee576133ee615961565b60200260200101519050806000015160ff16836000015160ff1614801561341c575080604001518360400151145b801561342f575080606001518360600151145b801561344257508060a001518360a00151145b801561345557508060c001518360c00151145b801561347a575080602001516001600160a01b031683602001516001600160a01b0316145b156134855750613496565b5061348f81615b8d565b90506133d1565b8251811061060c5760405162461bcd60e51b815260206004820152600b60248201526a4e6f74204f6e2053616c6560a81b6044820152606401610a3b565b600260655414156135275760405162461bcd60e51b815260206004820152601f60248201527f5265656e7472616e637947756172643a207265656e7472616e742063616c6c006044820152606401610a3b565b6002606555565b61355c60fc836000015160ff166002811061354b5761354b615961565b01546001600160a01b03168261397a565b611ba560fc836000015160ff166002811061357957613579615961565b015460208401516001600160a01b039091169083908787613f4c565b6001600160a01b0383166135d9576040516001600160a01b0382169083156108fc029084906000818181858888f193505050501580156110c4573d6000803e3d6000fd5b60405163a9059cbb60e01b81526001600160a01b0382811660048301526024820184905284169063a9059cbb90604401602060405180830381600087803b15801561362357600080fd5b505af1158015613637573d6000803e3d6000fd5b505050506040513d601f19601f820116820180604052508101906110c491906159a4565b505050565b6112796137e2565b7f4910fdfa16fed3260ed0e7147f7cc6da11a60208b5b9406d12a635614ffd91435460ff161561369b5761365b836143f4565b826001600160a01b03166352d1902d6040518163ffffffff1660e01b815260040160206040518083038186803b1580156136d457600080fd5b505afa925050508015613704575060408051601f3d908101601f1916820190925261370191810190615c07565b60015b6137675760405162461bcd60e51b815260206004820152602e60248201527f45524331393637557067726164653a206e657720696d706c656d656e7461746960448201526d6f6e206973206e6f74205555505360901b6064820152608401610a3b565b600080516020615e0283398151915281146137d65760405162461bcd60e51b815260206004820152602960248201527f45524331393637557067726164653a20756e737570706f727465642070726f786044820152681a58589b195555525160ba1b6064820152608401610a3b565b5061365b838383614490565b6033546001600160a01b031633146114335760405162461bcd60e51b815260206004820181905260248201527f4f776e61626c653a2063616c6c6572206973206e6f7420746865206f776e65726044820152606401610a3b565b603380546001600160a01b038381166001600160a01b0319831681179093556040519116919082907f8be0079c531659141344cd1fd0a4f28419497f9722a3daafe3b4186f6b6457e090600090a35050565b600054610100900460ff166138b55760405162461bcd60e51b8152600401610a3b90615cf7565b6114336144b5565b600054610100900460ff166114335760405162461bcd60e51b8152600401610a3b90615cf7565b6001600160a01b038316600081815261010160209081526040808320868452825280832093835260ff90915290206139209190838560016144e5565b602080820180516001600160a01b03908116600090815261010284526040808220888416808452908652818320888452865281832094519093168252610100855280822092825291909352822061365b92849086906144e5565b6001600160a01b0382166139cc57803410156111985760405162461bcd60e51b8152602060048201526011602482015270125b9cdd59999a58da595b9d08119d5b99607a1b6044820152606401610a3b565b6040516323b872dd60e01b8152336004820152306024820152604481018290526001600160a01b038316906323b872dd90606401602060405180830381600087803b158015613a1a57600080fd5b505af1158015613a2e573d6000803e3d6000fd5b505050506040513d601f19601f8201168201806040525081019061365b91906159a4565b6000613c0885805480602002602001604051908101604052809291908181526020016000905b828210156107ed576000848152602090819020604080516101408101825260098602909201805460ff8116845261010090046001600160a01b0316838501526001810154838301526002810154606084015260038101546080840152600481015460a0840152600581015460c08401526006810180548351818702810187019094528084529394919360e086019392830182828015613b4057602002820191906000526020600020905b81546001600160a01b03168152600190910190602001808311613b22575b5050505050815260200160078201805480602002602001604051908101604052809291908181526020018280548015613b9857602002820191906000526020600020905b815481526020019060010190808311613b84575b5050505050815260200160088201805480602002602001604051908101604052809291908181526020018280548015613bf057602002820191906000526020600020905b815481526020019060010190808311613bdc575b50505050508152505081526020019060010190613a78565b90508360800151858281548110613c2157613c21615961565b9060005260206000209060090201600301541015613c755760405162461bcd60e51b8152602060048201526011602482015270496e73756666696369656e742053616c6560781b6044820152606401610a3b565b6000858281548110613c8957613c89615961565b9060005260206000209060090201600601805480602002602001604051908101604052809291908181526020018280548015613cee57602002820191906000526020600020905b81546001600160a01b03168152600190910190602001808311613cd0575b5050604051636e44fbfb60e01b815273__$e9d29609e19beebe46219d41a81a317a2e$__94636e44fbfb9450613d2b935091503390600401615c78565b60206040518083038186803b158015613d4357600080fd5b505af4158015613d57573d6000803e3d6000fd5b505050506040513d601f19601f82011682018060405250810190613d7b9190615c07565b9050858281548110613d8f57613d8f615961565b906000526020600020906009020160060180549050811015613e655783868381548110613dbe57613dbe615961565b90600052602060002090600902016007018281548110613de057613de0615961565b906000526020600020015414613e085760405162461bcd60e51b8152600401610a3b906159ec565b8460800151868381548110613e1f57613e1f615961565b90600052602060002090600902016008018281548110613e4157613e41615961565b906000526020600020016000828254613e5a9190615ba8565b90915550613f449050565b828410613e845760405162461bcd60e51b8152600401610a3b906159ec565b858281548110613e9657613e96615961565b60009182526020808320600660099093020191909101805460018101825590835291200180546001600160a01b031916331790558554869083908110613ede57613ede615961565b6000918252602080832060076009909302019190910180546001810182559083529120018490558554869083908110613f1957613f19615961565b6000918252602080832060808901516009939093020160080180546001810182559084529220909101555b505050505050565b6000613f5783614b76565b15613f6f57613f6883838888614bf7565b9050613f72565b50835b613f44868286613595565b600061413384805480602002602001604051908101604052809291908181526020016000905b828210156123e0576000848152602090819020604080516101408101825260098602909201805460ff8116845261010090046001600160a01b0316838501526001810154838301526002810154606084015260038101546080840152600481015460a0840152600581015460c08401526006810180548351818702810187019094528084529394919360e08601939283018282801561406b57602002820191906000526020600020905b81546001600160a01b0316815260019091019060200180831161404d575b50505050508152602001600782018054806020026020016040519081016040528092919081815260200182805480156140c357602002820191906000526020600020905b8154815260200190600101908083116140af575b505050505081526020016008820180548060200260200160405190810160405280929190818152602001828054801561411b57602002820191906000526020600020905b815481526020019060010190808311614107575b50505050508152505081526020019060010190613fa3565b9050600084828154811061414957614149615961565b90600052602060002090600902016006018054806020026020016040519081016040528092919081815260200182805480156141ae57602002820191906000526020600020905b81546001600160a01b03168152600190910190602001808311614190575b5050604051636e44fbfb60e01b815273__$e9d29609e19beebe46219d41a81a317a2e$__94636e44fbfb94506141eb935091508790600401615c78565b60206040518083038186803b15801561420357600080fd5b505af4158015614217573d6000803e3d6000fd5b505050506040513d601f19601f8201168201806040525081019061423b9190615c07565b905084828154811061424f5761424f615961565b906000526020600020906009020160060180549050811061429d5760405162461bcd60e51b815260206004820152600860248201526727379027b33332b960c11b6044820152606401610a3b565b83608001518583815481106142b4576142b4615961565b906000526020600020906009020160080182815481106142d6576142d6615961565b906000526020600020015410156143245760405162461bcd60e51b815260206004820152601260248201527124b739bab33334b1b4b2b73a1027b33332b960711b6044820152606401610a3b565b836080015185838154811061433b5761433b615961565b9060005260206000209060090201600801828154811061435d5761435d615961565b9060005260206000200160008282546143769190615ade565b9250508190555084828154811061438f5761438f615961565b906000526020600020906009020160080181815481106143b1576143b1615961565b9060005260206000200154600014156143ed576143ed8583815481106143d9576143d9615961565b906000526020600020906009020182614cf2565b5050505050565b6001600160a01b0381163b6144615760405162461bcd60e51b815260206004820152602d60248201527f455243313936373a206e657720696d706c656d656e746174696f6e206973206e60448201526c1bdd08184818dbdb9d1c9858dd609a1b6064820152608401610a3b565b600080516020615e0283398151915280546001600160a01b0319166001600160a01b0392909216919091179055565b61449983614e32565b6000825111806144a65750805b1561365b576110c48383614e72565b600054610100900460ff166144dc5760405162461bcd60e51b8152600401610a3b90615cf7565b6114333361383c565b600061469b86805480602002602001604051908101604052809291908181526020016000905b828210156107ed576000848152602090819020604080516101408101825260098602909201805460ff8116845261010090046001600160a01b0316838501526001810154838301526002810154606084015260038101546080840152600481015460a0840152600581015460c08401526006810180548351818702810187019094528084529394919360e0860193928301828280156145d357602002820191906000526020600020905b81546001600160a01b031681526001909101906020018083116145b5575b505050505081526020016007820180548060200260200160405190810160405280929190818152602001828054801561462b57602002820191906000526020600020905b815481526020019060010190808311614617575b505050505081526020016008820180548060200260200160405190810160405280929190818152602001828054801561468357602002820191906000526020600020905b81548152602001906001019080831161466f575b5050505050815250508152602001906001019061450b565b905083608001518682815481106146b4576146b4615961565b906000526020600020906009020160030160008282546146d49190615ade565b90915550600090505b8682815481106146ef576146ef615961565b90600052602060002090600902016006018054905081101561494f5786828154811061471d5761471d615961565b90600052602060002090600902016003015487838154811061474157614741615961565b9060005260206000209060090201600801828154811061476357614763615961565b9060005260206000200154111561493f5782156148da5786828154811061478c5761478c615961565b906000526020600020906009020160070181815481106147ae576147ae615961565b90600052602060002001548783815481106147cb576147cb615961565b9060005260206000209060090201600301548884815481106147ef576147ef615961565b9060005260206000209060090201600801838154811061481157614811615961565b90600052602060002001546148269190615ade565b6148309190615a61565b60fe600089858154811061484657614846615961565b9060005260206000209060090201600601848154811061486857614868615961565b60009182526020808320909101546001600160a01b03168352820192909252604001902088548990859081106148a0576148a0615961565b600091825260209091206009909102015460ff16600281106148c4576148c4615961565b0160008282546148d49190615ba8565b90915550505b8682815481106148ec576148ec615961565b90600052602060002090600902016003015487838154811061491057614910615961565b9060005260206000209060090201600801828154811061493257614932615961565b6000918252602090912001555b61494881615b8d565b90506146dd565b5085818154811061496257614962615961565b90600052602060002090600902016003015460001415613f44578554869061498c90600190615ade565b8154811061499c5761499c615961565b90600052602060002090600902018682815481106149bc576149bc615961565b600091825260209091208254600990920201805460ff90921660ff1983168117825583546001600160a81b031990931617610100928390046001600160a01b0316909202919091178155600180830154908201556002808301549082015560038083015490820155600480830154908201556005808301549082015560068083018054614a4c92840191906150af565b5060078281018054614a6192840191906150af565b5060088281018054614a7692840191906150af565b5090505085805480614a8a57614a8a615d42565b60008281526020812060096000199093019283020180546001600160a81b0319168155600181018290556002810182905560038101829055600481018290556005810182905590614ade60068301826150ef565b614aec6007830160006150ef565b614afa6008830160006150ef565b505090558554613f4457604051630cef945b60e31b8152600481018690526024810184905273__$e9d29609e19beebe46219d41a81a317a2e$__9063677ca2d89060440160006040518083038186803b158015614b5657600080fd5b505af4158015614b6a573d6000803e3d6000fd5b50505050505050505050565b6040516301ffc9a760e01b815263152a902d60e11b60048201526000906001600160a01b038316906301ffc9a79060240160206040518083038186803b158015614bbf57600080fd5b505afa158015614bd3573d6000803e3d6000fd5b505050506040513d601f19601f8201168201806040525081019061060c91906159a4565b60405163152a902d60e11b81526004810184905260248101829052600090819081906001600160a01b03881690632a55205a90604401604080518083038186803b158015614c4457600080fd5b505afa158015614c58573d6000803e3d6000fd5b505050506040513d601f19601f82011682018060405250810190614c7c9190615d58565b9092509050614c8b8185615ade565b92508015614c9e57614c9e858284613595565b604080516001600160a01b0389168152602081018890529081018290527f7a474f3ea7966b6a336a0169253a863c5bbe817379d3570951736f604adbe2699060600160405180910390a15050949350505050565b604051637b150e3d60e01b81526006830160048201526024810182905273__$e9d29609e19beebe46219d41a81a317a2e$__90637b150e3d9060440160006040518083038186803b158015614d4657600080fd5b505af4158015614d5a573d6000803e3d6000fd5b5050604051633c764a6160e21b81526007850160048201526024810184905273__$e9d29609e19beebe46219d41a81a317a2e$__925063f1d92984915060440160006040518083038186803b158015614db257600080fd5b505af4158015614dc6573d6000803e3d6000fd5b5050604051633c764a6160e21b81526008850160048201526024810184905273__$e9d29609e19beebe46219d41a81a317a2e$__925063f1d92984915060440160006040518083038186803b158015614e1e57600080fd5b505af4158015613f44573d6000803e3d6000fd5b614e3b816143f4565b6040516001600160a01b038216907fbc7cd75a20ee27fd9adebab32041f755214dbc6bffa90cc0225b39da2e5c2d3b90600090a250565b60606001600160a01b0383163b614eda5760405162461bcd60e51b815260206004820152602660248201527f416464726573733a2064656c65676174652063616c6c20746f206e6f6e2d636f6044820152651b9d1c9858dd60d21b6064820152608401610a3b565b600080846001600160a01b031684604051614ef59190615db2565b600060405180830381855af49150503d8060008114614f30576040519150601f19603f3d011682016040523d82523d6000602084013e614f35565b606091505b5091509150614f5d8282604051806060016040528060278152602001615e2260279139614f66565b95945050505050565b60608315614f75575081614f7f565b614f7f8383614f86565b9392505050565b815115614f965781518083602001fd5b8060405162461bcd60e51b8152600401610a3b9190615dce565b604051806101400160405280600060ff16815260200160006001600160a01b0316815260200160008152602001600081526020016000815260200160008152602001600081526020016060815260200160608152602001606081525090565b828054828255906000526020600020908101928215615064579160200282015b8281111561506457825182546001600160a01b0319166001600160a01b0390911617825560209092019160019091019061502f565b50615070929150615109565b5090565b828054828255906000526020600020908101928215615064579160200282015b82811115615064578251825591602001919060010190615094565b8280548282559060005260206000209081019282156150645760005260206000209182015b828111156150645782548255916001019190600101906150d4565b508054600082559060005260206000209081019061127991905b5b80821115615070576000815560010161510a565b60006020828403121561513057600080fd5b81356001600160e01b031981168114614f7f57600080fd5b6001600160a01b038116811461127957600080fd5b803561516881615148565b919050565b634e487b7160e01b600052604160045260246000fd5b60405161014081016001600160401b03811182821017156151a6576151a661516d565b60405290565b604051601f8201601f191681016001600160401b03811182821017156151d4576151d461516d565b604052919050565b803560ff8116811461516857600080fd5b60006001600160401b038211156152065761520661516d565b5060051b60200190565b600082601f83011261522157600080fd5b81356020615236615231836151ed565b6151ac565b82815260059290921b8401810191818101908684111561525557600080fd5b8286015b8481101561527957803561526c81615148565b8352918301918301615259565b509695505050505050565b600082601f83011261529557600080fd5b813560206152a5615231836151ed565b82815260059290921b840181019181810190868411156152c457600080fd5b8286015b8481101561527957803583529183019183016152c8565b600061014082840312156152f257600080fd5b6152fa615183565b9050615305826151dc565b81526153136020830161515d565b602082015260408201356040820152606082013560608201526080820135608082015260a082013560a082015260c082013560c082015260e08201356001600160401b038082111561536457600080fd5b61537085838601615210565b60e08401526101009150818401358181111561538b57600080fd5b61539786828701615284565b8385015250610120915081840135818111156153b257600080fd5b6153be86828701615284565b8385015250505092915050565b6000806000606084860312156153e057600080fd5b83356153eb81615148565b92506020840135915060408401356001600160401b0381111561540d57600080fd5b615419868287016152df565b9150509250925092565b600081518084526020808501945080840160005b8381101561545c5781516001600160a01b031687529582019590820190600101615437565b509495945050505050565b600081518084526020808501945080840160005b8381101561545c5781518752958201959082019060010161547b565b805160ff168252600061014060208301516154bd60208601826001600160a01b03169052565b5060408301516040850152606083015160608501526080830151608085015260a083015160a085015260c083015160c085015260e08301518160e086015261550782860182615423565b91505061010080840151858303828701526155228382615467565b92505050610120808401518583038287015261553e8382615467565b9695505050505050565b60408152600061555b6040830185615497565b90508260208301529392505050565b6000806040838503121561557d57600080fd5b823561558881615148565b9150602083013561559881615148565b809150509250929050565b602081526000614f7f6020830184615467565b600080604083850312156155c957600080fd5b823591506155d9602084016151dc565b90509250929050565b6000602082840312156155f457600080fd5b8135614f7f81615148565b600082601f83011261561057600080fd5b81356001600160401b038111156156295761562961516d565b61563c601f8201601f19166020016151ac565b81815284602083860101111561565157600080fd5b816020850160208301376000918101602001919091529392505050565b6000806040838503121561568157600080fd5b823561568c81615148565b915060208301356001600160401b038111156156a757600080fd5b6156b3858286016155ff565b9150509250929050565b600080604083850312156156d057600080fd5b82356156db81615148565b946020939093013593505050565b6000604082016040835280855180835260608501915060608160051b8601019250602080880160005b8381101561574057605f1988870301855261572e868351615497565b95509382019390820190600101615712565b505085840381870152505050614f5d8185615467565b60006020828403121561576857600080fd5b5035919050565b6000806000806080858703121561578557600080fd5b843561579081615148565b93506020850135925060408501356001600160401b038111156157b257600080fd5b6157be878288016152df565b949793965093946060013593505050565b6000806000606084860312156157e457600080fd5b83356157ef81615148565b925060208401356157ff81615148565b929592945050506040919091013590565b600080600080600060a0868803121561582857600080fd5b853561583381615148565b9450602086013561584381615148565b935060408601356001600160401b038082111561585f57600080fd5b61586b89838a01615284565b9450606088013591508082111561588157600080fd5b61588d89838a01615284565b935060808801359150808211156158a357600080fd5b506158b0888289016155ff565b9150509295509295909350565b6000602082840312156158cf57600080fd5b81356001600160401b038111156158e557600080fd5b6158f1848285016152df565b949350505050565b600080600080600060a0868803121561591157600080fd5b853561591c81615148565b9450602086013561592c81615148565b9350604086013592506060860135915060808601356001600160401b0381111561595557600080fd5b6158b0888289016155ff565b634e487b7160e01b600052603260045260246000fd5b602080825260139082015272139bc81059191c995cdcc810dbdb9d1c9858dd606a1b604082015260600190565b6000602082840312156159b657600080fd5b81518015158114614f7f57600080fd5b6020808252600c908201526b139bdd0815995c9a599a595960a21b604082015260600190565b6020808252600d908201526c496e76616c696420507269636560981b604082015260600190565b6001600160a01b0394851681529290931660208301526040820152606081019190915260a06080820181905260009082015260c00190565b634e487b7160e01b600052601160045260246000fd5b6000816000190483118215151615615a7b57615a7b615a4b565b500290565b6001600160a01b039b8c168152602081019a909a5260ff9890981660408a01529589166060890152608088019490945260a087019290925260c086015260e08501526101008401526101208301529091166101408201526101600190565b600082821015615af057615af0615a4b565b500390565b6020808252602c908201527f46756e6374696f6e206d7573742062652063616c6c6564207468726f7567682060408201526b19195b1959d85d1958d85b1b60a21b606082015260800190565b6020808252602c908201527f46756e6374696f6e206d7573742062652063616c6c6564207468726f7567682060408201526b6163746976652070726f787960a01b606082015260800190565b6000600019821415615ba157615ba1615a4b565b5060010190565b60008219821115615bbb57615bbb615a4b565b500190565b6020808252825482820181905260008481528281209092916040850190845b81811015615bfb57835483526001938401939285019201615bdf565b50909695505050505050565b600060208284031215615c1957600080fd5b5051919050565b6001600160a01b039a8b168152602081019990995260ff9790971660408901529488166060880152608087019390935260a086019190915260c085015260e08401526101008301529091166101208201526101400190565b604080825283519082018190526000906020906060840190828701845b82811015615cba5781516001600160a01b031684529284019290840190600101615c95565b5050506001600160a01b039490941692019190915250919050565b600082615cf257634e487b7160e01b600052601260045260246000fd5b500490565b6020808252602b908201527f496e697469616c697a61626c653a20636f6e7472616374206973206e6f74206960408201526a6e697469616c697a696e6760a81b606082015260800190565b634e487b7160e01b600052603160045260246000fd5b60008060408385031215615d6b57600080fd5b8251615d7681615148565b6020939093015192949293505050565b60005b83811015615da1578181015183820152602001615d89565b838111156110c45750506000910152565b60008251615dc4818460208701615d86565b9190910192915050565b6020815260008251806020840152615ded816040850160208701615d86565b601f01601f1916919091016040019291505056fe360894a13ba1a3210667c828492db98dca3e2076cc3735a920a3ca505d382bbc416464726573733a206c6f772d6c6576656c2064656c65676174652063616c6c206661696c6564a2646970667358221220f3bee7c7c9b278a821af2d8905bc24e8a2fb48c72bbd0fe5078e231cefb042e564736f6c63430008090033",
  "linkReferences": {
    "contracts/libraries/ArrayLibrary.sol": {
      "ArrayLibrary": [
        {
          "length": 20,
          "start": 9525
        },
        {
          "length": 20,
          "start": 12619
        },
        {
          "length": 20,
          "start": 15692
        },
        {
          "length": 20,
          "start": 16908
        },
        {
          "length": 20,
          "start": 19310
        },
        {
          "length": 20,
          "start": 19806
        },
        {
          "length": 20,
          "start": 19912
        },
        {
          "length": 20,
          "start": 20020
        }
      ]
    }
  },
  "deployedLinkReferences": {
    "contracts/libraries/ArrayLibrary.sol": {
      "ArrayLibrary": [
        {
          "length": 20,
          "start": 9448
        },
        {
          "length": 20,
          "start": 12542
        },
        {
          "length": 20,
          "start": 15615
        },
        {
          "length": 20,
          "start": 16831
        },
        {
          "length": 20,
          "start": 19233
        },
        {
          "length": 20,
          "start": 19729
        },
        {
          "length": 20,
          "start": 19835
        },
        {
          "length": 20,
          "start": 19943
        }
      ]
    }
  }
}