{
  "_format": "hh-sol-artifact-1",
  "contractName": "ERC721Sale",
  "sourceName": "contracts/ERC721Sale.sol",
  "abi": [
    {
      "anonymous": false,
      "inputs": [
        {
          "indexed": false,
          "internalType": "address",
          "name": "previousAdmin",
          "type": "address"
        },
        {
          "indexed": false,
          "internalType": "address",
          "name": "newAdmin",
          "type": "address"
        }
      ],
      "name": "AdminChanged",
      "type": "event"
    },
    {
      "anonymous": false,
      "inputs": [
        {
          "indexed": true,
          "internalType": "address",
          "name": "beacon",
          "type": "address"
        }
      ],
      "name": "BeaconUpgraded",
      "type": "event"
    },
    {
      "anonymous": false,
      "inputs": [
        {
          "indexed": false,
          "internalType": "uint8",
          "name": "version",
          "type": "uint8"
        }
      ],
      "name": "Initialized",
      "type": "event"
    },
    {
      "anonymous": false,
      "inputs": [
        {
          "indexed": false,
          "internalType": "address",
          "name": "contractAddr",
          "type": "address"
        },
        {
          "indexed": false,
          "internalType": "uint256",
          "name": "tokenId",
          "type": "uint256"
        },
        {
          "indexed": false,
          "internalType": "uint8",
          "name": "payment",
          "type": "uint8"
        },
        {
          "indexed": false,
          "internalType": "uint256",
          "name": "price",
          "type": "uint256"
        },
        {
          "indexed": false,
          "internalType": "address",
          "name": "offerer",
          "type": "address"
        }
      ],
      "name": "OfferAccepted",
      "type": "event"
    },
    {
      "anonymous": false,
      "inputs": [
        {
          "indexed": false,
          "internalType": "address",
          "name": "contractAddr",
          "type": "address"
        },
        {
          "indexed": false,
          "internalType": "uint256",
          "name": "tokenId",
          "type": "uint256"
        },
        {
          "indexed": false,
          "internalType": "uint256",
          "name": "price",
          "type": "uint256"
        },
        {
          "indexed": false,
          "internalType": "address",
          "name": "offerer",
          "type": "address"
        }
      ],
      "name": "OfferCancelled",
      "type": "event"
    },
    {
      "anonymous": false,
      "inputs": [
        {
          "indexed": false,
          "internalType": "address",
          "name": "contractAddr",
          "type": "address"
        },
        {
          "indexed": false,
          "internalType": "uint256",
          "name": "tokenId",
          "type": "uint256"
        },
        {
          "indexed": false,
          "internalType": "uint256",
          "name": "price",
          "type": "uint256"
        },
        {
          "indexed": false,
          "internalType": "address",
          "name": "offerer",
          "type": "address"
        }
      ],
      "name": "OfferCreated",
      "type": "event"
    },
    {
      "anonymous": false,
      "inputs": [
        {
          "indexed": true,
          "internalType": "address",
          "name": "previousOwner",
          "type": "address"
        },
        {
          "indexed": true,
          "internalType": "address",
          "name": "newOwner",
          "type": "address"
        }
      ],
      "name": "OwnershipTransferred",
      "type": "event"
    },
    {
      "anonymous": false,
      "inputs": [
        {
          "indexed": false,
          "internalType": "address",
          "name": "contractAddr",
          "type": "address"
        },
        {
          "indexed": false,
          "internalType": "uint256",
          "name": "tokenId",
          "type": "uint256"
        }
      ],
      "name": "SaleCancelled",
      "type": "event"
    },
    {
      "anonymous": false,
      "inputs": [
        {
          "indexed": false,
          "internalType": "address",
          "name": "contractAddr",
          "type": "address"
        },
        {
          "indexed": false,
          "internalType": "uint256",
          "name": "tokenId",
          "type": "uint256"
        },
        {
          "indexed": false,
          "internalType": "uint8",
          "name": "payment",
          "type": "uint8"
        },
        {
          "indexed": false,
          "internalType": "uint256",
          "name": "startPrice",
          "type": "uint256"
        },
        {
          "indexed": false,
          "internalType": "uint256",
          "name": "endPrice",
          "type": "uint256"
        },
        {
          "indexed": false,
          "internalType": "uint256",
          "name": "time",
          "type": "uint256"
        },
        {
          "indexed": false,
          "internalType": "uint256",
          "name": "duration",
          "type": "uint256"
        }
      ],
      "name": "SaleCreated",
      "type": "event"
    },
    {
      "anonymous": false,
      "inputs": [
        {
          "indexed": false,
          "internalType": "address",
          "name": "contractAddr",
          "type": "address"
        },
        {
          "indexed": false,
          "internalType": "uint256",
          "name": "tokenId",
          "type": "uint256"
        },
        {
          "indexed": false,
          "internalType": "uint8",
          "name": "payment",
          "type": "uint8"
        },
        {
          "indexed": false,
          "internalType": "uint256",
          "name": "price",
          "type": "uint256"
        },
        {
          "indexed": false,
          "internalType": "address",
          "name": "buyer",
          "type": "address"
        }
      ],
      "name": "SaleSuccessful",
      "type": "event"
    },
    {
      "anonymous": false,
      "inputs": [
        {
          "indexed": true,
          "internalType": "address",
          "name": "implementation",
          "type": "address"
        }
      ],
      "name": "Upgraded",
      "type": "event"
    },
    {
      "inputs": [
        {
          "internalType": "address",
          "name": "contractAddr",
          "type": "address"
        },
        {
          "internalType": "uint256",
          "name": "tokenId",
          "type": "uint256"
        }
      ],
      "name": "acceptOffer",
      "outputs": [],
      "stateMutability": "nonpayable",
      "type": "function"
    },
    {
      "inputs": [],
      "name": "addressesContractAddr",
      "outputs": [
        {
          "internalType": "address",
          "name": "",
          "type": "address"
        }
      ],
      "stateMutability": "view",
      "type": "function"
    },
    {
      "inputs": [
        {
          "internalType": "address",
          "name": "contractAddr",
          "type": "address"
        },
        {
          "internalType": "uint256",
          "name": "tokenId",
          "type": "uint256"
        }
      ],
      "name": "buy",
      "outputs": [],
      "stateMutability": "payable",
      "type": "function"
    },
    {
      "inputs": [
        {
          "internalType": "address",
          "name": "contractAddr",
          "type": "address"
        },
        {
          "internalType": "uint256",
          "name": "tokenId",
          "type": "uint256"
        }
      ],
      "name": "cancelOffer",
      "outputs": [],
      "stateMutability": "nonpayable",
      "type": "function"
    },
    {
      "inputs": [
        {
          "internalType": "address",
          "name": "contractAddr",
          "type": "address"
        },
        {
          "internalType": "uint256",
          "name": "tokenId",
          "type": "uint256"
        }
      ],
      "name": "cancelSale",
      "outputs": [],
      "stateMutability": "nonpayable",
      "type": "function"
    },
    {
      "inputs": [
        {
          "internalType": "uint256",
          "name": "amount",
          "type": "uint256"
        },
        {
          "internalType": "uint8",
          "name": "index",
          "type": "uint8"
        }
      ],
      "name": "claim",
      "outputs": [],
      "stateMutability": "nonpayable",
      "type": "function"
    },
    {
      "inputs": [
        {
          "internalType": "address",
          "name": "",
          "type": "address"
        },
        {
          "internalType": "uint256",
          "name": "",
          "type": "uint256"
        }
      ],
      "name": "claimable",
      "outputs": [
        {
          "internalType": "uint256",
          "name": "",
          "type": "uint256"
        }
      ],
      "stateMutability": "view",
      "type": "function"
    },
    {
      "inputs": [
        {
          "internalType": "address",
          "name": "contractAddr",
          "type": "address"
        },
        {
          "internalType": "uint256",
          "name": "tokenId",
          "type": "uint256"
        },
        {
          "internalType": "uint8",
          "name": "payment",
          "type": "uint8"
        },
        {
          "internalType": "uint256",
          "name": "startPrice",
          "type": "uint256"
        },
        {
          "internalType": "uint256",
          "name": "endPrice",
          "type": "uint256"
        },
        {
          "internalType": "uint256",
          "name": "duration",
          "type": "uint256"
        }
      ],
      "name": "createSale",
      "outputs": [],
      "stateMutability": "nonpayable",
      "type": "function"
    },
    {
      "inputs": [
        {
          "internalType": "address",
          "name": "contractAddr",
          "type": "address"
        },
        {
          "internalType": "uint256",
          "name": "tokenId",
          "type": "uint256"
        }
      ],
      "name": "getCurrentPrice",
      "outputs": [
        {
          "internalType": "uint256",
          "name": "",
          "type": "uint256"
        }
      ],
      "stateMutability": "view",
      "type": "function"
    },
    {
      "inputs": [
        {
          "internalType": "address",
          "name": "contractAddr",
          "type": "address"
        },
        {
          "internalType": "uint256",
          "name": "tokenId",
          "type": "uint256"
        }
      ],
      "name": "getSale",
      "outputs": [
        {
          "components": [
            {
              "internalType": "address",
              "name": "seller",
              "type": "address"
            },
            {
              "internalType": "uint8",
              "name": "payment",
              "type": "uint8"
            },
            {
              "internalType": "uint256",
              "name": "startPrice",
              "type": "uint256"
            },
            {
              "internalType": "uint256",
              "name": "endPrice",
              "type": "uint256"
            },
            {
              "internalType": "uint256",
              "name": "startedAt",
              "type": "uint256"
            },
            {
              "internalType": "uint256",
              "name": "duration",
              "type": "uint256"
            },
            {
              "internalType": "address[]",
              "name": "offerers",
              "type": "address[]"
            },
            {
              "internalType": "uint256[]",
              "name": "offerPrices",
              "type": "uint256[]"
            }
          ],
          "internalType": "struct ERC721SaleBase.Sale",
          "name": "sale",
          "type": "tuple"
        },
        {
          "internalType": "uint256",
          "name": "currentPrice",
          "type": "uint256"
        }
      ],
      "stateMutability": "view",
      "type": "function"
    },
    {
      "inputs": [
        {
          "internalType": "address",
          "name": "contractAddr",
          "type": "address"
        }
      ],
      "name": "getSaleTokens",
      "outputs": [
        {
          "internalType": "uint256[]",
          "name": "",
          "type": "uint256[]"
        }
      ],
      "stateMutability": "view",
      "type": "function"
    },
    {
      "inputs": [
        {
          "internalType": "address",
          "name": "contractAddr",
          "type": "address"
        },
        {
          "internalType": "address",
          "name": "seller",
          "type": "address"
        }
      ],
      "name": "getSaleTokensBySeller",
      "outputs": [
        {
          "internalType": "uint256[]",
          "name": "",
          "type": "uint256[]"
        }
      ],
      "stateMutability": "view",
      "type": "function"
    },
    {
      "inputs": [
        {
          "internalType": "address",
          "name": "contractAddr",
          "type": "address"
        }
      ],
      "name": "getSales",
      "outputs": [
        {
          "components": [
            {
              "internalType": "address",
              "name": "seller",
              "type": "address"
            },
            {
              "internalType": "uint8",
              "name": "payment",
              "type": "uint8"
            },
            {
              "internalType": "uint256",
              "name": "startPrice",
              "type": "uint256"
            },
            {
              "internalType": "uint256",
              "name": "endPrice",
              "type": "uint256"
            },
            {
              "internalType": "uint256",
              "name": "startedAt",
              "type": "uint256"
            },
            {
              "internalType": "uint256",
              "name": "duration",
              "type": "uint256"
            },
            {
              "internalType": "address[]",
              "name": "offerers",
              "type": "address[]"
            },
            {
              "internalType": "uint256[]",
              "name": "offerPrices",
              "type": "uint256[]"
            }
          ],
          "internalType": "struct ERC721SaleBase.Sale[]",
          "name": "sales",
          "type": "tuple[]"
        },
        {
          "internalType": "uint256[]",
          "name": "currentPrices",
          "type": "uint256[]"
        }
      ],
      "stateMutability": "view",
      "type": "function"
    },
    {
      "inputs": [
        {
          "internalType": "address",
          "name": "contractAddr",
          "type": "address"
        },
        {
          "internalType": "address",
          "name": "seller",
          "type": "address"
        }
      ],
      "name": "getSalesBySeller",
      "outputs": [
        {
          "components": [
            {
              "internalType": "address",
              "name": "seller",
              "type": "address"
            },
            {
              "internalType": "uint8",
              "name": "payment",
              "type": "uint8"
            },
            {
              "internalType": "uint256",
              "name": "startPrice",
              "type": "uint256"
            },
            {
              "internalType": "uint256",
              "name": "endPrice",
              "type": "uint256"
            },
            {
              "internalType": "uint256",
              "name": "startedAt",
              "type": "uint256"
            },
            {
              "internalType": "uint256",
              "name": "duration",
              "type": "uint256"
            },
            {
              "internalType": "address[]",
              "name": "offerers",
              "type": "address[]"
            },
            {
              "internalType": "uint256[]",
              "name": "offerPrices",
              "type": "uint256[]"
            }
          ],
          "internalType": "struct ERC721SaleBase.Sale[]",
          "name": "sales",
          "type": "tuple[]"
        },
        {
          "internalType": "uint256[]",
          "name": "currentPrices",
          "type": "uint256[]"
        }
      ],
      "stateMutability": "view",
      "type": "function"
    },
    {
      "inputs": [],
      "name": "initialize",
      "outputs": [],
      "stateMutability": "nonpayable",
      "type": "function"
    },
    {
      "inputs": [
        {
          "internalType": "address",
          "name": "contractAddr",
          "type": "address"
        },
        {
          "internalType": "uint256",
          "name": "tokenId",
          "type": "uint256"
        },
        {
          "internalType": "uint256",
          "name": "price",
          "type": "uint256"
        }
      ],
      "name": "makeOffer",
      "outputs": [],
      "stateMutability": "payable",
      "type": "function"
    },
    {
      "inputs": [],
      "name": "owner",
      "outputs": [
        {
          "internalType": "address",
          "name": "",
          "type": "address"
        }
      ],
      "stateMutability": "view",
      "type": "function"
    },
    {
      "inputs": [],
      "name": "proxiableUUID",
      "outputs": [
        {
          "internalType": "bytes32",
          "name": "",
          "type": "bytes32"
        }
      ],
      "stateMutability": "view",
      "type": "function"
    },
    {
      "inputs": [],
      "name": "renounceOwnership",
      "outputs": [],
      "stateMutability": "nonpayable",
      "type": "function"
    },
    {
      "inputs": [
        {
          "internalType": "address",
          "name": "contractAddr",
          "type": "address"
        }
      ],
      "name": "setAddressesContractAddr",
      "outputs": [],
      "stateMutability": "nonpayable",
      "type": "function"
    },
    {
      "inputs": [
        {
          "internalType": "address",
          "name": "newSparkAddr",
          "type": "address"
        }
      ],
      "name": "setSparkTokenContractAddr",
      "outputs": [],
      "stateMutability": "nonpayable",
      "type": "function"
    },
    {
      "inputs": [
        {
          "internalType": "uint256",
          "name": "",
          "type": "uint256"
        }
      ],
      "name": "tokenAddrs",
      "outputs": [
        {
          "internalType": "address",
          "name": "",
          "type": "address"
        }
      ],
      "stateMutability": "view",
      "type": "function"
    },
    {
      "inputs": [
        {
          "internalType": "address",
          "name": "newOwner",
          "type": "address"
        }
      ],
      "name": "transferOwnership",
      "outputs": [],
      "stateMutability": "nonpayable",
      "type": "function"
    },
    {
      "inputs": [
        {
          "internalType": "address",
          "name": "newImplementation",
          "type": "address"
        }
      ],
      "name": "upgradeTo",
      "outputs": [],
      "stateMutability": "nonpayable",
      "type": "function"
    },
    {
      "inputs": [
        {
          "internalType": "address",
          "name": "newImplementation",
          "type": "address"
        },
        {
          "internalType": "bytes",
          "name": "data",
          "type": "bytes"
        }
      ],
      "name": "upgradeToAndCall",
      "outputs": [],
      "stateMutability": "payable",
      "type": "function"
    }
  ],
  "bytecode": "0x60a06040523060805234801561001457600080fd5b5060805161430761004c60003960008181610f9801528181610fd801528181611078015281816110b801526114a401526143076000f3fe6080604052600436106101665760003560e01c80637de3bd07116100d1578063b1b9e78d1161008a578063db9d48d811610064578063db9d48d814610417578063e16bd3b714610437578063f2fde38b14610457578063f4947f0f1461047757600080fd5b8063b1b9e78d146103c4578063bc4781af146103e4578063cce7ec131461040457600080fd5b80637de3bd07146102fc5780638129fc1c1461030f578063821c7818146103245780638da5cb5b14610352578063915044ec14610384578063a5756bd2146103a457600080fd5b80634f1ef286116101235780634f1ef286146102515780635293e6db1461026457806352d1902d1461028457806360efe334146102a75780636c54df52146102c7578063715018a6146102e757600080fd5b8063058a56ac1461016b57806306c0a5041461018d57806316f3a95b146101c3578063225c3131146101e35780632faf3ea6146102115780633659cfe614610231575b600080fd5b34801561017757600080fd5b5061018b610186366004613b7a565b610497565b005b34801561019957600080fd5b506101ad6101a8366004613ba6565b610845565b6040516101ba9190613c1a565b60405180910390f35b3480156101cf57600080fd5b5061018b6101de366004613b7a565b610985565b3480156101ef57600080fd5b506102036101fe366004613b7a565b610c8e565b6040516101ba929190613cdd565b34801561021d57600080fd5b5061018b61022c366004613d15565b610ebb565b34801561023d57600080fd5b5061018b61024c366004613d41565b610f8d565b61018b61025f366004613d74565b61106d565b34801561027057600080fd5b5061018b61027f366004613e38565b61113a565b34801561029057600080fd5b50610299611497565b6040519081526020016101ba565b3480156102b357600080fd5b506102996102c2366004613b7a565b61154a565b3480156102d357600080fd5b506102996102e2366004613b7a565b61156f565b3480156102f357600080fd5b5061018b6117fd565b61018b61030a366004613e92565b611811565b34801561031b57600080fd5b5061018b611b72565b34801561033057600080fd5b5061034461033f366004613ba6565b611c8a565b6040516101ba929190613ec7565b34801561035e57600080fd5b506033546001600160a01b03165b6040516001600160a01b0390911681526020016101ba565b34801561039057600080fd5b5061036c61039f366004613f34565b611feb565b3480156103b057600080fd5b5061018b6103bf366004613d41565b61200b565b3480156103d057600080fd5b5061018b6103df366004613b7a565b612035565b3480156103f057600080fd5b5061018b6103ff366004613d41565b6125a2565b61018b610412366004613b7a565b6125cc565b34801561042357600080fd5b5060fb5461036c906001600160a01b031681565b34801561044357600080fd5b50610344610452366004613d41565b612959565b34801561046357600080fd5b5061018b610472366004613d41565b612c9a565b34801561048357600080fd5b506101ad610492366004613d41565b612d10565b60fb5482906001600160a01b03166104ca5760405162461bcd60e51b81526004016104c190613f4d565b60405180910390fd5b60fb5460405163b9209e3360e01b81526001600160a01b0383811660048301529091169063b9209e339060240160206040518083038186803b15801561050f57600080fd5b505afa158015610523573d6000803e3d6000fd5b505050506040513d601f19601f820116820180604052508101906105479190613f7a565b6105635760405162461bcd60e51b81526004016104c190613f9c565b6001600160a01b038316600090815261010160209081526040808320858452909152902060018101546105a85760405162461bcd60e51b81526004016104c190613fc2565b80546001600160a01b03163314156105d25760405162461bcd60e51b81526004016104c190613fe7565b60005b60058201548110801561061a5750336001600160a01b03168260050182815481106106025761060261400a565b6000918252602090912001546001600160a01b031614155b1561062f5761062881614036565b90506105d5565b6005820154811061066d5760405162461bcd60e51b815260206004820152600860248201526727379027b33332b960c11b60448201526064016104c1565b60008260060182815481106106845761068461400a565b60009182526020909120015483549091506106c89060fc90600160a01b900460ff16600281106106b6576106b661400a565b01546001600160a01b03168233612e41565b6001600160a01b038616600090815261010160209081526040808320888452909152908190209051637b150e3d60e01b8152600590910160048201526024810183905273__$e9d29609e19beebe46219d41a81a317a2e$__90637b150e3d9060440160006040518083038186803b15801561074257600080fd5b505af4158015610756573d6000803e3d6000fd5b505050506001600160a01b038616600090815261010160209081526040808320888452909152908190209051633c764a6160e21b8152600690910160048201526024810183905273__$e9d29609e19beebe46219d41a81a317a2e$__9063f1d929849060440160006040518083038186803b1580156107d457600080fd5b505af41580156107e8573d6000803e3d6000fd5b5050604080516001600160a01b038a168152602081018990529081018490523360608201527f484147b537118d64d412586d4a207bc98691c1697b538111d504f4fb381fac6a9250608001905060405180910390a1505050505050565b60fb5460609083906001600160a01b03166108725760405162461bcd60e51b81526004016104c190613f4d565b60fb5460405163b9209e3360e01b81526001600160a01b0383811660048301529091169063b9209e339060240160206040518083038186803b1580156108b757600080fd5b505afa1580156108cb573d6000803e3d6000fd5b505050506040513d601f19601f820116820180604052508101906108ef9190613f7a565b61090b5760405162461bcd60e51b81526004016104c190613f9c565b6001600160a01b038084166000908152610100602090815260408083209388168352928152908290208054835181840281018401909452808452909183018282801561097657602002820191906000526020600020905b815481526020019060010190808311610962575b505050505091505b5092915050565b60fb5482906001600160a01b03166109af5760405162461bcd60e51b81526004016104c190613f4d565b60fb5460405163b9209e3360e01b81526001600160a01b0383811660048301529091169063b9209e339060240160206040518083038186803b1580156109f457600080fd5b505afa158015610a08573d6000803e3d6000fd5b505050506040513d601f19601f82011682018060405250810190610a2c9190613f7a565b610a485760405162461bcd60e51b81526004016104c190613f9c565b6001600160a01b03838116600090815261010160209081526040808320868452825280832081516101008101835281549586168152600160a01b90950460ff16858401526001810154858301526002810154606086015260038101546080860152600481015460a0860152600581018054835181860281018601909452808452949594919360c08601939290830182828015610b0d57602002820191906000526020600020905b81546001600160a01b03168152600190910190602001808311610aef575b5050505050815260200160068201805480602002602001604051908101604052809291908181526020018280548015610b6557602002820191906000526020600020905b815481526020019060010190808311610b51575b50505050508152505090506000816040015111610b945760405162461bcd60e51b81526004016104c190613fc2565b80516001600160a01b03163314610bda5760405162461bcd60e51b815260206004820152600a6024820152692737ba1029b2b63632b960b11b60448201526064016104c1565b80516040516323b872dd60e01b81526001600160a01b038616916323b872dd91610c0a9130918890600401614051565b600060405180830381600087803b158015610c2457600080fd5b505af1158015610c38573d6000803e3d6000fd5b50505050610c468484612f0d565b604080516001600160a01b0386168152602081018590527fc9b961c43fe701b83ae14bfe2d7625ea85b27c33b4aae8d1fdf4b344d5ea1dbc910160405180910390a150505050565b610c96613a45565b60fb5460009084906001600160a01b0316610cc35760405162461bcd60e51b81526004016104c190613f4d565b60fb5460405163b9209e3360e01b81526001600160a01b0383811660048301529091169063b9209e339060240160206040518083038186803b158015610d0857600080fd5b505afa158015610d1c573d6000803e3d6000fd5b505050506040513d601f19601f82011682018060405250810190610d409190613f7a565b610d5c5760405162461bcd60e51b81526004016104c190613f9c565b6001600160a01b0385811660009081526101016020908152604080832088845282529182902082516101008101845281549485168152600160a01b90940460ff16848301526001810154848401526002810154606085015260038101546080850152600481015460a0850152600581018054845181850281018501909552808552919360c0860193909290830182828015610e2057602002820191906000526020600020905b81546001600160a01b03168152600190910190602001808311610e02575b5050505050815260200160068201805480602002602001604051908101604052809291908181526020018280548015610e7857602002820191906000526020600020905b815481526020019060010190808311610e64575b50505050508152505092506000836040015111610ea75760405162461bcd60e51b81526004016104c190613fc2565b610eb1858561156f565b9150509250929050565b33600090815260fe6020526040902060ff821660028110610ede57610ede61400a565b0154821115610f235760405162461bcd60e51b81526020600482015260116024820152704578636565647320436c61696d61626c6560781b60448201526064016104c1565b33600090815260fe60205260409020829060ff831660028110610f4857610f4861400a565b016000828254610f589190614075565b90915550610f89905060fc60ff831660028110610f7757610f7761400a565b01546001600160a01b03168333612e41565b5050565b306001600160a01b037f0000000000000000000000000000000000000000000000000000000000000000161415610fd65760405162461bcd60e51b81526004016104c19061408c565b7f00000000000000000000000000000000000000000000000000000000000000006001600160a01b031661101f60008051602061428b833981519152546001600160a01b031690565b6001600160a01b0316146110455760405162461bcd60e51b81526004016104c1906140d8565b61104e81613271565b6040805160008082526020820190925261106a91839190613279565b50565b306001600160a01b037f00000000000000000000000000000000000000000000000000000000000000001614156110b65760405162461bcd60e51b81526004016104c19061408c565b7f00000000000000000000000000000000000000000000000000000000000000006001600160a01b03166110ff60008051602061428b833981519152546001600160a01b031690565b6001600160a01b0316146111255760405162461bcd60e51b81526004016104c1906140d8565b61112e82613271565b610f8982826001613279565b60fb5486906001600160a01b03166111645760405162461bcd60e51b81526004016104c190613f4d565b60fb5460405163b9209e3360e01b81526001600160a01b0383811660048301529091169063b9209e339060240160206040518083038186803b1580156111a957600080fd5b505afa1580156111bd573d6000803e3d6000fd5b505050506040513d601f19601f820116820180604052508101906111e19190613f7a565b6111fd5760405162461bcd60e51b81526004016104c190613f9c565b8284101561123d5760405162461bcd60e51b815260206004820152600d60248201526c496e76616c696420507269636560981b60448201526064016104c1565b6040516323b872dd60e01b81526001600160a01b038816906323b872dd9061126d90339030908b90600401614051565b600060405180830381600087803b15801561128757600080fd5b505af115801561129b573d6000803e3d6000fd5b5050604080516101008101825233815260ff8916602082015290810187905260608101869052426080820181905260a082018690529250905060c081016000604051908082528060200260200182016040528015611303578160200160208202803683370190505b5081526020016000604051908082528060200260200182016040528015611334578160200160208202803683370190505b5090526001600160a01b03808a166000908152610101602090815260408083208c8452825291829020845181548684015160ff16600160a01b026001600160a81b03199091169190951617939093178355908301516001830155606083015160028301556080830151600383015560a0830151600483015560c083015180516113c39260058501920190613a96565b5060e082015180516113df916006840191602090910190613afb565b5050506001600160a01b038816600081815260ff60208181526040808420805460018082018355918652838620018d905533855261010083528185208686528352818520805491820181558552938290209093018b9055825193845283018a9052881682820152606082018790526080820186905260a0820183905260c08201859052517f466c91b57df6daad340ea674f78c8d7948a1cba6c85e3be3cfe087f463fd0e709181900360e00190a15050505050505050565b6000306001600160a01b037f000000000000000000000000000000000000000000000000000000000000000016146115375760405162461bcd60e51b815260206004820152603860248201527f555550535570677261646561626c653a206d757374206e6f742062652063616c60448201527f6c6564207468726f7567682064656c656761746563616c6c000000000000000060648201526084016104c1565b5060008051602061428b83398151915290565b60fe602052816000526040600020816002811061156657600080fd5b01549150829050565b60fb5460009083906001600160a01b031661159c5760405162461bcd60e51b81526004016104c190613f4d565b60fb5460405163b9209e3360e01b81526001600160a01b0383811660048301529091169063b9209e339060240160206040518083038186803b1580156115e157600080fd5b505afa1580156115f5573d6000803e3d6000fd5b505050506040513d601f19601f820116820180604052508101906116199190613f7a565b6116355760405162461bcd60e51b81526004016104c190613f9c565b6001600160a01b03848116600090815261010160209081526040808320878452825280832081516101008101835281549586168152600160a01b90950460ff16858401526001810154858301526002810154606086015260038101546080860152600481015460a0860152600581018054835181860281018601909452808452949594919360c086019392908301828280156116fa57602002820191906000526020600020905b81546001600160a01b031681526001909101906020018083116116dc575b505050505081526020016006820180548060200260200160405190810160405280929190818152602001828054801561175257602002820191906000526020600020905b81548152602001906001019080831161173e575b505050505081525050905060008160400151116117815760405162461bcd60e51b81526004016104c190613fc2565b60a08101516080820151429161179691614124565b81106117a8575060600151915061097e565b60a082015160808301516117bc9083614075565b836060015184604001516117d09190614075565b6117da919061413c565b6117e4919061415b565b82604001516117f39190614075565b9695505050505050565b6118056133f3565b61180f600061344d565b565b60fb5483906001600160a01b031661183b5760405162461bcd60e51b81526004016104c190613f4d565b60fb5460405163b9209e3360e01b81526001600160a01b0383811660048301529091169063b9209e339060240160206040518083038186803b15801561188057600080fd5b505afa158015611894573d6000803e3d6000fd5b505050506040513d601f19601f820116820180604052508101906118b89190613f7a565b6118d45760405162461bcd60e51b81526004016104c190613f9c565b6001600160a01b03848116600090815261010160209081526040808320878452825280832081516101008101835281549586168152600160a01b90950460ff16858401526001810154858301526002810154606086015260038101546080860152600481015460a0860152600581018054835181860281018601909452808452949594919360c0860193929083018282801561199957602002820191906000526020600020905b81546001600160a01b0316815260019091019060200180831161197b575b50505050508152602001600682018054806020026020016040519081016040528092919081815260200182805480156119f157602002820191906000526020600020905b8154815260200190600101908083116119dd575b50505050508152505090506000816040015111611a205760405162461bcd60e51b81526004016104c190613fc2565b80516001600160a01b0316331415611a4a5760405162461bcd60e51b81526004016104c190613fe7565b611a54858561156f565b8310611a985760405162461bcd60e51b8152602060048201526013602482015272496e76616c6964204f6666657220507269636560681b60448201526064016104c1565b611ac660fc826020015160ff1660028110611ab557611ab561400a565b01546001600160a01b03168461349f565b6001600160a01b0385166000818152610101602090815260408083208884528252808320600581018054600180820183559186528486200180546001600160a01b031916339081179091556006909201805491820181558552938390209093018790558051938452908301879052820185905260608201527fb35e89ddd2b55ef83ae2fadcfb375c6d8523977ba388fb91cb1a0ff2312108779060800160405180910390a15050505050565b600054610100900460ff1615808015611b925750600054600160ff909116105b80611bac5750303b158015611bac575060005460ff166001145b611c0f5760405162461bcd60e51b815260206004820152602e60248201527f496e697469616c697a61626c653a20636f6e747261637420697320616c72656160448201526d191e481a5b9a5d1a585b1a5e995960921b60648201526084016104c1565b6000805460ff191660011790558015611c32576000805461ff0019166101001790555b611c3a613573565b611c426135a2565b801561106a576000805461ff0019169055604051600181527f7f26b83ff96e1f2b6a682f133852f6798a09c465da95921460cefb38474024989060200160405180910390a150565b60fb54606090819084906001600160a01b0316611cb95760405162461bcd60e51b81526004016104c190613f4d565b60fb5460405163b9209e3360e01b81526001600160a01b0383811660048301529091169063b9209e339060240160206040518083038186803b158015611cfe57600080fd5b505afa158015611d12573d6000803e3d6000fd5b505050506040513d601f19601f82011682018060405250810190611d369190613f7a565b611d525760405162461bcd60e51b81526004016104c190613f9c565b6001600160a01b03808516600090815261010060209081526040808320938916835292905220548067ffffffffffffffff811115611d9257611d92613d5e565b604051908082528060200260200182016040528015611dcb57816020015b611db8613a45565b815260200190600190039081611db05790505b5093508067ffffffffffffffff811115611de757611de7613d5e565b604051908082528060200260200182016040528015611e10578160200160208202803683370190505b50925060005b81811015611fe1576001600160a01b03808716600090815261010060209081526040808320938b168352929052908120805483908110611e5857611e5861400a565b6000918252602080832091909101546001600160a01b038b811684526101018352604080852083865284529384902084516101008101865281549283168152600160a01b90920460ff16828501526001810154828601526002810154606083015260038101546080830152600481015460a08301526005810180548651818702810187019097528087529396509194909360c086019391929190830182828015611f2b57602002820191906000526020600020905b81546001600160a01b03168152600190910190602001808311611f0d575b5050505050815260200160068201805480602002602001604051908101604052809291908181526020018280548015611f8357602002820191906000526020600020905b815481526020019060010190808311611f6f575b505050505081525050868381518110611f9e57611f9e61400a565b6020026020010181905250611fb3888261156f565b858381518110611fc557611fc561400a565b602090810291909101015250611fda81614036565b9050611e16565b5050509250929050565b60fc8160028110611ffb57600080fd5b01546001600160a01b0316905081565b6120136133f3565b60fd80546001600160a01b0319166001600160a01b0392909216919091179055565b60fb5482906001600160a01b031661205f5760405162461bcd60e51b81526004016104c190613f4d565b60fb5460405163b9209e3360e01b81526001600160a01b0383811660048301529091169063b9209e339060240160206040518083038186803b1580156120a457600080fd5b505afa1580156120b8573d6000803e3d6000fd5b505050506040513d601f19601f820116820180604052508101906120dc9190613f7a565b6120f85760405162461bcd60e51b81526004016104c190613f9c565b6001600160a01b03838116600090815261010160209081526040808320868452825280832081516101008101835281549586168152600160a01b90950460ff16858401526001810154858301526002810154606086015260038101546080860152600481015460a0860152600581018054835181860281018601909452808452949594919360c086019392908301828280156121bd57602002820191906000526020600020905b81546001600160a01b0316815260019091019060200180831161219f575b505050505081526020016006820180548060200260200160405190810160405280929190818152602001828054801561221557602002820191906000526020600020905b815481526020019060010190808311612201575b505050505081525050905060008160400151116122445760405162461bcd60e51b81526004016104c190613fc2565b80516001600160a01b0316331461228a5760405162461bcd60e51b815260206004820152600a6024820152692737ba1029b2b63632b960b11b60448201526064016104c1565b6000808260c0015151116122cb5760405162461bcd60e51b815260206004820152600860248201526727379027b33332b960c11b60448201526064016104c1565b60015b8260c0015151811015612331578260e0015182815181106122f1576122f161400a565b60200260200101518360e00151828151811061230f5761230f61400a565b60200260200101511115612321578091505b61232a81614036565b90506122ce565b5060008260e00151828151811061234a5761234a61400a565b6020026020010151905060008360c00151838151811061236c5761236c61400a565b602002602001015190506123a760fc856020015160ff16600281106123935761239361400a565b01546001600160a01b031683338a8a6135c9565b6040516323b872dd60e01b81526001600160a01b038816906323b872dd906123d790309085908b90600401614051565b600060405180830381600087803b1580156123f157600080fd5b505af1158015612405573d6000803e3d6000fd5b505050506001600160a01b038716600090815261010160209081526040808320898452909152908190209051637b150e3d60e01b8152600590910160048201526024810184905273__$e9d29609e19beebe46219d41a81a317a2e$__90637b150e3d9060440160006040518083038186803b15801561248357600080fd5b505af4158015612497573d6000803e3d6000fd5b505050506001600160a01b038716600090815261010160209081526040808320898452909152908190209051633c764a6160e21b8152600690910160048201526024810184905273__$e9d29609e19beebe46219d41a81a317a2e$__9063f1d929849060440160006040518083038186803b15801561251557600080fd5b505af4158015612529573d6000803e3d6000fd5b505050506125378787612f0d565b602080850151604080516001600160a01b03808c1682529381018a905260ff909216908201526060810184905290821660808201527fb6af6a106a35424cce083e957b7173ee5cb2cc8ff96f543561ac8a7dc34ed1ea9060a00160405180910390a150505050505050565b6125aa6133f3565b60fb80546001600160a01b0319166001600160a01b0392909216919091179055565b60fb5482906001600160a01b03166125f65760405162461bcd60e51b81526004016104c190613f4d565b60fb5460405163b9209e3360e01b81526001600160a01b0383811660048301529091169063b9209e339060240160206040518083038186803b15801561263b57600080fd5b505afa15801561264f573d6000803e3d6000fd5b505050506040513d601f19601f820116820180604052508101906126739190613f7a565b61268f5760405162461bcd60e51b81526004016104c190613f9c565b6126976135fa565b6001600160a01b03838116600090815261010160209081526040808320868452825280832081516101008101835281549586168152600160a01b90950460ff16858401526001810154858301526002810154606086015260038101546080860152600481015460a0860152600581018054835181860281018601909452808452949594919360c0860193929083018282801561275c57602002820191906000526020600020905b81546001600160a01b0316815260019091019060200180831161273e575b50505050508152602001600682018054806020026020016040519081016040528092919081815260200182805480156127b457602002820191906000526020600020905b8154815260200190600101908083116127a0575b505050505081525050905060008160400151116127e35760405162461bcd60e51b81526004016104c190613fc2565b80516001600160a01b031633141561280d5760405162461bcd60e51b81526004016104c190613fe7565b6000612819858561156f565b905061284960fc836020015160ff16600281106128385761283861400a565b01546001600160a01b03168261349f565b61287f60fc836020015160ff16600281106128665761286661400a565b015483516001600160a01b0390911690839088886135c9565b6128898585612f0d565b6040516323b872dd60e01b81526001600160a01b038616906323b872dd906128b990309033908990600401614051565b600060405180830381600087803b1580156128d357600080fd5b505af11580156128e7573d6000803e3d6000fd5b50505050602082810151604080516001600160a01b038916815292830187905260ff9091168282015260608201839052336080830152517f53343ea03762430fa282a1235d1ea91b397487c7f12ba56db2b2a0cf636fec2b9181900360a00190a150506129546001606555565b505050565b60fb54606090819083906001600160a01b03166129885760405162461bcd60e51b81526004016104c190613f4d565b60fb5460405163b9209e3360e01b81526001600160a01b0383811660048301529091169063b9209e339060240160206040518083038186803b1580156129cd57600080fd5b505afa1580156129e1573d6000803e3d6000fd5b505050506040513d601f19601f82011682018060405250810190612a059190613f7a565b612a215760405162461bcd60e51b81526004016104c190613f9c565b6001600160a01b038416600090815260ff60205260409020548067ffffffffffffffff811115612a5357612a53613d5e565b604051908082528060200260200182016040528015612a8c57816020015b612a79613a45565b815260200190600190039081612a715790505b5093508067ffffffffffffffff811115612aa857612aa8613d5e565b604051908082528060200260200182016040528015612ad1578160200160208202803683370190505b50925060005b81811015612c92576001600160a01b038616600090815260ff60205260408120805483908110612b0957612b0961400a565b6000918252602080832091909101546001600160a01b038a811684526101018352604080852083865284529384902084516101008101865281549283168152600160a01b90920460ff16828501526001810154828601526002810154606083015260038101546080830152600481015460a08301526005810180548651818702810187019097528087529396509194909360c086019391929190830182828015612bdc57602002820191906000526020600020905b81546001600160a01b03168152600190910190602001808311612bbe575b5050505050815260200160068201805480602002602001604051908101604052809291908181526020018280548015612c3457602002820191906000526020600020905b815481526020019060010190808311612c20575b505050505081525050868381518110612c4f57612c4f61400a565b6020026020010181905250612c64878261156f565b858381518110612c7657612c7661400a565b602090810291909101015250612c8b81614036565b9050612ad7565b505050915091565b612ca26133f3565b6001600160a01b038116612d075760405162461bcd60e51b815260206004820152602660248201527f4f776e61626c653a206e6577206f776e657220697320746865207a65726f206160448201526564647265737360d01b60648201526084016104c1565b61106a8161344d565b60fb5460609082906001600160a01b0316612d3d5760405162461bcd60e51b81526004016104c190613f4d565b60fb5460405163b9209e3360e01b81526001600160a01b0383811660048301529091169063b9209e339060240160206040518083038186803b158015612d8257600080fd5b505afa158015612d96573d6000803e3d6000fd5b505050506040513d601f19601f82011682018060405250810190612dba9190613f7a565b612dd65760405162461bcd60e51b81526004016104c190613f9c565b6001600160a01b038316600090815260ff602090815260409182902080548351818402810184019094528084529091830182828015612e3457602002820191906000526020600020905b815481526020019060010190808311612e20575b5050505050915050919050565b6001600160a01b038316612e8b576040516001600160a01b0382169083156108fc029084906000818181858888f19350505050158015612e85573d6000803e3d6000fd5b50505050565b60405163a9059cbb60e01b81526001600160a01b0382811660048301526024820184905284169063a9059cbb90604401602060405180830381600087803b158015612ed557600080fd5b505af1158015612ee9573d6000803e3d6000fd5b505050506040513d601f19601f82011682018060405250810190612e859190613f7a565b6001600160a01b038216600090815260ff6020526040908190209051630cef945b60e31b815260048101919091526024810182905273__$e9d29609e19beebe46219d41a81a317a2e$__9063677ca2d89060440160006040518083038186803b158015612f7957600080fd5b505af4158015612f8d573d6000803e3d6000fd5b5050506001600160a01b0380841660009081526101016020908152604080832086845282528083208151610100810183528154958616815260ff600160a01b90960495909516858401526001810154858301526002810154606086015260038101546080860152600481015460a0860152600581018054835181860281018601909452808452949650909360c086019383018282801561305657602002820191906000526020600020905b81546001600160a01b03168152600190910190602001808311613038575b50505050508152602001600682018054806020026020016040519081016040528092919081815260200182805480156130ae57602002820191906000526020600020905b81548152602001906001019080831161309a575b50505091909252505081516001600160a01b0390811660009081526101006020908152604080832093891683529290528190209051630cef945b60e31b815260048101919091526024810185905291925073__$e9d29609e19beebe46219d41a81a317a2e$__9163677ca2d8915060440160006040518083038186803b15801561313757600080fd5b505af415801561314b573d6000803e3d6000fd5b5050505060c08101515160005b818110156131fe578260e0015181815181106131765761317661400a565b602002602001015160fe60008560c0015184815181106131985761319861400a565b60200260200101516001600160a01b03166001600160a01b03168152602001908152602001600020846020015160ff16600281106131d8576131d861400a565b0160008282546131e89190614124565b909155506131f7905081614036565b9050613158565b506001600160a01b038416600090815261010160209081526040808320868452909152812080546001600160a81b0319168155600181018290556002810182905560038101829055600481018290559061325b6005830182613b36565b613269600683016000613b36565b505050505050565b61106a6133f3565b7f4910fdfa16fed3260ed0e7147f7cc6da11a60208b5b9406d12a635614ffd91435460ff16156132ac5761295483613654565b826001600160a01b03166352d1902d6040518163ffffffff1660e01b815260040160206040518083038186803b1580156132e557600080fd5b505afa925050508015613315575060408051601f3d908101601f191682019092526133129181019061417d565b60015b6133785760405162461bcd60e51b815260206004820152602e60248201527f45524331393637557067726164653a206e657720696d706c656d656e7461746960448201526d6f6e206973206e6f74205555505360901b60648201526084016104c1565b60008051602061428b83398151915281146133e75760405162461bcd60e51b815260206004820152602960248201527f45524331393637557067726164653a20756e737570706f727465642070726f786044820152681a58589b195555525160ba1b60648201526084016104c1565b506129548383836136f0565b6033546001600160a01b0316331461180f5760405162461bcd60e51b815260206004820181905260248201527f4f776e61626c653a2063616c6c6572206973206e6f7420746865206f776e657260448201526064016104c1565b603380546001600160a01b038381166001600160a01b0319831681179093556040519116919082907f8be0079c531659141344cd1fd0a4f28419497f9722a3daafe3b4186f6b6457e090600090a35050565b6001600160a01b0382166134f15780341015610f895760405162461bcd60e51b8152602060048201526011602482015270125b9cdd59999a58da595b9d08119d5b99607a1b60448201526064016104c1565b6040516323b872dd60e01b81526001600160a01b038316906323b872dd9061352190339030908690600401614051565b602060405180830381600087803b15801561353b57600080fd5b505af115801561354f573d6000803e3d6000fd5b505050506040513d601f19601f820116820180604052508101906129549190613f7a565b600054610100900460ff1661359a5760405162461bcd60e51b81526004016104c190614196565b61180f613715565b600054610100900460ff1661180f5760405162461bcd60e51b81526004016104c190614196565b60006135d483613745565b156135ec576135e5838388886137cc565b90506135ef565b50835b613269868286612e41565b6002606554141561364d5760405162461bcd60e51b815260206004820152601f60248201527f5265656e7472616e637947756172643a207265656e7472616e742063616c6c0060448201526064016104c1565b6002606555565b6001600160a01b0381163b6136c15760405162461bcd60e51b815260206004820152602d60248201527f455243313936373a206e657720696d706c656d656e746174696f6e206973206e60448201526c1bdd08184818dbdb9d1c9858dd609a1b60648201526084016104c1565b60008051602061428b83398151915280546001600160a01b0319166001600160a01b0392909216919091179055565b6136f9836138c7565b6000825111806137065750805b1561295457612e858383613907565b600054610100900460ff1661373c5760405162461bcd60e51b81526004016104c190614196565b61180f3361344d565b6040516301ffc9a760e01b815263152a902d60e11b60048201526000906001600160a01b038316906301ffc9a79060240160206040518083038186803b15801561378e57600080fd5b505afa1580156137a2573d6000803e3d6000fd5b505050506040513d601f19601f820116820180604052508101906137c69190613f7a565b92915050565b60405163152a902d60e11b81526004810184905260248101829052600090819081906001600160a01b03881690632a55205a90604401604080518083038186803b15801561381957600080fd5b505afa15801561382d573d6000803e3d6000fd5b505050506040513d601f19601f8201168201806040525081019061385191906141e1565b90925090506138608185614075565b9250801561387357613873858284612e41565b604080516001600160a01b0389168152602081018890529081018290527f7a474f3ea7966b6a336a0169253a863c5bbe817379d3570951736f604adbe2699060600160405180910390a15050949350505050565b6138d081613654565b6040516001600160a01b038216907fbc7cd75a20ee27fd9adebab32041f755214dbc6bffa90cc0225b39da2e5c2d3b90600090a250565b60606001600160a01b0383163b61396f5760405162461bcd60e51b815260206004820152602660248201527f416464726573733a2064656c65676174652063616c6c20746f206e6f6e2d636f6044820152651b9d1c9858dd60d21b60648201526084016104c1565b600080846001600160a01b03168460405161398a919061423b565b600060405180830381855af49150503d80600081146139c5576040519150601f19603f3d011682016040523d82523d6000602084013e6139ca565b606091505b50915091506139f282826040518060600160405280602781526020016142ab602791396139fb565b95945050505050565b60608315613a0a575081613a14565b613a148383613a1b565b9392505050565b815115613a2b5781518083602001fd5b8060405162461bcd60e51b81526004016104c19190614257565b60405180610100016040528060006001600160a01b03168152602001600060ff1681526020016000815260200160008152602001600081526020016000815260200160608152602001606081525090565b828054828255906000526020600020908101928215613aeb579160200282015b82811115613aeb57825182546001600160a01b0319166001600160a01b03909116178255602090920191600190910190613ab6565b50613af7929150613b50565b5090565b828054828255906000526020600020908101928215613aeb579160200282015b82811115613aeb578251825591602001919060010190613b1b565b508054600082559060005260206000209081019061106a91905b5b80821115613af75760008155600101613b51565b6001600160a01b038116811461106a57600080fd5b60008060408385031215613b8d57600080fd5b8235613b9881613b65565b946020939093013593505050565b60008060408385031215613bb957600080fd5b8235613bc481613b65565b91506020830135613bd481613b65565b809150509250929050565b600081518084526020808501945080840160005b83811015613c0f57815187529582019590820190600101613bf3565b509495945050505050565b602081526000613a146020830184613bdf565b600081518084526020808501945080840160005b83811015613c0f5781516001600160a01b031687529582019590820190600101613c41565b600061010060018060a01b03835116845260ff602084015116602085015260408301516040850152606083015160608501526080830151608085015260a083015160a085015260c08301518160c0860152613cc382860182613c2d565b91505060e083015184820360e08601526139f28282613bdf565b604081526000613cf06040830185613c66565b90508260208301529392505050565b803560ff81168114613d1057600080fd5b919050565b60008060408385031215613d2857600080fd5b82359150613d3860208401613cff565b90509250929050565b600060208284031215613d5357600080fd5b8135613a1481613b65565b634e487b7160e01b600052604160045260246000fd5b60008060408385031215613d8757600080fd5b8235613d9281613b65565b9150602083013567ffffffffffffffff80821115613daf57600080fd5b818501915085601f830112613dc357600080fd5b813581811115613dd557613dd5613d5e565b604051601f8201601f19908116603f01168101908382118183101715613dfd57613dfd613d5e565b81604052828152886020848701011115613e1657600080fd5b8260208601602083013760006020848301015280955050505050509250929050565b60008060008060008060c08789031215613e5157600080fd5b8635613e5c81613b65565b955060208701359450613e7160408801613cff565b9350606087013592506080870135915060a087013590509295509295509295565b600080600060608486031215613ea757600080fd5b8335613eb281613b65565b95602085013595506040909401359392505050565b6000604082016040835280855180835260608501915060608160051b8601019250602080880160005b83811015613f1e57605f19888703018552613f0c868351613c66565b95509382019390820190600101613ef0565b5050858403818701525050506139f28185613bdf565b600060208284031215613f4657600080fd5b5035919050565b602080825260139082015272139bc81059191c995cdcc810dbdb9d1c9858dd606a1b604082015260600190565b600060208284031215613f8c57600080fd5b81518015158114613a1457600080fd5b6020808252600c908201526b139bdd0815995c9a599a595960a21b604082015260600190565b6020808252600b908201526a4e6f74204f6e2053616c6560a81b604082015260600190565b60208082526009908201526824b99029b2b63632b960b91b604082015260600190565b634e487b7160e01b600052603260045260246000fd5b634e487b7160e01b600052601160045260246000fd5b600060001982141561404a5761404a614020565b5060010190565b6001600160a01b039384168152919092166020820152604081019190915260600190565b60008282101561408757614087614020565b500390565b6020808252602c908201527f46756e6374696f6e206d7573742062652063616c6c6564207468726f7567682060408201526b19195b1959d85d1958d85b1b60a21b606082015260800190565b6020808252602c908201527f46756e6374696f6e206d7573742062652063616c6c6564207468726f7567682060408201526b6163746976652070726f787960a01b606082015260800190565b6000821982111561413757614137614020565b500190565b600081600019048311821515161561415657614156614020565b500290565b60008261417857634e487b7160e01b600052601260045260246000fd5b500490565b60006020828403121561418f57600080fd5b5051919050565b6020808252602b908201527f496e697469616c697a61626c653a20636f6e7472616374206973206e6f74206960408201526a6e697469616c697a696e6760a81b606082015260800190565b600080604083850312156141f457600080fd5b82516141ff81613b65565b6020939093015192949293505050565b60005b8381101561422a578181015183820152602001614212565b83811115612e855750506000910152565b6000825161424d81846020870161420f565b9190910192915050565b602081526000825180602084015261427681604085016020870161420f565b601f01601f1916919091016040019291505056fe360894a13ba1a3210667c828492db98dca3e2076cc3735a920a3ca505d382bbc416464726573733a206c6f772d6c6576656c2064656c65676174652063616c6c206661696c6564a264697066735822122019b021fa285440758ed71f168e93e05eeb4225b4a021b694afa0b5a2549fe71964736f6c63430008090033",
  "linkReferences": {
    "contracts/libraries/ArrayLibrary.sol": {
      "ArrayLibrary": [
        {
          "length": 20,
          "start": 1881
        },
        {
          "length": 20,
          "start": 2027
        },
        {
          "length": 20,
          "start": 9370
        },
        {
          "length": 20,
          "start": 9516
        },
        {
          "length": 20,
          "start": 12176
        },
        {
          "length": 20,
          "start": 12621
        }
      ]
    }
  },
  "deployedLinkReferences": {
    "contracts/libraries/ArrayLibrary.sol": {
      "ArrayLibrary": [
        {
          "length": 20,
          "start": 1805
        },
        {
          "length": 20,
          "start": 1951
        },
        {
          "length": 20,
          "start": 9294
        },
        {
          "length": 20,
          "start": 9440
        },
        {
          "length": 20,
          "start": 12100
        },
        {
          "length": 20,
          "start": 12545
        }
      ]
    }
  }
}