{
  "_format": "hh-sol-artifact-1",
  "contractName": "NFTPredictionPoolStorageStructure",
  "sourceName": "contracts/mocks/Spark/FPL/FPLPoolStorageStructure.sol",
  "abi": [
    {
      "anonymous": false,
      "inputs": [
        {
          "indexed": false,
          "internalType": "uint8",
          "name": "version",
          "type": "uint8"
        }
      ],
      "name": "Initialized",
      "type": "event"
    },
    {
      "anonymous": false,
      "inputs": [
        {
          "indexed": true,
          "internalType": "address",
          "name": "previousOwner",
          "type": "address"
        },
        {
          "indexed": true,
          "internalType": "address",
          "name": "newOwner",
          "type": "address"
        }
      ],
      "name": "OwnershipTransferred",
      "type": "event"
    },
    {
      "inputs": [],
      "name": "dexDecimal",
      "outputs": [
        {
          "internalType": "uint256",
          "name": "",
          "type": "uint256"
        }
      ],
      "stateMutability": "view",
      "type": "function"
    },
    {
      "inputs": [],
      "name": "erc1155",
      "outputs": [
        {
          "internalType": "uint256",
          "name": "",
          "type": "uint256"
        }
      ],
      "stateMutability": "view",
      "type": "function"
    },
    {
      "inputs": [],
      "name": "erc721",
      "outputs": [
        {
          "internalType": "uint256",
          "name": "",
          "type": "uint256"
        }
      ],
      "stateMutability": "view",
      "type": "function"
    },
    {
      "inputs": [],
      "name": "floorPriceOnMaturity",
      "outputs": [
        {
          "internalType": "uint256",
          "name": "",
          "type": "uint256"
        }
      ],
      "stateMutability": "view",
      "type": "function"
    },
    {
      "inputs": [],
      "name": "isActive",
      "outputs": [
        {
          "internalType": "bool",
          "name": "",
          "type": "bool"
        }
      ],
      "stateMutability": "view",
      "type": "function"
    },
    {
      "inputs": [],
      "name": "isAnEmergency",
      "outputs": [
        {
          "internalType": "bool",
          "name": "",
          "type": "bool"
        }
      ],
      "stateMutability": "view",
      "type": "function"
    },
    {
      "inputs": [],
      "name": "isDeleted",
      "outputs": [
        {
          "internalType": "bool",
          "name": "",
          "type": "bool"
        }
      ],
      "stateMutability": "view",
      "type": "function"
    },
    {
      "inputs": [],
      "name": "isLocked",
      "outputs": [
        {
          "internalType": "bool",
          "name": "",
          "type": "bool"
        }
      ],
      "stateMutability": "view",
      "type": "function"
    },
    {
      "inputs": [],
      "name": "isMatured",
      "outputs": [
        {
          "internalType": "bool",
          "name": "",
          "type": "bool"
        }
      ],
      "stateMutability": "view",
      "type": "function"
    },
    {
      "inputs": [],
      "name": "launchDate",
      "outputs": [
        {
          "internalType": "uint256",
          "name": "",
          "type": "uint256"
        }
      ],
      "stateMutability": "view",
      "type": "function"
    },
    {
      "inputs": [],
      "name": "lockTime",
      "outputs": [
        {
          "internalType": "uint256",
          "name": "",
          "type": "uint256"
        }
      ],
      "stateMutability": "view",
      "type": "function"
    },
    {
      "inputs": [],
      "name": "lps",
      "outputs": [
        {
          "internalType": "uint256",
          "name": "launchDate",
          "type": "uint256"
        },
        {
          "internalType": "uint256",
          "name": "lockTime",
          "type": "uint256"
        },
        {
          "internalType": "uint256",
          "name": "maturityTime",
          "type": "uint256"
        },
        {
          "internalType": "uint256",
          "name": "floorPriceOnMaturity",
          "type": "uint256"
        },
        {
          "internalType": "uint256",
          "name": "prizeAmount",
          "type": "uint256"
        },
        {
          "internalType": "uint256",
          "name": "stakeApr",
          "type": "uint256"
        },
        {
          "internalType": "bool",
          "name": "isMatured",
          "type": "bool"
        }
      ],
      "stateMutability": "view",
      "type": "function"
    },
    {
      "inputs": [],
      "name": "maturityTime",
      "outputs": [
        {
          "internalType": "uint256",
          "name": "",
          "type": "uint256"
        }
      ],
      "stateMutability": "view",
      "type": "function"
    },
    {
      "inputs": [],
      "name": "minimumStakeAmount",
      "outputs": [
        {
          "internalType": "uint256",
          "name": "",
          "type": "uint256"
        }
      ],
      "stateMutability": "view",
      "type": "function"
    },
    {
      "inputs": [],
      "name": "nftCollection",
      "outputs": [
        {
          "internalType": "address",
          "name": "",
          "type": "address"
        }
      ],
      "stateMutability": "view",
      "type": "function"
    },
    {
      "inputs": [],
      "name": "nftPredictionPoolImplementation",
      "outputs": [
        {
          "internalType": "address",
          "name": "",
          "type": "address"
        }
      ],
      "stateMutability": "view",
      "type": "function"
    },
    {
      "inputs": [
        {
          "internalType": "address",
          "name": "",
          "type": "address"
        }
      ],
      "name": "nftRecipients",
      "outputs": [
        {
          "internalType": "bool",
          "name": "isWinner",
          "type": "bool"
        },
        {
          "internalType": "bool",
          "name": "isUSDPaid",
          "type": "bool"
        },
        {
          "internalType": "uint256",
          "name": "nftID",
          "type": "uint256"
        }
      ],
      "stateMutability": "view",
      "type": "function"
    },
    {
      "inputs": [],
      "name": "nftToken",
      "outputs": [
        {
          "internalType": "address",
          "name": "",
          "type": "address"
        }
      ],
      "stateMutability": "view",
      "type": "function"
    },
    {
      "inputs": [],
      "name": "nftType",
      "outputs": [
        {
          "internalType": "uint256",
          "name": "",
          "type": "uint256"
        }
      ],
      "stateMutability": "view",
      "type": "function"
    },
    {
      "inputs": [
        {
          "internalType": "address",
          "name": "",
          "type": "address"
        },
        {
          "internalType": "address",
          "name": "",
          "type": "address"
        },
        {
          "internalType": "uint256[]",
          "name": "",
          "type": "uint256[]"
        },
        {
          "internalType": "uint256[]",
          "name": "",
          "type": "uint256[]"
        },
        {
          "internalType": "bytes",
          "name": "",
          "type": "bytes"
        }
      ],
      "name": "onERC1155BatchReceived",
      "outputs": [
        {
          "internalType": "bytes4",
          "name": "",
          "type": "bytes4"
        }
      ],
      "stateMutability": "nonpayable",
      "type": "function"
    },
    {
      "inputs": [
        {
          "internalType": "address",
          "name": "",
          "type": "address"
        },
        {
          "internalType": "address",
          "name": "",
          "type": "address"
        },
        {
          "internalType": "uint256",
          "name": "",
          "type": "uint256"
        },
        {
          "internalType": "uint256",
          "name": "",
          "type": "uint256"
        },
        {
          "internalType": "bytes",
          "name": "",
          "type": "bytes"
        }
      ],
      "name": "onERC1155Received",
      "outputs": [
        {
          "internalType": "bytes4",
          "name": "",
          "type": "bytes4"
        }
      ],
      "stateMutability": "nonpayable",
      "type": "function"
    },
    {
      "inputs": [
        {
          "internalType": "address",
          "name": "",
          "type": "address"
        },
        {
          "internalType": "address",
          "name": "",
          "type": "address"
        },
        {
          "internalType": "uint256",
          "name": "",
          "type": "uint256"
        },
        {
          "internalType": "bytes",
          "name": "",
          "type": "bytes"
        }
      ],
      "name": "onERC721Received",
      "outputs": [
        {
          "internalType": "bytes4",
          "name": "",
          "type": "bytes4"
        }
      ],
      "stateMutability": "nonpayable",
      "type": "function"
    },
    {
      "inputs": [],
      "name": "owner",
      "outputs": [
        {
          "internalType": "address",
          "name": "",
          "type": "address"
        }
      ],
      "stateMutability": "view",
      "type": "function"
    },
    {
      "inputs": [],
      "name": "poolCreator",
      "outputs": [
        {
          "internalType": "address",
          "name": "",
          "type": "address"
        }
      ],
      "stateMutability": "view",
      "type": "function"
    },
    {
      "inputs": [],
      "name": "poolType",
      "outputs": [
        {
          "internalType": "string",
          "name": "",
          "type": "string"
        }
      ],
      "stateMutability": "view",
      "type": "function"
    },
    {
      "inputs": [],
      "name": "predictionNumberContract",
      "outputs": [
        {
          "internalType": "contract IPredictionNumber",
          "name": "",
          "type": "address"
        }
      ],
      "stateMutability": "view",
      "type": "function"
    },
    {
      "inputs": [
        {
          "internalType": "address",
          "name": "",
          "type": "address"
        }
      ],
      "name": "predictions",
      "outputs": [
        {
          "internalType": "uint256",
          "name": "stakedBalance",
          "type": "uint256"
        },
        {
          "internalType": "uint256",
          "name": "stakedTime",
          "type": "uint256"
        },
        {
          "internalType": "uint256",
          "name": "amountWithdrawn",
          "type": "uint256"
        },
        {
          "internalType": "uint256",
          "name": "lastWithdrawalTime",
          "type": "uint256"
        },
        {
          "internalType": "uint256",
          "name": "difference",
          "type": "uint256"
        },
        {
          "internalType": "uint256",
          "name": "rank",
          "type": "uint256"
        },
        {
          "internalType": "bool",
          "name": "didPrizeWithdrawn",
          "type": "bool"
        },
        {
          "internalType": "bool",
          "name": "didUnstake",
          "type": "bool"
        }
      ],
      "stateMutability": "view",
      "type": "function"
    },
    {
      "inputs": [],
      "name": "priceCurrency",
      "outputs": [
        {
          "internalType": "string",
          "name": "",
          "type": "string"
        }
      ],
      "stateMutability": "view",
      "type": "function"
    },
    {
      "inputs": [],
      "name": "prizeAmount",
      "outputs": [
        {
          "internalType": "uint256",
          "name": "",
          "type": "uint256"
        }
      ],
      "stateMutability": "view",
      "type": "function"
    },
    {
      "inputs": [
        {
          "internalType": "uint256",
          "name": "",
          "type": "uint256"
        }
      ],
      "name": "prizeRewardRates",
      "outputs": [
        {
          "internalType": "uint256",
          "name": "rank",
          "type": "uint256"
        },
        {
          "internalType": "uint256",
          "name": "percentage",
          "type": "uint256"
        }
      ],
      "stateMutability": "view",
      "type": "function"
    },
    {
      "inputs": [],
      "name": "purchaseExpirationTime",
      "outputs": [
        {
          "internalType": "uint256",
          "name": "",
          "type": "uint256"
        }
      ],
      "stateMutability": "view",
      "type": "function"
    },
    {
      "inputs": [],
      "name": "purchasePriceInUSD",
      "outputs": [
        {
          "internalType": "uint256",
          "name": "",
          "type": "uint256"
        }
      ],
      "stateMutability": "view",
      "type": "function"
    },
    {
      "inputs": [],
      "name": "renounceOwnership",
      "outputs": [],
      "stateMutability": "nonpayable",
      "type": "function"
    },
    {
      "inputs": [],
      "name": "rewardManager",
      "outputs": [
        {
          "internalType": "contract IRewardManager",
          "name": "",
          "type": "address"
        }
      ],
      "stateMutability": "view",
      "type": "function"
    },
    {
      "inputs": [],
      "name": "sizeAllocation",
      "outputs": [
        {
          "internalType": "uint256",
          "name": "",
          "type": "uint256"
        }
      ],
      "stateMutability": "view",
      "type": "function"
    },
    {
      "inputs": [],
      "name": "sizeLimitRangeRate",
      "outputs": [
        {
          "internalType": "uint256",
          "name": "",
          "type": "uint256"
        }
      ],
      "stateMutability": "view",
      "type": "function"
    },
    {
      "inputs": [],
      "name": "sparksToken",
      "outputs": [
        {
          "internalType": "contract ISparksToken",
          "name": "",
          "type": "address"
        }
      ],
      "stateMutability": "view",
      "type": "function"
    },
    {
      "inputs": [],
      "name": "stakeApr",
      "outputs": [
        {
          "internalType": "uint256",
          "name": "",
          "type": "uint256"
        }
      ],
      "stateMutability": "view",
      "type": "function"
    },
    {
      "inputs": [],
      "name": "stakeTaxRate",
      "outputs": [
        {
          "internalType": "uint256",
          "name": "",
          "type": "uint256"
        }
      ],
      "stateMutability": "view",
      "type": "function"
    },
    {
      "inputs": [
        {
          "internalType": "uint256",
          "name": "",
          "type": "uint256"
        }
      ],
      "name": "stakers",
      "outputs": [
        {
          "internalType": "address",
          "name": "",
          "type": "address"
        }
      ],
      "stateMutability": "view",
      "type": "function"
    },
    {
      "inputs": [
        {
          "internalType": "bytes4",
          "name": "interfaceId",
          "type": "bytes4"
        }
      ],
      "name": "supportsInterface",
      "outputs": [
        {
          "internalType": "bool",
          "name": "",
          "type": "bool"
        }
      ],
      "stateMutability": "view",
      "type": "function"
    },
    {
      "inputs": [],
      "name": "tier1",
      "outputs": [
        {
          "internalType": "uint256",
          "name": "",
          "type": "uint256"
        }
      ],
      "stateMutability": "view",
      "type": "function"
    },
    {
      "inputs": [],
      "name": "tier2",
      "outputs": [
        {
          "internalType": "uint256",
          "name": "",
          "type": "uint256"
        }
      ],
      "stateMutability": "view",
      "type": "function"
    },
    {
      "inputs": [],
      "name": "tier3",
      "outputs": [
        {
          "internalType": "uint256",
          "name": "",
          "type": "uint256"
        }
      ],
      "stateMutability": "view",
      "type": "function"
    },
    {
      "inputs": [],
      "name": "totalStaked",
      "outputs": [
        {
          "internalType": "uint256",
          "name": "",
          "type": "uint256"
        }
      ],
      "stateMutability": "view",
      "type": "function"
    },
    {
      "inputs": [
        {
          "internalType": "address",
          "name": "newOwner",
          "type": "address"
        }
      ],
      "name": "transferOwnership",
      "outputs": [],
      "stateMutability": "nonpayable",
      "type": "function"
    },
    {
      "inputs": [],
      "name": "upgradeEnabled",
      "outputs": [
        {
          "internalType": "bool",
          "name": "",
          "type": "bool"
        }
      ],
      "stateMutability": "view",
      "type": "function"
    },
    {
      "inputs": [],
      "name": "usdStorage",
      "outputs": [
        {
          "internalType": "address",
          "name": "",
          "type": "address"
        }
      ],
      "stateMutability": "view",
      "type": "function"
    },
    {
      "inputs": [],
      "name": "usdToken",
      "outputs": [
        {
          "internalType": "contract IERC20",
          "name": "",
          "type": "address"
        }
      ],
      "stateMutability": "view",
      "type": "function"
    },
    {
      "inputs": [
        {
          "internalType": "uint256",
          "name": "",
          "type": "uint256"
        }
      ],
      "name": "winnerStakers",
      "outputs": [
        {
          "internalType": "address",
          "name": "",
          "type": "address"
        }
      ],
      "stateMutability": "view",
      "type": "function"
    }
  ],
  "bytecode": "0x608060405234801561001057600080fd5b50610dd7806100206000396000f3fe608060405234801561001057600080fd5b50600436106102d65760003560e01c80638cf0e21e11610182578063ce61df16116100e9578063f1b17a8b116100a2578063f6bb97a81161007c578063f6bb97a814610728578063f897a22b1461073b578063f8eeed621461074e578063fd5e6dd11461075757600080fd5b8063f1b17a8b146106ce578063f23a6e61146106f6578063f2fde38b1461071557600080fd5b8063ce61df1614610630578063d06fcba814610638578063d4a26b491461064b578063d56022d714610654578063d7efb6b71461065d578063e08186691461067257600080fd5b8063b1dd61b61161013b578063b1dd61b6146105ca578063bb6b13a1146105d2578063bc197c81146105e2578063bca6ce6414610601578063becab27d1461060a578063c6c1decd1461061d57600080fd5b80638cf0e21e146105715780638da5cb5b1461058757806395c2ba4714610598578063a08b2c79146105a1578063a4e2d634146105ae578063aa7bcb57146105c157600080fd5b80633806153e116102415780636847d0c5116101fa578063715018a6116101d4578063715018a614610541578063785fa6271461054b5780637f2b6a0d14610554578063817b1cd21461056857600080fd5b80636847d0c5146105265780636b036f451461052f5780636fac889b1461053857600080fd5b80633806153e146104cc578063473a5fd3146104dd5780634b1740ad146104e65780634e8bfdaa146104f757806351eacbf0146105005780636588103b1461050957600080fd5b80631f54b8fb116102935780631f54b8fb146103a457806322f3e2d4146103ad578063234b4ecd146103bf5780632d461e4e146103d25780632fa7c4f0146103e557806335fa61fa1461043657600080fd5b806301ffc9a7146102db5780630bdc77b8146103035780630d668087146103185780630f4ef8a61461032f578063150b7a021461035a5780631d7152a214610391575b600080fd5b6102ee6102e93660046109e2565b61076a565b60405190151581526020015b60405180910390f35b61030b6107a1565b6040516102fa9190610a13565b610321607d5481565b6040519081526020016102fa565b607454610342906001600160a01b031681565b6040516001600160a01b0390911681526020016102fa565b610378610368366004610b3b565b630a85bd0160e11b949350505050565b6040516001600160e01b031990911681526020016102fa565b607554610342906001600160a01b031681565b61032160865481565b6088546102ee90610100900460ff1681565b607854610342906001600160a01b031681565b607354610342906001600160a01b031681565b6104196103f3366004610ba3565b6072602052600090815260409020805460019091015460ff808316926101009004169083565b6040805193151584529115156020840152908201526060016102fa565b61048d610444366004610ba3565b6071602052600090815260409020805460018201546002830154600384015460058501546006860154600790960154949593949293919290919060ff8082169161010090041688565b604080519889526020890197909752958701949094526060860192909252608085015260a0840152151560c0830152151560e0820152610100016102fa565b61032169065a4da25d3016c0000081565b610321607f5481565b610321691fc3842bd1f071c0000081565b610321607e5481565b61032160805481565b60885461034290660100000000000090046001600160a01b031681565b61032160835481565b61032160845481565b61032160795481565b61054961082f565b005b61032160825481565b6088546102ee906301000000900460ff1681565b61032160855481565b6088546102ee9065010000000000900460ff1681565b6033546001600160a01b0316610342565b6103216101f481565b6088546102ee9060ff1681565b6088546102ee9062010000900460ff1681565b61032160815481565b61030b610843565b61032168a2a15d09519be0000081565b6103786105f0366004610c3e565b63bc197c8160e01b95945050505050565b6103216102d181565b606554610342906001600160a01b031681565b606654610342906001600160a01b031681565b610321600881565b607754610342906001600160a01b031681565b61032160875481565b61032161048381565b6088546102ee90640100000000900460ff1681565b606754606854606954606a54606b54606c54606d546106979695949392919060ff1687565b604080519788526020880196909652948601939093526060850191909152608084015260a0830152151560c082015260e0016102fa565b6106e16106dc366004610ce8565b610850565b604080519283526020830191909152016102fa565b610378610704366004610d01565b63f23a6e6160e01b95945050505050565b610549610723366004610ba3565b61087e565b610342610736366004610ce8565b6108fc565b607654610342906001600160a01b031681565b610321607c5481565b610342610765366004610ce8565b610926565b60006001600160e01b03198216630271189760e51b148061079b57506301ffc9a760e01b6001600160e01b03198316145b92915050565b607b80546107ae90610d66565b80601f01602080910402602001604051908101604052809291908181526020018280546107da90610d66565b80156108275780601f106107fc57610100808354040283529160200191610827565b820191906000526020600020905b81548152906001019060200180831161080a57829003601f168201915b505050505081565b610837610936565b6108416000610990565b565b607a80546107ae90610d66565b6070818154811061086057600080fd5b60009182526020909120600290910201805460019091015490915082565b610886610936565b6001600160a01b0381166108f05760405162461bcd60e51b815260206004820152602660248201527f4f776e61626c653a206e6577206f776e657220697320746865207a65726f206160448201526564647265737360d01b60648201526084015b60405180910390fd5b6108f981610990565b50565b606f818154811061090c57600080fd5b6000918252602090912001546001600160a01b0316905081565b606e818154811061090c57600080fd5b6033546001600160a01b031633146108415760405162461bcd60e51b815260206004820181905260248201527f4f776e61626c653a2063616c6c6572206973206e6f7420746865206f776e657260448201526064016108e7565b603380546001600160a01b038381166001600160a01b0319831681179093556040519116919082907f8be0079c531659141344cd1fd0a4f28419497f9722a3daafe3b4186f6b6457e090600090a35050565b6000602082840312156109f457600080fd5b81356001600160e01b031981168114610a0c57600080fd5b9392505050565b600060208083528351808285015260005b81811015610a4057858101830151858201604001528201610a24565b81811115610a52576000604083870101525b50601f01601f1916929092016040019392505050565b80356001600160a01b0381168114610a7f57600080fd5b919050565b634e487b7160e01b600052604160045260246000fd5b604051601f8201601f1916810167ffffffffffffffff81118282101715610ac357610ac3610a84565b604052919050565b600082601f830112610adc57600080fd5b813567ffffffffffffffff811115610af657610af6610a84565b610b09601f8201601f1916602001610a9a565b818152846020838601011115610b1e57600080fd5b816020850160208301376000918101602001919091529392505050565b60008060008060808587031215610b5157600080fd5b610b5a85610a68565b9350610b6860208601610a68565b925060408501359150606085013567ffffffffffffffff811115610b8b57600080fd5b610b9787828801610acb565b91505092959194509250565b600060208284031215610bb557600080fd5b610a0c82610a68565b600082601f830112610bcf57600080fd5b8135602067ffffffffffffffff821115610beb57610beb610a84565b8160051b610bfa828201610a9a565b9283528481018201928281019087851115610c1457600080fd5b83870192505b84831015610c3357823582529183019190830190610c1a565b979650505050505050565b600080600080600060a08688031215610c5657600080fd5b610c5f86610a68565b9450610c6d60208701610a68565b9350604086013567ffffffffffffffff80821115610c8a57600080fd5b610c9689838a01610bbe565b94506060880135915080821115610cac57600080fd5b610cb889838a01610bbe565b93506080880135915080821115610cce57600080fd5b50610cdb88828901610acb565b9150509295509295909350565b600060208284031215610cfa57600080fd5b5035919050565b600080600080600060a08688031215610d1957600080fd5b610d2286610a68565b9450610d3060208701610a68565b93506040860135925060608601359150608086013567ffffffffffffffff811115610d5a57600080fd5b610cdb88828901610acb565b600181811c90821680610d7a57607f821691505b60208210811415610d9b57634e487b7160e01b600052602260045260246000fd5b5091905056fea26469706673582212205a889a4aa7fbac5285af3a9074a65d87f5752930d22b160c16c6114229bdb4b664736f6c63430008090033",
  "linkReferences": {},
  "deployedLinkReferences": {}
}