{
  "_format": "hh-sol-artifact-1",
  "contractName": "Rewarder",
  "sourceName": "contracts/mocks/Spark/Role/Rewarder.sol",
  "abi": [
    {
      "inputs": [],
      "stateMutability": "nonpayable",
      "type": "constructor"
    },
    {
      "anonymous": false,
      "inputs": [
        {
          "indexed": true,
          "internalType": "address",
          "name": "account",
          "type": "address"
        }
      ],
      "name": "RewarderAdded",
      "type": "event"
    },
    {
      "anonymous": false,
      "inputs": [
        {
          "indexed": true,
          "internalType": "address",
          "name": "account",
          "type": "address"
        }
      ],
      "name": "RewarderRemoved",
      "type": "event"
    },
    {
      "inputs": [
        {
          "internalType": "address",
          "name": "account",
          "type": "address"
        }
      ],
      "name": "addRewarder",
      "outputs": [],
      "stateMutability": "nonpayable",
      "type": "function"
    },
    {
      "inputs": [
        {
          "internalType": "address",
          "name": "account",
          "type": "address"
        }
      ],
      "name": "isRewarder",
      "outputs": [
        {
          "internalType": "bool",
          "name": "",
          "type": "bool"
        }
      ],
      "stateMutability": "view",
      "type": "function"
    },
    {
      "inputs": [],
      "name": "renounceRewarder",
      "outputs": [],
      "stateMutability": "nonpayable",
      "type": "function"
    }
  ],
  "bytecode": "0x608060405234801561001057600080fd5b5061001a3361002c565b610027576100273361004c565b61019f565b600061004682600061009b60201b61012a1790919060201c565b92915050565b61006481600061012360201b6101ad1790919060201c565b6040516001600160a01b038216907f9dfd431959d2d3358e3eb909555ad574123ea5881ff0e05a80f66d4984710c1b90600090a250565b60006001600160a01b0382166101035760405162461bcd60e51b815260206004820152602260248201527f526f6c65733a206163636f756e7420697320746865207a65726f206164647265604482015261737360f01b60648201526084015b60405180910390fd5b506001600160a01b03166000908152602091909152604090205460ff1690565b61012d828261009b565b1561017a5760405162461bcd60e51b815260206004820152601f60248201527f526f6c65733a206163636f756e7420616c72656164792068617320726f6c650060448201526064016100fa565b6001600160a01b0316600090815260209190915260409020805460ff19166001179055565b610395806101ae6000396000f3fe608060405234801561001057600080fd5b50600436106100415760003560e01c806340cc85181461004657806356d3590b146100505780638e478cab14610063575b600080fd5b61004e61008a565b005b61004e61005e36600461032f565b610095565b61007661007136600461032f565b610118565b604051901515815260200160405180910390f35b61009333610229565b565b61009e33610118565b61010c5760405162461bcd60e51b815260206004820152603460248201527f5265776172646572526f6c653a2063616c6c657220646f6573206e6f7420686160448201527376652074686520526577617264657220726f6c6560601b60648201526084015b60405180910390fd5b6101158161026b565b50565b6000610124818361012a565b92915050565b60006001600160a01b03821661018d5760405162461bcd60e51b815260206004820152602260248201527f526f6c65733a206163636f756e7420697320746865207a65726f206164647265604482015261737360f01b6064820152608401610103565b506001600160a01b03166000908152602091909152604090205460ff1690565b6101b7828261012a565b156102045760405162461bcd60e51b815260206004820152601f60248201527f526f6c65733a206163636f756e7420616c72656164792068617320726f6c65006044820152606401610103565b6001600160a01b0316600090815260209190915260409020805460ff19166001179055565b6102346000826102ad565b6040516001600160a01b038216907fce699c579f0b70ea4ccd6a4b38be26726a2c248b89c7102ccbc5d0f3060ef6d090600090a250565b6102766000826101ad565b6040516001600160a01b038216907f9dfd431959d2d3358e3eb909555ad574123ea5881ff0e05a80f66d4984710c1b90600090a250565b6102b7828261012a565b61030d5760405162461bcd60e51b815260206004820152602160248201527f526f6c65733a206163636f756e7420646f6573206e6f74206861766520726f6c6044820152606560f81b6064820152608401610103565b6001600160a01b0316600090815260209190915260409020805460ff19169055565b60006020828403121561034157600080fd5b81356001600160a01b038116811461035857600080fd5b939250505056fea264697066735822122064d163a3687c56d6133eabd1943a4c9db0cacb5e85a2346ecd16c25971a482d464736f6c63430008090033",
  "linkReferences": {},
  "deployedLinkReferences": {}
}