{
  "_format": "hh-sol-artifact-1",
  "contractName": "SparksToken",
  "sourceName": "contracts/mocks/Spark/Token/SparksToken.sol",
  "abi": [
    {
      "inputs": [],
      "stateMutability": "nonpayable",
      "type": "constructor"
    },
    {
      "anonymous": false,
      "inputs": [
        {
          "indexed": true,
          "internalType": "address",
          "name": "owner",
          "type": "address"
        },
        {
          "indexed": true,
          "internalType": "address",
          "name": "spender",
          "type": "address"
        },
        {
          "indexed": false,
          "internalType": "uint256",
          "name": "value",
          "type": "uint256"
        }
      ],
      "name": "Approval",
      "type": "event"
    },
    {
      "anonymous": false,
      "inputs": [
        {
          "indexed": true,
          "internalType": "address",
          "name": "previousOwner",
          "type": "address"
        },
        {
          "indexed": true,
          "internalType": "address",
          "name": "newOwner",
          "type": "address"
        }
      ],
      "name": "OwnershipTransferred",
      "type": "event"
    },
    {
      "anonymous": false,
      "inputs": [
        {
          "indexed": true,
          "internalType": "address",
          "name": "locker",
          "type": "address"
        }
      ],
      "name": "SetLocker",
      "type": "event"
    },
    {
      "anonymous": false,
      "inputs": [
        {
          "indexed": true,
          "internalType": "address",
          "name": "from",
          "type": "address"
        },
        {
          "indexed": true,
          "internalType": "address",
          "name": "to",
          "type": "address"
        },
        {
          "indexed": false,
          "internalType": "uint256",
          "name": "value",
          "type": "uint256"
        }
      ],
      "name": "Transfer",
      "type": "event"
    },
    {
      "inputs": [],
      "name": "AIR_DROP",
      "outputs": [
        {
          "internalType": "uint256",
          "name": "",
          "type": "uint256"
        }
      ],
      "stateMutability": "view",
      "type": "function"
    },
    {
      "inputs": [],
      "name": "AirDropAddr",
      "outputs": [
        {
          "internalType": "address",
          "name": "",
          "type": "address"
        }
      ],
      "stateMutability": "view",
      "type": "function"
    },
    {
      "inputs": [],
      "name": "COMMUNITY_DEVELOPMENT",
      "outputs": [
        {
          "internalType": "uint256",
          "name": "",
          "type": "uint256"
        }
      ],
      "stateMutability": "view",
      "type": "function"
    },
    {
      "inputs": [],
      "name": "CommunityDevelopmentAddr",
      "outputs": [
        {
          "internalType": "address",
          "name": "",
          "type": "address"
        }
      ],
      "stateMutability": "view",
      "type": "function"
    },
    {
      "inputs": [],
      "name": "DECIMALS",
      "outputs": [
        {
          "internalType": "uint8",
          "name": "",
          "type": "uint8"
        }
      ],
      "stateMutability": "view",
      "type": "function"
    },
    {
      "inputs": [],
      "name": "INITIAL_SUPPLY",
      "outputs": [
        {
          "internalType": "uint256",
          "name": "",
          "type": "uint256"
        }
      ],
      "stateMutability": "view",
      "type": "function"
    },
    {
      "inputs": [],
      "name": "LIQUIDITY_POOL",
      "outputs": [
        {
          "internalType": "uint256",
          "name": "",
          "type": "uint256"
        }
      ],
      "stateMutability": "view",
      "type": "function"
    },
    {
      "inputs": [],
      "name": "LiquidityPoolAddr",
      "outputs": [
        {
          "internalType": "address",
          "name": "",
          "type": "address"
        }
      ],
      "stateMutability": "view",
      "type": "function"
    },
    {
      "inputs": [],
      "name": "MARKETING_DEVELOPMENT",
      "outputs": [
        {
          "internalType": "uint256",
          "name": "",
          "type": "uint256"
        }
      ],
      "stateMutability": "view",
      "type": "function"
    },
    {
      "inputs": [],
      "name": "MarketingDevelopmentAddr",
      "outputs": [
        {
          "internalType": "address",
          "name": "",
          "type": "address"
        }
      ],
      "stateMutability": "view",
      "type": "function"
    },
    {
      "inputs": [],
      "name": "NAME",
      "outputs": [
        {
          "internalType": "string",
          "name": "",
          "type": "string"
        }
      ],
      "stateMutability": "view",
      "type": "function"
    },
    {
      "inputs": [],
      "name": "PRIVATE_SALE",
      "outputs": [
        {
          "internalType": "uint256",
          "name": "",
          "type": "uint256"
        }
      ],
      "stateMutability": "view",
      "type": "function"
    },
    {
      "inputs": [],
      "name": "PUBLIC_SALE",
      "outputs": [
        {
          "internalType": "uint256",
          "name": "",
          "type": "uint256"
        }
      ],
      "stateMutability": "view",
      "type": "function"
    },
    {
      "inputs": [],
      "name": "PrivateSaleAddr",
      "outputs": [
        {
          "internalType": "address",
          "name": "",
          "type": "address"
        }
      ],
      "stateMutability": "view",
      "type": "function"
    },
    {
      "inputs": [],
      "name": "PublicSaleAddr",
      "outputs": [
        {
          "internalType": "address",
          "name": "",
          "type": "address"
        }
      ],
      "stateMutability": "view",
      "type": "function"
    },
    {
      "inputs": [],
      "name": "SEED_INVESTMENT",
      "outputs": [
        {
          "internalType": "uint256",
          "name": "",
          "type": "uint256"
        }
      ],
      "stateMutability": "view",
      "type": "function"
    },
    {
      "inputs": [],
      "name": "STAKING_REWARDS",
      "outputs": [
        {
          "internalType": "uint256",
          "name": "",
          "type": "uint256"
        }
      ],
      "stateMutability": "view",
      "type": "function"
    },
    {
      "inputs": [],
      "name": "STRATEGIC_ROUND",
      "outputs": [
        {
          "internalType": "uint256",
          "name": "",
          "type": "uint256"
        }
      ],
      "stateMutability": "view",
      "type": "function"
    },
    {
      "inputs": [],
      "name": "SYMBOL",
      "outputs": [
        {
          "internalType": "string",
          "name": "",
          "type": "string"
        }
      ],
      "stateMutability": "view",
      "type": "function"
    },
    {
      "inputs": [],
      "name": "SeedInvestmentAddr",
      "outputs": [
        {
          "internalType": "address",
          "name": "",
          "type": "address"
        }
      ],
      "stateMutability": "view",
      "type": "function"
    },
    {
      "inputs": [],
      "name": "StakingRewardsAddr",
      "outputs": [
        {
          "internalType": "address",
          "name": "",
          "type": "address"
        }
      ],
      "stateMutability": "view",
      "type": "function"
    },
    {
      "inputs": [],
      "name": "StrategicRoundAddr",
      "outputs": [
        {
          "internalType": "address",
          "name": "",
          "type": "address"
        }
      ],
      "stateMutability": "view",
      "type": "function"
    },
    {
      "inputs": [],
      "name": "TEAM_ALLOCATION",
      "outputs": [
        {
          "internalType": "uint256",
          "name": "",
          "type": "uint256"
        }
      ],
      "stateMutability": "view",
      "type": "function"
    },
    {
      "inputs": [],
      "name": "TeamAllocationAddr",
      "outputs": [
        {
          "internalType": "address",
          "name": "",
          "type": "address"
        }
      ],
      "stateMutability": "view",
      "type": "function"
    },
    {
      "inputs": [
        {
          "internalType": "address",
          "name": "owner",
          "type": "address"
        },
        {
          "internalType": "address",
          "name": "spender",
          "type": "address"
        }
      ],
      "name": "allowance",
      "outputs": [
        {
          "internalType": "uint256",
          "name": "",
          "type": "uint256"
        }
      ],
      "stateMutability": "view",
      "type": "function"
    },
    {
      "inputs": [
        {
          "internalType": "address",
          "name": "spender",
          "type": "address"
        },
        {
          "internalType": "uint256",
          "name": "amount",
          "type": "uint256"
        }
      ],
      "name": "approve",
      "outputs": [
        {
          "internalType": "bool",
          "name": "",
          "type": "bool"
        }
      ],
      "stateMutability": "nonpayable",
      "type": "function"
    },
    {
      "inputs": [
        {
          "internalType": "address",
          "name": "account",
          "type": "address"
        }
      ],
      "name": "balanceOf",
      "outputs": [
        {
          "internalType": "uint256",
          "name": "",
          "type": "uint256"
        }
      ],
      "stateMutability": "view",
      "type": "function"
    },
    {
      "inputs": [],
      "name": "decimals",
      "outputs": [
        {
          "internalType": "uint8",
          "name": "",
          "type": "uint8"
        }
      ],
      "stateMutability": "view",
      "type": "function"
    },
    {
      "inputs": [
        {
          "internalType": "address",
          "name": "spender",
          "type": "address"
        },
        {
          "internalType": "uint256",
          "name": "subtractedValue",
          "type": "uint256"
        }
      ],
      "name": "decreaseAllowance",
      "outputs": [
        {
          "internalType": "bool",
          "name": "",
          "type": "bool"
        }
      ],
      "stateMutability": "nonpayable",
      "type": "function"
    },
    {
      "inputs": [],
      "name": "distributeTokens",
      "outputs": [],
      "stateMutability": "nonpayable",
      "type": "function"
    },
    {
      "inputs": [],
      "name": "getTaxationWallet",
      "outputs": [
        {
          "internalType": "address",
          "name": "",
          "type": "address"
        }
      ],
      "stateMutability": "view",
      "type": "function"
    },
    {
      "inputs": [
        {
          "internalType": "address",
          "name": "spender",
          "type": "address"
        },
        {
          "internalType": "uint256",
          "name": "addedValue",
          "type": "uint256"
        }
      ],
      "name": "increaseAllowance",
      "outputs": [
        {
          "internalType": "bool",
          "name": "",
          "type": "bool"
        }
      ],
      "stateMutability": "nonpayable",
      "type": "function"
    },
    {
      "inputs": [],
      "name": "locker",
      "outputs": [
        {
          "internalType": "contract ILocker",
          "name": "",
          "type": "address"
        }
      ],
      "stateMutability": "view",
      "type": "function"
    },
    {
      "inputs": [],
      "name": "name",
      "outputs": [
        {
          "internalType": "string",
          "name": "",
          "type": "string"
        }
      ],
      "stateMutability": "view",
      "type": "function"
    },
    {
      "inputs": [],
      "name": "owner",
      "outputs": [
        {
          "internalType": "address",
          "name": "",
          "type": "address"
        }
      ],
      "stateMutability": "view",
      "type": "function"
    },
    {
      "inputs": [],
      "name": "renounceOwnership",
      "outputs": [],
      "stateMutability": "nonpayable",
      "type": "function"
    },
    {
      "inputs": [
        {
          "internalType": "address",
          "name": "_SeedInvestmentAddr",
          "type": "address"
        },
        {
          "internalType": "address",
          "name": "_StrategicRoundAddr",
          "type": "address"
        },
        {
          "internalType": "address",
          "name": "_PrivateSaleAddr",
          "type": "address"
        },
        {
          "internalType": "address",
          "name": "_PublicSaleAddr",
          "type": "address"
        },
        {
          "internalType": "address",
          "name": "_TeamAllocationAddr",
          "type": "address"
        },
        {
          "internalType": "address",
          "name": "_StakingRewardsAddr",
          "type": "address"
        },
        {
          "internalType": "address",
          "name": "_CommunityDevelopmentAddr",
          "type": "address"
        },
        {
          "internalType": "address",
          "name": "_MarketingDevelopmentAddr",
          "type": "address"
        },
        {
          "internalType": "address",
          "name": "_LiquidityPoolAddr",
          "type": "address"
        },
        {
          "internalType": "address",
          "name": "_AirDropAddr",
          "type": "address"
        }
      ],
      "name": "setDistributionTeamsAddresses",
      "outputs": [],
      "stateMutability": "nonpayable",
      "type": "function"
    },
    {
      "inputs": [
        {
          "internalType": "address",
          "name": "_locker",
          "type": "address"
        }
      ],
      "name": "setLocker",
      "outputs": [],
      "stateMutability": "nonpayable",
      "type": "function"
    },
    {
      "inputs": [
        {
          "internalType": "address",
          "name": "_newTaxationWallet",
          "type": "address"
        }
      ],
      "name": "setTaxationWallet",
      "outputs": [],
      "stateMutability": "nonpayable",
      "type": "function"
    },
    {
      "inputs": [],
      "name": "symbol",
      "outputs": [
        {
          "internalType": "string",
          "name": "",
          "type": "string"
        }
      ],
      "stateMutability": "view",
      "type": "function"
    },
    {
      "inputs": [],
      "name": "taxationWallet",
      "outputs": [
        {
          "internalType": "address",
          "name": "",
          "type": "address"
        }
      ],
      "stateMutability": "view",
      "type": "function"
    },
    {
      "inputs": [],
      "name": "totalSupply",
      "outputs": [
        {
          "internalType": "uint256",
          "name": "",
          "type": "uint256"
        }
      ],
      "stateMutability": "view",
      "type": "function"
    },
    {
      "inputs": [
        {
          "internalType": "address",
          "name": "to",
          "type": "address"
        },
        {
          "internalType": "uint256",
          "name": "amount",
          "type": "uint256"
        }
      ],
      "name": "transfer",
      "outputs": [
        {
          "internalType": "bool",
          "name": "",
          "type": "bool"
        }
      ],
      "stateMutability": "nonpayable",
      "type": "function"
    },
    {
      "inputs": [
        {
          "internalType": "address",
          "name": "from",
          "type": "address"
        },
        {
          "internalType": "address",
          "name": "to",
          "type": "address"
        },
        {
          "internalType": "uint256",
          "name": "amount",
          "type": "uint256"
        }
      ],
      "name": "transferFrom",
      "outputs": [
        {
          "internalType": "bool",
          "name": "",
          "type": "bool"
        }
      ],
      "stateMutability": "nonpayable",
      "type": "function"
    },
    {
      "inputs": [
        {
          "internalType": "address",
          "name": "newOwner",
          "type": "address"
        }
      ],
      "name": "transferOwnership",
      "outputs": [],
      "stateMutability": "nonpayable",
      "type": "function"
    }
  ],
  "bytecode": "0x60806040526010805460ff60a01b191690553480156200001e57600080fd5b5060408051808201825260118152702a37ba32b69029b830b935902a37b5b2b760791b6020808301918252835180850190945260058452640a6a082a4b60db1b9084015281519192916200007591600391620001f3565b5080516200008b906004906020840190620001f3565b505050620000a8620000a2620000d760201b60201c565b620000db565b620000d130620000bb6012600a620003ae565b620000cb9063135f1b40620003c3565b6200012d565b6200043d565b3390565b600580546001600160a01b038381166001600160a01b0319831681179093556040519116919082907f8be0079c531659141344cd1fd0a4f28419497f9722a3daafe3b4186f6b6457e090600090a35050565b6001600160a01b038216620001885760405162461bcd60e51b815260206004820152601f60248201527f45524332303a206d696e7420746f20746865207a65726f206164647265737300604482015260640160405180910390fd5b80600260008282546200019c9190620003e5565b90915550506001600160a01b038216600081815260208181526040808320805486019055518481527fddf252ad1be2c89b69c2b068fc378daa952ba7f163c4a11628f55a4df523b3ef910160405180910390a35050565b828054620002019062000400565b90600052602060002090601f01602090048101928262000225576000855562000270565b82601f106200024057805160ff191683800117855562000270565b8280016001018555821562000270579182015b828111156200027057825182559160200191906001019062000253565b506200027e92915062000282565b5090565b5b808211156200027e576000815560010162000283565b634e487b7160e01b600052601160045260246000fd5b600181815b80851115620002f0578160001904821115620002d457620002d462000299565b80851615620002e257918102915b93841c9390800290620002b4565b509250929050565b6000826200030957506001620003a8565b816200031857506000620003a8565b81600181146200033157600281146200033c576200035c565b6001915050620003a8565b60ff84111562000350576200035062000299565b50506001821b620003a8565b5060208310610133831016604e8410600b841016171562000381575081810a620003a8565b6200038d8383620002af565b8060001904821115620003a457620003a462000299565b0290505b92915050565b6000620003bc8383620002f8565b9392505050565b6000816000190483118215151615620003e057620003e062000299565b500290565b60008219821115620003fb57620003fb62000299565b500190565b600181811c908216806200041557607f821691505b602082108114156200043757634e487b7160e01b600052602260045260246000fd5b50919050565b61156f806200044d6000396000f3fe608060405234801561001057600080fd5b506004361061027f5760003560e01c806357b6fd921161015c5780639d51606d116100ce578063d7b96d4e11610087578063d7b96d4e1461053b578063dd62ed3e1461054e578063e77207831461045f578063f2fde38b14610561578063f76f8d7814610574578063fd99cbed1461059857600080fd5b80639d51606d146104ae578063a3f4df7e146104c1578063a457c2d7146104f1578063a7cceda414610504578063a9059cbb14610517578063ce1ce7721461052a57600080fd5b80638da5cb5b116101205780638da5cb5b1461046757806393b23dce1461047857806395d89b411461048b57806398c83a161461045f57806398f70100146104935780639ab1b484146104a657600080fd5b806357b6fd921461041e5780635f89584e1461042657806370a082311461042e578063715018a614610457578063842460a51461045f57600080fd5b806323b872dd116101f55780632ff2e9dc116101b95780632ff2e9dc146103ce578063313ce567146103d6578063337e4ece146103dd57806339509351146103f057806345f38dbb146104035780634a5db0a91461040b57600080fd5b806323b872dd1461037357806328e2f9971461038657806329470766146103995780632cca9dfd146103ac5780632e0f2625146103b457600080fd5b806311a5e59f1161024757806311a5e59f1461030a578063124a0b1c1461031d57806314b3830e14610330578063171060ec1461034557806318160ddd146103585780631f48847b1461036057600080fd5b806302f73b2b1461028457806306f2d2231461029f57806306fdde03146102ca57806307bce0cd146102df578063095ea7b3146102e7575b600080fd5b61028c6105a0565b6040519081526020015b60405180910390f35b600b546102b2906001600160a01b031681565b6040516001600160a01b039091168152602001610296565b6102d26105bd565b60405161029691906111a8565b61028c61064f565b6102fa6102f5366004611219565b610669565b6040519015158152602001610296565b600f546102b2906001600160a01b031681565b600e546102b2906001600160a01b031681565b61034361033e366004611243565b610683565b005b6103436103533660046112fd565b61081a565b60025461028c565b6007546102b2906001600160a01b031681565b6102fa61038136600461131f565b6108c7565b6103436103943660046112fd565b6108eb565b600a546102b2906001600160a01b031681565b61028c610915565b6103bc601281565b60405160ff9091168152602001610296565b61028c61092e565b60126103bc565b600c546102b2906001600160a01b031681565b6102fa6103fe366004611219565b610948565b61028c61096a565b6010546102b2906001600160a01b031681565b61028c610984565b61028c61099e565b61028c61043c3660046112fd565b6001600160a01b031660009081526020819052604090205490565b6103436109b7565b61028c6109cb565b6005546001600160a01b03166102b2565b6009546102b2906001600160a01b031681565b6102d26109e5565b6008546102b2906001600160a01b031681565b6103436109f4565b6006546102b2906001600160a01b031681565b6102d2604051806040016040528060118152602001702a37ba32b69029b830b935902a37b5b2b760791b81525081565b6102fa6104ff366004611219565b610bc9565b600d546102b2906001600160a01b031681565b6102fa610525366004611219565b610c44565b600a546001600160a01b03166102b2565b6011546102b2906001600160a01b031681565b61028c61055c36600461135b565b610c52565b61034361056f3660046112fd565b610c7d565b6102d2604051806040016040528060058152602001640a6a082a4b60db1b81525081565b61028c610cf6565b6105ac6012600a611488565b6105ba9063026be368611494565b81565b6060600380546105cc906114b3565b80601f01602080910402602001604051908101604052809291908181526020018280546105f8906114b3565b80156106455780601f1061061a57610100808354040283529160200191610645565b820191906000526020600020905b81548152906001019060200180831161062857829003601f168201915b5050505050905090565b61065b6012600a611488565b6105ba906303dfd240611494565b600033610677818585610d10565b60019150505b92915050565b61068b610e34565b601054600160a01b900460ff16156106a257600080fd5b6001600160a01b038a166106b557600080fd5b6001600160a01b0389166106c857600080fd5b6001600160a01b0388166106db57600080fd5b6001600160a01b0387166106ee57600080fd5b6001600160a01b03861661070157600080fd5b6001600160a01b03851661071457600080fd5b6001600160a01b03841661072757600080fd5b6001600160a01b03831661073a57600080fd5b6001600160a01b03821661074d57600080fd5b6001600160a01b03811661076057600080fd5b600680546001600160a01b03199081166001600160a01b039c8d16179091556007805482169a8c169a909a17909955600880548a16988b1698909817909755600980548916968a1696909617909555600a805488169489169485179055600b8054881693891693909317909255600c80548716918816919091179055600d80548616918716919091179055600e8054851692861692909217909155600f805484169290941691909117909255601080549091169091179055565b610822610e34565b6001600160a01b03811661087d5760405162461bcd60e51b815260206004820152601c60248201527f5f6c6f636b65722063616e6e6f7420626520616464726573732830290000000060448201526064015b60405180910390fd5b601180546001600160a01b0319166001600160a01b0383169081179091556040517f2ad3bcdfc9b535ec0e163460ef3e0b8015fca3aa8e9cc778ca27876a07bd282790600090a250565b6000336108d5858285610e8e565b6108e0858585610f08565b506001949350505050565b6108f3610e34565b601080546001600160a01b0319166001600160a01b0392909216919091179055565b6109216012600a611488565b6105ba9062f7f490611494565b61093a6012600a611488565b6105ba9063135f1b40611494565b60003361067781858561095b8383610c52565b61096591906114ee565b610d10565b6109766012600a611488565b6105ba906301298be0611494565b6109906012600a611488565b6105ba906302e7ddb0611494565b6109aa6012600a611488565b6105ba9062b9f76c611494565b6109bf610e34565b6109c96000610fb2565b565b6109d76012600a611488565b6105ba906301efe920611494565b6060600480546105cc906114b3565b6109fc610e34565b601054600160a01b900460ff1615610a1357600080fd5b600654610a449030906001600160a01b0316610a316012600a611488565b610a3f906301298be0611494565b610f08565b600754610a709030906001600160a01b0316610a626012600a611488565b610a3f906301efe920611494565b600854610a8e9030906001600160a01b0316610a626012600a611488565b600954610ab99030906001600160a01b0316610aac6012600a611488565b610a3f9062b9f76c611494565b600a8054610ae79130916001600160a01b031690610ad990601290611488565b610a3f9063018054ac611494565b600b54610b139030906001600160a01b0316610b056012600a611488565b610a3f906303dfd240611494565b600c54610b3f9030906001600160a01b0316610b316012600a611488565b610a3f9063026be368611494565b600d54610b6b9030906001600160a01b0316610b5d6012600a611488565b610a3f906302e7ddb0611494565b600e54610b969030906001600160a01b0316610b896012600a611488565b610a3f9062f7f490611494565b600f54610bb49030906001600160a01b0316610a626012600a611488565b6010805460ff60a01b1916600160a01b179055565b60003381610bd78286610c52565b905083811015610c375760405162461bcd60e51b815260206004820152602560248201527f45524332303a2064656372656173656420616c6c6f77616e63652062656c6f77604482015264207a65726f60d81b6064820152608401610874565b6108e08286868403610d10565b600033610677818585610f08565b6001600160a01b03918216600090815260016020908152604080832093909416825291909152205490565b610c85610e34565b6001600160a01b038116610cea5760405162461bcd60e51b815260206004820152602660248201527f4f776e61626c653a206e6577206f776e657220697320746865207a65726f206160448201526564647265737360d01b6064820152608401610874565b610cf381610fb2565b50565b610d026012600a611488565b6105ba9063018054ac611494565b6001600160a01b038316610d725760405162461bcd60e51b8152602060048201526024808201527f45524332303a20617070726f76652066726f6d20746865207a65726f206164646044820152637265737360e01b6064820152608401610874565b6001600160a01b038216610dd35760405162461bcd60e51b815260206004820152602260248201527f45524332303a20617070726f766520746f20746865207a65726f206164647265604482015261737360f01b6064820152608401610874565b6001600160a01b0383811660008181526001602090815260408083209487168084529482529182902085905590518481527f8c5be1e5ebec7d5bd14f71427d1e84f3dd0314c0f7b2291e5b200ac8c7c3b925910160405180910390a3505050565b6005546001600160a01b031633146109c95760405162461bcd60e51b815260206004820181905260248201527f4f776e61626c653a2063616c6c6572206973206e6f7420746865206f776e65726044820152606401610874565b6000610e9a8484610c52565b90506000198114610f025781811015610ef55760405162461bcd60e51b815260206004820152601d60248201527f45524332303a20696e73756666696369656e7420616c6c6f77616e63650000006044820152606401610874565b610f028484848403610d10565b50505050565b6011546001600160a01b031615610fa25760115460405163aa61a9dd60e01b81526001600160a01b03858116600483015284811660248301529091169063aa61a9dd906044016040805180830381600087803b158015610f6757600080fd5b505af1158015610f7b573d6000803e3d6000fd5b505050506040513d601f19601f82011682018060405250810190610f9f9190611506565b50505b610fad838383611004565b505050565b600580546001600160a01b038381166001600160a01b0319831681179093556040519116919082907f8be0079c531659141344cd1fd0a4f28419497f9722a3daafe3b4186f6b6457e090600090a35050565b6001600160a01b0383166110685760405162461bcd60e51b815260206004820152602560248201527f45524332303a207472616e736665722066726f6d20746865207a65726f206164604482015264647265737360d81b6064820152608401610874565b6001600160a01b0382166110ca5760405162461bcd60e51b815260206004820152602360248201527f45524332303a207472616e7366657220746f20746865207a65726f206164647260448201526265737360e81b6064820152608401610874565b6001600160a01b038316600090815260208190526040902054818110156111425760405162461bcd60e51b815260206004820152602660248201527f45524332303a207472616e7366657220616d6f756e7420657863656564732062604482015265616c616e636560d01b6064820152608401610874565b6001600160a01b03848116600081815260208181526040808320878703905593871680835291849020805487019055925185815290927fddf252ad1be2c89b69c2b068fc378daa952ba7f163c4a11628f55a4df523b3ef910160405180910390a3610f02565b600060208083528351808285015260005b818110156111d5578581018301518582016040015282016111b9565b818111156111e7576000604083870101525b50601f01601f1916929092016040019392505050565b80356001600160a01b038116811461121457600080fd5b919050565b6000806040838503121561122c57600080fd5b611235836111fd565b946020939093013593505050565b6000806000806000806000806000806101408b8d03121561126357600080fd5b61126c8b6111fd565b995061127a60208c016111fd565b985061128860408c016111fd565b975061129660608c016111fd565b96506112a460808c016111fd565b95506112b260a08c016111fd565b94506112c060c08c016111fd565b93506112ce60e08c016111fd565b92506112dd6101008c016111fd565b91506112ec6101208c016111fd565b90509295989b9194979a5092959850565b60006020828403121561130f57600080fd5b611318826111fd565b9392505050565b60008060006060848603121561133457600080fd5b61133d846111fd565b925061134b602085016111fd565b9150604084013590509250925092565b6000806040838503121561136e57600080fd5b611377836111fd565b9150611385602084016111fd565b90509250929050565b634e487b7160e01b600052601160045260246000fd5b600181815b808511156113df5781600019048211156113c5576113c561138e565b808516156113d257918102915b93841c93908002906113a9565b509250929050565b6000826113f65750600161067d565b816114035750600061067d565b816001811461141957600281146114235761143f565b600191505061067d565b60ff8411156114345761143461138e565b50506001821b61067d565b5060208310610133831016604e8410600b8410161715611462575081810a61067d565b61146c83836113a4565b80600019048211156114805761148061138e565b029392505050565b600061131883836113e7565b60008160001904831182151516156114ae576114ae61138e565b500290565b600181811c908216806114c757607f821691505b602082108114156114e857634e487b7160e01b600052602260045260246000fd5b50919050565b600082198211156115015761150161138e565b500190565b6000806040838503121561151957600080fd5b8251801515811461152957600080fd5b602093909301519294929350505056fea2646970667358221220c6213659b4dc159f4e5927ba1456436531029ddade368bf9bd90cabb2aeba74f64736f6c63430008090033",
  "linkReferences": {},
  "deployedLinkReferences": {}
}