{
  "_format": "hh-sol-artifact-1",
  "contractName": "Custom721",
  "sourceName": "contracts/mocks/Custom721.sol",
  "abi": [
    {
      "inputs": [
        {
          "internalType": "string",
          "name": "name",
          "type": "string"
        },
        {
          "internalType": "string",
          "name": "symbol",
          "type": "string"
        },
        {
          "internalType": "address",
          "name": "proxy",
          "type": "address"
        }
      ],
      "stateMutability": "nonpayable",
      "type": "constructor"
    },
    {
      "anonymous": false,
      "inputs": [
        {
          "indexed": true,
          "internalType": "address",
          "name": "owner",
          "type": "address"
        },
        {
          "indexed": true,
          "internalType": "address",
          "name": "approved",
          "type": "address"
        },
        {
          "indexed": true,
          "internalType": "uint256",
          "name": "tokenId",
          "type": "uint256"
        }
      ],
      "name": "Approval",
      "type": "event"
    },
    {
      "anonymous": false,
      "inputs": [
        {
          "indexed": true,
          "internalType": "address",
          "name": "owner",
          "type": "address"
        },
        {
          "indexed": true,
          "internalType": "address",
          "name": "operator",
          "type": "address"
        },
        {
          "indexed": false,
          "internalType": "bool",
          "name": "approved",
          "type": "bool"
        }
      ],
      "name": "ApprovalForAll",
      "type": "event"
    },
    {
      "anonymous": false,
      "inputs": [
        {
          "indexed": true,
          "internalType": "address",
          "name": "from",
          "type": "address"
        },
        {
          "indexed": true,
          "internalType": "address",
          "name": "to",
          "type": "address"
        },
        {
          "indexed": true,
          "internalType": "uint256",
          "name": "tokenId",
          "type": "uint256"
        }
      ],
      "name": "Transfer",
      "type": "event"
    },
    {
      "inputs": [
        {
          "internalType": "address",
          "name": "to",
          "type": "address"
        },
        {
          "internalType": "uint256",
          "name": "tokenId",
          "type": "uint256"
        }
      ],
      "name": "approve",
      "outputs": [],
      "stateMutability": "nonpayable",
      "type": "function"
    },
    {
      "inputs": [
        {
          "internalType": "address",
          "name": "owner",
          "type": "address"
        }
      ],
      "name": "balanceOf",
      "outputs": [
        {
          "internalType": "uint256",
          "name": "",
          "type": "uint256"
        }
      ],
      "stateMutability": "view",
      "type": "function"
    },
    {
      "inputs": [
        {
          "internalType": "uint256",
          "name": "tokenId",
          "type": "uint256"
        }
      ],
      "name": "getApproved",
      "outputs": [
        {
          "internalType": "address",
          "name": "",
          "type": "address"
        }
      ],
      "stateMutability": "view",
      "type": "function"
    },
    {
      "inputs": [
        {
          "internalType": "address",
          "name": "_owner",
          "type": "address"
        },
        {
          "internalType": "address",
          "name": "_operator",
          "type": "address"
        }
      ],
      "name": "isApprovedForAll",
      "outputs": [
        {
          "internalType": "bool",
          "name": "",
          "type": "bool"
        }
      ],
      "stateMutability": "view",
      "type": "function"
    },
    {
      "inputs": [
        {
          "internalType": "string",
          "name": "uri",
          "type": "string"
        },
        {
          "internalType": "uint256",
          "name": "cnt",
          "type": "uint256"
        }
      ],
      "name": "mint",
      "outputs": [],
      "stateMutability": "nonpayable",
      "type": "function"
    },
    {
      "inputs": [],
      "name": "name",
      "outputs": [
        {
          "internalType": "string",
          "name": "",
          "type": "string"
        }
      ],
      "stateMutability": "view",
      "type": "function"
    },
    {
      "inputs": [
        {
          "internalType": "uint256",
          "name": "tokenId",
          "type": "uint256"
        }
      ],
      "name": "ownerOf",
      "outputs": [
        {
          "internalType": "address",
          "name": "",
          "type": "address"
        }
      ],
      "stateMutability": "view",
      "type": "function"
    },
    {
      "inputs": [
        {
          "internalType": "address",
          "name": "from",
          "type": "address"
        },
        {
          "internalType": "address",
          "name": "to",
          "type": "address"
        },
        {
          "internalType": "uint256",
          "name": "tokenId",
          "type": "uint256"
        }
      ],
      "name": "safeTransferFrom",
      "outputs": [],
      "stateMutability": "nonpayable",
      "type": "function"
    },
    {
      "inputs": [
        {
          "internalType": "address",
          "name": "from",
          "type": "address"
        },
        {
          "internalType": "address",
          "name": "to",
          "type": "address"
        },
        {
          "internalType": "uint256",
          "name": "tokenId",
          "type": "uint256"
        },
        {
          "internalType": "bytes",
          "name": "data",
          "type": "bytes"
        }
      ],
      "name": "safeTransferFrom",
      "outputs": [],
      "stateMutability": "nonpayable",
      "type": "function"
    },
    {
      "inputs": [
        {
          "internalType": "address",
          "name": "operator",
          "type": "address"
        },
        {
          "internalType": "bool",
          "name": "approved",
          "type": "bool"
        }
      ],
      "name": "setApprovalForAll",
      "outputs": [],
      "stateMutability": "nonpayable",
      "type": "function"
    },
    {
      "inputs": [
        {
          "internalType": "bytes4",
          "name": "interfaceId",
          "type": "bytes4"
        }
      ],
      "name": "supportsInterface",
      "outputs": [
        {
          "internalType": "bool",
          "name": "",
          "type": "bool"
        }
      ],
      "stateMutability": "view",
      "type": "function"
    },
    {
      "inputs": [],
      "name": "symbol",
      "outputs": [
        {
          "internalType": "string",
          "name": "",
          "type": "string"
        }
      ],
      "stateMutability": "view",
      "type": "function"
    },
    {
      "inputs": [
        {
          "internalType": "uint256",
          "name": "index",
          "type": "uint256"
        }
      ],
      "name": "tokenByIndex",
      "outputs": [
        {
          "internalType": "uint256",
          "name": "",
          "type": "uint256"
        }
      ],
      "stateMutability": "view",
      "type": "function"
    },
    {
      "inputs": [
        {
          "internalType": "address",
          "name": "owner",
          "type": "address"
        },
        {
          "internalType": "uint256",
          "name": "index",
          "type": "uint256"
        }
      ],
      "name": "tokenOfOwnerByIndex",
      "outputs": [
        {
          "internalType": "uint256",
          "name": "",
          "type": "uint256"
        }
      ],
      "stateMutability": "view",
      "type": "function"
    },
    {
      "inputs": [
        {
          "internalType": "uint256",
          "name": "tokenId",
          "type": "uint256"
        }
      ],
      "name": "tokenURI",
      "outputs": [
        {
          "internalType": "string",
          "name": "",
          "type": "string"
        }
      ],
      "stateMutability": "view",
      "type": "function"
    },
    {
      "inputs": [],
      "name": "totalMinted",
      "outputs": [
        {
          "internalType": "uint256",
          "name": "",
          "type": "uint256"
        }
      ],
      "stateMutability": "view",
      "type": "function"
    },
    {
      "inputs": [],
      "name": "totalSupply",
      "outputs": [
        {
          "internalType": "uint256",
          "name": "",
          "type": "uint256"
        }
      ],
      "stateMutability": "view",
      "type": "function"
    },
    {
      "inputs": [
        {
          "internalType": "address",
          "name": "from",
          "type": "address"
        },
        {
          "internalType": "address",
          "name": "to",
          "type": "address"
        },
        {
          "internalType": "uint256",
          "name": "tokenId",
          "type": "uint256"
        }
      ],
      "name": "transferFrom",
      "outputs": [],
      "stateMutability": "nonpayable",
      "type": "function"
    }
  ],
  "bytecode": "0x60806040523480156200001157600080fd5b5060405162001c4938038062001c49833981016040819052620000349162000203565b8251839083906200004d90600090602085019062000090565b5080516200006390600190602084019062000090565b5050600c80546001600160a01b0319166001600160a01b03939093169290921790915550620002cd915050565b8280546200009e9062000290565b90600052602060002090601f016020900481019282620000c257600085556200010d565b82601f10620000dd57805160ff19168380011785556200010d565b828001600101855582156200010d579182015b828111156200010d578251825591602001919060010190620000f0565b506200011b9291506200011f565b5090565b5b808211156200011b576000815560010162000120565b634e487b7160e01b600052604160045260246000fd5b600082601f8301126200015e57600080fd5b81516001600160401b03808211156200017b576200017b62000136565b604051601f8301601f19908116603f01168101908282118183101715620001a657620001a662000136565b81604052838152602092508683858801011115620001c357600080fd5b600091505b83821015620001e75785820183015181830184015290820190620001c8565b83821115620001f95760008385830101525b9695505050505050565b6000806000606084860312156200021957600080fd5b83516001600160401b03808211156200023157600080fd5b6200023f878388016200014c565b945060208601519150808211156200025657600080fd5b5062000265868287016200014c565b604086015190935090506001600160a01b03811681146200028557600080fd5b809150509250925092565b600181811c90821680620002a557607f821691505b60208210811415620002c757634e487b7160e01b600052602260045260246000fd5b50919050565b61196c80620002dd6000396000f3fe608060405234801561001057600080fd5b50600436106101165760003560e01c80634f6ccce7116100a2578063a22cb46511610071578063a22cb46514610237578063a2309ff81461024a578063b88d4fde14610253578063c87b56dd14610266578063e985e9c51461027957600080fd5b80634f6ccce7146101f65780636352211e1461020957806370a082311461021c57806395d89b411461022f57600080fd5b8063095ea7b3116100e9578063095ea7b31461019857806318160ddd146101ab57806323b872dd146101bd5780632f745c59146101d057806342842e0e146101e357600080fd5b806301ffc9a71461011b578063056b01ce1461014357806306fdde0314610158578063081812fc1461016d575b600080fd5b61012e610129366004611408565b61028c565b60405190151581526020015b60405180910390f35b6101566101513660046114b1565b6102b7565b005b610160610317565b60405161013a9190611557565b61018061017b36600461156a565b6103a9565b6040516001600160a01b03909116815260200161013a565b6101566101a636600461159f565b6103d0565b6008545b60405190815260200161013a565b6101566101cb3660046115c9565b6104e6565b6101af6101de36600461159f565b610517565b6101566101f13660046115c9565b6105ad565b6101af61020436600461156a565b6105c8565b61018061021736600461156a565b61065b565b6101af61022a366004611605565b6106bb565b610160610741565b61015661024536600461162e565b610750565b6101af600a5481565b610156610261366004611665565b61075f565b61016061027436600461156a565b610797565b61012e6102873660046116e1565b610839565b60006001600160e01b0319821663780e9d6360e01b14806102b157506102b18261087c565b92915050565b60005b81811015610312576102df33600a600081546102d59061172a565b91829055506108cc565b600a546000908152600b60209081526040909120845161030192860190611359565b5061030b8161172a565b90506102ba565b505050565b60606000805461032690611745565b80601f016020809104026020016040519081016040528092919081815260200182805461035290611745565b801561039f5780601f106103745761010080835404028352916020019161039f565b820191906000526020600020905b81548152906001019060200180831161038257829003601f168201915b5050505050905090565b60006103b4826108e6565b506000908152600460205260409020546001600160a01b031690565b60006103db8261065b565b9050806001600160a01b0316836001600160a01b0316141561044e5760405162461bcd60e51b815260206004820152602160248201527f4552433732313a20617070726f76616c20746f2063757272656e74206f776e656044820152603960f91b60648201526084015b60405180910390fd5b336001600160a01b038216148061046a575061046a8133610839565b6104dc5760405162461bcd60e51b815260206004820152603d60248201527f4552433732313a20617070726f76652063616c6c6572206973206e6f7420746f60448201527f6b656e206f776e6572206f7220617070726f76656420666f7220616c6c0000006064820152608401610445565b6103128383610948565b6104f033826109b6565b61050c5760405162461bcd60e51b815260040161044590611780565b610312838383610a15565b6000610522836106bb565b82106105845760405162461bcd60e51b815260206004820152602b60248201527f455243373231456e756d657261626c653a206f776e657220696e646578206f7560448201526a74206f6620626f756e647360a81b6064820152608401610445565b506001600160a01b03919091166000908152600660209081526040808320938352929052205490565b6103128383836040518060200160405280600081525061075f565b60006105d360085490565b82106106365760405162461bcd60e51b815260206004820152602c60248201527f455243373231456e756d657261626c653a20676c6f62616c20696e646578206f60448201526b7574206f6620626f756e647360a01b6064820152608401610445565b60088281548110610649576106496117cd565b90600052602060002001549050919050565b6000818152600260205260408120546001600160a01b0316806102b15760405162461bcd60e51b8152602060048201526018602482015277115490cdcc8c4e881a5b9d985b1a59081d1bdad95b88125160421b6044820152606401610445565b60006001600160a01b0382166107255760405162461bcd60e51b815260206004820152602960248201527f4552433732313a2061646472657373207a65726f206973206e6f7420612076616044820152683634b21037bbb732b960b91b6064820152608401610445565b506001600160a01b031660009081526003602052604090205490565b60606001805461032690611745565b61075b338383610b86565b5050565b61076933836109b6565b6107855760405162461bcd60e51b815260040161044590611780565b61079184848484610c55565b50505050565b6000818152600b602052604090208054606091906107b490611745565b80601f01602080910402602001604051908101604052809291908181526020018280546107e090611745565b801561082d5780601f106108025761010080835404028352916020019161082d565b820191906000526020600020905b81548152906001019060200180831161081057829003601f168201915b50505050509050919050565b60006108458383610c88565b8061087557506001600160a01b0380841660009081526005602090815260408083209386168352929052205460ff165b9392505050565b60006001600160e01b031982166380ac58cd60e01b14806108ad57506001600160e01b03198216635b5e139f60e01b145b806102b157506301ffc9a760e01b6001600160e01b03198316146102b1565b61075b828260405180602001604052806000815250610d28565b6000818152600260205260409020546001600160a01b03166109455760405162461bcd60e51b8152602060048201526018602482015277115490cdcc8c4e881a5b9d985b1a59081d1bdad95b88125160421b6044820152606401610445565b50565b600081815260046020526040902080546001600160a01b0319166001600160a01b038416908117909155819061097d8261065b565b6001600160a01b03167f8c5be1e5ebec7d5bd14f71427d1e84f3dd0314c0f7b2291e5b200ac8c7c3b92560405160405180910390a45050565b6000806109c28361065b565b9050806001600160a01b0316846001600160a01b031614806109e957506109e98185610839565b80610a0d5750836001600160a01b0316610a02846103a9565b6001600160a01b0316145b949350505050565b826001600160a01b0316610a288261065b565b6001600160a01b031614610a4e5760405162461bcd60e51b8152600401610445906117e3565b6001600160a01b038216610ab05760405162461bcd60e51b8152602060048201526024808201527f4552433732313a207472616e7366657220746f20746865207a65726f206164646044820152637265737360e01b6064820152608401610445565b610abd8383836001610d5b565b826001600160a01b0316610ad08261065b565b6001600160a01b031614610af65760405162461bcd60e51b8152600401610445906117e3565b600081815260046020908152604080832080546001600160a01b03199081169091556001600160a01b0387811680865260038552838620805460001901905590871680865283862080546001019055868652600290945282852080549092168417909155905184937fddf252ad1be2c89b69c2b068fc378daa952ba7f163c4a11628f55a4df523b3ef91a4505050565b816001600160a01b0316836001600160a01b03161415610be85760405162461bcd60e51b815260206004820152601960248201527f4552433732313a20617070726f766520746f2063616c6c6572000000000000006044820152606401610445565b6001600160a01b03838116600081815260056020908152604080832094871680845294825291829020805460ff191686151590811790915591519182527f17307eab39ab6107e8899845ad3d59bd9653f200f220920489ca2b5937696c31910160405180910390a3505050565b610c60848484610a15565b610c6c84848484610e9b565b6107915760405162461bcd60e51b815260040161044590611828565b600c546000906001600160a01b0316610ca3575060006102b1565b600c546040516336d42e9b60e01b81526001600160a01b0385811660048301528481166024830152909116906336d42e9b9060440160206040518083038186803b158015610cf057600080fd5b505afa158015610d04573d6000803e3d6000fd5b505050506040513d601f19601f82011682018060405250810190610875919061187a565b610d328383610fa8565b610d3f6000848484610e9b565b6103125760405162461bcd60e51b815260040161044590611828565b610d6784848484611141565b6001811115610dd65760405162461bcd60e51b815260206004820152603560248201527f455243373231456e756d657261626c653a20636f6e7365637574697665207472604482015274185b9cd9995c9cc81b9bdd081cdd5c1c1bdc9d1959605a1b6064820152608401610445565b816001600160a01b038516610e3257610e2d81600880546000838152600960205260408120829055600182018355919091527ff3f7a9fe364faab93b216da50a3214154f22a0a2b415b23a84c8169e8b636ee30155565b610e55565b836001600160a01b0316856001600160a01b031614610e5557610e5585826111c9565b6001600160a01b038416610e7157610e6c81611266565b610e94565b846001600160a01b0316846001600160a01b031614610e9457610e948482611315565b5050505050565b60006001600160a01b0384163b15610f9d57604051630a85bd0160e11b81526001600160a01b0385169063150b7a0290610edf903390899088908890600401611897565b602060405180830381600087803b158015610ef957600080fd5b505af1925050508015610f29575060408051601f3d908101601f19168201909252610f26918101906118d4565b60015b610f83573d808015610f57576040519150601f19603f3d011682016040523d82523d6000602084013e610f5c565b606091505b508051610f7b5760405162461bcd60e51b815260040161044590611828565b805181602001fd5b6001600160e01b031916630a85bd0160e11b149050610a0d565b506001949350505050565b6001600160a01b038216610ffe5760405162461bcd60e51b815260206004820181905260248201527f4552433732313a206d696e7420746f20746865207a65726f20616464726573736044820152606401610445565b6000818152600260205260409020546001600160a01b0316156110635760405162461bcd60e51b815260206004820152601c60248201527f4552433732313a20746f6b656e20616c7265616479206d696e746564000000006044820152606401610445565b611071600083836001610d5b565b6000818152600260205260409020546001600160a01b0316156110d65760405162461bcd60e51b815260206004820152601c60248201527f4552433732313a20746f6b656e20616c7265616479206d696e746564000000006044820152606401610445565b6001600160a01b038216600081815260036020908152604080832080546001019055848352600290915280822080546001600160a01b0319168417905551839291907fddf252ad1be2c89b69c2b068fc378daa952ba7f163c4a11628f55a4df523b3ef908290a45050565b6001811115610791576001600160a01b03841615611187576001600160a01b038416600090815260036020526040812080548392906111819084906118f1565b90915550505b6001600160a01b03831615610791576001600160a01b038316600090815260036020526040812080548392906111be908490611908565b909155505050505050565b600060016111d6846106bb565b6111e091906118f1565b600083815260076020526040902054909150808214611233576001600160a01b03841660009081526006602090815260408083208584528252808320548484528184208190558352600790915290208190555b5060009182526007602090815260408084208490556001600160a01b039094168352600681528383209183525290812055565b600854600090611278906001906118f1565b600083815260096020526040812054600880549394509092849081106112a0576112a06117cd565b9060005260206000200154905080600883815481106112c1576112c16117cd565b60009182526020808320909101929092558281526009909152604080822084905585825281205560088054806112f9576112f9611920565b6001900381819060005260206000200160009055905550505050565b6000611320836106bb565b6001600160a01b039093166000908152600660209081526040808320868452825280832085905593825260079052919091209190915550565b82805461136590611745565b90600052602060002090601f01602090048101928261138757600085556113cd565b82601f106113a057805160ff19168380011785556113cd565b828001600101855582156113cd579182015b828111156113cd5782518255916020019190600101906113b2565b506113d99291506113dd565b5090565b5b808211156113d957600081556001016113de565b6001600160e01b03198116811461094557600080fd5b60006020828403121561141a57600080fd5b8135610875816113f2565b634e487b7160e01b600052604160045260246000fd5b600067ffffffffffffffff8084111561145657611456611425565b604051601f8501601f19908116603f0116810190828211818310171561147e5761147e611425565b8160405280935085815286868601111561149757600080fd5b858560208301376000602087830101525050509392505050565b600080604083850312156114c457600080fd5b823567ffffffffffffffff8111156114db57600080fd5b8301601f810185136114ec57600080fd5b6114fb8582356020840161143b565b95602094909401359450505050565b6000815180845260005b8181101561153057602081850181015186830182015201611514565b81811115611542576000602083870101525b50601f01601f19169290920160200192915050565b602081526000610875602083018461150a565b60006020828403121561157c57600080fd5b5035919050565b80356001600160a01b038116811461159a57600080fd5b919050565b600080604083850312156115b257600080fd5b6115bb83611583565b946020939093013593505050565b6000806000606084860312156115de57600080fd5b6115e784611583565b92506115f560208501611583565b9150604084013590509250925092565b60006020828403121561161757600080fd5b61087582611583565b801515811461094557600080fd5b6000806040838503121561164157600080fd5b61164a83611583565b9150602083013561165a81611620565b809150509250929050565b6000806000806080858703121561167b57600080fd5b61168485611583565b935061169260208601611583565b925060408501359150606085013567ffffffffffffffff8111156116b557600080fd5b8501601f810187136116c657600080fd5b6116d58782356020840161143b565b91505092959194509250565b600080604083850312156116f457600080fd5b6116fd83611583565b915061170b60208401611583565b90509250929050565b634e487b7160e01b600052601160045260246000fd5b600060001982141561173e5761173e611714565b5060010190565b600181811c9082168061175957607f821691505b6020821081141561177a57634e487b7160e01b600052602260045260246000fd5b50919050565b6020808252602d908201527f4552433732313a2063616c6c6572206973206e6f7420746f6b656e206f776e6560408201526c1c881bdc88185c1c1c9bdd9959609a1b606082015260800190565b634e487b7160e01b600052603260045260246000fd5b60208082526025908201527f4552433732313a207472616e736665722066726f6d20696e636f72726563742060408201526437bbb732b960d91b606082015260800190565b60208082526032908201527f4552433732313a207472616e7366657220746f206e6f6e20455243373231526560408201527131b2b4bb32b91034b6b83632b6b2b73a32b960711b606082015260800190565b60006020828403121561188c57600080fd5b815161087581611620565b6001600160a01b03858116825284166020820152604081018390526080606082018190526000906118ca9083018461150a565b9695505050505050565b6000602082840312156118e657600080fd5b8151610875816113f2565b60008282101561190357611903611714565b500390565b6000821982111561191b5761191b611714565b500190565b634e487b7160e01b600052603160045260246000fdfea2646970667358221220886ece4d40f6f13c47374d88c65b9b4e85561fd5d810daab5811f985df2e98f664736f6c63430008090033",
  "linkReferences": {},
  "deployedLinkReferences": {}
}